:1000000068FBFF1F49E9010093A20000FFA2000066
:100010003FAB000013BE000073CF000000000000E3
:100020000000000000000000000000002FD00000D1
:10003000EBD0000000000000EBD100000BD300006B
:1000400025EC01002DEC010035EC01003DEC010038
:1000500045EC01004DEC010055EC01005DEC0100A8
:1000600065EC01006DEC010075EC01007DEC010018
:1000700085EC01008DEC010095EC01009DEC010088
:10008000A5EC010075ED010075ED010075ED0100B5
:1000900075ED010075ED010075ED010075ED0100D4
:1000A000ADEC0100B5EC0100BDEC0100C5EC0100B8
:1000B000CDEC0100D5EC010075ED0100DDEC010097
:1000C000E5EC0100F5020100EDEC010079320100E0
:1000D000F5EC0100FDEC010005ED01007BD3000013
:1000E00075ED010075ED010075ED010075ED010084
:1000F00075ED010075ED010075ED01004DA40000E6
:1001000075ED010075ED010075ED010075ED010063
:1001100075ED010075ED010075ED010075ED010053
:1001200075ED010075ED01006F540100013801000B
:1001300075ED01004538010075ED010075ED010018
:1001400075ED01000DED010015ED01001DED010043
:100150009520010025ED010075ED010075ED010010
:1001600075ED010093D300002DED010035ED010088
:100170003DED010045ED01004DED010055ED0100A3
:100180005DED010065ED010075ED010075ED01000B
:1001900075ED010075ED010075ED010075ED0100D3
:1001A00075ED010075ED010075ED010075ED0100C3
:1001B00075ED010075ED010075ED010075ED0100B3
:1001C00075ED010075ED010075ED010075ED0100A3
:1003F00075ED010075ED010075ED0100FFFFFFFFD8
:10040000FFFFFFFFFFFFFFFFFFFFFFFFFEFFFFFFFD
:10041000DFF8F02CC2E900017047DFF8E80CD0E902
:10042000000170471CB504460FF2580006F04CFE60
:10043000204606F049FE6946204602F0B5FD04005C
:100440001DD19DF8000028B90A2007F089F8002185
:10045000002006E0012806D1092007F081F80021DC
:10046000012006F063FF0FF2340006F02DFE9DF828
:10047000000006F034FE0FF2340006F025FE2046A0
:1004800016BD00000D0A496E2050726F63657373CC
:100490005365744D6F64652D3E0000000D0A4D6F6D
:1004A0006465207365742061732000000D0A302D8F
:1004B0003E4155544F2C20312D3E4D414E55414C1F
:1004C000200000002DE9F8410446DFF83C8C83B0A1
:1004D000404606F0F9FD204606F0F6FD02232C22E8
:1004E00001A9204607F0F4F80646DFF8200C06F0D4
:1004F000EBFD002E0BDD01AF34467AA557F8040B57
:1005000006F0E2FD284606F0DFFD641EF6D1022E5D
:1005100040F08E80019B187860B10A2200211846B5
:1005200007F024FA044607F023FA08B1009401E02A
:10053000002400E0012407F0EBFA064607F0EAFA8F
:100540000768002007F0CCFF14B908F124005FE031
:10055000306802285ED0002006F07CFF9DF8000085
:10056000401E06284AD8DFE800F004122037393D43
:100570004200062008F09DFE002006F065FF08F00E
:100580005FFFDFF8601C0020C867022027E006201C
:1005900008F08FFE002006F057FF08F051FFDFF84B
:1005A000441C0020C867032019E0062008F081FEE3
:1005B000002006F049FF08F043FFDFF8281C002068
:1005C000C867042006F0CCFF012008F072FEDFF8B7
:1005D000181C0120087011E0052000E0062006F03C
:1005E000BFFF0BE009F0B0F908F02AFF06E0DFF8E2
:1005F0005C0D7F1C0770012006F026FF0FF2400003
:1006000006F062FD9DF8000006F069FD08F14C005F
:1006100006F05AFD0FF2280006F056FD9DF8000086
:1006200006F05DFD08F14C0006F04EFD002404E0EC
:1006300008F1900006F048FD0324204631E3000055
:100640000A204D616E75616C204D6F6465205365A5
:100650007456616C7565203A2000000078B5054637
:10066000ABB00FF2302006F02FFD284606F02CFD2F
:1006700006F088FD044608F015FE064609A8214646
:10068000242209F035FA09A9284602F085FB050065
:1006900025D1204609A9242209F02AFA304609A9C1
:1006A000242209F025FAE069DFF8A42C0890617D86
:1006B0000791207D0690E17C0591A07C0490617CEF
:1006C0000391207C0290E1680191642160680090B0
:1006D00012A8236809F050FA12A806F0F5FC284683
:1006E0002CB070BD2C0000002DE9F843044684B006
:1006F000DFF8600C06F0E8FC204606F0E5FCDFF8C9
:10070000580C06F0E1FC204606F0DEFC03232C2208
:1007100001A9204606F0DCFF0746DFF8F00906F0E5
:10072000D3FC0025012F0CDB01AE3C460FF204394F
:1007300056F8040B06F0C8FC484606F0C5FC641EDB
:10074000F6D1032FDFF8144C32D1019B1878012722
:1007500080B10A220021184607F008F9461EB6416A
:10076000F643F00F07F043F910B14FEAD67801E0F5
:10077000002600E001260298DFF8E42B694603F02A
:100780009CF900B9002726B904202070DFF8D40BAB
:1007900002E02570DFF8D00B06F096FC27B90420A4
:1007A0006070DFF8C00B05E06570DFF8BC0B01E09E
:1007B000DFF8680D06F088FC207860B90FF23C0085
:1007C00006F082FC5FFA88F006F089FC09F0FBF97C
:1007D00080F8008000E00425607868B90FF23800E6
:1007E00006F072FC9DF8000006F079FC06F0AAFC09
:1007F0009DF80010017000E004257AE30D0A4272B2
:10080000757368206D6F746F7220737461746520E6
:1008100073657420617320000D0A4C696E65617206
:10082000206D6F746F7220737461746520736574CA
:10083000206173200000000070B50546A0B00FF2E3
:10084000540006F041FC284606F03EFC09F0DEF9B3
:10085000044694E84E0003A880E84E0003A9284609
:1008600002F03AFA050013D103A890E84E0084E89C
:100870004E000296207ADFF8AC2C019007A8616840
:1008800000916421236809F077F907A806F01CFCA1
:10089000CCE000000D0A496E2050726F63657373DF
:1008A0005365744D6F746F7250574D4D616E756125
:1008B0006C2D3E001CB504460FF2340006F004FC1B
:1008C000204606F001FC6946204602F06DFB04005C
:1008D0000CD10FF23C0006F0F7FB9DF8000006F08B
:1008E000FEFB09F0DDFB9DF800100170204616BDEF
:1008F0000D0A496E2050726F6365737353657442BD
:1009000072757368446972656374696F6E2D3E0019
:100910000D0A4272757368206D6F746F722064697E
:1009200072656374696F6E20736574206173200053
:1009300030B50546ADB00FF27C0006F0C5FB284689
:1009400006F0C2FB08F0B0FC044624A8214624228D
:1009500009F0CEF824A9284602F01EFA050026D197
:10096000204624A9242209F0C3F8DFF87808DFF82C
:10097000B42DC16E0A91206A0990E1690891607DE9
:100980000790217D0691E07C0590A17C0491607C1C
:100990000390217C0291E06801900BA861680091AE
:1009A0006421236809F0E8F80BA806F08DFB2846BF
:1009B0002DB030BD0D0A496E2050726F63657373A0
:1009C0005365744D6F746F7250574D4175746F2D30
:1009D0003E00000070B50546A0B00FF25C0006F0C6
:1009E00073FB284606F070FB09F013F9044694E8FF
:1009F0004E0003A880E84E0003A9284602F06CF9D7
:100A0000050013D103A890E84E0084E84E0002963A
:100A1000207ADFF88C2C019007A86168009164218E
:100A2000236809F0A9F807A806F04EFB284620B075
:100A300070BD00002C0000000D0A496E2050726F3E
:100A400063657373536574427275736850574D4193
:100A500075746F2D3E0000002DE9F84F0446DFF855
:100A6000449CA4B0484606F02FFB204606F02CFB21
:100A7000DFF8340C0168491C016014232C226946FC
:100A8000204606F025FE054609F1240006F01CFB71
:100A9000012D0CDBEB462C460FF238385BF8040BCB
:100AA00006F012FB404606F00FFB641EF6D1142D33
:100AB00043D109F047FB0DF15206EA4613240FF229
:100AC0008C0B0FF29408DAF800000278417802EB00
:100AD000820301EB4301A1F11005C1788078EDB2EA
:100AE00000EB8002404601EB4201A1F1100706F045
:100AF000EBFA284606F0F3FA584606F0E5FAFFB29C
:100B0000384606F0ECFA182DB8BF3C2F0ADA3570DB
:100B1000B77709F017FB14A809F01AFB00250FF2AC
:100B2000440002E0042509F14C0006F0CDFA761CE1
:100B3000641E0AF1040AC6D104E00FF2440006F074
:100B4000C3FA0325284625B0BDE8F08F0D0A4D698C
:100B50006E7574652D2D3E000D0A486F75722D2D32
:100B60003E0000000A204175746F2074696D652095
:100B700053657456616C75652F732053657400005E
:100B80000A204175746F2074696D65205365745631
:100B9000616C75652F7320496E76616C6964000025
:100BA0002DE9F041044684B0DFF8900C06F08CFA91
:100BB000204606F089FADFF8A00706F085FA2046FD
:100BC00006F082FA03232C2201A9204606F080FDBC
:100BD0000646DFF8380506F077FA0025012E0CDB13
:100BE00001AF34460FF2EC1857F8040B06F06CFA1C
:100BF000404606F069FA641EF6D1032EDFF8404C39
:100C000028D1DFF85C87019842460DF1010102F01E
:100C100054FF0126471E0298BF4142466946FF43E2
:100C200002F04BFFFF0F00B9002627B90420207007
:100C3000DFF8300702E02570DFF82C0706F044FAF1
:100C400026B904206070DFF81C0705E06570DFF846
:100C5000180701E0DFF8C40806F036FA207868B912
:100C60000FF2440006F030FA9DF8010006F037FA62
:100C700009F0E5FA9DF80110017000E003256078A5
:100C800068B90FF2400006F01FFA9DF8000006F068
:100C900026FA09F00EFB9DF80010017000E0032514
:100CA000284604B0BDE8F0810D0A456467652073ED
:100CB000656E736F72207374617465207365742040
:100CC000617320000D0A526F746174652073656E44
:100CD000736F72207374617465207365742061731F
:100CE000200000002DE9F841044695B00FF2E8001D
:100CF00006F0EAF9204606F0E7F907232C2204A9BA
:100D0000204606F0E5FC0646DFF8580C06F0DCF954
:100D10000025012E0CDB0DF1100834462DA758F8E4
:100D2000040B06F0D1F9384606F0CEF9641EF6D170
:100D300004ACA06809F084FBADF80000606809F01D
:100D40007FFB8DF80200049809F07AFB8DF8030010
:100D5000079809F075FB8DF80400089809F070FBFE
:100D60008DF80500099809F06BFB8DF806006846C0
:100D700009F084FC072E23D1DFF8501CDFF8C42DC6
:100D80000918914216D202A909F060FC28220BA989
:100D900002A809F045FC0BA806F096F902A809F094
:100DA000BBFB68B109F0CEF9082008F0BBFD0FF2DB
:100DB000440002E004250FF2540006F085F904E037
:100DC0000FF2680006F080F90325284616B0BDE84A
:100DD000F08100002C0000000D0A496E2050726F57
:100DE0006365737353657452544356616C75652D16
:100DF0003E0000000A205254432053657456616C33
:100E000075652F7320536574000000000A2052544A
:100E1000432053657456616C75652F73204F75744C
:100E2000206F662052616E67650000000A205254F0
:100E300043202053657456616C75652F7320496E8D
:100E400076616C69640000002DE9F843044684B0C3
:100E50000FF2AC00DFF8707C06F036F9204606F0A1
:100E600033F904232C226946204606F031FC06465D
:100E7000384606F029F90025012E0CDBE8463446F9
:100E80000FF2780958F8040B06F01EF9484606F0F0
:100E90001BF9641EF6D1042E26D109F072FC04461B
:100EA000009809F031FE20B1009A0B21204608F08D
:100EB00063FE019F384609F027FE28B13A460B2110
:100EC00004F10B0008F058FE029E304609F01CFEAB
:100ED00028B132460B2104F1160008F04DFE0FF246
:100EE0003C0006F0F1F804E007F1240006F0ECF80D
:100EF0000325284605B0BDE8F08300002C00000063
:100F00000D0A496E2050726F6365737353657444A4
:100F10006576696365496E666F2D3E000A204465FB
:100F20007669636520496E666F2053657456616CFF
:100F300075652F7320536574000000002DE9F0479C
:100F40002DED048B0446DFF8008C84B0404606F09B
:100F5000BBF8204606F0B8F806F0CCFD8246042324
:100F60009AED008ADAED018A9AED029A2C226946FE
:100F7000204606F0ADFB0546DFF8D00B06F0A4F8DE
:100F80000026012D0BDBE9462C4695A759F8040BEA
:100F900006F09AF8384606F097F8641EF6D1042D4C
:100FA00059D1009A107868B10021104609F0F2FE7C
:100FB000F0EE409A06F0E2FC10B1B0EE698A01E072
:100FC000002400E00124019A107850B1002110465D
:100FD00009F0E0FEF0EE409A06F0D0FC10B1F0EE21
:100FE000698A0120029A0440107850B1002110460D
:100FF00009F0D0FEF0EE409A06F0C0FC10B1B0EE61
:10100000699A0120044205D108F1240006F05CF839
:10101000042625E008F1540006F056F8CAED018ACE
:101020008AED029A8AED008A0320B0EE480A06F0A3
:101030006DF8C5A4204606F047F803209AED010A92
:1010400006F064F8204606F03FF803209AED020A05
:1010500006F05CF804E008F17C0006F035F80326A1
:1010600004B0304602F052BE2DE9FE4304460FF2B2
:10107000A000DFF8B89B06F027F8204606F024F819
:1010800002232C226946204606F022FB06464846EB
:1010900006F01AF80025012E0BDBE846344650A76F
:1010A00058F8040B06F010F8384606F00DF8641EE8
:1010B000F6D1022E1ED109F1240006F005F80098A1
:1010C0001022002106F052FC06F009F808F08CFC12
:1010D000044608F075FCB0F5006F02D109F0EDFE92
:1010E000057008F031FC08F0ABF944B1082008F0B5
:1010F00016FC04E009F1480005F0E6FF032502F0C4
:10110000E0B8000018200020B4CD010044300000F9
:101110000D0A496E2050726F63657373436C65618D
:10112000724572726F72436F6465732D3E000000EA
:101130002DE9F847044683B00FF2B000DFF8D48BF6
:1011400005F0C2FF204605F0BFFF08F082F9064611
:10115000022330788DF800002C2201A9204606F0E9
:10116000B7FA0746404605F0AFFF0025012F0DDB1B
:101170000DF104093C460FF2680A59F8040B05F01A
:10118000A3FF504605F0A0FF641EF6D1022F1DD12B
:10119000019B187848B10A220021184606F0E6FBA8
:1011A000044606F001FC58B100949DF80000307030
:1011B0000FF2540005F088FF307805F090FF0AE048
:1011C00008F1240005F080FF042504E008F14C003C
:1011D00005F07AFF0325284604B0BDE8F08700003B
:1011E0002C00000014140020401F00200D0A496E3E
:1011F0002050726F636573735365744C6F774261EF
:1012000074536F432D3E00000A204C6F77204261DB
:101210007420536F432053657456616C75652F734A
:1012200020536574000000002DE9F04F054687B09B
:10123000DFF8400CDFF840AC05F046FF284605F02B
:1012400043FF09F07FFE0746D7F80080D7F80490E7
:1012500007232C226946284606F03AFA06465046ED
:1012600005F032FF0024012E0ADBEB4635465BF821
:10127000040B05F029FFAAA005F026FF6D1EF6D18C
:10128000072E59D1DFF8F45B0120A86400980AF01A
:10129000B4FD51EC100B0AF0BDFD286301980AF073
:1012A000ACFD51EC100B0AF0B5FD6863009809F035
:1012B000C7F8A865019809F0C3F8E86503F018FBC2
:1012C000DFF8340C05F000FF287960B10A22002114
:1012D000281D06F04BFB06460120C04608B1B1466A
:1012E00001E0002600E00126287E50B10A220021FC
:1012F00005F1180006F03AFB05460120C04608B18A
:10130000A8460120064205D10AF1240005F0DCFEC2
:10131000042416E0DFF8E40B05F0D6FEC7F80080E1
:10132000C7F80490484605F0DAFE07A005F0CCFEA9
:10133000386805F0D4FE04E00AF14C0005F0C4FE64
:1013400003242046A7E10000202C00003C200020C0
:1013500098E40100C0E901002C3000009620002034
:10136000EF79000064300000543000002DE9F84FA0
:101370002DED028B0446DFF8008B86B008F170007B
:1013800005F0A2FE204605F09FFE09F0DBFD824637
:10139000DAF80090DAF804B005232C2269462046DA
:1013A00006F096F90646404605F08EFE0025002E12
:1013B0000ADD6F46344657F8040B05F085FE58A049
:1013C00005F082FE641EF6D1052E40F09B80DFF80A
:1013D000AC4A0420A0649FEDB18A029809F030F86D
:1013E000A0854FF47A77039809F02AF8E085012068
:1013F000DFF8A01B088009F060FD01220270E5679C
:1014000000980AF0FAFC51EC100B0AF003FD00EE14
:10141000100A20EE080A019884ED0E0A0AF0EDFC8D
:1014200051EC100B0AF0F6FC00EE100ADFEDBE0ADC
:1014300040EE080A0098C4ED0F0A09F001F878435D
:101440002064019808F0FCFF474307F5967767642E
:1014500003F04EFADFF8403B187D68B10A22002104
:1014600003F1140006F082FA04460120C04608B1D8
:10147000A34601E0002400E00124DFF8203B1878B7
:1014800048B10A220021184606F070FA06460120EB
:10149000C04608B1B1460120044205D108F19400CC
:1014A00005F012FE042532E008F1C40005F00CFE40
:1014B000CAF80090CAF804B005F034FF052803D03C
:1014C00005F030FF042802D1062007F0F2FE0020CC
:1014D00005F0BAFF07F0B4FF062007F0EAFE04208B
:1014E00006F03EF8DFF8501C01200870DAF804001E
:1014F00005F0F5FDCFA005F0E7FDDAF8000005F0F6
:10150000EEFD04E008F1F00005F0DEFD032506B075
:101510002846BDEC028BBDE8F28F0000843000004D
:101520002C00000010E601002DE9F04F0446DFF822
:101530000CAC87B0504605F0C7FD204605F0C4FD51
:10154000204605F0C1FD05232C2202A9204606F005
:10155000BFF807460AF1240005F0B6FD012F4FF051
:10156000000B0DDB0DF108083C460FF2CC2958F8B2
:10157000040B05F0A9FD484605F0A6FD641EF6D152
:10158000052F40F0818009F098FC0446029B94F8F6
:10159000009060680190A768D4F80C80187880B13A
:1015A0000A220021184606F0E1F9451EAD41ED433F
:1015B000E80F06F014FA10B14FEAD57901E00026E1
:1015C00000E0012602AD6B68187850B10A220021B4
:1015D000184606F0CBF9009006F0F0F910B100982B
:1015E000019001200640AB68187848B10A2200211A
:1015F000184606F0BBF9009006F0E4F908B1009F28
:101600000120EB680640187848B10A2200211846EC
:1016100006F0ACF9054606F0DCF908B1A846012051
:10162000064206D10AF1540005F04EFD4FF0040BBE
:1016300030E00AF18C0005F047FD84F80090019835
:101640006060A760C4F80C800AF1B00005F03CFDB2
:10165000207805F044FD0FF2702A504605F034FD65
:10166000606805F03CFD504605F02EFDA06805F0D1
:1016700036FD504605F028FDE06805F030FD207885
:1016800040B109F012FC05E00AF1D40005F01CFDA0
:101690004FF0030B584607B0BDE8F08F00007A44C6
:1016A00078E60100FCD90100A420002070B5DFF825
:1016B000A04B002020700121217086B00AF00AFCA6
:1016C0001122ADF800206B4601AA06F0CBF842F2D9
:1016D0000F76FF23DFF87C2B3146601C08F04CFAB4
:1016E000451CA9B2761B022060546D1C761BB1B25A
:1016F000AEB241F21703DFF8602BA01908F03CFAF4
:101700004519A9B2032060546D1C0BF0EBF9034698
:1017100042F21071491BA8B2D1A289B2204408F04C
:101720002BFAD5E298E201000000964370B5DFF88D
:10173000204B002020700121217086B00AF0CAFBE6
:101740001122ADF800206B4601AA06F08BF842F298
:101750000F76FF23DFF8FC2A3146601C08F00CFAF4
:10176000451CA9B2761B022060546D1C761BB1B2D9
:10177000AEB241F21803DFF8E02AA01908F0FCF934
:101780004519A9B2032060546D1C08F019F90346ED
:1017900042F21071491BA8B20FF20C0289B2204428
:1017A00008F0EAF994E200002530303058000000DB
:1017B00070B5DFF89C4A002020700121217086B0AE
:1017C0000AF088FB1122ADF800206B4601AA06F052
:1017D00049F842F20F76FF23DFF8782A3146601C81
:1017E00008F0CAF9451CA9B2761B022060546D1C92
:1017F000761BB1B2AEB241F21903DFF85C2AA01930
:1018000008F0BAF94519A9B2032060546D1C08F01C
:10181000B8FF0FF23001029100F10B03009300F1C9
:1018200016020192034642F21071491BA8B2DFF87A
:10183000342E49E2202C00002C000000E4E90100D5
:10184000E020002044322E305600000070B5DFF852
:10185000004A002020700121217086B00AF03AFB76
:101860001122ADF800206B4601AA05F0FBFF42F201
:101870000F76FF23DFF8DC293146601C08F07CF985
:10188000451CA9B2761B022060546D1C761BB1B2B8
:10189000AEB241F20103DFF8C029A01908F06CF9DB
:1018A0004519A9B2032060546D1C05F033FD42F2C6
:1018B0001076761B002300B10123A8B268A2B1B252
:1018C000204408F059F903E22C20000070B5DFF83D
:1018D0008049002020700121217086B00AF0FAFAB8
:1018E0001122ADF800206B4601AA05F0BBFF42F2C1
:1018F0000F76FF23DFF85C293146601C08F03CF9C5
:10190000451CA9B2761B022060546D1C761BB1B237
:10191000AEB241F20303DFF84029A01908F02CF918
:101920004519A9B2032060546D1C05F0FBFC42F27E
:101930001076761B401E03280BD8DFE800F0020467
:101940000608012306E0022304E0032302E0042347
:1019500000E00523A8B242A2B1B2204408F00CF97D
:10196000B6E1000020DA010070B5DFF8E44800209D
:1019700020700121217088B00AF0ACFA1122ADF874
:1019800000206B4601AA05F06DFF42F20F76FF239F
:10199000DFF8C0283146601C08F0EEF8451CA9B2FB
:1019A000761B022060546D1C761BB1B2AEB241F2C0
:1019B0000403DFF8A428A01908F0DEF84519A9B23D
:1019C000032060546D1C05F0DDFBF2E080BC92C783
:1019D00070B5DFF87C48002020700121217086B0AE
:1019E0000AF078FA1122ADF800206B4601AA05F042
:1019F00039FF42F20F76FF23DFF858283146601C8A
:101A000008F0BAF8451CA9B2761B022060546D1C80
:101A1000761BB1B2AEB241F20503DFF83C28A01943
:101A200008F0AAF84519A9B2032060546D1C08F00B
:101A3000CAF8064605F086FB42F210710078DFF81E
:101A40006C2E0090491B3378AEB289B2A01908F011
:101A500093F855FA80F5A9B2042060543DE10000E6
:101A60002564000070B5DFF8E847002020700121F0
:101A7000217086B00AF02EFA1122ADF800206B46D4
:101A800001AA05F0EFFE42F20F76FF23DFF8C4272C
:101A90003146601C08F070F8451CA9B2761B022084
:101AA00060546D1C761BB1B2AEB241F20603DFF892
:101AB000A827A01908F060F84519A9B203206054BE
:101AC0006D1C08F0A3F8F2E030E3010070B5DFF818
:101AD0008047002020700121217086B00AF0FAF9B9
:101AE0001122ADF800206B4601AA05F0BBFE42F2C0
:101AF0000F76FF23DFF85C273146601C08F03CF8C6
:101B0000451CA9B2761B022060546D1C761BB1B235
:101B1000AEB241F20703DFF84027A01908F02CF815
:101B20004519A9B2032060546D1C08F0B9FA42F2BD
:101B300010710378491BA8B2CDA289B2204408F0E5
:101B40001BF8C5E0801319BC0CD10100502F000018
:101B500070B5DFF8FC46002020700121217088B0AC
:101B60000AF0B8F91122ADF800206B4601AA05F081
:101B700079FE42F20F76FF23DFF8D8263146601C4B
:101B800007F0FAFF451CA9B2761B022060546D1CB9
:101B9000761BB1B2AEB241F20903DFF8BC26A01940
:101BA00007F0EAFF4519A9B2032060546D1C07F045
:101BB0007BFBC1690791C268069281690591027D2C
:101BC0000492817C0391027C02928168019142F22D
:101BD000107142680092491B03680FF25402A8B2C8
:101BE00089B2204407F0C8FF55FA80F5AAB2042153
:101BF000A1546D1CDFF8D00B05F066FAA8B205F011
:101C00006EFADFF8C80B05F05FFAA9B2204605F0BE
:101C100064FADFF89C0C05F057FAA9B2204609F0E7
:101C2000C9F801F01DF8002008B070BD6CDA0100A1
:101C300025642C25642C25642C25642C25642C25F6
:101C4000642C25642C25642C2564000070B5DFF815
:101C50000046002020700121217086B00AF03AF978
:101C60001122ADF800206B4601AA05F0FBFD42F2FF
:101C70000F76FF23DFF8DC253146601C07F07CFF80
:101C8000451CA9B2761B022060546D1C761BB1B2B4
:101C9000AEB241F20A03DFF8C025A01907F06CFFCD
:101CA0004519A9B2032060546D1C07F0B2FFC1684A
:101CB0000291027A01924168DFF8F82B009142F21A
:101CC00010710368491BA8B289B2204407F054FF81
:101CD00055FA80F5AAB20421A1546D1CDFF8E80A78
:101CE00005F0F2F9A8B205F0FAF9DFF8E00A05F01C
:101CF000EBF9A9B2204605F0F0F9DFF8B40B05F0D6
:101D0000E3F9A9B2204609F055F800F0A9FF002038
:101D100006B070BDDCDA010078B5DFF8344500208C
:101D2000207001212170A5B00AF0D4F81122ADF87D
:101D300000206B4601AA05F095FD42F20F76FF23C5
:101D4000DFF810253146601C07F016FF451CA9B2CC
:101D5000761B022060546D1C761BB1B2AEB241F20C
:101D60000B03DFF8F424A01907F006FF4519A9B208
:101D7000032060546D1C08F0E9F900F121014A7C50
:101D80002492037D23930A7C2292C37C2193CA7BF5
:101D90002092837C1F938A7B1E92437C1D934A7BF7
:101DA0001C92037C1B930A7B1A92C37B1993CA7AF9
:101DB0001892837B17938A7A1692437B15934A7AFB
:101DC0001492037B13930A7A1292C37A1193CA79FD
:101DD0001092837A0F938A790E92437A0D934A79FF
:101DE0000C92037A0B930A790A92C3790993CA7801
:101DF0000892837907938A780692437905934A7803
:101E000004920379039309780291C278019290F8C1
:101E10002010DFF83C2C009142F210718378491BAE
:101E2000A8B289B2204407F0A7FE55FA80F5AAB2FD
:101E30000421A1546D1CDFF8900905F045F9A8B202
:101E400005F04DF9DFF8840905F03EF9A9B2204606
:101E500005F043F9DFF8580A05F036F9A9B2204633
:101E600008F0A8FF00F0FCFE002026B070BD0000C6
:101E7000256400008C4E000024C8010014140020CA
:101E800070B5DFF8CC43002020700121217086B0AE
:101E90000AF020F81122ADF800206B4601AA05F0E7
:101EA000E1FC42F20F76FF23EA4A3146601C07F05C
:101EB00063FE451CA9B2761B022060546D1C761B84
:101EC000B1B2AEB241F20C03E34AA01907F054FEDE
:101ED0004519A9B2032060546D1C08F0ECF90646C0
:101EE00008F0AFF9034642F21071491BA8B2009600
:101EF00089B2DFF8B829E8E6A84E0000BC4E000021
:101F000070B5D34C002020700121217086B009F0FB
:101F1000E1FF1122ADF800206B4601AA05F0A2FCFA
:101F200042F20F76FF23CB4A3146601C07F024FEB5
:101F3000451CA9B2761B022060546D1C761BB1B201
:101F4000AEB241F20D03C44AA01907F015FE4519BF
:101F5000A9B20320605408F03FFB42F21072A618A9
:101F60002821304608F03CFB314620460AF0F2FFBB
:101F7000304608F0C9FD55FA80F50FF2240005F04F
:101F8000A3F8304605F0A0F86D1CA9B204206054F7
:101F9000A3E600003E2000206807FF1FDC1E002093
:101FA0000D0A54696D652D2D3E0000002DE9F04F9E
:101FB000A74C002020700121217091B009F08AFF08
:101FC0001122ADF800206B4601AA05F04BFC42F24D
:101FD0000F76FF239F4A3146601C07F0CDFD451C5C
:101FE000A9B2761B022060546D1C761BB1B2AEB252
:101FF00041F20E03984AA01907F0BEFD4519A9B297
:10200000032060546D1C08F07FFF8DF83A00ADB2DC
:1020100005F080F9804605F077FD024600210EA804
:1020200092ED000A42F2107605F0F4FA761B0EAB40
:1020300086A2B1B2601907F09FFD0EA808F000FA61
:102040004FF000090746B8F1000F18BF4FF0010923
:1020500002F04EFCDFF87C8C08F046F9D8F84C20F2
:10206000014651431091FFB208F077F83F1A0F97DD
:1020700008F073F88DF837000AF07CFF8DF8360011
:102080000AF0D6FF8DF835000BF030F88DF83400EB
:102090000BF0ACF8074609F0ADFD824608F026F9D2
:1020A000834608F021F9D8F87C100F9A0B910A9218
:1020B0000C959DF837109DF83620099108924B46F3
:1020C0009DF835109DF834200791069205970190F0
:1020D000CDF810A010999DF83A0002910090CDF82B
:1020E0000CB0B1B2DFF8A82C601907F045FD0C99CF
:1020F00051FA80F5ADB2042060556D1CDFF8C806BA
:1021000004F0E2FFADB2284604F0E9FFDFF8BC06B8
:1021100004F0DAFF2946204604F0DFFFDFF89007DD
:1021200004F0D2FF2946204608F044FE00F098FD56
:10213000002004F013BC0000401F002040C9010033
:102140002DE9F04F424D002028700121297087B001
:1021500009F0C0FE1122ADF800206B4601AA05F07F
:1021600081FB42F20F76FF233A4A3146681C07F0A2
:1021700003FD441CA1B2361B02206854641C361BAC
:10218000B1B2A6B241F22103334AA81907F0F4FC18
:102190000419A1B203206854641C08F0B5FE8046FF
:1021A00042F2107605F0B6F8361B002700B1012781
:1021B00005F04DF9032803D107F002FC814601E048
:1021C0004FF0000908F092F8824608F08DF8834637
:1021D00007F06CF8DFF8BC1BDFF8F83A0A88D96F13
:1021E000019006920591A0B2CDF81090CDF80CA008
:1021F000CDF808B0CDF800803B460FF26002B1B2D6
:10220000284407F0B9FC54FA80F4A2B20421A9547E
:10221000641CDFF8B40504F057FFA0B204F05FFFC0
:10222000DFF8A80504F050FFA1B2284604F055FFDE
:10223000DFF87C0604F048FFA1B2284608F0BAFD9A
:1022400000F00EFD0020FFF726BA00002573000005
:102250007482FF1F5C4000006440000025642C2055
:1022600025642C2025642C2025642C2025642C201A
:10227000256C642C25642C25640000002DE9F84FA2
:10228000DFF8A45D00202870012129708CB009F0CE
:1022900021FE1122ADF800206B4601AA05F0E2FAFA
:1022A00042F20F76FF23DFF8A02C3146681C07F0BE
:1022B00063FC441CA1B2361B02206854641C361B0C
:1022C000B1B2A6B241F20F03DFF8802CA81907F0D3
:1022D00053FC0419A1B203206854641C08F04CFE9E
:1022E0000746022109A897ED020A05F093F9022199
:1022F00006A897ED030ADFF8DC7905F08BF902F008
:10230000F7FA07F0F1FF0146F86C00FB01F808F05E
:10231000FBFD814642F2107604F0FCFF361B4FF0C5
:10232000000A30B1012804D14FF0010A4FF0000B30
:1023300002E007F012FF834607F042FBF96F0190BD
:1023400007F1EC0205910492A0B2CDF80C90CDF803
:102350000880CDF800B053460FF26402B1B22844B1
:1023600007F00AFC54FA80F4A2B20421A954641CB8
:10237000DFF8540404F0A8FEA0B204F0B0FEDFF8C9
:102380004C0404F0A1FEA1B2284604F0A6FEDFF83A
:10239000200504F099FE0AF0C7FF012803D1A2B27C
:1023A0002946022004E00AF0BFFF18B9A2B229466C
:1023B00008F022FD00F054FC00200DB0BDE8F08FC5
:1023C00025642C25642C25303030582C25642C2590
:1023D000642C25732C25640078B5DFF84C4C002064
:1023E0002070012121708BB009F074FD1122ADF82D
:1023F00000206B4601AA05F035FA42F20F76FF2362
:10240000DFF8442B3146601C07F0B6FB451CA9B22F
:10241000761B022060546D1C761BB1B2AEB241F245
:102420001003DFF8282BA01907F0A6FB4519A9B265
:10243000032060546D1C05F05DFB0646022108A8D0
:1024400096ED000A05F0E6F8022105A896ED010ACE
:1024500005F0E0F8022102A896ED020A05F0DAF88C
:1024600005A902A80091019042F21071491BA8B27F
:1024700008ABDFF8582E83E1F0B5DFF8AC4B002055
:102480002070012121708BB009F024FD1122ADF8DC
:1024900000206B4601AA05F0E5F942F20F76FF2312
:1024A000DFF8A42A3146601C07F066FB451CA9B280
:1024B000761B022060546D1C761BB1B2AEB241F2A5
:1024C0001103DFF8882AA01907F056FB4519A9B2B5
:1024D000032060546D1C0BF021F8022108A805F0C0
:1024E00099F80BF037F8022105A805F093F80BF0E6
:1024F00057F8022102A805F08DF8ADB242F210762D
:1025000008F0FEFC761B102802D008F0F9FCE0B9B8
:102510000A2108A80BF024F90A2105A80BF020F9DC
:102520000A2102A80BF01CF90FF2740705223946A4
:1025300008A807F0DDFA0522394605A807F0D8FA01
:102540000522394602A807F0D3FA02A805A901908E
:10255000009108AB0FF2EC52B1B2601907F00CFB1E
:1025600055FA80F5A9B2042060546D1C964804F019
:10257000ABFDADB2284604F0B2FD944804F0A4FDD2
:102580002946204604F0A9FDC94804F09DFD2946CE
:10259000204608F00FFC00F063FB00200BB0F0BDFC
:1025A000302E30300000000070B5DFF87C4A00208B
:1025B00020700121217086B009F08CFC1122ADF849
:1025C00000206B4601AA05F04DF942F20F76FF2379
:1025D000DFF874293146601C07F0CEFA451CA9B219
:1025E000761B022060546D1C761BB1B2AEB241F274
:1025F0001403DFF85829A01907F0BEFA4519A9B24B
:10260000032060546D1C08F09DFCDFF8C81CD0ED61
:10261000010A91ED000ADFF8BC26116DF8EE600AA0
:1026200060EE800AFCEEE00A10EE903ACB18536799
:10263000D0ED000A516DF8EE600A20EE800ABCEE83
:10264000C00A10EE103ACB1893670368D16D02935D
:102650004068936D974A0091019042F21071FFF724
:1026600031BB0000B828000070B5DFF8BC4900207D
:1026700020700121217086B009F02CFC1122ADF8E8
:1026800000206B4601AA05F0EDF842F20F76FF2319
:10269000DFF8B4283146601C07F06EFA451CA9B279
:1026A000761B022060546D1C761BB1B2AEB241F2B3
:1026B0001503DFF89828A01907F05EFA4519A9B2AA
:1026C000032060546D1C06F0C4FE42F210710378C2
:1026D000491BA8B2DDA289B2204407F04DFAFFF7EA
:1026E000F7BA10B55021DFF8300E05F075FF002461
:1026F00000B10524204610BD70B5DFF82C4900203C
:102700002070012121708CB009F0E4FB1122ADF89A
:1027100000206B4601AA05F0A5F842F20F76FF23D0
:10272000DFF824283146601C07F026FA451CA9B2C0
:10273000761B022060546D1C761BB1B2AEB241F222
:102740001A03DFF80828A01907F016FA4519A9B2EC
:10275000032060546D1C04A809F0F4FC0DF12A005C
:1027600003900DF1270102910DF12100019004AABF
:10277000009242F21071491BA8B209AB0FF250024D
:1027800089B2204407F0F8F955FA80F5AAB204217D
:10279000A1546D1C0C4804F097FCA8B204F09FFCF7
:1027A0000A4804F091FCA9B2204604F096FC404887
:1027B00004F08AFCA9B2204608F0FCFA00F050FAB6
:1027C00000200CB070BD0000906A0000A06A0000FC
:1027D00025732C25732C25732C25732C2573000051
:1027E00070B5DFF8444800202070012121708AB0C4
:1027F00009F070FB1122ADF800206B4601AA05F02C
:1028000031F842F20F76FF23DFF83C273146601C97
:1028100007F0B2F9451CA9B2761B022060546D1C6A
:10282000761BB1B2AEB241F21B03DFF82027A0192C
:1028300007F0A2F94519A9B2032060546D1C03A842
:1028400009F0F8FC0DF1250002900DF12201019133
:102850000DF11D00009042F21071491BAEB203ABA6
:102860000FF2540289B2A01907F086F955FA80F5E3
:10287000A9B2042060546D1CDFF8A40C04F024FC01
:10288000A8B204F02CFCDFF89C0C04F01DFCA9B2EB
:10289000204604F022FC064804F016FCA9B22046AB
:1028A00008F088FA00F0DCF901F0E7BA304F0000D8
:1028B000AC6A00002C35000025732C25732C257381
:1028C0002C25730078B5DFF8604700202070A3B096
:1028D0000AF075F8012120A804F09CFE0AF09AF88D
:1028E00001211DA804F096FE0AF081F801211AA822
:1028F00004F090FE0AF0DEF8012114A804F08AFE2C
:102900000FA80AF0B1F89DF840009DED0F0A08B934
:10291000B1EE400A012117A804F07CFE01202070CE
:1029200042F20F7609F0D6FA1122ADF800206B467C
:1029300001AA04F097FFFF23DFF80C263146601C44
:1029400007F01AF9451CA9B2761B022060546D1CD1
:10295000761BB1B2AEB241F21C03DFF8F025A0192C
:1029600007F00AF94519A9B20320605442F27476BF
:1029700009F0EAFF022111A804F04CFE0AF0B2F8B7
:1029800042F2987121440E9142F28C7242F26871C7
:1029900021440A91224404F51E530D920C9342F2F5
:1029A00038712644214405900B9642F25C7242F243
:1029B000507306912244234411A80992089342F2CD
:1029C000447604901DA926440191079614AA17ABDA
:1029D0001AA86D1C03920293009042F21071491BD9
:1029E000AEB220ABDFF8402B89B2A01907F0C4F8D3
:1029F00055FA80F5A9B2042060546D1CDFF8200B55
:102A000004F062FBA8B204F06AFBDFF8180B04F0D4
:102A10005BFBA9B2204604F060FBDFF8C00D04F0B8
:102A200053FB0AF081FC012803D1AAB221460220FF
:102A300004E00AF079FC18B9AAB2214608F0DCF9E2
:102A400000F00EF9002024B070BD000025640000E5
:102A500068CE010070B5DFF8D0450021217090B03C
:102A600000200AF081FE022108A804F0D3FD012015
:102A70000AF07AFE022105A804F0CCFD0AF01AF84B
:102A8000022102A804F0C6FD0120207042F20F7658
:102A900009F020FA1122ADF800206B460BAA04F0D1
:102AA000E1FEFF23DFF8A0243146601C07F064F844
:102AB000451CA9B2761B022060546D1C761BB1B276
:102AC000AEB241F21D03DFF88424A01907F054F8D8
:102AD0004519A9B20320605442F210762821A019AA
:102AE00007F07EFD05A96D1C009102A8761B0190E0
:102AF000B1B2AEB208AB0FF24C02A01907F03CF82D
:102B000055FA80F5A9B2042060546D1CDFF8100A54
:102B100004F0DAFAA8B204F0E2FADFF8080A04F0E6
:102B2000D3FAA9B2204604F0D8FADFF8B00C04F0CA
:102B3000CBFAA9B2204608F03DF900F091F8002048
:102B400010B070BD25732C25732C25730000000078
:102B500070B5DFF8D444002020700121217086B0C8
:102B600009F0B8F91122ADF800206B4601AA04F073
:102B700079FE42F20F76FF23DFF8CC233146601C4A
:102B800006F0FAFF451CA9B2761B022060546D1CAA
:102B9000761BB1B2AEB241F22203EC4AA01906F0A4
:102BA000EBFF4519A9B2032060546D1C08F085F9AC
:102BB000C16802918268019241680FF2100200918F
:102BC00042F210710378FFF77DB8000025642C25D0
:102BD0006C642C25642C256C64000000F8B5054657
:102BE000DFF8004C002020700121217086B009F030
:102BF00071F91122ADF800206B4601AA04F032FEF3
:102C0000FF23D14AC721601C06F0B6FF461CB2B2B2
:102C1000C6F1C7010220A054761C891BB7B241F24D
:102C20001113CA4A89B2E01906F0A6FF8619B1B29B
:102C300003206054761CB6B2C6F1C8012B46C1A26F
:102C400089B2A01906F098FF56FA80F080B20421EC
:102C50002154401C80B200222254204607B0F0BD0F
:102C600042F21071DFF8C0030AF07ABDF8B50446ED
:102C700086B00D4601202070164629884A1E2A80FB
:102C8000112709F027F9ADF800706B4601AA04F08E
:102C9000E9FD2988AC4AFF23601C06F06DFF471C44
:102CA0002888C01BBAB228800221A1547F1C298821
:102CB000A64AC91B2980B8B2334689B2204406F01F
:102CC0005BFFC719BAB20321A1547F1C2F800120DA
:102CD00007B0F0BD141400202DE9F04385B0044680
:102CE000884604F0F1F905232C226946204604F0B9
:102CF000EFFC07460FF2582004F0E6F90025012FFB
:102D00000CDB6E463C460FF21C3956F8040B04F0FF
:102D1000DBF9484604F0D8F9641EF6D1052F30D10E
:102D20000098DFF8342C414600F0B6FE441E0198AE
:102D3000DFF8282C08F10401A44100F0ADFEE443C3
:102D400000EAD4740298DFF8182C661E08F1080116
:102D5000B64100F0A1FEF64300EAD6760398DFF80C
:102D6000282D741E08F10C01A44100F095FEE443E7
:102D700010EAD47F0AD10FF2F41004F0A5F904256B
:102D800004E00FF2082004F09FF90325FEF7B1B824
:102D900044E601003E2000202DE9F04F8BB00446B0
:102DA0000D4604F091F90B232C226946204604F0CD
:102DB0008FFC07460FF2981004F086F9012F4FF0B0
:102DC000000A0CDBE846B94696A458F8040B04F058
:102DD0007BF9204604F078F9B9F10109F5D10B2F00
:102DE00040F0A580DFF8A4BCDFF8A47C0220CBF87B
:102DF0004800A946029807F023FBCBF86400069828
:102E000007F01EFBCBF8680001F072FD0098DFF8B8
:102E1000482B494600F040FEB0F101080198DFF868
:102E20003C2B09F1040168EB080800F035FE6FEA5D
:102E3000080400EAD470441E02983A4609F10801D9
:102E4000A44100F029FEE44300EAD474651EDFF8D3
:102E5000444C224609F10C010BF5AC70AD4100F079
:102E60001BFEED4300EAD57503986E1EDFF8F05A9D
:102E70002A4609F11001B64100F00EFEF64300EAC1
:102E8000D676701E8041C043C60F03982A4609F1CA
:102E9000110100F001FE0640701E8041C043C60FC4
:102EA00004982A4609F1120100F0F6FD0640701E52
:102EB0008041C043C60F04982A4609F1130100F06F
:102EC000EBFD0640701E8041C043C60F05982A46A0
:102ED00009F1140100F0E0FD0640701E8041C0437E
:102EE000C60F05982A4609F1150100F0D5FD0640E8
:102EF0000698751E3A4609F11801AD4100F0CCFD67
:102F0000ED4300EAD5756F1E224609F11C010BF551
:102F1000B670BF4100F0C0FDFF4310EAD77F0CD16F
:102F20000FF2480004F0D0F84FF0040A05E00FF269
:102F30005C0004F0C9F84FF0030A50460BB0BDE83E
:102F4000F08F0000255800005C4000006440000045
:102F50000A50574D20536574205265636569766544
:102F6000642056616C756573203A00000A20507722
:102F70006D2053657456616C75652F73204F7574A1
:102F8000206F662052616E67650000000A2050774E
:102F90006D2053657456616C75652F7320496E768C
:102FA000616C6964000000002DE9FE430446894617
:102FB0000FF2780004F088F8204604F085F8022328
:102FC0002C226946204604F083FB07460FF274006A
:102FD00004F07AF80026012F0BDBE8463C4611A5E9
:102FE00058F8040B04F070F8284604F06DF8641EDD
:102FF000F6D1022F0FD10098DFF8182D494600F0C6
:103000005CFD002812BF0FF24C0004260FF25400A2
:1030100004F05AF804E00FF26C0004F055F80326AF
:1030200030464FE12C0000007482FF1F0D0A496EEC
:103030002050726F63657373536574537461746564
:103040002D3E00000A73746174652056616C7565CD
:1030500073203A000A204D6F6465205365745661F1
:103060006C7565000A204D6F646520536574566168
:103070006C75652F73204F7574206F662052616EDA
:10308000676500000A204D6F6465205365745661C2
:103090006C75652F7320496E76616C696400000061
:1030A0002DE9F043044687B00FF25010DFF86C9C16
:1030B00004F00AF8204604F007F807232C2269469A
:1030C000204604F005FB0746484603F0FDFF0025B7
:1030D000012F0CDB6C46B8467DA654F8040B03F0B8
:1030E000F3FF304603F0F0FFB8F10108F5D1072FE8
:1030F0007AD108F0C3FE07460098102104F07FFC47
:10310000441E0198A441402104F079FCE44300EA04
:10311000D4740298661EB641022104F070FCF64396
:10312000039A00EAD676711E89411078C9430028B7
:1031300018BF302806D0312806D15078401E804173
:10314000C00F02E0012000E00020049A00EAD171E3
:103150001078002818BF302806D0312806D15078C2
:10316000401E8041C00F02E0012000E00020059ACF
:1031700001401078002818BF302806D0312806D129
:103180005078401E8041C00F02E0012000E0002086
:10319000014223D0009A1121384606F0EDFC019A35
:1031A000412107F1110006F0E7FC029A032107F123
:1031B000520006F0E1FC03990A7807F1550002700D
:1031C000049B19784170059A11788170012008F0EC
:1031D000B2FF0FF2480003F077FF0AE009F12C007C
:1031E00003F072FF042504E009F1540003F06CFFC2
:1031F0000325284607B0BDE8F08300000D0A496E9C
:103200002050726F636573735365745A69676265A2
:1032100065436F6E6669672D3E0000000A5A696754
:1032200062656520436F6E66696720205365740090
:103230002DE9FE4304460FF2A000DFF8489C03F09E
:1032400043FF204603F040FF02232C22694620461C
:1032500004F03EFA0746484603F036FF0025012FEA
:103260000BDBE8463C461AA658F8040B03F02CFF8B
:10327000304603F029FF641EF6D1022F1CD10098BE
:10328000017861B130290DD0312904BF4078002880
:1032900008D009F1300003F017FF042511E04FF0CA
:1032A000FF3002E0A1F1300040B208F047FF0FF21A
:1032B000440003F009FF04E009F15C0003F004FF9F
:1032C0000325284603B0BDE8F0830000442B00002E
:1032D0002C000000A82000200D0A496E2050726FBB
:1032E0006365737352657365745A69676265654E89
:1032F000572D3E000A5A696762656520204E772087
:103300005265736574202053657400002DE9F04FF9
:103310000446DFF844AC87B0504603F0D5FE2046A3
:1033200003F0D2FE04F0DCFB0746D7F80090796882
:1033300001910523BA6800922C22D7F80C8002A9CB
:10334000204604F0C5F905460AF1280003F0BCFE4A
:103350000026012D0BDB0DF1080B2C465BF8040B4E
:1033600003F0B2FE6DA003F0AFFE641EF6D1052D92
:103370006AD1029B187860B10A220021184604F035
:10338000F5FA044604F017FB08B1A14601E0002558
:1033900000E0012502AC6368187850B10A220021D0
:1033A000184604F0E3FA834604F005FB10B1CDF8AB
:1033B00004B00120A3680540187850B10A2200210A
:1033C000184604F0D3FA834604F0F5FA10B1CDF8AC
:1033D00000B00120E3680540187848B10A220021B6
:1033E000184604F0C3FA044604F0E5FA08B1A04612
:1033F0000120054205D10AF1540003F065FE0426C0
:1034000027E00AF1880003F05FFEC7F8009043A4AC
:10341000019878600099B960C7F80C80386803F0AB
:103420005EFE204603F050FE786803F058FE20460A
:1034300003F04AFEB86803F052FE204603F044FE53
:10344000F86803F04CFE04E00AF1B40003F03CFE1F
:1034500003263046FEF71FB970B5DFF8E84B0020B1
:1034600020700121217086B008F034FD1122ADF8E2
:1034700000206B4601AA04F0F5F942F20F76FF2313
:10348000DFF8C42B3146601C06F076FB451CA9B260
:10349000761B022060546D1C761BB1B2AEB241F2B5
:1034A0001403DFF8A82BA01906F066FB4519A9B292
:1034B000032060546D1C04F013FBC1680291826804
:1034C000019241680FF26402009142F210710368A8
:1034D000491BA8B289B2204406F04EFB55FA80F58C
:1034E000AAB20421A1546D1C0D4803F0EDFDA8B251
:1034F00003F0F5FD0B4803F0E7FDA9B2204603F009
:10350000ECFDB64803F0E0FDA9B2204607F052FCFE
:10351000FFF7A6FBFEF7FBBB0000FF1F2C0000001F
:10352000906A0000A06A0000A8E6010025642C252E
:10353000642C25642C2564002DE9F847ADF5006D59
:10354000B9B0054603F0C0FD03232C2203A9284689
:1035500004F0BEF80646DFF8FC0A03F0B5FD0024CF
:10356000002E0CDD0DF10C0835469DA758F8040B14
:1035700003F0AAFD384603F0A7FD6D1EF6D1032E19
:103580003ED10399087800281FBF03AE7168087800
:10359000002835D003980A22002104F0E7F90546F7
:1035A00070680A22002104F0E1F90646AE4221D3F8
:1035B00040F2012086421DD2E5B100962B46DFF88D
:1035C000982A322106A806F0D7FA06A803F07CFD57
:1035D000B3B2AAB2322106A80AF07EF906460FF26B
:1035E00008200FF21C2803F06FFD00254FF0250A7C
:1035F00006AF38E0DFF8BC0C03F066FD0424E4E01D
:10360000DFF8B40C03F060FD0324DEE04179827939
:1036100042EA012201920DF5D47C007900900AFB68
:1036200005FE424624210CEB0E0018E006A800EB34
:10363000C50043780178C2781B0443EA01638178AE
:1036400043EA01231343002DE0D17879B97941EAA7
:103650000021019142463879009025216AA806F0A0
:103660008BFA6D1CEDB2B54201D2322DDEDB354650
:10367000DFF8D06942F210783470ADF8088007F0B6
:10368000DCFB022841F21F070FF2541957D108F052
:1036900021FCCDE900013A4602A930460AF04AFA77
:1036A000BDF80870A8EB0700ADF80800F4553046E7
:1036B00003F00AFD7A1E92B23146022007F09CFB0D
:1036C0000FF24817384603F0FFFC0C22394602205F
:1036D00007F092FBA0461EE06AA80AFB08F1471813
:1036E000384603F0F1FC384607F00EFA82B239464C
:1036F000022007F081FBA5EB0800022807D3012276
:103700004946022007F078FB484603F0DDFC08F14B
:1037100001001FFA80F8A845DED3FFF7A1FA5D206B
:10372000307022217D227170B270F470304603F047
:10373000CBFC03223146022007F05EFB45E03A460F
:1037400002A93046FFF792FABDF80870A8EB07000F
:10375000ADF808003A463146002007F04DFBF4551D
:10376000304603F0B1FCA0461EE06AA80AFB08F14F
:103770004718384603F0A8FC384607F0C5F982B26E
:103780003946002007F038FBA5EB0800022807D3D4
:1037900001224946002007F02FFB484603F094FC25
:1037A00008F101001FFA80F8A845DED3FFF758FAA8
:1037B0005D20042130707170B47002223146002007
:1037C00007F01AFB304603F07FFCFFF749FA0DF5CE
:1037D000006D20463AB0BDE8F0870000AC6A0000FA
:1037E0002C000000A41700200D0A496E204150490A
:1037F0002050726F63657373696E672D3E00000021
:103800005B256C642C25642C25645D002C225641BC
:103810004C554553223A225B0000000080B503F06E
:1038200053FC0AF05BF8002002BD70B59CB06A46FC
:10383000C9B200F097F8040015D10FF2C80003F0E8
:1038400043FCDDE9000103F04AFCDDE9000100244E
:103850004FF6FF72A14208BF904204D10FF2B400AC
:1038600003F032FC0724250018BF072C35D10FF2D6
:10387000BC0003F029FCBDF8080003F030FCBDF8E3
:103880000800DFF8A82C002113465C8884420BD086
:10389000491C10335029F8DB5029DFF8506D09DB43
:1038A00000203060022418E0DFF8400D02EB011226
:1038B0000260F1E73168002479B149680DF10A002E
:1038C0008847040009D131688A680120904720B1F7
:1038D0000FF2680003F0F8FB0524072D18BF062D32
:1038E0000CD02046FFF77AF9054603F0EDFB284699
:1038F00007F00AF981B2284607F05CFA20461CB0AE
:1039000070BD00000D0A4465766963652049442D49
:103910002D3E00000A2057696C64204361726420C8
:103920004465766963652049440000000A434D44BC
:103930002056616C75653A20000000000A456570EC
:10394000726F6D204572726F72000000DFF8DC1B31
:1039500001605020704700009D790000A1790000AF
:103960007B790000F0B50646B7B00020002433464E
:103970000D4601E0641CA4B213F8011B012901D01B
:10398000AC42F7DB335D012B57D1641CA4B2311973
:1039900007E011F8013B87B2641C0DF80730A4B2B0
:1039A000401C0B78022B01D0AC42F2DB315D0229C6
:1039B00043D180B200230DF80030174610220021B9
:1039C00068460AF0F1F9C7E90001641CA4B20020BE
:1039D0008DF80000311907E011F8012B83B2641C47
:1039E0000DF80320A4B2401C0A78032A01D0AC428F
:1039F000F2DB315D032920D180B200220DF80020D6
:103A000000211022684603F0B1FF3881641CA4B283
:103A100000208DF80000311907E011F8012B83B266
:103A2000641C0DF80320A4B2401C0A78042A01D0BB
:103A3000AC42F2DB315D042902D0012037B0F0BD89
:103A400080B200210DF800106B46B3A2642107F18B
:103A50000A0006F091F81E232C2219A9684603F0EB
:103A600037FE10B9032037B0F0BD19AB03EB80006F
:103A7000102250F8040C002103F078FF87F86E0044
:103A800037B00020F0BD0000D97A000014140020E7
:103A9000B3790000A579000070B50C460178154691
:103AA00049B10A22002103F061FF0646A847010040
:103AB00018BF266016E0012070BD70B50C46017875
:103AC000154669B10A22002103F050FF461EB64197
:103AD000F643F60F3046A847010018BF267001E0F4
:103AE000012070BD401E8041C043C00F70BDF8B5BD
:103AF0000446DFF85055002028700121297086B057
:103B000008F0E8F91122ADF800206B4601AA03F095
:103B1000A9FE42F20F77FF230FF240523946681C8C
:103B200006F02AF8461CB1B2BF1B02206854761C6E
:103B3000BF1BB9B2B7B24FF488530FF22852E8193D
:103B400006F01AF88619B1B203206854761CB6B292
:103B500042F21071891B0FF22C036FA289B2A819CF
:103B600006F00AF856FA80F292B20420A854521CC9
:103B700092B22946204607F03FF9FFF771F807B0E7
:103B8000F0BD00002A2A20534F4C415220434C459F
:103B9000414E4552202D2044322E3056202A2A00F4
:103BA0002DE9F0472DED048B044686B00FF270101E
:103BB00003F08AFA204603F087FA03F0A3FF804659
:103BC0000623D8F808A098ED008AD8ED018A2C22A7
:103BD0006946204603F07CFD06460FF2601003F0B4
:103BE00073FA0025002E0BDDE9463446A4A759F8E8
:103BF000040B03F069FA384603F066FA641EF6D146
:103C0000062E7CD1009A107868B10021104607F08A
:103C1000C1F8B0EE409A03F00FFF10B1B0EE498A40
:103C200001E0002400E00124019A107850B1002145
:103C3000104607F0AFF8B0EE409A03F00DFF10B158
:103C4000F0EE498A0120029B0440187848B10A220C
:103C50000021184603F08AFE064603F08EFE08B1E6
:103C6000B24601200440029806F0EAFBA0F13701B9
:103C70000A2938BF0F200FD3A0F14101062938BF10
:103C8000052009D3A0F14701052938BF022003D33D
:103C90004C380A288041C00FDFF8DC1BC8662CB9FD
:103CA000DFF8D80B03F010FA04252DE00FF2AC007A
:103CB00003F00AFA88ED008AC8ED018AC8F808A066
:103CC000032098ED000A03F021FA032098ED010A81
:103CD00003F01CFA98ED020A0320B8EE400A03F044
:103CE00015FA67A003F0F0F998ED000ADFF8900BE1
:103CF000DFED9A0A60EE200AC0ED000A04E00FF240
:103D00007C0003F0E1F9032506B02846BDEC048BE6
:103D1000BDE8F087EF790000257300007CD9010031
:103D20000D0A496E2050726F636573735365745743
:103D30006865656C4469612D3E0000000A5768653E
:103D4000656C204469612053657420526563656920
:103D50007665642056616C7565203A000A207768A4
:103D600065656C4469612053657456616C75652F97
:103D70007320736574203A20000000000A207768E1
:103D800065656C4469612053657456616C75652F77
:103D90007320496E76616C696400000078B5A94CA7
:103DA000002020700121217089B008F093F81122C1
:103DB000ADF800206B4601AA03F054FD42F20F76E5
:103DC000FF230FF298223146601C05F0D5FE451CFA
:103DD000A9B2761B022060546D1C761BB1B2AEB244
:103DE00041F231030FF27C22A01905F0C5FE4519FE
:103DF000A9B2032060546D1C03F084FE0646002126
:103E000006A896ED000A03F005FC002103A896ED34
:103E1000010A03F0FFFBDFF8600AC16E029103AAFA
:103E2000B0680190009242F21071491BA8B206AB33
:103E30000FF2540289B2204405F09EFE55FA80F537
:103E4000AAB20421A1546D1CDFF8400D03F03CF927
:103E5000A8B203F044F9DFF8380D03F035F9A9B240
:103E6000204603F03AF9DFF82C0D03F02DF9A9B242
:103E7000204606F09FFFFEF7F3FE00200AB070BD5B
:103E80002C000000F4D8010025732C25732C256428
:103E90002C2564002DE9F0472DED028B044682B0FD
:103EA0000FF2BC00DFF824AD03F00EF9204603F05A
:103EB0000BF903F029FE8046022398ED008A2C229C
:103EC0006946204603F004FC0646504603F0FCF821
:103ED0000025012E0BDBE94634465DA759F8040B9B
:103EE00003F0F2F8384603F0EFF8641EF6D1022E24
:103EF00026D1009A107840B10021104606F04AFF02
:103F0000B0EE408A03F0BAFDA0B10AF1540003F00C
:103F1000DBF888ED008A002098ED000A03F0F6F83F
:103F200098ED000ADFF8FC0CBDEEC00A80ED000A37
:103F300047A002E004250AF1280003F0C5F804E0D8
:103F40000AF1780003F0C0F8032502B02846BDEC62
:103F5000028BBDE8F087000038CB0100C3F5484074
:103F60000D0A496E2050726F636573735365744315
:103F700079636C654672657175656E63792D3E0077
:103F800070B5304C002020700121217086B007F000
:103F9000A1FF1122ADF800206B4601AA03F062FCDC
:103FA00042F20F76FF230FF2B4023146601C05F097
:103FB000E3FD451CA9B2761B022060546D1C761BE4
:103FC000B1B2AEB241F232030FF29802A01905F07D
:103FD000D3FD4519A9B2032060546D1C03F094FD74
:103FE00002460021684692ED000A03F013FB42F2FC
:103FF0001071491BA8B26B46ADA289B2204405F0EE
:10400000BBFD55FA80F5AAB20421A1546D1CDFF85E
:104010007C0B03F059F8A8B203F061F8DFF8700BDD
:1040200003F052F8A9B2204603F057F8DFF8640B0A
:1040300003F04AF8A9B2204606F0BCFEFEF710FED7
:10404000FDF765BE7482FF1F5C4000006440000005
:104050002C000000844800001C6800002530325805
:104060000000000025303458000000002DE9F04F1A
:1040700004469BB0DFF8040DDFF804BD03F024F81C
:10408000204603F021F803F041FD82466846514680
:10409000382205F02DFD0D232C220EA9204603F019
:1040A00017FB0746584603F00FF8012F4FF00009A1
:1040B0000BDB0EAD3C46DDA655F8040B03F004F80F
:1040C000304603F001F8641EF6D10D2F40F0E58074
:1040D000DFF8B04C0E98224669460EADFFF7DCFCC7
:1040E000DFF8A48C471E6868424607A9BF41FFF766
:1040F000D3FCFF4300EAD777A8687E1E224601A9B9
:10410000B641FFF7C9FCF64300EAD676E868771EA9
:10411000424608A9BF41FFF7BFFCFF4300EAD7773B
:1041200028697E1E224602A9B641FFF7B5FCF64378
:1041300000EAD6766869771E424609A9BF41FFF7B3
:10414000ABFCFF4300EAD77714987E1E224603A9F2
:10415000B641FFF7A1FCF64300EAD676E869771E80
:1041600042460AA9BF41FFF797FCFF4300EAD77711
:10417000286A7E1E224604A9B641FFF78DFCF6434D
:1041800000EAD676686A771E42460BA9BF41FFF760
:1041900083FCFF4300EAD777A86A7E1E224605A962
:1041A000B641FFF779FCF64300EAD676E86A741E5A
:1041B00042460CA9A441FFF76FFCE44310EAD47F08
:1041C00064D0DFF8C40C02F07FFF50466946382205
:1041D00005F08EFC9AED000A0220B8EE400A02F0CB
:1041E00095FF92A4204602F06FFF9AED070A012086
:1041F000B8EE400A02F08AFF204602F065FF9AED11
:10420000010A0220B8EE400A02F080FF9AED080A87
:104210000120B8EE400A02F079FF9AED020A02206E
:10422000B8EE400A02F072FF9AED090A0120B8EEDA
:10423000400A02F06BFF9AED030A0220B8EE400A32
:1042400002F064FF9AED0A0A0120B8EE400A02F07B
:104250005DFF9AED040A0220B8EE400A02F056FF14
:104260009AED0B0A0120B8EE400A02F04FFF9AEDDA
:10427000050A0220B8EE400A02F048FF9AED0C0A47
:104280000120B8EE400A02F041FF0CE00BF12400DF
:1042900002F01AFF4FF0040905E00BF14C0002F0A8
:1042A00013FF4FF0030948461BB0BDE8F08F000034
:1042B00025730000E4E2010008E3010070B5DFF8B7
:1042C000684C0020B0B0207042F21076ADF82C603F
:1042D00041F230020BA92046FEF7C8FCBDF82C5075
:1042E000761BADF82C6003F011FC0646002196ED1C
:1042F000000A2DA8B8EE400A03F08CF996ED070AE3
:1043000000211BA8B8EE400A03F084F996ED010ADB
:1043100000212AA8B8EE400A03F07CF996ED080ABD
:10432000002118A8B8EE400A03F074F996ED020ACD
:10433000002127A8B8EE400A03F06CF996ED090AAF
:10434000002115A8B8EE400A03F064F996ED030ABF
:10435000002124A8B8EE400A03F05CF996ED0A0AA1
:10436000002112A8B8EE400A03F054F996ED040AB1
:10437000002121A8B8EE400A03F04CF996ED0B0A93
:1043800000210FA8B8EE400A03F044F996ED050AA3
:1043900000211EA8B8EE400A03F03CF996ED0C0A85
:1043A00000210CA8B8EE400A03F034F91EA90CA8AD
:1043B00009910FAA0A90089224A921AB12A805918D
:1043C00015AA0793069004922AA927AB18A8019171
:1043D0001BAA0393029000922DABBDF82C10DFF8BE
:1043E0004C2B601905F0C8FB55FA80F5AAB20421E0
:1043F000A1546D1CDFF8940702F066FEA8B202F02B
:104400006EFEDFF88C0702F05FFEA9B2204602F0D4
:1044100064FEDFF8800702F057FEA9B2204606F0DE
:10442000C9FCFEF71DFC002030B070BD2C00000060
:104430002DE9FE4F04460FF2B81002F045FE20466B
:1044400002F042FE03F064FB0646D6F80090D6F870
:10445000048002232C226946204603F039F90746DE
:104460000FF2A81002F030FE0025012F0CDBEA4607
:104470003C460FF2702B5AF8040B02F025FE58460A
:1044800002F022FE641EF6D1022F30D1009B187874
:1044900060B10A220021184603F068FA044603F0CE
:1044A00012FB08B1A14601E0002400E001240098BD
:1044B00005F0C6FF07462CB9DFF8D00D02F004FE68
:1044C00004250AE0C6F80090C6F804800FF25C10DC
:1044D00002F0FAFD306802F002FEFFB2012F0BD1AC
:1044E00006F012FD40B90D2006F006FD04E00FF2C3
:1044F000581002F0E9FD0325284600F0BFBC7CB54A
:10450000DFF8244A0020207042F21075ADF8005008
:1045100041F2330269462046FEF7A8FBBDF8006071
:10452000AD1BADF8005003F0F3FAB3E00000FF1F3D
:104530002DE9FC4704460FF2B80002F0C5FD204605
:1045400002F0C2FD03F0E6FA06460223D6F8008028
:104550002C226946204603F0BBF807460FF2AC0058
:1045600002F0B2FD0025012F0CDBE9463C460FF2BC
:10457000741A59F8040B02F0A7FD504602F0A4FD8E
:10458000641EF6D1022F29D1009B187860B10A224F
:104590000021184603F0EAF9044603F097FA08B13F
:1045A000A04601E0002400E00124019805F048FF46
:1045B00007462CB9DFF8D40C02F086FD042508E08C
:1045C000C6F800800FF2640002F07EFD306802F051
:1045D00086FDFFB23FB904F033FF04E00FF268003C
:1045E00002F072FD03252846BDE8F687142000205E
:1045F0000D0A496E2050726F63657373536574437F
:104600006F6E74696E75652D3E0000000A436F6E13
:1046100074696E75652053657420526563656976AB
:1046200065642056616C756573203A000A20436FFB
:104630006E74696E75652053657456616C75652F6F
:1046400073205365740000000A20436F6E74696E16
:1046500075652053657456616C75652F7320496EBE
:1046600076616C69640000007CB5DFF8BC4800200E
:10467000207042F21075ADF8005041F234026946E4
:104680002046FEF7F3FABDF80060AD1BADF8005010
:1046900003F040FA0368BDF8001075A2A01905F0F8
:1046A0006BFA56FA80F5AAB20421A1546D1CDFF80A
:1046B000DC0402F009FDA8B202F011FDDFF8D0041D
:1046C00002F002FDA9B2204602F007FDDFF8C404A3
:1046D00002F0FAFCA9B2204606F06CFBFEF7C0FA25
:1046E000002076BD2C0000002DE9F04383B0044685
:1046F00002F0EAFC02232C2201A9204602F0E8FF86
:1047000007460FF28010DFF8206802F0DDFC30462B
:1047100006F0FAF90146304609F022F8002F4FF072
:1047200000080CDD01AD3C460FF2481955F8040BAA
:1047300002F0CAFC484602F0C7FC641EF6D1022F04
:1047400040F08C800198002800F0888005F078FE09
:10475000044642F2107786F80080ADF8007041F20E
:104760003F0269463046FEF781FABDF80050781BDB
:10477000ADF800002821F01905F032FFDFF8187BB2
:1047800042F211794946384609F012FB4946DFF8F2
:104790000C0B09F00DFB012C02D109F0DCFB12E03F
:1047A000022C02D109F0B5FC0DE0032C02D109F076
:1047B000CFFD08E0042C02D109F0CEFF03E0052C68
:1047C00009D109F0A5FEBDF800103B46D3A270192F
:1047D00005F0D2F917E0062C15D10FF2C8000BF046
:1047E0004BF90FF2D0000BF047F90FF2D4000BF0A9
:1047F00043F90FF2DC000BF03FF90FF2E4000BF08D
:104800003BF909F0D9FA384606F07EF94519ADB200
:10481000042070556D1CDD4802F056FCADB22846F0
:1048200002F05DFCDA4802F04FFC2946304602F007
:1048300054FCD84802F048FC08F076FD012803D16A
:104840002A463146022004E008F06EFD18B92A46D7
:10485000314606F0D1FAFEF703FA05E0DFF8AC0DB9
:1048600002F032FC4FF003084046FEF72BBD00007B
:10487000256400002C0000001414002008EA010048
:10488000A82000200A52657175657374204C6F670B
:104890002052656365697665642056616C75657341
:1048A000203A000054656D70657261742E747874DE
:1048B00000000000534F436C6F672E747874000043
:1048C0004D4F544F524352542E74787400000000E0
:1048D0004155544F4359434C2E74787400000000E6
:1048E0004552524F524C4F472E74787400000000CE
:1048F00070B5DFF89C5BDFF89C0BD5ED0A0A90EDF4
:10490000000ADFF8944B60EE200AFDEEE00AC4EDE9
:10491000130A03F0F7F894ED130AD0ED010AE16EE3
:10492000B8EEC00AC0EE200AFDEEE00A10EE900AD2
:1049300090FBF1F100EE101AE064B8EEC00A85EDCC
:104940000F0AA16C012935D100EE100AB8EEC00A99
:10495000D4ED0D0AC0EE800AC5ED0C0AA16DD4EDB0
:104960000C0A91FBF0F200FB1211216580EE800A27
:10497000E16D91FBF0F300FB1310606585ED0B0A10
:104980000021201D02F046FE002104F1180095EDE3
:104990000C0A02F03FFED4ED140A95ED0F0AF8EE72
:1049A000E00AC0EE800AFDEEE00AC5ED160A94EDBD
:1049B000151A92E002290A4642D1A16E00EE100AB1
:1049C00000EE901AB8EEC00AF8EEE00AC0EE800AD7
:1049D000C5ED0E0A91FBF0F6626E92FBF0F300EE6D
:1049E000902A00FB132300FB16106865F8EEE00A1E
:1049F0002B6580EE800A85ED0D0A002104F5AC7070
:104A000002F008FE002104F5B67095ED0E0A02F0E2
:104A100001FED5ED140A95ED151A95ED0F0AF8EE85
:104A2000E00AB8EEC11AC0EE800A81EE000AFDEE7F
:104A3000E00ABDEEC00AC5ED180A85ED190A54E07A
:104A4000032912D194ED1C0AB8EEC00AF8EEE00A70
:104A500080EE200ABDEEC00A85ED1A0A0021284624
:104A6000B8EEC00A02F0D6FD3FE004293ED100EEC8
:104A7000100AB8EEC00AD4ED0F0AC0EE800AC5EDE8
:104A8000110A216C91FBF0F200FB1211A964616C18
:104A900091FBF0F300FB1310E8640021D4ED0E0A43
:104AA00080EE800A85ED100A05F1140002F0B2FDD7
:104AB0000021DFF8600D95ED110A02F0ABFDD5ED98
:104AC000120A95ED0F0A95ED131AF8EEE00AC0EE02
:104AD000800AFDEEE00AC5ED160AB8EEC11A81EEB5
:104AE000000ABDEEC00A85ED170A0022A26470BD5F
:104AF00010B5002008F038FEDFF81C4D02212046DA
:104B000002F088FD012008F02FFE022104F10C00C4
:104B100002F080FD07F0CEFF50E00000257300009A
:104B20001CB507F04CFFDFF8F44C0121204602F0E1
:104B300071FD07F06FFF012104F10C0002F06AFD26
:104B400007F055FF012104F1180002F063FD07F0A2
:104B5000B1FF012104F1300002F05CFD684607F06E
:104B600083FF9DF804009DED000A08B9B1EE400AEC
:104B7000012104F1240002F04DFD07F0E5FE0221C1
:104B800004F13C0002F046FD16BD0000906A0000F2
:104B9000A06A0000AC6A000010B508F0BFFCDFF8A6
:104BA000784A0221204602F035FD08F0D3FC0221AC
:104BB00004F10C0002F02EFD08F0F2FC04F11800E4
:104BC000BDE81040022102F025BD0000D0D4010054
:104BD00030B58DB006F098F90446DFF8405A6921E7
:104BE000284608F0BDFD2346A6A20321284604F06E
:104BF000C3FF282103A805F0F3FC03A9284608F009
:104C0000A9F9C8A4214608F0A5F907F09DFE0221E4
:104C1000684602F0FFFC6946284608F09BF92146E9
:104C200062E00000A420002038B58EB00021ADF86D
:104C300000100022DFF8EC0BDFF8E0490178027089
:104C400030318DF8001004A8282105F0C9FC04A912
:104C5000204608F07FF9B3A5294608F07BF907F054
:104C600073FE022101A802F0D5FC01A9204608F03C
:104C700071F9294608F06EF96946204608F06AF98C
:104C80000FB030BD30B5DFF8104804F180058DB0AD
:104C90006921284609F08CF8EC346921204609F096
:104CA00087F80FF24C01284608F054F9282103A890
:104CB00005F096FC03A9284608F04CF999A5294669
:104CC00008F048F903A9204608F044F9294608F0FD
:104CD00041F907F039FE0221684602F09BFC694663
:104CE000204608F037F9294608F034F90DB030BDF8
:104CF0004379636C652053746172742054696D65E7
:104D00003A20000070B58EB00021ADF800100022EE
:104D1000DFF8100BDFF880470178027030318DF832
:104D2000001004A8282105F05BFC0FF2600104F1DB
:104D3000800008F00FF904A908F00CF904F1EC0563
:104D400004A9284608F006F976A6314608F002F9CB
:104D500007F0FAFD022101A802F05CFC01A9284637
:104D600008F0F8F8314608F0F5F86946284608F0EA
:104D7000F1F8012020700EB070BD000068690000DD
:104D80004CDB0100B97A0000C37A000020456E6454
:104D90002054696D653A20002DE9FE4F04460FF25C
:104DA000EC00DFF8F08B02F08FF9204602F08CF96E
:104DB00002F0B2FE83460223DBF800902C22694603
:104DC000204602F085FC0546404602F07DF90026AB
:104DD000012D0BDBEA462C4652A75AF8040B02F0D1
:104DE00073F9384602F070F9641EF6D1022D3FD1F6
:104DF000DFF8A4460320A064009806F0FEFF51EC03
:104E0000100B0AF089FE2067009805F019FB42F2AA
:104E100010718842206623DBFFF76AFD0FF28800DD
:104E200002F052F9DFF86836187840B10A22002102
:104E3000184602F09BFD81460120C04650B10FF29A
:104E40007C0002F041F9CBF80090484602F047F9A7
:104E5000B2A002E0042608F1240002F035F90CE0CB
:104E600008F14C0002F030F9002003F07EFD03E071
:104E700008F14C0002F028F90326304603B0BDE8E3
:104E8000F08F000025642C00886900000D0A496E2F
:104E90002050726F6365737353657450756C7365DE
:104EA000436F756E742D3E000D0A496E2050756C6F
:104EB000736563616C632D3E000000000A2050752D
:104EC0006C736520436F756E742053657456616C06
:104ED00075652F7320736574203A20007CB5124CE1
:104EE0000020207042F21075ADF8045041F23502F6
:104EF00001A92046FDF7BAFEBDF80460AD1BADF870
:104F0000045002F009FEDFF8901500680B6EBDF842
:104F100004100FF21C020090A01904F02DFEFFF700
:104F2000C0BB00002C0000007482FF1F2CEA0100AF
:104F300025642C25640000002DE9F04FADF5A06D2F
:104F4000054695B0DFF8540A02F0BEF8284602F094
:104F5000BBF82B232C220DF59561284602F0B8FBF7
:104F60000746DFF83C0A02F0AFF8012F4FF00008C7
:104F70000CDB0DF5956B3D4669A45BF8040B02F064
:104F8000A3F8204602F0A0F86D1EF6D12B2F00F3F7
:104F9000BB80DDF8A814087800281FBF0DF59565C3
:104FA00069680878002800F0AF80DDF8A8040A22BC
:104FB000002102F0DBFC064668680A22002102F0AC
:104FC000D5FC0546B542C0F09880152D80F095803F
:104FD000002E00F0928000953346DFF8A82B322196
:104FE00005A804F0C9FD05A802F06EF8AD1B6D1C04
:104FF0000095A7F1030ADFF8900B02F065F800981E
:1050000002F06DF8DFF8840B02F05EF8504602F013
:1050100066F80098400050457AD102F0B9F8029045
:1050200012A802994FF48C6204F062FDDFF8602B45
:105030000392701E12A9554601274FF0020B01EB97
:10504000C0040DF59669824601961AE0039A59F854
:10505000040B2146FEF720FD0740039A59F8040B84
:105060007E1EB641211DFEF717FDF64300EAD676F7
:10507000771EBF41FF43FF0F0AF1010A0BF1020B3C
:105080000834009801990818401E0490049882453D
:1050900001D25D45DAD2009D47B3DFF8F80A02F08D
:1050A00013F8029812A94FF48C6204F021FD0198C4
:1050B0000299A0F1010B0198451901EBCB046D1E7B
:1050C0000FF2CC190FF2580AAB4523D2206802F038
:1050D00006F8504601F0F8FF606802F000F8484614
:1050E00001F0F2FF0BF1010B0834EDE7DFF8A80A3D
:1050F00001F0EAFF4FF004080CE0DFF8A00A01F02D
:10510000E3FF4FF0040805E0DFF8FC0B01F0DCFFE3
:105110004FF003080DF5A06D404677E3202C00000A
:105120002C0000002DE9F847044691B0DFF8700A22
:1051300001F0CAFF204601F0C7FF03232C2201A97A
:10514000204602F0C5FA0546DFF8C00B01F0BCFFAF
:105150000026012D0DDB0DF104092C460FF2341849
:1051600059F8040B01F0B0FF404601F0ADFF641E9A
:10517000F6D1032D4AD10199087800281FBF01AD4F
:1051800069680878002841D001980A22002102F0BD
:10519000EDFB044668680A22002102F0E7FB07469F
:1051A000A7422DD3152F2BD254B3381B152827D245
:1051B00000972346DFF8CC29322104A804F0DCFC58
:1051C00004A801F081FFDFF84C9B42F2107889F8C7
:1051D0000060ADF8008041F2410269464846FDF7A3
:1051E00045FDBDF80050A8EB0500ADF80000641EB9
:1051F00001F0CEFF7F1E00EBC40ADFF81C8B22E01B
:10520000DFF8180B01F060FF04263DE0DFF8100B1B
:1052100001F05AFF032637E05AF8043BBDF80010AE
:10522000A8B24246484404F0A7FC55FA80F55AF863
:10523000043BBDF80010A8B24246484404F09CFC70
:1052400055FA80F5641CA742E6D26C1EA1B2042078
:1052500009F80100641CDFF8CC0A01F035FFA0B2A8
:1052600001F03DFFDFF8C00A01F02EFFA1B2484671
:1052700001F033FFDFF8A00C01F026FFA1B2484691
:1052800005F098FDFDF7ECFCBCE1000050EA0100E0
:10529000202000002C0000004C32FF1F380BFF1FA5
:1052A0002DE9F04FADF5A06D054695B0DFF8EC06A1
:1052B00001F00AFF284601F007FF2B232C220DF5F1
:1052C0009561284602F004FA0646DFF8D40601F09C
:1052D000FBFE012E4FF0000A0DDB0DF5956B3546F8
:1052E0000FF2A8185BF8040B01F0EEFE404601F047
:1052F000EBFE6D1EF6D12B2E00F3C180DDF8A81455
:10530000087800281FBF0DF59565696808780028A2
:1053100000F0B580DDF8A8040A22002102F026FB87
:10532000044668680A22002102F020FB0546A542D7
:10533000C0F09E80152D80F09B80002C00F098809E
:1053400000952346DFF83C28322105A804F014FC20
:1053500005A801F0B9FE2D1B6D1C0095F61EDFF8A7
:10536000280801F0B1FE009801F0B9FEDFF81C0832
:1053700001F0AAFE304601F0B2FE00984000B042B3
:1053800040F0818001F004FF029012A802994FF4CE
:105390008C6204F0ADFB601E12A901EBC00202F1A9
:1053A000A008DFF8EC270392354601274FF0020BE7
:1053B0000DF59669064601941BE0039A59F8040B13
:1053C0004146FEF769FB0740039A59F8040B7C1E1F
:1053D00008F10401A441FEF75FFBE44300EAD47442
:1053E000671EBF41FF43FF0F761C0BF1020B08F154
:1053F0000808009801990818401E049004988642F5
:1054000001D25D45D9D2009D5FB3DFF8880701F076
:105410005BFE029812A94FF48C6204F069FB019EB6
:105420000298761E00EBC6010198451901F1A0080B
:105430006D1E0FF2DC190FF2540BAE4225D2D8F8D4
:10544000000001F04CFE584601F03EFED8F8040082
:1054500001F045FE484601F037FE761C08F10808C9
:10546000EBE7DFF8340701F02FFE4FF0040A0CE001
:10547000DFF8280701F028FE4FF0040A05E0DFF806
:10548000880801F021FE4FF0030ABCE12C00000067
:105490006807FF1FA8200020141400202DE9F847FA
:1054A000044691B0DFF8F80601F00EFE204601F048
:1054B0000BFE03232C2201A9204602F009F9054620
:1054C000DFF8480801F000FE0026012D0DDB0DF18C
:1054D00004092C460FF23C1859F8040B01F0F4FDB6
:1054E000404601F0F1FD641EF6D1032D4CD1019927
:1054F000087800281FBF01AD69680878002843D0EC
:1055000001980A22002102F031FA044668680A2252
:10551000002102F02BFA0746A7422FD3152F2DD2D8
:1055200064B3381B152829D200972346DFF8542688
:10553000322104A804F020FB04A801F0C5FDDFF827
:10554000D49742F2107889F80060ADF8008041F2FB
:10555000420269464846FDF789FBBDF80050A8EBBA
:105560000500ADF80000641E01F012FE00EBC4005F
:105570007F1E00F1A00ADFF8A08722E0DFF89C0779
:1055800001F0A2FD04263DE0DFF8940701F09CFD48
:10559000032637E05AF8043BBDF80010A8B2424693
:1055A000484404F0E9FA55FA80F55AF8043BBDF88E
:1055B0000010A8B24246484404F0DEFA55FA80F5DD
:1055C000641CA742E6D26C1EA1B2042009F80100B7
:1055D000641CDFF8500701F077FDA0B201F07FFDF9
:1055E000DFF8440701F070FDA1B2484601F075FDF7
:1055F000DFF8240901F068FDA1B2484605F0DAFBA6
:10560000FDF72EFB304612B0BDE8F08708E301003D
:10561000202000002C000000281D002084190020FC
:105620002DE9F04FADF5A06D054695B0DB4801F0D2
:105630004BFD284601F048FD2B232C220DF59561EA
:10564000284602F045F80646D54801F03DFD012EFA
:105650004FF0000A0DDB0DF5956B35460FF2C018C3
:105660005BF8040B01F030FD404601F02DFD6D1E8E
:10567000F6D12B2E00F3C180DDF8A814087800289D
:105680001FBF0DF5956569680878002800F0B580A2
:10569000DDF8A8040A22002102F068F904466868CF
:1056A0000A22002102F062F90546A542C0F09E8060
:1056B000152D80F09B80002C00F0988000952346EB
:1056C000DFF8C024322105A804F056FA05A801F03D
:1056D000FBFC2D1B6D1C0095F61EDFF8AC0401F0E1
:1056E000F3FC009801F0FBFCDFF8A00401F0ECFCF7
:1056F000304601F0F4FC00984000B04240F0818058
:1057000001F046FD029012A802994FF48C6204F059
:10571000EFF9601E12A901EBC00202F5A078DFF8D4
:1057200070240392354601274FF0020B0DF5966960
:10573000064601941BE0039A59F8040B4146FEF714
:10574000ABF90740039A59F8040B7C1E08F10401D9
:10575000A441FEF7A1F9E44300EAD474671EBF41F7
:10576000FF43FF0F761C0BF1020B08F108080098AD
:1057700001990818401E04900498864201D25D45A4
:10578000D9D2009D5FB3DFF80C0401F09DFC0298B4
:1057900012A94FF48C6204F0ABF9019E0298761EB8
:1057A00000EBC6010198451901F5A0786D1E0FF2B6
:1057B000E0190FF26C0BAE4225D2D8F8000001F0D0
:1057C0008EFC584601F080FCD8F8040001F087FCFC
:1057D000484601F079FC761C08F10808EBE7DFF891
:1057E000B80301F071FC4FF0040A0CE0DFF8AC03E1
:1057F00001F06AFC4FF0040A05E0DFF80C0501F047
:1058000063FC4FF0030A0DF5A06D504615B0BDE8DE
:10581000F08F0000DC1E0020041D0020301B002043
:105820002C0000003D2000202DE9F847044691B0EF
:10583000DB4801F049FC204601F046FC03232C2202
:1058400001A9204601F044FF0546DFF8C00401F03D
:105850003BFC0026012D0DDB0DF104092C460FF257
:10586000381859F8040B01F02FFC404601F02CFCCD
:10587000641EF6D1032D4BD10199087800281FBF73
:1058800001AD69680878002842D001980A220021F9
:1058900002F06CF8044668680A22002102F066F8FB
:1058A0000746A7422ED3152F2CD25CB3381B1528E0
:1058B00028D200972346B34A322104A804F05CF9A9
:1058C00004A801F001FCDFF84C9442F2107889F84A
:1058D0000060ADF8008041F2430269464846FDF79A
:1058E000C5F9BDF80050A8EB0500ADF80000641E36
:1058F00001F04EFC00EBC4007F1E00F5A07ADFF83B
:10590000188422E0DFF8140401F0DEFB04263DE0F9
:10591000DFF80C0401F0D8FB032637E05AF8043B0B
:10592000BDF80010A8B24246484404F025F955FAE3
:1059300080F55AF8043BBDF80010A8B2424648442E
:1059400004F01AF955FA80F5641CA742E6D26C1EE1
:10595000A1B2042009F80100641CDFF8C80301F0BB
:10596000B3FBA0B201F0BBFBDFF8BC0301F0ACFB62
:10597000A1B2484601F0B1FBDFF8180701F0A4FB23
:10598000A1B2484605F016FAFDF76AF93AE60000BA
:105990002020000024C801002C000000F465000055
:1059A000D4D701002DE9F04FADF5A06D054695B0B7
:1059B000DFF8340C01F088FB284601F085FB2B232F
:1059C0002C220DF59561284601F082FE0646DFF88F
:1059D0001C0C01F079FB012E4FF0000A0DDB0DF5D8
:1059E000956B35460FF298185BF8040B01F06CFBD1
:1059F000404601F069FB6D1EF6D12B2E00F3B980F5
:105A0000DDF8A814087800281FBF0DF595656968B2
:105A10000878002800F0AD80DDF8A8040A220021F3
:105A200001F0A4FF044668680A22002101F09EFFED
:105A30000546A542C0F09780152D80F09480002C7B
:105A400000F09180009523464E4A322105A804F0CB
:105A500093F805A801F038FB2D1B6D1C0095F61E70
:105A6000494801F031FB009801F039FB474801F04B
:105A70002BFB304601F033FB00984000B0427CD154
:105A800001F086FB029012A802994FF48C6204F098
:105A90002FF8601E12A901EBC00202F5F0783C4A13
:105AA0000392354601274FF0020B0DF59669064625
:105AB00001941BE0039A59F8040B4146FDF7ECFFF3
:105AC0000740039A59F8040B7C1E08F10401A44115
:105AD000FDF7E2FFE44300EAD474671EBF41FF43D1
:105AE000FF0F761C0BF1020B08F1080800980199D2
:105AF0000818401E04900498864201D25D45D9D210
:105B0000009D57B3234801F0DFFA029812A94FF421
:105B10008C6203F0EDFF019E0298761E00EBC60139
:105B20000198451901F5F0786D1E0FF2D8190FF2A2
:105B3000500BAE4223D2D8F8000001F0D0FA5846FC
:105B400001F0C2FAD8F8040001F0C9FA484601F0A1
:105B5000BBFA761C08F10808EBE70F4801F0B4FA2D
:105B60004FF0040A0BE00D4801F0AEFA4FF0040AC2
:105B700005E0DFF8840801F0A7FA4FF0030A42E6D7
:105B80002C0000001C680000146600003066000055
:105B9000B379000048660000F8D7010020D8010062
:105BA000DC6700002DE9F847044691B0DFF8240CCB
:105BB00001F08AFA204601F087FA03232C2201A97A
:105BC000204601F085FD0546504801F07DFA00268B
:105BD000012D0DDB0DF104092C460FF2341859F894
:105BE000040B01F071FA404601F06EFA641EF6D122
:105BF000032D4BD10199087800281FBF01AD6968BA
:105C00000878002842D001980A22002101F0AEFE57
:105C1000044668680A22002101F0A8FE0746A74250
:105C20002FD3152F2DD264B3381B152829D20097F6
:105C30002346DFF8A42B322104A803F09DFF04A81B
:105C400001F042FADFF8CC9042F2107889F8006057
:105C5000ADF8008041F2440269464846FDF706F877
:105C6000BDF80050A8EB0500ADF80000641E01F07F
:105C70008FFA00EBC4007F1E00F5F07ADFF8988001
:105C800020E0264801F020FA04263AE0244801F0FA
:105C90001BFA032635E05AF8043BBDF80010A8B201
:105CA0004246484403F068FF55FA80F55AF8043B31
:105CB000BDF80010A8B24246484403F05DFF55FA13
:105CC00080F5641CA742E6D26C1EA1B2042009F83C
:105CD0000100641C134801F0F7F9A0B201F0FFF9CC
:105CE000114801F0F1F9A1B2484601F0F6F9DFF8E8
:105CF000A40301F0E9F9A1B2484605F05BF8FCF70E
