:020000040000fa
:020000040040ba
:10000000f0ff45200dbf4200bb874000bb594200b6
:10001000c73e4300cd3e4300d33e430000000000f6
:100020000000000000000000000000009fa0400051
:10003000c13e4300000000009fa0400011ed4200bf
:100040009fa040009fa040009fa040009fa04000b4
:100050009fa040009fa040009fa040004db84200dc
:10006000b5b8420000000000ede442009fa040004f
:10007000a1014300e9954200e194420065954200e8
:10008000d1014300010243004d974100594a41000c
:100090009fa040009fa040009fa0400011c84200c8
:1000a0009fa040009fa040009fa040009fa0400054
:1000b0009fa040009fa040009fa040009fa0400044
:1000c0009fa040009fa040009fa0400000000000b3
:1000d0000000000000000000000000000000000020
:1000e0009fa04000f14741009fa0400019a8410097
:1000f0009fa040009fa040009fa040009fa0400004
:100100009fa040009fa040009fa040009fa04000f3
:100110009fa0400000000000000000000000000060
:100120009fa040009fa04000f17942009fa04000a6
:100130009fa040009fa040009fa040009fa04000c3
:100140009fa040009fa040000000000000000000b1
:0c0150009fa040009fa040009fa0400026
:020000040000fa
:020000040040ba
:10015c00f8b500bff8bc08bc9e467047d1e342001e
:10016c00f8b500bff8bc08bc9e467047ade3420032
:020000040000fa
:020000040040ba
:08017c00061b01000100000058
:020000040000fa
:020000040040ba
:1001840090b5d9b030af32f09bff034687f8973073
:1001940033f03efbc7f89000042387f88f3032f029
:1001a400f7fa0a460146be4b1b684ff00004c91a11
:1001b40062eb0402bb4b1b684ff00004a24208bf71
:1001c400994202d3b84b01221a7033f017fbc7f8d7
:1001d400880097f897300f2b01f2098301a252f897
:1001e40023f000bfdd1740002902400097044000bf
:1001f400090540001b05400059074000bb074000ab
:1002040015144000ff144000d51540008d15400022
:10021400591640000f174000211740002d174000c9
:10022400dd164000a14b00221a70ff2031f0defde4
:100234002df0ceff9e4b00221a709e4b00221a8096
:100244009c4b1b881a469c4b1a609c4b00221a80bc
:100254009b4a9c4b10461946c8231a4633f0c9f9e9
:10026400994b1b689ab2994b1a80954c984b2e93d4
:10027400684604f11003b822194633f0baf994e839
:100284000f002af04bff03461a46924b1a708c4c0f
:100294008f4b2e93684604f11003b822194633f0ad
:1002a400a8f994e80f002af0e2fb03461a468a4ba9
:1002b4001a70884b1a78884b1b781344dab2874b30
:1002c4001a70874bd3e900347d4a02f5a472c2e95f
:1002d40000347b4b834a03f5a87311464ff42a720a
:1002e400184633f086f9002030f0a4fb012031f0e9
:1002f4006dfd7d4b01221a700023c7f89c30774bab
:100304001b78013bc7f898303ee0724b1b781a46c5
:10031400d7f89c309a420edd694ad7f89c300433f2
:100324009b0013445b681946654ad7f8983032330a
:1003340042f823101ee0674b1b781a46d7f89c300e
:100344009a4217dc654b1b781a46d7f89c309a42c0
:1003540010db604b1b781a46d7f89c309b1a584a1e
:100364001e3352f823301946554ad7f898303233a1
:1003740042f82310d7f89c300133c7f89c30d7f8e3
:100384009830013bc7f89830544b1b781a46d7f87d
:100394009c309a42b9dcd7f890301b68002b0ed001
:1003a400d7f890301a68514b1b689a4207dc1b201f
:1003b40032f0a2f90b2031f0a9fc01f018ba474b36
:1003c4001b78002b08d032f093fe0346002b0cd18f
:1003d400022031f09bfc08e0102030f02bfb444855
:1003e40031f092fa0b2031f091fc00202ff0f6ff4f
:1003f4000346002b1cd001202ff0f0ff0346002bf6
:1004040016d03c4b03221a70132030f013fb3a48e9
:1004140031f07afa012031f0a9fc384b1b78013312
:10042400dab2364b1a70354b1a78354b1a702ce009
:10043400254b1b68002b03db2e4b00221a7024e093
:1004440032f0beff0346012b09d12b4831f05cfa90
:100454000e2031f05bfc032031f078fc15e0254bd5
:1004640003221a70132030f0e5fa234831f04cfad5
:10047400012031f07bfc214b1b780133dab21f4b96
:100484001a701e4b1a781e4b1a702df099f901f050
:10049400aeb932f0a1fc032031f038fc01f0a7b969
:1004a4005cff402060ff40202a004120b1824020b0
:1004b400230041203ef54020e42f4020eafc402068
:1004c400a07e40203c5b40208c694020d46c4020be
:1004d400988240202b0041202c0041202d004120f7
:1004e400a8824020546140202e00412040ff40203b
:1004f400ac9540002f004120e8954000085d402065
:10050400fc7240209e4b01221a70012031f0befb88
:10051400042031f0fbfb9b4b01221a7032f0f0fbfc
:1005240031f024fd984b1b78002b3bd1974b1b7863
:100534009ab2974b1b889a420cd9954b1b88954ac3
:1005440004339b0013445b6800221946002020f00a
:100554004ffa1ce08d4b1b789ab28d4b1b889a4244
:1005640015d88d4b1b789ab2894b1b889a420ed9a9
:10057400874b1b881a46854b1b78d31a854a1e3332
:1005840052f8233000221946002020f031fa33f0cb
:10059400a5fa7f4b1b88dbb20133dbb2184631f07e
:1005a40025fc3ee0784b1b78012b3ad1774b1b7826
:1005b4009ab2774b1b889a420cd9754b1b88754aa3
:1005c40004339b0013445b6800221946012020f089
:1005d4000ffa1ce06d4b1b789ab26d4b1b889a4244
:1005e40015d86d4b1b789ab2694b1b889a420ed969
:1005f400674b1b881a46654b1b78d31a654a1e3312
:1006040052f8233000221946012020f0f1f933f08a
:1006140065fa5f4b1b88dbb20133dbb2184631f05d
:10062400e5fb5d4b1b789ab2594b1b889a4211d853
:10063400092031f06bfb32f0abf803460c461a4646
:10064400564b1a60564b4ef660221a60554b0022e8
:100654001a707fe04b4b01221a70052031f056fbd3
:1006640032f096f803460c461a464c4b1a6032f0a8
:100674001bfd0346002b35d1444b1b789ab2444be7
:100684001b889a420ed9424b1b88424a04339b0072
:1006940013445b6842f2107202fb03f31a46404ba8
:1006a4001a6054e0394b1b789ab2394b1b889a4232
:1006b4004dd8394b1b789ab2354b1b889a4246d990
:1006c400334b1b881a46314b1b78d31a314a1e33dd
:1006d40052f8233042f2107202fb03f31a46304bf5
:1006e4001a6034e0294b1b789ab2294b1b889a4232
:1006f4000ed9274b1b88274a04339b0013445b689d
:1007040042f2107202fb03f31a46254b1a601ee0f4
:100714001e4b1b789ab21e4b1b889a4217d81e4b4d
:100724001b789ab21a4b1b889a4210d9184b1b8813
:100734001a46164b1b78d31a164a1e3352f8233026
:1007440042f2107202fb03f31a46154b1a60154b62
:1007540000221a70144b1b78192b29d1134b1b78c8
:10076400dbb2002b01f03a800f4b00221a70064bcb
:1007740000221a70032031f0c9fa01f02fb800bf2b
:1007840008614020260041202f0041202b004120f9
:100794003ef54020a07e40202d0041205cff4020fb
:1007a40060ff40202a004120a282402028004120ee
:1007b400062031f0abfa022031f008fb33f06ef87a
:1007c400c7f88400d7f884203b461146782218469f
:1007d40032f00fff30f0d4fdaf4833f067fb03462f
:1007e400c7f880302cf0ecffac4b1b7883f001038e
:1007f400dbb2002b00f0ef8532f026fc0346002b21
:1008040000f0bc85d7f890301b68fb67fb6f002baa
:1008140040f08881a24b1b68002b40f08381a14be0
:100824001b78012b0cd144f620602ff0e9f89d4b86
:1008340000221a709c4b00221a709c4b01221a70e1
:100844009b4b1b68002b10db994b1b68092b0cdca2
:10085400974b1b689b0007f1a002134453f8a03c7c
:100864001a46d7f880309a4230d0914b1b68092b36
:1008740012dd8f4b1b68132b0edc8d4b1b680a3b60
:100884000a339b0007f1a002134453f8a03c1a4614
:10089400d7f880309a4219d0854b1b68132b40f34c
:1008a400d280834b1b68192b00f3cd80804b1b68cf
:1008b400143b14339b0007f1a002134453f8a03ceb
:1008c4001a46d7f880309a4240f0bd80774b002218
:1008d4001a7032f09dfc01201df0c0f829f010fac6
:1008e4000346022b40f01b81724b1b789ab2724b69
:1008f4001b889a4251d933f0dbf901466e4b1b88b1
:100904006e4a04339b0013445b68cb1a002bb8bfb8
:100914005b421c4632f0e0ff03461b689c4232d81f
:10092400072031f0f3f9624b1b680133604a13600e
:100934005f4b1b68624a136032f0e2f9614b1b782b
:10094400002b04d15c4b1a885f4b1a800ae05d4b84
:100954001b78012b06d1584b1a885b4b1a80594bd4
:1009640000221a70002031f0e1f94c4b00221a7079
:1009740031f00eff03460c461a46544b1a60544b92
:10098400544a1a60cbe00f2031f0c0f9122030f045
:1009940051f8514830f0b8ffc1e0464b1b789ab289
:1009a400454b1b889a4200f2ba804c4b1b789ab292
:1009b400414b1b889a4240f2b28033f079f90146e8
:1009c4003d4b1b883d4a1e3352f82330cb1a002b73
:1009d400b8bf5b421c4632f07fff03461b689c4253
:1009e40027d8072031f092f9364b1b78002b04d11d
:1009f400314b1a88344b1a800ae0324b1b78012b96
:100a040006d12d4b1a88304b1a802e4b00221a70b7
:100a1400002031f08bf9214b00221a7031f0b8fe1e
:100a240003460c461a46294b1a60294b294a1a6078
:100a340075e00f2031f06af912202ff0fbff2648f1
:100a440030f062ff6be0184b1b78dbb2002b00f038
:100a5400d984164b1b78012b40f0d48430f0dcfb96
:100a64000346002b3ed01e4b1b78192b0dd11c4b7b
:100a740000221a70134b00221a70032031f046f939
:100a840001201cf0ebff00f0b2be1a202ff0d2ffc1
:100a94000f2031f03bf92ee0006f40202a00412066
:100aa4009c69402026004120250041202700412048
:100ab4008c6940202b0041203ef54020a07e402040
:100ac40040ff40202f004120d2ff40205cff402007
:100ad40060ff402020bf0200249640002d004120ea
:100ae400a282402019202ff0a5ff0f2031f00ef92b
:100af4009c4b00221a709c4b01221a7032f000f9b0
:100b0400012031f033f9994b1b780133dab2974b5a
:100b14001a70964b1a78964b1a7000f073bc00bf8b
:100b240000f070bcfb6f002b40f0b582914b1b684a
:100b3400002b00f0b0828c4b1b78012b0cd142f2bd
:100b440010702ef05dff884b00221a708a4b002231
:100b54001a70844b01221a70864b1b68002b11d02b
:100b6400844b1b680a2b0dd8824b1b68013b9b00ee
:100b740007f1a002134453f8a03c1a46d7f880307a
:100b84009a4230d07b4b1b680a2b12d9794b1b68d5
:100b9400142b0ed8774b1b680b3b0a339b0007f1d1
:100ba400a002134453f8a03c1a46d7f880309a4266
:100bb40019d0704b1b68142b40f20e826d4b1b68ce
:100bc400192b00f209826b4b1b68153b14339b00f5
:100bd40007f1a002134453f8a03c1a46d7f880301a
:100be4009a4240f0f9815f4b00221a7032f010fbf8
:100bf40032f01efa0346102b40f04b825f4b1b78f9
:100c0400012b13d15b4b1b689ab25d4b1a805c4b72
:100c14001b88013b9ab25b4b1a80564b1b681a46e1
:100c2400594b1a60534b00221a6020e1534b1b7836
:100c3400022b19d14f4b1b689ab2d7f888301b6826
:100c44009bb2d31a9ab24e4b1a804d4b1b88013b70
:100c54009ab24c4b1a80474b1b681a464a4b1a608f
:100c6400444b00221a6002e1444b1b78032b1fd132
:100c7400404b1b689ab2d7f888305b6899b2d7f8b2
:100c840088301b689bb20b449bb2d31a9ab23c4b7c
:100c94001a803b4b1b88013b9ab23a4b1a80354b66
:100ca4001b681a46384b1a60324b00221a60dee089
:100cb400324b1b78042b25d12e4b1b689ab2d7f8e4
:100cc40088309b6899b2d7f888305b689bb20b4434
:100cd40099b2d7f888301b689bb20b449bb2d31ae5
:100ce4009ab2274b1a80264b1b88013b9ab2254b9c
:100cf4001a80204b1b681a46234b1a601d4b002296
:100d04001a60b4e01d4b1b78052b3fd1194b1b68af
:100d14009ab2d7f88830db6899b2d7f888309b68e4
:100d24009bb20b4499b2d7f888305b689bb20b44f2
:100d340099b2d7f888301b689bb20b449bb2d31a84
:100d44009ab20f4b1a800e4b1b88013b9ab20d4b83
:100d54001a80084b1b681a460b4b1a60054b00227d
:100d64001a6084e02700412026004120085d4020cd
:100d7400fc7240209c6940202500412024614020d1
:100d8400eafc40203ef540208c694020a04b1b78b3
:100d9400062b31d19f4b1b689ab2d7f888301b6958
:100da40099b2d7f88830db689bb20b4499b2d7f874
:100db40088309b689bb20b4499b2d7f888305b6843
:100dc4009bb20b4499b2d7f888301b689bb20b4492
:100dd4009bb2d31a9ab2904b1a808f4b1b88013b5b
:100de4009ab28e4b1a808b4b1b681a468c4b1a6036
:100df400884b00221a603ae0854b1b78072b36d1ca
:100e0400844b1b689ab2d7f888305b6999b2d7f8db
:100e140088301b699bb20b4499b2d7f88830db68e1
:100e24009bb20b4499b2d7f888309b689bb20b44b1
:100e340099b2d7f888305b689bb20b4499b2d7f863
:100e440088301b689bb20b449bb2d31a9ab2724b84
:100e54001a80714b1b88013b9ab2704b1a806d4b00
:100e64001b681a466e4b1a606a4b00221a606c4b60
:100e74001b686c4a136001201cf0f0fd6a4b1b7860
:100e84009ab2664b1b889a424cd932f011ff014644
:100e9400624b1b88654a04339b0013445b68cb1a7e
:100ea400002bb8bf5b421c4632f016fd03461b689c
:100eb4009c422dd8072030f029ff31f021ff5c4bf4
:100ec4001b78002b06d1544b1b88013b9ab2594b1b
:100ed4001a800ce0564b1b78012b08d14e4b1b8813
:100ee400013b9ab2534b1a80514b00221a700020d6
:100ef40030f01cff504b00221a7031f049fc0346bd
:100f04000c461a464d4b1a604d4b4e4a1a60c0e0cf
:100f14000f2030f0fbfe12202ff08cfd4a4830f0f9
:100f2400f3fcb6e0404b1b789ab23c4b1b889a42c8
:100f340000f2af80454b1b789ab2384b1b889a421b
:100f440040f2a78032f0b4fe0146344b1b88374a86
:100f54001e3352f82330cb1a002bb8bf5b421c4619
:100f640032f0bafc03461b689c422bd8072030f0b1
:100f7400cdfe2f4b1b78002b06d1274b1b88013b42
:100f84009ab22c4b1a800ce0294b1b78012b08d108
:100f9400214b1b88013b9ab2264b1a80244b00221a
:100fa4001a70002030f0c2fe234b00221a7031f078
:100fb400effb03460c461a46204b1a60204b214a8d
:100fc4001a6066e00f2030f0a1fe12202ff032fdef
:100fd4001d4830f099fc5ce01d4b1b78dbb2002b04
:100fe40000f012821b4b1b78012b40f00d821a4b30
:100ff4001b881a46074b1b689a4231d2032030f0f3
:1010040085fe144b00221a70144b01221a70fbe166
:10101400246140209c694020eafc40203ef54020a9
:101024008c69402040ff40202b004120a07e4020be
:101034002f004120d2ff40202a0041205cff4020a5
:1010440060ff402020bf0200249640002d00412074
:101054002500412027004120d46c40202600412057
:101064001a202ff0e7fc0f2030f050feb04b012285
:101074001a7031f045fe012030f078fead4b1b783c
:101084000133dab2ab4b1a70aa4b1a78aa4b1a7016
:10109400bae100bfb8e132f043f80346012b40f057
:1010a4009f83fb6f002b00f09b83a14b1b78012bcc
:1010b4000cd144f620602ef0a3fc9d4b00221a7044
:1010c4009e4b00221a709e4b01221a70fb6f092b53
:1010d4000cd8fb6f013b9b0007f1a002134453f8ab
:1010e400a03c1a46d7f880309a422ad0fb6f092bcd
:1010f40010d9fb6f132b0dd8fb6f0b3b0a339b00ee
:1011040007f1a002134453f8a03c1a46d7f88030e4
:101114009a4216d0fb6f132b40f2d680fb6f182b2c
:1011240000f2d280fb6f153b14339b0007f1a00241
:10113400134453f8a03c1a46d7f880309a4240f042
:10114400c3807f4b00221a7032f062f831f070ffd6
:101154000346102b40f05a817a4b1b781a46fb6fda
:101164009a4256d332f0a4fd0146fb6f013b764a06
:1011740004339b0013445b68cb1a002bb8bf5b425b
:101184001c4632f0a9fb03461b689c4237d8fb6f10
:101194006e4a13606d4b1b686d4a1360072030f074
:1011a400b5fd31f0adfd6b4b1b78002b06d1fb6f09
:1011b4009bb2013b9ab2684b1a800ce0654b1b78da
:1011c400012b08d1fb6f9bb2013b9ab2624b1a8090
:1011d400604b00221a70002030f0a8fd5f4b002203
:1011e4001a7031f0d5fa03460c461a465c4b1a6065
:1011f4005c4b5d4a1a605d4b01221a7006e10f20b8
:1012040030f084fd12202ff015fc594830f07cfb9f
:10121400fce04c4b1b781a46fb6f9a4200f2f680b6
:10122400544b1b781a46fb6f9a42c0f0ef8032f0a1
:101234003ffd0146fb6f013b434a1e3352f8233006
:10124400cb1a002bb8bf5b421c4632f045fb034669
:101254001b689c422ed8072030f058fd3d4b1b786c
:10126400002b06d1fb6f9bb2013b9ab23a4b1a801a
:101274000ce0384b1b78012b08d1fb6f9bb2013b70
:101284009ab2354b1a80334b00221a70002030f08a
:101294004dfd324b00221a7031f07afa03460c46a7
:1012a4001a462f4b1a602f4b2f4a1a602f4b0122dc
:1012b4001a70abe00f2030f029fd12202ff0bafb9a
:1012c4002b4830f021fba1e01c4b1b78dbb2002b38
:1012d40000f086821a4b1b78012b40f08182264b4a
:1012e4001b881a46fb6f9a4209d2032030f00efd88
:1012f400134b00221a700e4b01221a7070e21a204e
:101304002ff098fb0f2030f001fd094b01221a70d9
:1013140031f0f6fc012030f029fd064b1b78013337
:10132400dab2044b1a70034b1a78034b1a7057e263
:1013340026004120085d4020fc7240202500412009
:10134400270041202b004120a07e40208c694020b2
:1013540040ff40202f004120d2ff40202a0041209e
:101364005cff402060ff402020bf02002400412099
:10137400249640002d004120d46c402028f0c0fc6d
:10138400034618462ff02af80346002b13d01120e9
:101394002ff050fbb64830f0b7fa012030f0e6fced
:1013a400b44b1b780133dab2b24b1a70b14b1a78d2
:1013b400b14b1a7014e22cf0dffc0346002b00f052
:1013c4000f820f2030f0a2fc12202ff033fbab4829
:1013d40030f09afa04e218202ff02cfba84830f0e1
:1013e40093fa012030f0c2fca24b1b780133dab22d
:1013f400a04b1a709f4b1a789f4b1a70a14b002276
:101404001a70ede100bfebe100bfe9e100bfe7e1e5
:101414009d4b07221a70042030f0d8fc9b4b1b888c
:10142400012b01d12bf0b4f8994b1b88184603f01b
:101434001dfd034687f88f3097f88f30022b26d195
:10144400944b1b78002b22d1934b01221a70934b9f
:101454001b78002b924b1b680133914a1360914b0c
:101464001b8801339ab28f4b1a808e4b1b881a4605
:101474008d4b1a608d4b00221a7001201cf0eefa7d
:10148400814b00221a70082030f040fc34e0814b7c
:101494001b78012b1dd197f88f30022b19d10a200c
:1014a40030f034fc7b4b00221a707d4b00221a6012
:1014b4007f4b1b687f4a13607d4b00221a607e4b72
:1014c40000221a707d4b00221a6001201cf0c6fa1b
:1014d40012e097f88f30032b40f08481012030f024
:1014e40045fc644b1b780133dab2624b1a70614bd2
:1014f4001a78614b1a7075e174e1d7f88830da69ab
:101504006b4b1b689a4218dc0a2030f0fffb644bdb
:1015140000221a60664b1b68664a1360644b002203
:101524001a60654b00221a70644b00221a6030f076
:101534009bff01201cf092fa59e15a4b1b88194673
:101544005d4b1b785a1ed7f8883053f822309942e5
:1015540005db0b2030f0dafb30f086ff47e1584b17
:101564001b78192b0cd1564b00221a70554b19229b
:101574001a704a4b01221a7044f620602ef05cfa6d
:10158400032030f0c3fb32e132f0a8fa012030f03e
:101594007dfb4d4bd3f8f8330022194601201ff090
:1015a40027fa092030f0b2fb31f0f2f803460c467a
:1015b4001a46464b1a60444bd3f8f83342f2107281
:1015c40002fb03f3424a13602e4b00221a700ee111
:1015d400032030f0fbfb2b4b1b7883f00103dbb2c1
:1015e400002b1ed028f08cfb034618462ef0f6fe86
:1015f4000346002b06d00b2030f088fb274b1b78ca
:10160400002b24e02cf0b8fb0346002b1fd00f2046
:1016140030f07cfb12202ff00dfa184830f074f9ea
:1016240015e018202ff006fa154830f06df9012066
:1016340030f09cfb0f4b1b780133dab20d4b1a7060
:101644000c4b1a780c4b1a700e4b00221a702cf0ab
:10165400b7f8cce01f4b1b78002b00f0c58031f0ad
:10166400affb31f045fd1b4b00221a70bce000bffc
:101674006c964000085d4020fc724020a496400017
:10168400dc9640002a004120a1824020d4ff402063
:10169400d2ff4020240041203b0041202f00412064
:1016a4002c5f40203ef54020e42f4020b1824020b2
:1016b4008c69402040ff4020246140209c694020e8
:1016c400a3824020a2824020a07e40205cff4020d4
:1016d40060ff40202e004120062030f077fb464872
:1016e40030f012f9454830f00ff931f001fd0346ae
:1016f400184632f0fbf8424830f006f90c2030f07e
:1017040005fb0e2030f0c2fa71e031f091fc034683
:10171400102b6bd10d2030f0f9fa67e031f050fb5b
:101724000b2030f0f3fa62e036480ff00dfa03466e
:1017340087f87b3097f87b30022b03d097f87b3007
:10174400032b28d197f87b30022b15d12e4b002286
:101754001a70072030f0dafa2a4b1a882b4b1a80b9
:10176400284b1b88dbb20133dbb2184630f03efb5a
:10177400002030f0dbfa2be0234b00221a70082003
:1017840030f0c4fa1f4b1b88dbb20133dbb21846be
:1017940030f02cfb1ce097f87b30042b18d128f098
:1017a400affa03461a46184b1a7013202ff042f969
:1017b400012030f0dbfa164b1b780133dab2144bfc
:1017c4001a70134b1a78134b1a70134830f09cf8a4
:1017d4002bf0f6ff00bf0ae000bf08e000bf06e000
:1017e40000bf04e000bf02e000bf00e000bf00bf94
:1017f400a437bd4690bd00bf1097400054974000e9
:101804007c9740003ef540202f004120d2ff40202d
:0c181400085d4020fc72402098974000c6
:020000040000fa
:020000040040ba
:10182000ecfc40201c0000000000000000e540200f
:101830004003000000000000e9fc4020010000001f
:10184000010000000100000020f14020b80100006c
:101850000000000048fb40201400000000000000d1
:10186000d0fb4020300000000000000000004020bd
:101870007079000000000000d9ff40200100000046
:1018800000000000707940202800000000000000e7
:1018900050fe40200c0000000000000068fe4020c8
:1018a000080000000000000070fe4020080000005a
:1018b0000000000030fc4020280000000000000074
:1018c000987940203000000000000000c8794020d6
:1018d0003000000000000000f879402030000000d7
:1018e00000000000287a40203000000000000000c6
:1018f000587a40203000000000000000887a402024
:1019000010000000000000005cfb4020040000000c
:1019100000000000d6ff4020020000000000000090
:10192000dcff40200100000000000000f0e4402047
:10193000100000000000000020ef40200002000026
:101940000000000000ed4020200200000000000028
:10195000a07a40207401000000000000ccfd40206f
:101960001400000001000000701a4300741a4300c4
:10197000781a4300801a4300841a430078fe4020fe
:101980000800000000000000ddff40200100000012
:1019900000000000e0d74020000800000000000028
:1019a000c8d740201800000001000000207c402023
:1019b000607e4020803d430000000000607c4020ad
:1019c00000000000207c40205c02000000000000bd
:1019d00040e840206002000000000000a0ea402033
:1019e000600200000000000060fb402038000000a2
:1019f00000000000deff40200100000000000000a9
:101a000058fc4020280000000000000008f640209c
:101a1000a000000000000000daff402002000000eb
:101a20000100000001000000e0fd40201000000067
:101a300000000000a8f64020a00000000000000008
:101a4000f0fd4020100000000000000048f740209a
:101a5000a00000000000000000fe40201000000078
:101a600000000000e8f74020a00000000000000097
:101a700010fe4020100000000000000088f8402008
:101a8000a00000000000000020fe40201000000028
:101a90000000000028f94020a00000000000000025
:101aa00030fe4020100000000000000080fa4020be
:101ab00048000000000000007c7e40201c00000068
:101ac00000000000a0fe4020040000000000000014
:101ad000a4fe40200400000000000000dfff4020c2
:101ae000010000000100000001000000a8fe4020ed
:101af000040000000100000064000000acfe402073
:101b0000040000000100000064000000b0fe40205e
:101b10000400000001000000e8030000e0ff402096
:101b20000100000000000000b4fe4020040000009e
:101b300000000000e1ff4020010000000000000064
:101b4000c8fa402040000000010000000001000031
:101b50006400000064000000e803000001010000d0
:101b60006400000064000000e803000002010000bf
:101b70006400000020030000e803000003010000ef
:101b800064000000f00a0000e8030000e2ff4020cb
:101b90000100000000000000e3ff40200100000001
:101ba00000000000e4ff40200100000000000000f1
:101bb000e5ff40200100000000000000e6ff40209b
:101bc000010000000100000001000000b8fe4020fc
:101bd0000400000000000000bcfe402004000000e3
:101be0000100000064000000c0fe4020040000006e
:101bf00001000000e8030000e7ff402001000000b2
:101c000000000000c4fe40200400000000000000ae
:101c1000e8ff40200100000000000000e9ff402034
:101c200001000000010000000100000000fc402055
:101c30003000000001000000000100000000000072
:101c400064000000e8030000010100000000000043
:101c500064000000e80300000202000064000000cd
:101c600064000000e8030000eaff402001000000db
:101c700000000000ebff4020010000000000000019
:101c8000ecff40200100000000000000edff4020bc
:101c90000100000000000000eeff402001000000f5
:101ca0000100000001000000c8fe40200400000008
:101cb00000000000ccfe40200400000001000000f5
:101cc00064000000d0fe402004000000010000007d
:101cd000e8030000efff40200100000000000000ca
:101ce000d4fe40200400000000000000f0ff40206f
:101cf000010000000000000008fb40204000000040
:101d0000010000000001000000000000640000006d
:101d1000e803000001010000000000006400000072
:101d2000e8030000020200006400000064000000fc
:101d3000e8030000030100006400000064000000ec
:101d4000e8030000f1ff4020010000000000000057
:101d5000f2ff40200100000000000000f3ff4020df
:101d60000100000000000000f4ff4020010000001e
:101d700000000000f5ff402001000000000000000e
:101d8000d8fe40200400000000000000f6ff4020c4
:101d90000100000000000000f7ff402001000000eb
:101da00000000000dcfe40200400000000000000f5
:101db000e0fe40200400000000000000f8ff40208a
:101dc0000100000000000000f9ff402001000000b9
:101dd00000000000e4fe40200400000000000000bd
:101de000faff40200100000000000000fbff40203f
:101df0000100000000000000e8fe40200400000098
:101e000000000000ecfe4020040000000000000084
:101e1000fcff40200100000000000000fdff40200a
:101e20000100000000000000f0fe4020040000005f
:101e300000000000feff4020010000000000000044
:101e4000ffff40200100000000000000f4fe4020e1
:101e50000400000000000000f8fe40200400000024
:101e60000000000000004120010000000000000010
:101e7000fcfe4020040000000000000001004120a2
:101e8000010000000000000000ff402004000000ee
:101e900000000000020041200100000000000000de
:101ea0000300412001000000000000000400412068
:101eb00001000000000000000500412001000000ba
:101ec0000000000004ff40200400000000000000ab
:101ed00008ff402004000000010000000500000091
:101ee000d8ff402001000000000000000600412053
:101ef0000100000001000000320000000cff402043
:101f0000040000000100000020030000a889402018
:101f1000102700000000000040f54020c80000002d
:101f20000000000010ff402004000000000000003e
:101f3000e0df40201005000001000000000001006b
:101f400039ec410075974200453c430013000110f5
:101f5000d11b4200f9244300373c43000100030039
:101f600055564100f9244300373c43001400031048
:101f7000cde84100f9244300373c4300020004004f
:101f800035264200997f40003105430015000410ba
:101f9000b91e4200f9244300373c43000700090002
:101fa00089524200f99a4000110d430019000910ae
:101fb000a91f4200f9244300373c430009000b00ed
:101fc000b5d2410061da4100f11b43001b000b1048
:101fd000892d4200f9244300373c43000a000c00dd
:101fe000b5c24200e18c4200612643001c000c1087
:101ff00075494200f9244300373c43000b000d00b3
:10200000f1e94100f9244300373c43001d000d1065
:10201000c91c4200f9244300373c43002200110050
:10202000cdbd410089634200d11b43002400141040
:1020300021404200f9244300373c430023001200b2
:10204000fd124200059e4200472643002500151060
:10205000494a4200f9244300373c43004200210032
:10206000e1ba41008d7141004d16430043002a1032
:10207000453f4200f9244300373c4300450030000f
:1020800011b84000f1384100c9c342004600301089
:102090003d1f4100f9244300373c43004700310015
:1020a000719c41000d28420025f942004800311082
:1020b000ed074200f9244300373c43004900320059
:1020c000f1084200fb984200952643004a00321076
:1020d0001d4b4200f9244300373c43004b003300c2
:1020e000399041007d994200111c43004c0033108f
:1020f000f14b4200f9244300373c43004d003400cb
:10210000f9134200ff994200af2643004e003410fd
:10211000c54c4200f9244300373c43004f003500d2
:1021200081fb4100819a4200c926430050003510ce
:10213000994d4200f9244300373c430051003600da
:102140007981410085364200d5fc420052003610ac
:10215000c9014200f9244300373c430034001b000e
:102160001dd94100219e4100373c4300360022101a
:1021700099204200f9244300373c43003a001d00f7
:1021800091fc410001e341007b2643003b00261007
:1021900015504200f9244300373c43003c001e0028
:1021a000adfe4100f7974200533c43003c0027102e
:1021b0009d484200f9244300373c4300310037007a
:1021c0000dec400019274100b9d142003200371010
:1021d000c14c4100f9244300373c43005300380010
:1021e0003d0541000943410009d242005400381026
:1021f000115b4100f9244300373c430033001a00cf
:10220000a1fd410019274100373c43004000200058
:10221000f514420079984200ad3343004100291083
:10222000c5474200f9244300373c43003e003900d3
:1022300021114100c1b14100810343003f00391029
:10224000655d4100f9244300373c430055004000e0
:102250000114410059ab4100770043005600401083
:10226000b95f4100f9244300373c430063004a0052
:10227000d9164100f9ac4100a900430064004a109e
:102280000d624100f9244300373c43003500410012
:10229000cd8e4000056e400095f0420037004110a1
:1022a00019bc4000f9244300373c4300570042006a
:1022b0006dd1400041ef4000ede642005800421071
:1022c000a9294100f9244300373c43005900430049
:1022d000c9d4400065f240002de742005a00431087
:1022e000352c4100f9244300373c43005b00440097
:1022f00025d8400089f540006de742005c0044109d
:10230000c12e4100f9244300373c43005d004500e5
:1023100081db4000adf84000ade742005e004510b3
:102320004d314100f9244300373c43005f00460033
:10233000ddde4000d1fb4000ede7420060004610ca
:10234000d9334100f9244300373c43006100470082
:1023500039e24000f5fe40002de8420062004710df
:1023600065364100f9244300373c43000c000e0061
:10237000212742000599410079d742001200191027
:10238000712e4200f9244300373c430039002510e8
:10239000e9064200f9244300373c43000e001000d8
:1023a00091564200f9244300373c43002b001500ae
:1023b000a5dc4200f9244300373c43001e000e1008
:1023c00095c34000f9244300373c43001f000f1021
:1023d00091ca4000f9244300373c43001000171015
:1023e0006d4e4200f9244300373c430011001810a1
:1023f000414f4200f9244300373c43002a001c109f
:102400003dbf4100f9244300373c430065005200c2
:10241000d1024200039b4200e326430066005210b3
:1024200089214200f9244300373c430067003f10f4
:10243000f9cb4100f9244300373c43002f001f1023
:10244000c1ce4100f9244300373c430014ff402033
:102450000400000000000000d0ff40200200000047
:102460000000000080fe4020080000000000000086
:10247000b8b04020102700000000000007004120f5
:10248000010000000000000008fd40201c000000ca
:102490000000000024fd40201c000000000000009f
:1024a000c8fc40202100000000000000080041207e
:1024b00001000000000000000900412001000000b0
:1024c000000000000a0041200100000000000000a0
:1024d0000b004120010000000000000018ff402018
:1024e00004000000000000001cff40200400000069
:1024f000000000000c00412001000000000000006e
:102500000d00412001000000000000000e004120ed
:1025100001000000010000000100000088fe4020d2
:1025200008000000000000005cfe40200c000000dd
:102530000000000020ff4020040000000000000018
:1025400098fb4020380000000000000090fe402072
:10255000080000000000000024ff402004000000ec
:102560000000000028ff40200400000000000000e0
:102570002cff402004000000000000000f0041205c
:1025800001000000000000001000412001000000d8
:102590000000000030ff40200400000001000000a7
:1025a0000800000034ff402004000000000000008c
:1025b00038ff40200400000000000000110041200e
:1025c0000100000000000000120041200100000096
:1025d0000000000013004120010000000000000086
:1025e00014004120010000000000000080fc402099
:1025f0002400000000000000a4fc40202400000093
:102600000000000040fd40201c0000000000000011
:102610005cfd40201c00000000000000150041206f
:102620000100000000000000160041200100000031
:10263000000000003cff40200400000000000000fb
:1026400040ff40200400000000000000170041206f
:1026500001000000010000000200000018004120fd
:10266000010000000000000078fd40201c00000078
:102670000000000094fd40201c000000000000004d
:10268000b0fd40201c0000000000000044ff40207e
:1026900004000000000000001900412001000000bb
:1026a0000000000048ff402004000000000000007f
:1026b0001a00412001000000000000001b00412022
:1026c00001000000000000001c004120010000008b
:1026d000000000001d00412001000000000000007b
:1026e0001e00412001000000010000000b0000005e
:1026f0001f00412001000000010000000800000050
:1027000020004120010000000000000021004120c5
:10271000010000000100000005000000220041202f
:102720000100000001000000ff0000002300412024
:102730000100000000000000240041200100000012
:10274000000000004cff40200400000000000000da
:1027500050ff402004000000000000002500412040
:10276000010000000000000054ff402004000000b1
:1027700000000000260041200100000001000000d0
:1027800001000000270041200100000000000000bf
:1027900028004120010000000000000058ff4020f8
:1027a000040000000000000029004120010000009a
:1027b00001000000030000005cff40200400000056
:1027c0000000000060ff4020040000000000000046
:1027d0002a00412001000000000000003ef54020da
:1027e0000200000000000000eafc4020020000009f
:1027f000000000002b00412001000000000000004c
:102800002c00412001000000000000002d004120ac
:1028100001000000000000002e0041200100000027
:10282000000000002f004120010000000100000016
:1028300003000000d2ff4020020000000000000062
:1028400064ff4020040000000000000068ff4020fa
:1028500004000000000000003000412001000000e2
:1028600000000000310041200100000000000000d5
:102870003200412001000000000000003300412030
:1028800001000000000000003400412001000000b1
:10289000000000006cff4020040000000000000069
:1028a00070ff4020040000000000000074ff402082
:1028b000040000000000000035004120010000007d
:1028c0000000000078ff402004000000000000002d
:1028d00036004120010000000000000037004120c8
:1028e000010000000000000038004120010000004d
:1028f000000000007cff40200400000000000000f9
:1029000080ff40200400000000000000987e40206e
:10291000210400000000000084ff402004000000ab
:10292000000000003900412001000000000000000c
:1029300088ff402004000000000000008cff4020c1
:1029400004000000000000003a00412001000000e7
:102950000000000090ff4020040000000000000084
:102960003b004120010000000000000094ff4020d7
:10297000040000000000000098ff40200400000058
:102980000000000044f44020fa00000000000000b5
:10299000c0824020a00400000000000098fe4020fb
:1029a00008000000000000003c0041200100000081
:1029b000000000009cff4020040000000000000018
:1029c00028fa40205800000000000000a0ff40202e
:1029d0000400000000000000a4ff402004000000ec
:1029e000000000003d004120010000000000000048
:1029f000a8ff402004000000000000003e0041202d
:102a000001000000000000003f0041200100000024
:102a10000100000001000000400041200100000012
:102a200000000000acff4020040000000000000097
:102a3000608740201600000000000000b0ff40202a
:102a400004000000000000007887402028020000f9
:102a500000000000410041200100000000000000d3
:102a6000420041200100000000000000b4ff4020af
:102a70000400000000000000d4ff4020020000001d
:102a800000000000b8ff402004000000000000002b
:102a900040fe402010000000010000000000111165
:102aa0005de2420001002110f90a4200a0894020a5
:102ab0000100000000000000430041200100000070
:102ac0000000000044004120010000000000000060
:102ad000bcff402004000000000000004500412031
:102ae000010000000100000001000000c0ff4020c4
:102af0000400000001000000c8f94020c8f940208f
:102b000060000000010000000000000050204300b1
:102b1000702043003020430000000000000000004f
:102b200000000000000000000000000000000000a5
:102b30000000000000000000000000000000000095
:102b40000000000000000000000000000000000085
:102b50000000000000000000000000000000000075
:102b60000000000000000000d8f240206c010000ce
:102b70000100000043000000000000000000000011
:102b80000000000000000000000000000000000045
:102b900000000000430000000000000000000000f2
:102ba0000000000000000000000000000000000025
:102bb00000000000430000000000000000000000d2
:102bc0000000000000000000000000000000000005
:102bd00000000000430000000000000000000000b2
:102be00000000000000000000000000000000000e5
:102bf0000000000043000000000000000000000092
:102c000000000000000000000000000000000000c4
:102c10000000000043000000000000000000000071
:102c200000000000000000000000000000000000a4
:102c30000000000043000000000000000000000051
:102c40000000000000000000000000000000000084
:102c5000000000004b274300d9174300000000008c
:102c6000000d4200853e4300843e4300843e430005
:102c7000843e4300843e4300843e4300843e430040
:102c8000843e4300843e4300843e4300ffffffff39
:102c9000ffffffffffffffffffff000001004153a9
:102ca000434949000000000000000000000000004f
:102cb0000000000000000000000000000000415380
:102cc000434949000000000000000000000000002f
:102cd00000000000000000000000000000000000f4
:102ce000c4ff40200400000000000000c8ff402096
:102cf0000400000000000000a4894020040000003f
:102d000000000000ccff4020040000000000000094
:102d100000000000000000002222222222222222a3
:020000040000fa
:020000040040ba
:102d200025580000545241434b204348414e4745eb
:102d3000522048563a342e302046563a342e302e01
:102d4000310000bf257300000d0a64617461436f98
:102d5000756e742d3e0000bf0d0a446174612d3ef6
:102d6000000000bf0d0a456e640000bf0a434d44d9
:102d70002056616c75653a20000000bf0a457874e2
:102d80007261637420446174610000bf000000bf81
:102d900053544152545f43484152206e6f74206631
:102da0006f756e64000000bf44454c494d49544561
:102db0005231206e6f7420666f756e64000000bf24
:102dc0000a4465766963652049442d2d3e0000bfa5
:102dd00044454c494d4954455232206e6f7420662b
:102de0006f756e64000000bf0a436f6d6d616e64a5
:102df0002d2d3e0053544f505f43484152206e6f7b
:102e00007420666f756e64000a56616c7565732d6b
:102e10002d3e00000d0a746f74616c4e6f4f665347
:102e200074722d2d3e0000bf0d0a56616c75655ff2
:102e3000000000bf2d2d3e000d0a4352432d2d3eb4
:102e4000000000bf0d0a4465766963652049442d82
:102e50002d3e00000a2057696c6420436172642093
:102e60004465766963652049440000bf0a20496ec5
:102e700076616c6964204465766963652049440025
:102e80000a456570726f6d204572726f720000bfe7
:102e90000a456570726f6d2053746f72656400002f
:102ea00025303258000000bf25303458000000bfe4
:102eb0000d0a496e2050726f636573735365744dcc
:102ec0006f64652d3e0000bf0a73746174652056ff
:102ed000616c756573203a002c0000bf0a205365b1
:102ee00074204d6f64652053657456616c75652f51
:102ef00073204f7574206f662052616e6765000005
:102f00000a20536574204d6f6465205365745661c3
:102f10006c7565203a2000000d0a302d3e41555455
:102f20004f2c20312d3e4d414e55414c000000bfed
:102f30000a20536574204d6f646520536574566193
:102f40006c75652f7320496e76616c69640000bff3
:102f5000256400000d0a496e2050726f636573731b
:102f60005365744d616e75616c4469726563746913
:102f70006f6e2d3e000000bf0a204d616e75616cc2
:102f8000204d6f64652053657456616c75652f73b1
:102f9000204f7574206f662052616e67650000bf18
:102fa0000a204d616e75616c204d6f64652053651c
:102fb0007456616c7565203a200000bf0d0a302df3
:102fc0003e504f5349544956452c20312d3e4e45d5
:102fd0004741544956452c20322d3e4359434c45d8
:102fe0002c20332d3e204e4f524d414c5f53544fb9
:102ff000502c20342d3e20454d5f53544f5000003f
:103000000a204d616e75616c204d6f6465205365bb
:103010007456616c75652f7320496e76616c6964b6
:10302000000000bf0d0a496e2050726f6365737314
:103030005365744d6f746f7250574d4d616e75616d
:103040006c2d3e000a50776d204d616e75616c20cd
:103050004d6f64652053657456616c7565733a20d5
:1030600025642c2025642c2025642c2025642c200c
:1030700025642c2025642c20256400000a50574d1f
:1030800020536574205265636569766564205661d6
:103090006c756573203a00000a2050776d205365e7
:1030a0007456616c75652f73204f7574206f6620a0
:1030b00052616e67650000bf0a2050776d2053652e
:1030c0007456616c75652f7320496e76616c696406
:1030d000000000bf25642c25642c25642c25642c5d
:1030e000256400000d0a496e2050726f636573738a
:1030f0005365744d6f746f7250574d4175746f2dd9
:103100003e0000bf0a50776d204175746f204d6fef
:1031100064652053657456616c7565733a20256447
:103120002c2025642c2025642c2025642c2025644b
:103130002c2025642c202564000000bf0d0a496e58
:103140002050726f636573735365744175746f5368
:1031500063686564756c6554696d652d3e0000bfdc
:103160000a4175746f207363686564756c652053dc
:1031700065742052656365697665642056616c7577
:103180006573203a000000bf0d0a486f75722d2d3f
:103190003e0000bf0d0a4d696e7574652d2d3e0011
:1031a0000a204175746f2074696d652053657456eb
:1031b000616c75652f732053657400000a2041759a
:1031c000746f2074696d652053657456616c756504
:1031d0002f73204f7574206f662052616e676500f3
:1031e0000a204175746f2074696d652053657456ab
:1031f000616c75652f7320496e76616c696400009f
:1032000025303264253032642c2564000d0a496e65
:103210002050726f636573735365744564676553bb
:10322000656e736f7253746174652d3e000000bf4c
:103230000d0a456467652073656e736f7220737441
:103240006174652073657420617320000d0a496ef6
:103250002050726f63657373536574537461746542
:103260002d3e00000a204d6f646520536574566141
:103270006c75652f73204f7574206f662052616ed8
:10328000676500000a204d6f6465205365745661c0
:103290006c7565000a204d6f646520536574566136
:1032a0006c75652f7320496e76616c69640000bf90
:1032b0000d0a496e2050726f6365737353657452c3
:1032c000544356616c75652d3e0000bf0a20525470
:1032d000432053657456616c75652f73204f757468
:1032e000206f662052616e67650000bf0a2052544d
:1032f00043202053657456616c75652f7320496ea9
:1033000076616c69640000bf25642d25642d2564f9
:103310002025643a25643a25640000bf0d0a496ef1
:103320002050726f63657373536574446576696387
:1033300065496e666f2d3e000a44657669636520b7
:10334000496e666f205365742052656365697665c2
:10335000642056616c756573203a00000a2044654c
:103360007669636520496e666f2053657456616c9b
:1033700075652f7320536574000000bf0a204465f3
:103380007669636520696e666f2053657456616c5b
:1033900075652f7320496e76616c6964000000bf0b
:1033a00025732c25732c25732c25730046563a342f
:1033b0002e302e31000000bf0d0a496e2050726f72
:1033c00063657373436c6561724572726f72436fac
:1033d0006465732d3e0000bf0a436c656172204531
:1033e00072726f7220636f646520526563656976df
:1033f00065642056616c756573203a000a20436c41
:10340000656172204572726f7220636f646520532c
:10341000657456616c75652f73205365740000bf29
:103420000a20436c656172204572726f7220636f6f
:1034300064652053657456616c75652f7320496e01
:1034400076616c69640000bf0d0a496e2050726f8e
:10345000636573735365744c6f77426174536f4344
:103460002d3e00000a4c6f772042617474657279ba
:1034700020536574205265636569766564205661e2
:103480006c756573203a00000a204c6f772042610a
:1034900074206c696d69742053657456616c756530
:1034a0002f73204f7574206f662052616e67650020
:1034b0000a204c6f772042617420536f432053657c
:1034c0007456616c75652f7320536574000000bfde
:1034d0000a204c6f772042617420536f432053655c
:1034e0007456616c75652f7320496e76616c6964e2
:1034f000000000bf0d0a496e2050726f6365737340
:10350000536574486561727462656174436f6e6679
:1035100069672d3e000000bf0a48656172746265ec
:10352000617420436f6e66696720506172616d65da
:1035300074657273205265636569766564205661af
:103540006c756573203a00000a48656172746265a3
:10355000617420436f6e66696720506172616d65aa
:10356000746572732053657456616c75652f733a78
:10357000204f7574206f662052616e67650000bf32
:103580000a48656172746265617420436f6e666992
:103590006720506172616d65746572732053657444
:1035a000000000bf0a4865617220426561742050c6
:1035b0006172616d65746572732053657456616cd8
:1035c0007565733a200000bf2c2000000a48656131
:1035d00072746265617420436f6e66696720506122
:1035e00072616d65746572732053657456616c7594
:1035f000652f73203a20496e76616c6964204461be
:103600007461000025642c25640000bf0d0a496e1a
:103610002050726f6365737353657450756c736576
:10362000436f756e742d3e000a50756c73652043b0
:103630006f756e7420536574205265636569766595
:10364000642056616c756573203a00000a2050753d
:103650006c736520436f756e742053657456616c8e
:1036600075652f73204f7574206f662052616e67e9
:10367000650000bf0a2050756c736520436f756e3e
:10368000742053657456616c75652f73207365746f
:10369000203a2000202c00000a2050756c73652011
:1036a000436f756e742053657456616c75652f7326
:1036b00020496e76616c6964000000bf300000bf75
:1036c00025642c25642c25642c25642c25642c254c
:1036d000642c25642c25642c25642c25732c2564ee
:1036e000000000bf25642c25642c25642c25642c47
:1036f000256c752c25642c25642c25642c25642cc4
:10370000257300000d0a496e2050726f6365737354
:10371000536574576865656c4469612d3e0000bf50
:103720000a576865656c20446961205365742052ae
:10373000656365697665642056616c7565203a003d
:103740000a20776865656c44696120536574566129
:103750006c75652f73204f7574206f662052616ef3
:10376000676500000a20776865656c4469612053cd
:10377000657456616c75652f7320736574203a20eb
:10378000000000bf0a20776865656c4469612053ba
:10379000657456616c75652f7320496e76616c692e
:1037a000640000bf25732c25642c2564000000bf35
:1037b0000d0a496e2050726f6365737353657443cd
:1037c00079636c654672657175656e63792d3e002f
:1037d0000a4379636c654672657175656e6379201d
:1037e0005365742052656365697665642056616c23
:1037f0007565203a000000bf0a204379636c654676
:1038000072657175656e63792053657456616c7568
:10381000652f73204f7574206f662052616e676547
:10382000000000bf0a204379636c654672657175bc
:10383000656e63792053657456616c75652f7320ce
:10384000736574203a2000000a204379636c654652
:1038500072657175656e63792053657456616c7518
:10386000652f7320496e76616c6964000d0a496e9c
:103870002050726f636573735365744c6f67496e44
:1038800074657276616c2d3e000000bf0a4c6f6754
:10389000496e74657276616c20536574205265635d
:1038a00065697665642056616c7565203a0000bfd5
:1038b0000a204c6f67496e74657276616c2053659f
:1038c0007456616c75652f73204f7574206f662078
:1038d00052616e67650000bf0a204c6f67496e74c5
:1038e000657276616c2053657456616c75652f73d3
:1038f00020736574203a20000a204c6f67496e746b
:10390000657276616c2053657456616c75652f73b2
:1039100020496e76616c6964000000bf25732c2518
:10392000732c25732c25732c25732c25732c257350
:103930002c25732c25732c25732c25732c257300b3
:103940000d0a496e2050726f63657373536574433b
:103950006f6e74696e75652d3e0000bf0a436f6e11
:1039600074696e7565205365742052656365697668
:1039700065642056616c756573203a000a20436fb8
:103980006e74696e75652053657456616c75652f2c
:1039900073204f7574206f662052616e676500005a
:1039a0000a20436f6e74696e7565205365745661a5
:1039b0006c75652f73205365740000bf312c320085
:1039c0000a20436f6e74696e756520536574566185
:1039d0006c75652f7320496e76616c69640000bf59
:1039e0000d0a496e2050756c736563616c632d3ee2
:1039f000000000bf25642c25642c25642c25642c34
:103a000025642c25642c25642c256400256c580025
:103a100025302e32662c25302e32662c25302e3263
:103a2000662c25302e32662c25642c25302e3266ed
:103a30002c25302e32662c25642c25642c25642cf4
:103a400025642c25640000bf0a5265717565737486
:103a5000204c6f6720526563656976656420566106
:103a60006c756573203a00000a5265717565737450
:103a7000204c6f67732056616c75652f73203a2058
:103a8000496e76616c69642044617461000000bf16
:103a90000d0a496e2050726f6365737353657454d9
:103aa0007261636b496e666f2d3e00000a5472614d
:103ab000636b20496e666f20526563656976656445
:103ac0002056616c756573203a0000bf0a5374611b
:103ad0007274496e646578203d2025642c20456e03
:103ae00064496e646578203d202564000d0a4e6fa0
:103af000206f66206461746120617320706572209c
:103b0000496e6465782d3e000d0a41637475616ce1
:103b1000206e6f206f6620646174612d3e0000bfcf
:103b20000a20547261636b2044697374616e63652b
:103b30002053657456616c75652f7320736574200e
:103b40003a2000000a20547261636b204469737448
:103b5000616e63652053657456616c75652f7320c3
:103b60004f7574206f662052616e6765000000bf5c
:103b70000a547261636b20496e666f2056616c75e2
:103b8000652f733a204f7574206f662052616e67ff
:103b9000650000bf0a547261636b20496e666f2036
:103ba00056616c75652f73203a20496e76616c6999
:103bb00064204461746100000d0a496e2050726fe8
:103bc00063657373476574547261636b496e666fa6
:103bd0002d3e00000a526571756573742054726140
:103be000636b20496e666f2056616c75652f733a62
:103bf000204f7574206f662052616e67650000bfac
:103c00000a5265717565737420547261636b204943
:103c10006e666f2056616c75652f73203a20496e71
:103c200076616c69642044617461000025642c0035
:103c30000a5374617274496e646578203d20256c66
:103c4000752c20456e64496e646578203d20256c96
:103c5000750000bf0d0a436c656172547261636b3d
:103c6000496e666f000000bf0d0a496e2050726fea
:103c70006365737353657452666964446174612d3e
:103c80003e0000bf0a5246494420446174612052fc
:103c9000656365697665642056616c756573203a65
:103ca000000000bf0a20524649442044617461204c
:103cb00053657456616c75652f7320736574203a73
:103cc000200000bf0a20524649442044617461200c
:103cd00053657456616c75652f73204f7574206f32
:103ce000662052616e6765000a524649442044616d
:103cf00074612056616c75652f733a204f7574207e
:103d00006f662052616e6765000000bf0a52464927
:103d10004420446174612056616c75652f73203aac
:103d200020496e76616c696420446174610000bf53
:103d30000d0a496e2050726f636573734765745244
:103d4000666964446174612d3e0000bf0a5265716a
:103d5000756573742052464944204461746120564d
:103d6000616c75652f733a204f7574206f66205211
:103d7000616e6765000000bf0a52657175657374f6
:103d8000205246494420446174612056616c756537
:103d90002f73203a20496e76616c69642044617407
:103da000610000bf0d0a496e2050726f6365737326
:103db0005365745266696453746174652d3e0000e6
:103dc0000a20536574205246494420737461746517
:103dd000206d6f64652053657456616c7565203a7b
:103de000200000bf0d0a302d3e5246494420444970
:103df0005341424c452c20312d3e524649442045ea
:103e00004e41424c450000bf0a2053657420524683
:103e100049442073746174652053657456616c75f0
:103e2000652f7320496e76616c6964000d0a496ed6
:103e30002050726f636573732053657420436c6503
:103e4000616e6572204d41432d3e00000a436c6552
:103e5000616e6572204d41432052656365697665e8
:103e6000642056616c756573203a00000a20436c2b
:103e700065616e6572204d41432053657456616cd7
:103e800075652f73204f7574206f662052616e67c1
:103e9000650000bf0a20436c65616e6572204d416c
:103ea000432053657456616c75652f732073657478
:103eb000203a20000a20436c65616e6572204d41f6
:103ec000432053657456616c75652f7320496e7677
:103ed000616c6964000000bf255825582558255895
:103ee000000000bf0d0a496e2050726f6365737346
:103ef000536574456e636f64657250756c73655479
:103f00006f6c6572616e63652d3e00000a456e63dd
:103f10002050756c736520546f6c6572616e6365bb
:103f20002053657420526563656976656420566127
:103f30006c756573203a00000a20456e6320507549
:103f40006c736520546f6c6572616e636520536598
:103f50007456616c75652f73204f7574206f6620e1
:103f600052616e67650000bf0a20456e6320507580
:103f70006c736520546f6c6572616e636520536568
:103f80007456616c75652f7320536574000000bf13
:103f90000a20456e632050756c736520546f6c6504
:103fa00072616e63652053657456616c75652f731d
:103fb00020496e76616c6964000000bf256c750055
:103fc0000d0a496e2050726f6365737353657454a4
:103fd00063436f6e74726f6c4d6f64652d3e0000ad
:103fe0000a2053657420544320636f6e74726f6ca3
:103ff000206d6f64652053657456616c7565203a59
:10400000200000bf0d0a302d3e454e434f4445521f
:10401000204d4f44452c20312d3e50524f58494d94
:10402000495459204d4f4445000000bf0a205365b4
:104030007420544320636f6e74726f6c206d6f64d4
:10404000652053657456616c75652f7320496e76d3
:10405000616c6964000000bf0d0a496e2050726fe8
:1040600063657373536574526f774c656e677468dc
:10407000446174612d3e00000a526f77204c656eda
:1040800067746820496e666f20526563656976655e
:10409000642056616c756573203a00000a20526fe7
:1040a00077204c656e6774682053657456616c7533
:1040b000652f7320736574203a20000020200000d3
:1040c0000a20526f77204c656e67746820536574c0
:1040d00056616c75652f73204f7574206f66205282
:1040e000616e6765000000bf0a526f77204c656ef5
:1040f0006774682056616c75652f733a204f75742c
:10410000206f662052616e67650000bf0a526f77ac
:10411000204c656e6774682056616c75652f73203e
:104120003a20496e76616c696420446174610000d4
:104130000d0a496e2050726f636573734765745240
:104140006f774c656e677468446174612d3e000042
:104150000a5265717565737420526f77204c656ed5
:104160006774682056616c756573203a000000bf63
:104170000a5265717565737420526f77204c656eb5
:104180006774682056616c75652f733a204f75749b
:10419000206f662052616e67650000bf0a5265712c
:1041a0007565737420526f77204c656e6774682054
:1041b00056616c75652f73203a20496e76616c6983
:1041c000642044617461000025642c256c75000036
:020000040000fa
:020000040040ba
:1041d00080b586b002af78600023fb607b6893f8ff
:1041e000e032212b00f2078601a252f823f000bf33
:1041f00079424000c3424000f34240001343400074
:1042000055434000934340004f4440009d444000cc
:104210004f464000b14640009f474000d94940000a
:10422000334a4000794a40000d4840004148400070
:10423000a3484000ed484000374940007d49400018
:10424000bb4a4000414b4000ad4b4000f54b4000a5
:10425000474c4000c54c40002f4d4000654d40008c
:10426000b94d4000e14d4000e14d40007d4540002a
:1042700031464000334740007b68d3f8b432be4a31
:1042800093420ed07b689b689b68bb489847034667
:10429000002b00f0b5857b68b74ac3f8b42200f064
:1042a000afbd7b689b78012b05d17b68012283f829
:1042b000e02200f0a5bd7b68032283f8e02200f035
:1042c0009fbd7b685a687b6803f53a7319461046b0
:1042d00027f0c2ff0346002b05d17b68022283f83a
:1042e000e02200f0bebd7b681e2283f8e02200f0d1
:1042f000b8bd7b68d3f8e83218462cf095fa03462f
:10430000002b00f07f857b68032283f8e02200f019
:1043100079bd7b6803f2e323009300230022002190
:10432000786814f00bf97b6893f8e232032b40f0c5
:104330006b857b6803f53a731946022027f08cffe2
:104340000346002b40f060857b68042283f8e0225e
:1043500000f05abd7b68d3f8e83218462cf064fab6
:104360000346002b00f052857b6893f8f032002b57
:1043700005d17b68052283f8e02200f047bd7b6809
:104380001f2283f8e0227b681422a3f8fc2200f0ad
:104390003dbd7b6803f2e323009308234ff4d572fd
:1043a0000821786814f0caf87b6893f8e232032b8e
:1043b00040f02e857b68062283f8e0227b68072286
:1043c00083f8e1227b68002283f8a5227b6803f54d
:1043d0003b7319464ff4fa6027f03eff0346012b6a
:1043e00005d17b681e2283f8e02200f03abd7b688d
:1043f00093f8dd32002b19d17b689b681b6a07f1ab
:104400000c02114600209847fb68c3f30803b3f57c
:10441000d57f05d17b68012283f8ac2200f0f8bc7f
:104420007b681e2283f8e02200f0f2bc7b6893f8e0
:10443000dd32022b05d17b68002283f8ac2200f02c
:10444000e7bc7b681e2283f8e02200f0e1bc7b68b9
:10445000b3f8a2321b041a467b6803f2e3230093ed
:1044600001233721786814f069f87b6893f8e23209
:10447000032b40f0cf847b6893f8dd32002b07d10b
:104480007b6893f8e1227b6883f8e02200f0c2bced
:104490007b681e2283f8e02200f0bcbc7b6893f8a6
:1044a000ac329a077b6893f8a5321b0413431a4673
:1044b0007b6803f2e323009304232921786814f036
:1044c0003df87b6893f8e232032b40f0a5847b68cb
:1044d000d3f8ec3218462cf0a7f90346002b05d090
:1044e0007b681e2283f8e02200f0bbbc7b6893f857
:1044f000dd32002b39d17b689b681b6a07f10c0207
:10450000114600209847fb6803f47013002b05d177
:104510007b681e2283f8e02200f07ebcfb68002b43
:1045200019dafb6803f08043002b04d07b6801227a
:1045300083f8a62203e07b68002283f8a6227b682a
:10454000d3f8ec32184627f0e4f87b68082283f8a9
:10455000e02200f061bc7b683c2283f8a5227b68e6
:10456000062283f8e02200f057bc7b681e2283f805
:10457000e02200f051bc00bf801a06007b6803f205
:10458000e32300930423ad4a0121786813f0d6ff9a
:104590007b6893f8e232032b40f040847b6893f809
:1045a000dd32002b3fd17b689b681b6a07f10c0250
:1045b000114600209847fb68002b12dafb6803f0d5
:1045c000c043b3f1804f0cbf01230023dbb21a4676
:1045d0007b6883f8a6227b68082283f8e02200f03b
:1045e0001dbc7b68b3f8fc32002b17d07b68b3f896
:1045f000fc32013b9ab27b68a3f8fc227b6803f58e
:104600003a731946322027f027fe0346002b40f06c
:1046100005847b68202283f8e022ffe37b681e226a
:1046200083f8e022fae37b681e2283f8e022f5e3b8
:104630007b68d3f8e83218462cf0f6f80346002bd6
:1046400000f0ee837b681f2283f8e022e8e37b68ba
:1046500003f2e3230093032300220221786813f07e
:104660006dff7b6893f8e232032b40f0db837b68bd
:1046700093f8dd32002b16d17b689b681b6a7a6841
:1046800020321146042098477b6893f8f032002bc3
:1046900004d17b68092283f8e022c3e37b682122ee
:1046a00083f8e022bee37b681e2283f8e022b9e3b0
:1046b0007b6803f2e3230093072300220321786839
:1046c00013f03cff7b6893f8e232032b40f0ac839d
:1046d0007b6893f8dd32002b26d17b689b681b6ad0
:1046e00007f10c02114600209847fb6803f4604371
:1046f000002b04d07b681e2283f8e02294e3fb6841
:104700001b0c9ab27b68a3f8a2227b68b3f8a23292
:10471000002b04d17b68092283f8e02284e37b68c4
:104720000a2283f8e0227fe37b681e2283f8e022de
:104730007ae37b6803f2e323009301234ff4003212
:104740000321786813f0fafe7b6893f8e232032bba
:1047500040f06c837b6893f8dd32002b1ad17b68c4
:104760009b681b6a07f10c02114600209847fb6802
:1047700003f45903002b04d07b681e2283f8e02247
:1047800054e37b680222a3f8a2227b680a2283f802
:10479000e0224be37b681e2283f8e02246e37b683d
:1047a000b3f8a2321b041a467b6803f2e32300939a
:1047b00003230921786813f0c1fe7b6893f8e23285
:1047c000032b40f035837b6893f8dd32002b18d142
:1047d0007b689b681b6a7a683032114604209847d0
:1047e0007b6803f130007b6803f120017b6893f85c
:1047f000f0321a4614f0e8fd7b680e2283f8e022be
:1048000016e37b681e2283f8e02211e37b689b6835
:104810009b687a68d2f8b822104698470346002b66
:1048200000f008837b68d3f8b8227b68c3f8b42211
:104830007b680f2283f8e022fce200bf00003840d2
:104840007b68b3f8a2321b041a467b6803f2e323a9
:10485000009302230721786813f070fe7b6893f8b9
:10486000e232032b40f0e8827b6893f8dd32002bc4
:1048700012d17b6893f8f032002b08d17b680622b6
:1048800083f8e0227b68102283f8e122d4e27b687f
:104890000b2283f8e022cfe27b681e2283f8e0221d
:1048a000cae27b689b681b6a07f10c021146002074
:1048b0009847fb6803f00073002b08d07b68012247
:1048c00083f8ae227b681d2283f8e022c9e2fb68f0
:1048d00003f40063002b04d07b68112283f8e022ec
:1048e000bfe27b681e2283f8e022bae27b689b6805
:1048f0009b6a082098477b68012283f8e3227b6843
:10490000012283f8e4227b68002283f8e5227b6899
:1049100040332021184626f083fd7b689b685b6b43
:104920007a6802f140000122082198477b68122230
:1049300083f8e02295e27b6803f2e32300930123ee
:1049400000223321786813f0f9fd7b6893f8e23296
:10495000032b40f073827b68002283f8e3227b689c
:1049600093f8dd32002b04d17b68132283f8e02218
:1049700064e27b681e2283f8e0225fe27b6893f8a2
:10498000af32002b00f05c827b68b3f8b2321a467b
:1049900048f270231340002b04d07b681e2283f85a
:1049a000e0224de27b6893f8413003f00403002bd2
:1049b0000dd07b6893f8f232012b08d17b68062278
:1049c00083f8e0227b68142283f8e12238e27b68d6
:1049d000152283f8e02233e27b68012283f8e32288
:1049e0007b68012283f8e4227b68002283f8e522b9
:1049f0007b689b685b6a002098477b689b689b6a22
:104a00004ff4007098477b68a0334ff4007118464c
:104a100026f006fd7b689b685b6b7a6802f1a0005c
:104a200001224ff4007198477b680c2283f8e02242
:104a300017e27b6803f2e32300930123002208219d
:104a4000786813f07bfd7b6893f8e232032b40f02b
:104a5000f9817b68002283f8e3227b6893f8dd32da
:104a6000002b04d17b680d2283f8e022eae17b6809
:104a70001e2283f8e022e5e17b6893f8af32002b39
:104a800000f0e2817b6893f877311b061a467b6859
:104a900093f876311b0413437a6892f87521120259
:104aa00013437a6892f874211a437b68c3f8a822ea
:104ab0007b68142283f8e022c6e17b6893f8f03229
:104ac000002b0ad17b6803f2e32300930123022227
:104ad0000621786813f032fd0fe07b6893f8f2321c
:104ae0001a02b04b13431a467b6803f2e323009388
:104af00002230621786813f021fd7b6893f8e232e7
:104b0000032b40f0a3817b6893f8dd32002b12d198
:104b10007b689b68db6a7a6892f8f22210469847b5
:104b20007b6893f8f2227b6883f8a1227b681522c8
:104b300083f8e0228ae17b681e2283f8e02285e187
:104b40007b6893f8f032002b14d17b6893f84030e7
:104b500003f00f03002b0dd07b6893f8f132012b8b
:104b600008d17b68002283f8a4227b68162283f890
:104b7000e0221ae07b6893f8f032012b10d17b68b9
:104b800093f8643103f00103002b09d07b6893f89c
:104b9000f132012b04d17b68192283f8e02204e072
:104ba0007b681b2283f8e0225be15ae17b689b680b
:104bb0009b6a402098477b68012283f8e3227b6848
:104bc000012283f8e4227b68002283f8e5227b68d7
:104bd00060334021184626f023fc7b689b685b6ba2
:104be0007a6802f160000122402198477b68172211
:104bf00083f8e0227b6893f8a432da076a4b134308
:104c00001a467b6803f2e3230093012306217868a8
:104c100013f094fc7b6893f8e232032b40f0188188
:104c20007b68002283f8e3227b6893f8dd32002b57
:104c300004d17b68182283f8e02209e17b681e22f8
:104c400083f8e02204e17b6893f8af32002b00f098
:104c500001817b68b3f8b2321a4648f270231340e0
:104c6000002b04d07b681e2283f8e022f2e07b68f0
:104c700093f8a432012b10d17b6893f8703003f0c5
:104c80000f03012b04d17b681a2283f8e022e1e0b4
:104c90007b681d2283f8e022dce07b6893f86d30ae
:104ca00003f00203002b08d07b68012283f8a422c2
:104cb0007b68162283f8e022cce07b681d2283f813
:104cc000e022c7e07b6803f2e32300930223374a24
:104cd0000621786813f032fc7b6893f8e232032bec
:104ce00040f0ba807b6893f8dd32002b1ad17b68e4
:104cf0009b689b682e4898470346002b0dd07b6825
:104d00002b4ac3f8b4227b689b681b6b0120984731
:104d10007b681b2283f8e0229ee07b681e2283f8da
:104d2000e02299e07b681e2283f8e02294e07b6811
:104d30009b689b681f4898470346002b0dd07b68f3
:104d40001c4ac3f8b4227b689b681b6b0120984700
:104d50007b681b2283f8e02283e07b681e2283f8b5
:104d6000e0227ee07b6803f2e323009301234ff40b
:104d700000721021786813f0e1fb7b6893f8e2324f
:104d8000032b6bd17b6893f8dd32002b04d17b6859
:104d90001c2283f8e02261e07b681e2283f8e02277
:104da0005ce000bf0100b70301ffff000101b90390
:104db0000075190380f0fa027b6803f2e323009385
:104dc000002300220721786813f0b8fb7b6893f872
:104dd000e232032b44d17b681d2283f8e0223fe0be
:104de0007b68d3f8ec32184626f093fc7b680022ef
:104df00083f8e02235e07b68002283f8e02230e08f
:104e000000bf2ee000bf2ce000bf2ae000bf28e07a
:104e100000bf26e000bf24e000bf22e000bf20e08a
:104e200000bf1ee000bf1ce000bf1ae000bf18e09a
:104e300000bf16e000bf14e000bf12e000bf10e0aa
:104e400000bf0ee000bf0ce000bf0ae000bf08e0ba
:104e500000bf06e000bf04e000bf02e000bf00e0ca
:0c4e600000bf00bf1037bd4680bd00bf82
:020000040000fa
:020000040040ba
:044e6c004449440071
:020000040000fa
:020000040040ba
:104e700090b591b004af0346fb802ef02ff90346a6
:104e800087f82e30002387f82f302ef041fcb862cf
:104e9000bb6a1b681a46a64b1a602df07bfc0a46bb
:104ea0000146a44b1b684ff00004c91a62eb0402d0
:104eb000a14b1b684ff00004a24208bf994202d3e5
:104ec0009e4b01221a702df065fc0a4601469c4b50
:104ed0001b684ff00004c91a62eb0402944b1b6874
:104ee0004ff00004a24208bf994202d3012387f881
:104ef0002f3097f82e300d2b00f23b8501a252f88f
:104f000023f000bf3d4f400073594000814f4000e7
:104f1000c94f400045524000b9524000235540005f
:104f20005d564000ad564000d756400059574000ee
:104f30001b5840008f5840000f594000814b002201
:104f40001a7002202cf0f4fe2df024fc03460c46cf
:104f50001a46784b1a60784b42f210721a60774bff
:104f600000221a70784b00221a70784b01221a70b6
:104f70002ef0a0fa2ef07afa2ef0c0fa00f0f9bc6a
:104f80002cf038f90346002b04d003202cf0d0fe7f
:104f900000f0dabc694b1b78002b00f0d5846c481c
:104fa0002cf0b4fc15202bf047fd08202cf0c0fe9f
:104fb000624b00221a702df0edfb03460c461a4698
:104fc0005c4b1a6000f0c0bc624b1b78012b19d1fe
:104fd000fb88614a2a3352f83340fb885e4adb0083
:104fe0001344d3f854315d4a12685a49097807f1dd
:104ff00008000291019200932346594a1e2126f08f
:10500000e7facce0534b1b78022b19d1fb88524aac
:10501000433352f83340fb884f4adb001344d3f844
:105020001c324e4a12684b49097807f10800029178
:105030000192009323464a4a1e2126f0c9faaee0a7
:10504000444b1b78032b19d1fb88434a4d3352f84c
:105050003340fb88404adb001344d3f86c323f4aac
:1050600012683c49097807f1080002910192009307
:1050700023463b4a1e2126f0abfa90e0354b1b78c5
:10508000042b19d1fb88344a573352f83340fb883c
:10509000314adb001344d3f8bc32304a12682d4940
:1050a000097807f1080002910192009323462c4ae7
:1050b0001e2126f08dfa72e0264b1b78052b19d1a4
:1050c000fb88254a613352f83340fb88224adb00d3
:1050d0001344d3f80c33214a12681e49097807f1aa
:1050e000080002910192009323461d4a1e2126f0da
:1050f0006ffa54e0174b1b78062b33d1fb88164a06
:105100006b3352f83340fb88134adb001344d3f867
:105110005c33124a12680f49097807f108000291be
:105120000192009323460e4a1e2126f051fa36e0e2
:105130006cff402070ff402074ff4020350041206c
:1051400078ff4020360041203700412038004120c0
:105150009898400024614020a07e40208c69402027
:10516000dc984000ba4b1b78072b18d1fb88b94a52
:10517000753352f83340fb88b64adb001344d3f84a
:10518000ac33b54a1268b249097807f108000291b8
:10519000019200932346b14a1e2126f019fa97f88e
:1051a0002f30002b00f0d283aa4b03f5a473d3e970
:1051b000000107f108031d221df0cefe0346002b5f
:1051c00019d1a74b01221a7004202cf0b1fd2ef04a
:1051d0004df9a44b42f210721a60002387f82f3069
:1051e000a14b00221a702df0d5fa03460c461a4640
:1051f0009e4b1a601be09e4b1b78022b11d99d48d9
:105200002cf084fb14202bf017fc924b03f5a473b5
:10521000d3e90001984b03221df09efe974b032219
:105220001a70934b1b780133dab2914b1a7000233a
:1052300087f82f302df0aefa03460c461a46904bf5
:105240001a6083e3884b1b7883f00103dbb2002be9
:105250001ed02ef0fff80346002b00f079832ef0cd
:1052600005f92ef027f905202cf062fd834b012271
:105270001a702df08ffa03460c461a467b4b1a60c3
:10528000784b40f6b8321a60774b00221a705fe311
:105290002df080fa03460c461a46744b1a60724b86
:1052a00000221a7077482cf031fb14202bf0c4fb3d
:1052b000724b03221a704be36b4b1b78002b00f0f0
:1052c000498306202cf034fd2df064fa03460c4689
:1052d0001a46664b1a605e4b1b78012b20d1fb8867
:1052e0005c4a2a3352f83320fb885a49db000b44ce
:1052f000d3f85431134407ee903af8eee77ab7ee5c
:10530000e77ab0ee046b27ee067b9fed4f6b27ee3e
:10531000067bfceec77b17ee902a524b1a60fce02e
:105320004b4b1b78022b20d1fb884a4a433352f85f
:105330003320fb884749db000b44d3f81c3213446d
:1053400007ee903af8eee77ab7eee77ab0ee046b44
:1053500027ee067b9fed3c6b27ee067bfceec77bc2
:1053600017ee902a3f4b1a60d7e0394b1b78032b7e
:1053700020d1fb88374a4d3352f83320fb8835491a
:10538000db000b44d3f86c32134407ee903af8ee8e
:10539000e77ab7eee77ab0ee046b27ee067b9fed77
:1053a0002a6b27ee067bfceec77b17ee902a2d4b6f
:1053b0001a60b2e0264b1b78042b20d1fb88254acb
:1053c000573352f83320fb882249db000b44d3f8d3
:1053d000bc32134407ee903af8eee77ab7eee77a7c
:1053e000b0ee046b27ee067b9fed176b27ee067b76
:1053f000fceec77b17ee902a1a4b1a608de0144b17
:105400001b78052b40d1fb88124a613352f83320b8
:10541000fb881049db000b44d3f80c33134407ee30
:10542000903af8eee77ab7eee77ab0ee046b27ee43
:10543000067b9fed056b27ee067bfceec77b17ee28
:10544000902a084b1a6068e000000000004cdd4024
:1054500024614020a07e40208c694020dc984000e0
:10546000b182402074ff40203500412070ff402071
:1054700037004120ec9840002c9940003600412034
:1054800078ff402030994000a14b1b78062b20d19b
:10549000fb88a04a6b3352f83320fb889d49db0020
:1054a0000b44d3f85c33134407ee903af8eee77af6
:1054b000b7eee77ab0ee046b27ee067b9fed926bba
:1054c00027ee067bfceec77b17ee902a924b1a6004
:1054d00023e08f4b1b78072b1fd1fb888d4a753338
:1054e00052f83320fb888b49db000b44d3f8ac33f4
:1054f000134407ee903af8eee77ab7eee77ab0eeab
:10550000046b27ee067b9fed806b27ee067bfcee9f
:10551000c77b17ee902a804b1a60804b00221a70ce
:1055200018e27e4b1b7883f00103dbb2002b78d0ae
:105530002df0b4ff034683f00103dbb2002b4dd006
:1055400097f82f30002b39d0724b03f5a473d3e9b1
:105550000001734b41f221021df0fefc0346002bbb
:1055600002d12df0a7ff1fe02df014f903460c46e1
:105570001a466c4b1a606c4b1c682df00bf90246f6
:105580000b461346e21a644b1b681344674a1360c8
:1055900067482cf0bbf90a202cf0cafb2df066ffff
:1055a0002df088ff2df0aaff002387f82f302df073
:1055b000f1f803460c461a465e4b1a602df092ff36
:1055c0000346002b00f0c8815b482cf09ff91620a1
:1055d0002bf032fa594b03221a70bde12df06aff0d
:1055e00007202cf0a5fb4d4b00221a702df0d2f8ad
:1055f00003460c461a464c4b1a60474b42f2107257
:105600001a602df06fff0346002b00f0a5814a4879
:105610002cf07cf916202bf00ffa484b03221a705d
:105620009ae147482cf072f93c4b00221a702df099
:10563000b1f803460c461a463b4b1a6010202bf07b
:10564000fbf93e4b03221a70324b03f5a473d3e9e6
:1056500000013c4b03221df07ffc7de12f4b1b78aa
:1056600083f00103dbb2002b0cd02bf0c3fd03460b
:10567000002b03d008202cf05bfb7ae106202cf0f5
:1056800057fb76e130482cf041f915202bf0d4f986
:1056900008202cf04dfb214b00221a702df07af8d7
:1056a00003460c461a46204b1a6062e1234b022245
:1056b0001a70264b1b78002b00f05081154b03f518
:1056c000a473d3e90001224b03221df045fc1f4bbc
:1056d00000221a7042e1194b03221a701d482cf067
:1056e00015f91a4b1b78002b00f03a81094b03f592
:1056f000a473d3e90001134b03221df02dfc134bbf
:1057000000221a702ce100bf00000000004cdd40b8
:1057100024614020a07e402074ff402035004120bd
:10572000649940007cff402070ff402080ff4020b3
:105730006899400078ff4020bc9940003600412025
:10574000fc9940002c994000409a400038004120cc
:10575000809a4000849a40002df01cf80a460146c9
:10576000874b1b684ff00004cb1a62eb0404ba6a43
:10577000526811464feae172a24208bf994242d3f1
:1057800097f82f30002b1cd02df070fe2df092fedc
:105790002df0b4fe7b482cf0b9f87b4b03f5a473d5
:1057a000d3e90001794b41f221021df0d5fb002322
:1057b00087f82f302cf0eeff03460c461a46744b48
:1057c0001a602df08ffe034603f40063002b10d007
:1057d0000b202cf0adfa6f4b00221a70002387f8d3
:1057e0002f302cf0d7ff03460c461a46684b1a6040
:1057f000b8e02df02ffe0346002b00f0b38006200a
:105800002cf096faaee064482cf080f814202bf0cf
:1058100013f9624b03221a70a4e007f10803604aef
:105820001a6097f82f30002b00f09e80564b03f53e
:10583000a473d3e9000107f1080303221df08cfbd8
:10584000584b01221a7004202cf072fa2df00efe33
:105850002df018fe2df02efe2df050fe524b42f290
:1058600010721a60002387f82f30504b00221a70f4
:105870002cf090ff03460c461a464d4b1a602cf054
:1058800089ff03460c461a46414b1a606ce0474bb1
:105890001b7883f00103dbb2002b1bd02df0dafd67
:1058a0000346002b62d02df0e1fd0d202cf040fad4
:1058b0003a4b01221a702cf06dff03460c461a4633
:1058c0003b4b1a60384b40f6b8321a60374b002217
:1058d0001a704be02cf05eff03460c461a46344b20
:1058e0001a60324b00221a7032482cf00ff8142044
:1058f0002bf0a2f8244b03f5a473d3e900012e4b3f
:1059000003221df029fb254b03221a702ee0274ba2
:105910001b78002b2cd006202cf00afa2cf03aff32
:1059200003460c461a46224b1a602cf033ff0346fe
:105930000c461a46164b1a60204b1b681a4a136015
:105940001a4b00221a7013e000bf12e000bf10e0f3
:1059500000bf0ee000bf0ce000bf0ae000bf08e09f
:1059600000bf06e000bf04e000bf02e000bf00e0af
:1059700000bf0a4b1b7818463437bd4690bd00bfa8
:105980007cff4020c09a4000a07e402064994000e7
:1059900078ff402037004120ec984000360041203d
:1059a000362c32003800412074ff40203500412061
:1059b00070ff4020309940002c99400080ff40202b
:020000040000fa
:020000040040ba
:1059c0002de9f04f57ec106b95b0cde90067466ab2
:1059d000079105460b9210931e9c3eb910202ef0a5
:1059e000f7f86862466086600660c6606b6a196890
:1059f00051b15a684a60012393408b6028462af0cf
:105a0000f3fd6b6a00221a60019b002bbfbf0123cc
:105a10002360019b23f00043b2bf01930023236066
:105a2000019c734ba34318d1109a42f20f73136079
:105a3000009b23b9c4f31304002c00f018851f9bae
:105a40003bb96c4b1de06c4b049308331f9a1360f9
:105a5000a6e2684b04930333f8e79ded007bb5eeb7
