:100000004052FF1F716A0100B7470000D77100001E
:10001000DF7E00000B850000278800000000000044
:100020000000000000000000000000008F880000B9
:10003000B388000000000000CB880000BF8A0000E9
:10004000E56C0100ED6C0100F56C0100FD6C010038
:10005000056D01000D6D0100156D01001D6D0100A4
:10006000256D01002D6D0100356D01003D6D010014
:10007000456D01004D6D0100556D01005D6D010084
:10008000656D0100356E0100356E0100356E0100B1
:10009000356E0100356E0100356E0100356E0100D0
:1000A0006D6D0100756D01007D6D0100856D0100B4
:1000B0008D6D0100956D0100356E01009D6D010093
:1000C000A56D0100ED850000AD6D010045AD00009E
:1000D000B56D0100BD6D0100C56D0100FF7100002F
:1000E000356E0100356E0100356E0100356E010080
:1000F000356E0100356E0100356E010005490000C6
:10010000356E0100356E0100356E0100356E01005F
:10011000356E0100356E0100356E0100356E01004F
:10012000356E0100356E010037400100CDB2000090
:10013000356E010011B30000356E0100356E01000F
:10014000356E0100CD6D0100D56D0100DD6D010042
:10015000C1A70000E56D0100356E0100356E01009C
:10016000356E010017720000ED6D0100F56D0100A4
:10017000FD6D0100056E01000D6E0100156E0100A0
:100180001D6E0100256E0100356E0100356E010007
:10019000356E0100356E0100356E0100356E0100CF
:1001A000356E0100356E0100356E0100356E0100BF
:1001B000356E0100356E0100356E0100356E0100AF
:1001C000356E0100356E0100356E0100356E01009F
:1003F000356E0100356E0100356E0100FFFFFFFF15
:10040000FFFFFFFFFFFFFFFFFFFFFFFFFEFFFFFFFD
:10041000DFF82C2DC2E900017047DFF8240DD0E988
:10042000000170471CB504460FF2480003F01CF9A8
:10043000204603F019F96946204602F0B3F804009B
:1004400015D19DF8000008B90A2002E0012802D168
:10045000092003F0CFFA0FF2340003F005F99DF8FC
:10046000000003F00CF90FF2340003F0FDF8204611
:1004700016BD00000D0A496E2050726F63657373DC
:100480005365744D6F64652D3E0000000D0A4D6F7D
:100490006465207365742061732000000D0A302D9F
:1004A0003E4155544F2C20312D3E4D414E55414C2F
:1004B000200000002DE9F0430446DFF8888C83B06B
:1004C000404603F0D1F8204603F0CEF802232C2258
:1004D00001A9204603F03AFB0746DFF86C0C03F055
:1004E000C3F80026012F0CDB01AD3C460FF270393A
:1004F00055F8040B03F0B8F8484603F0B5F8641E4D
:10050000F6D1022F3CD1019B187848B10A22002174
:10051000184603F069FC044603F068FC78B10094C7
:10052000002003F01AFA9DF80000401E05281AD892
:10053000DFE800F003090B0D0F1602200AE0042685
:1005400008F1240019E0032004E0042002E0052063
:1005500000E0062003F04EFA002003F0F8F902E074
:10056000012003F0FAF90FF2280003F07DF89DF85E
:10057000000003F084F808F14C0003F075F804E083
:1005800008F1900003F070F8032602F045B800006F
:100590000A204D616E75616C204D6F646520536556
:1005A0007456616C7565203A200000002DE9F8470B
:1005B0000646A3B00FF2241003F056F8304603F0BD
:1005C00053F803F0A8F8044603F0C4FC94E88E0046
:1005D000054606A880E88E0006A9304601F032FFE5
:1005E00006001ED106A890E88E0084E88E0090E8F0
:1005F000004785E800472568DFF84C2D0595E07B2E
:100600000490A17B0391607B0290217B0191642186
:10061000A06800900AA8636803F05EFD0AA803F0D2
:1006200023F8304624B0BDE8F0871CB50446DFF857
:10063000A00D03F019F8204603F016F8694620468D
:1006400001F0B0FF04000CD10FF21C0003F00CF815
:100650009DF8000003F013F803F065FD9DF800100D
:100660000170204616BD00000D0A427275736820A5
:100670006D6F746F7220737461746520736574207C
:100680006173200070B505469EB00FF2500002F075
:10069000EBFF284602F0E8FF03F068FD044694E80B
:1006A0000E0002A880E80E0002A9284601F078FE9C
:1006B000050012D102A890E80E0084E80E00267A08
:1006C000DFF8902D019664216068009005A82368EA
:1006D00003F002FD05A802F0C7FFBEE00D0A496E57
:1006E0002050726F636573735365744D6F746F72CE
:1006F00050574D4D616E75616C2D3E001CB5044622
:100700000FF2340002F0B0FF204602F0ADFF694660
:10071000204601F047FF04000CD10FF23C0002F02C
:10072000A3FF9DF8000002F0AAFF03F069FF9DF807
:1007300000100170204616BD0D0A496E2050726FE0
:100740006365737353657442727573684469726547
:100750006374696F6E2D3E000D0A427275736820D6
:100760006D6F746F7220646972656374696F6E2057
:10077000736574206173200078B50546A3B00FF24D
:10078000640002F071FF284602F06EFF03F0E4FB04
:10079000044694E84E0006A880E84E0006A92846C4
:1007A00001F050FE050019D106A890E84E0084E83B
:1007B0004E000591E07BDFF8BC2D0490A07B0390F8
:1007C000617B0291207B01900AA8A16800916421BD
:1007D000636803F081FC0AA802F046FF284624B0B3
:1007E00070BD00000D0A496E2050726F636573730F
:1007F0005365744D6F746F7250574D4175746F2D02
:100800003E00000070B505469EB00FF2580002F0A1
:100810002BFF284602F028FF03F0ABFC044694E8C7
:100820000E0002A880E80E0002A9284601F0B8FDDB
:10083000050012D102A890E80E0084E80E00267A86
:10084000DFF8A42C019664216068009005A8236855
:1008500003F042FC05A802F007FF28461EB070BD59
:100860002C0000000D0A496E2050726F636573738F
:10087000536574427275736850574D4175746F2D8E
:100880003E0000002DE9F0430446DFF8F08C83B011
:10089000404602F0E9FE204602F0E6FE02232C224A
:1008A00001A9204603F052F9074608F1240002F09E
:1008B000DBFE0025012F0CDB01AE3C460FF25C395C
:1008C00056F8040B02F0D0FE484602F0CDFE641E3E
:1008D000F6D1022F3BD1019803F0E4FE042836D173
:1008E00001980278417802EB820301EB4301A1F108
:1008F0001004E4B28278C1780FF2640002EB820344
:1009000001EB4301A1F1100702F0AEFE204602F018
:10091000B6FE0FF2580002F0A7FEFFB2384602F012
:10092000AEFE182CB8BF3C2F0BDA8DF800408DF8C6
:10093000017003F0D3FE684603F0D6FE0FF23800D4
:1009400002E0042508F14C0002F08EFE04E00FF2F4
:10095000440002F089FE0325284601F05EBE000037
:100960000D0A486F75722D2D3E0000000D0A4D696D
:100970006E7574652D2D3E000A204175746F2074CC
:10098000696D652053657456616C75652F732053CE
:10099000657400000A204175746F2074696D6520CC
:1009A00053657456616C75652F7320496E76616C62
:1009B000696400001CB50446DFF8C00D02F054FE67
:1009C000204602F051FE6946204601F0EBFD04008E
:1009D0000CD10FF21C0002F047FE9DF8000002F05F
:1009E0004EFE03F0BEFE9DF800100170204616BDBD
:1009F0000D0A456467652073656E736F72207374AA
:100A00006174652073657420617320002DE9F841DD
:100A1000044695B00FF2E40002F026FE204602F0F4
:100A200023FE07232C2204A9204603F08FF8064654
:100A3000DFF8C80C02F018FE0025012E0CDB0DF1CA
:100A40001008344675A758F8040B02F00DFE38461E
:100A500002F00AFE641EF6D104ACA06803F04CFF5D
:100A6000ADF80000606803F047FF8DF802000498BD
:100A700003F042FF8DF80300079803F03DFF8DF867
:100A80000400089803F038FF8DF80500099803F07A
:100A900033FF8DF80600684604F050F8072E23D186
:100AA000DFF8DC1CDFF8582D0918914216D202A994
:100AB00004F02CF828220BA902A804F011F80BA8C6
:100AC00002F0D2FD02A803F083FF68B103F006FE36
:100AD000082004F0EFF90FF2400002E004250FF2C5
:100AE000500002F0C1FD04E00FF2640002F0BCFD12
:100AF0000325284616B0BDE8F08100000D0A496EB6
:100B00002050726F6365737353657452544356611A
:100B10006C75652D3E0000000A2052544320536539
:100B20007456616C75652F73205365740000000066
:100B30000A205254432053657456616C75652F73B7
:100B4000204F7574206F662052616E67650000004B
:100B50000A20525443202053657456616C75652FEA
:100B60007320496E76616C69640000002DE9F843DA
:100B7000044684B00FF2A800DFF8887C02F074FD10
:100B8000204602F071FD04232C226946204602F023
:100B9000DDFF0646384602F067FD0025012E0CDB1E
:100BA000E84634460FF23C3958F8040B02F05CFD7D
:100BB000484602F059FD641EF6D1042E26D104F0F9
:100BC0004CFA0446009803F06DFD20B1009A0B2109
:100BD000204603F081FA019F384603F063FD28B1F7
:100BE0003A460B2104F10B0003F076FA029E3046E0
:100BF00003F058FD28B132460B2104F1160003F032
:100C00006BFA0FF2380002F02FFD04E007F1240028
:100C100002F02AFD032501F011BC00002C000000A9
:100C20000D0A496E2050726F636573735365744487
:100C30006576696365496E666F2D3E000A204465DE
:100C40007669636520496E666F2053657456616CE2
:100C500075652F7320536574000000002DE9F0477F
:100C60002DED048B0446DFF8708C84B0404602F012
:100C7000FBFC204602F0F8FC04F0CEFA8246042386
:100C80009AED008ADAED018A9AED029A2C226946E1
:100C9000204602F05BFF0546DFF8C80C02F0E4FCDA
:100CA0000026012D0BDBE9462C468EA759F8040BD4
:100CB00002F0DAFC384602F0D7FC641EF6D1042DAF
:100CC00059D1009A107868B10021104604F020FC38
:100CD000F0EE409A03F090F810B1B0EE698A01E0AE
:100CE000002400E00124019A107850B10021104640
:100CF00004F00EFCF0EE409A03F07EF810B1F0EE36
:100D0000698A0120029A0440107850B100211046EF
:100D100004F0FEFBF0EE409A03F06EF810B1B0EE76
:100D2000699A0120044205D108F1240002F09CFCDC
:100D3000042625E008F1540002F096FCCAED018A71
:100D40008AED029A8AED008A0320B0EE480A02F08A
:100D5000ADFCABA4204602F087FC03209AED010A0B
:100D600002F0A4FC204602F07FFC03209AED020A68
:100D700002F09CFC04E008F17C0002F075FC032604
:100D800004B03046BDEC048BBDE8F0872DE9FE438E
:100D900004460FF28000DFF8D89C02F065FC204684
:100DA00002F062FC02232C226946204602F0CEFEAD
:100DB0000646484602F058FC0025012E0BDBE846AB
:100DC000344648A758F8040B02F04EFC384602F0AF
:100DD0004BFC641EF6D1022E14D109F1240002F05E
:100DE00043FC00981022002102F0FEFF02F047FCB5
:100DF00004F0C9F8044604F08DF844B1082004F06A
:100E00003DF804E009F1480002F02EFC03252846D5
:100E100001F003BC0D0A496E2050726F6365737355
:100E2000436C6561724572726F72436F6465732DB6
:100E30003E0000002DE9F847044683B00FF2A800F9
:100E4000DFF8988C02F010FC204602F00DFC03F055
:100E5000FBFE0646022330788DF800002C2201A903
:100E6000204602F073FE0746404602F0FDFB0025D7
:100E7000012F0DDB0DF104093C460FF2C02A59F891
:100E8000040B02F0F1FB504602F0EEFB641EF6D1BB
:100E9000022F1DD1019B187848B10A220021184663
:100EA00002F0A2FF044602F0BDFF58B100949DF885
:100EB000000030700FF24C0002F0D6FB307802F0E8
:100EC000DEFB0AE008F1240002F0CEFB042504E07A
:100ED00008F14C0002F0C8FB0325284604B0BDE829
:100EE000F08700002C0000000D0A496E2050726F40
:100EF000636573735365744C6F77426174536F43CA
:100F00002D3E00000A204C6F772042617420536F01
:100F1000432053657456616C75652F732053657457
:100F2000000000002DE9F04F044683B00FF2D4001A
:100F3000DFF8648C02F098FB204602F095FB04F089
:100F400033FB06463768D6F8049003232C22694603
:100F5000204602F0FBFD8246404602F085FB00255C
:100F6000BAF1010F0ADBEB4654465BF8040B02F0C2
:100F70007BFB72A002F078FB641EF6D1BAF1030F7E
:100F800037D1009B187860B10A220021184602F080
:100F90002BFF04460120C04608B1A14601E0002411
:100FA00000E00124019B187848B10A22002118466C
:100FB00002F01AFF82460120C04608B157460120C0
:100FC000044205D108F1240002F04EFB042515E08F
:100FD0000FF24C0002F048FB3760C6F80490484618
:100FE00002F04DFB06A002F03FFB306802F047FB29
:100FF00004E008F14C0002F037FB032528469AE094
:10100000202C00000D0A496E2050726F63657373C7
:1010100053657450756C7365436F756E742D3E0027
:101020000A2050756C736520436F756E742053658C
:101030007456616C75652F7320736574203A2000B7
:101040002DE9F04F0446DFF8508B83B008F17000B3
:1010500002F00AFB204602F007FB04F0A5FA07465F
:101060003D68D7F8049003232C226946204602F0FD
:101070006DFD8246404602F0F7FA0026BAF1010FF4
:101080000ADBEB4654465BF8040B02F0EDFA2BA0AA
:1010900002F0EAFA641EF6D1BAF1030F45D1009BC3
:1010A000187860B10A220021184602F09DFE04461D
:1010B0000120C04608B1A14601E0002400E001245F
:1010C000019B187848B10A220021184602F08CFED4
:1010D00082460120C04608B155460120044205D190
:1010E00008F1940002F0C0FA042623E008F1C400DD
:1010F00002F0BAFA3D60C7F8049002F0A8FB052898
:1011000003D002F0A4FB042802D1062002F029FF3C
:10111000042002F06FFC786802F0B1FAADA002F092
:10112000A3FA386802F0ABFA04E008F1F00002F02C
:101130009BFA0326304603B0BDE8F08F2C00000078
:10114000E82FFF1FA4520100442600002DE9F04FB4
:101150000446DFF808AD87B0504602F085FA204615
:1011600002F082FA204602F07FFA05232C2202A91F
:10117000204602F0EBFC07460AF1240002F074FA64
:10118000012F4FF0000B0DDB0DF108083C460FF26C
:10119000C82958F8040B02F067FA484602F064FACE
:1011A000641EF6D1052F40F0818004F066FF0446EE
:1011B000029B94F8009060680190A768D4F80C80B6
:1011C000187880B10A220021184602F00DFE451E53
:1011D000AD41ED43E80F02F03EFE10B14FEAD57984
:1011E00001E0002600E0012602AD6B68187850B1DE
:1011F0000A220021184602F0F7FD009002F01AFEC4
:1012000010B10098019001200640AB68187848B1F1
:101210000A220021184602F0E7FD009002F00EFEBF
:1012200008B1009F0120EB680640187848B10A22F7
:101230000021184602F0D8FD054602F006FE08B16E
:10124000A8460120064206D10AF1540002F00CFA29
:101250004FF0040B30E00AF18C0002F005FA84F83C
:10126000009001986060A760C4F80C800AF1B0009B
:1012700002F0FAF9207802F002FA0FF2FC2A504646
:1012800002F0F2F9606802F0FAF9504602F0ECF967
:10129000A06802F0F4F9504602F0E6F9E06802F0C6
:1012A000EEF9207840B104F0E1FE05E00AF1D40047
:1012B00002F0DAF94FF0030B584607B0BDE8F08FA3
:1012C00070B5DFF8144D002020700121217086B028
:1012D00004F008FF1122ADF800206B4601AA02F0CD
:1012E000FFFCFF23DFF8F42C40F2DB51601C02F01E
:1012F000F3FE451C40F2DB51AAB2491B0220A05468
:101300006D1C491BAEB241F21603DFF86C2D89B299
:10131000A01902F0E1FE4519A9B2032060546D1C2A
:1013200005F01AFC022101A802F0B2FB05F0E2FC74
:10133000009040F2DC51491BA8B201AB03A289B274
:10134000204402F0C9FEA4E2F466010025732C25B6
:101350006400000070B5DFF8804C0020207001218F
:10136000217086B004F0BEFE1122ADF800206B465D
:1013700001AA02F0B5FCFF23DFF8602C40F2DB513C
:10138000601C02F0A9FE451C40F2DB51AAB2491BC9
:101390000220A0546D1C491BAEB241F21703DFF8C6
:1013A000D82C89B2A01902F097FE4519A9B20320E2
:1013B00060546D1C05F09EFC034640F2DC51491B55
:1013C000A8B2CDA289B2204402F086FE61E20000FC
:1013D000E86A0100202C000070B5DFF8FC4B00200B
:1013E00020700121217086B004F07CFE1122ADF83E
:1013F00000206B4601AA02F073FCFF23DFF8DC2B10
:1014000040F2DB51601C02F067FE451C40F2DB51EC
:10141000AAB2491B0220A0546D1C491BAEB241F276
:101420001803DFF8542C89B2A01902F055FE4519B3
:10143000A9B2032060546D1C03F095FD034640F2F1
:10144000DC51B1EB0501A8B204A289B2204402F03C
:1014500043FE1EE2D46701002C000000253030302E
:101460005800000070B5DFF8704B0020207001219B
:10147000217086B004F036FE1122ADF800206B46D4
:1014800001AA02F02DFCFF23DFF8502B40F2DB51C4
:10149000601C02F021FE451C40F2DB51AAB2491B40
:1014A0000220A0546D1C491BAEB241F21903DFF8B3
:1014B000C82B89B2A01902F00FFE4519A9B203206A
:1014C00060546D1C03F0C9FD08A1029100F10B03EB
:1014D000009300F116020192034640F2DC51491BD1
:1014E000A8B20FF69832D0E1F468010044312E36EC
:1014F0005600000070B5DFF8E04A0020207001219E
:10150000217086B004F0EEFD1122ADF800206B468C
:1015100001AA02F0E5FBFF23DFF8C02A40F2DB510D
:10152000601C02F0D9FD451C40F2DB51AAB2491BF8
:101530000220A0546D1C491BAEB241F20103DFF83A
:10154000382B89B2A01902F0C7FD4519A9B20320B2
:1015500060546D1C02F073F940F2DC56761B0023D8
:10156000012818BF0123A8B263A2B1B2204402F03F
:10157000B3FD8EE12C6701002C2000006C5D0100A2
:1015800070B5DFF8544A002020700121217086B028
:1015900004F0A8FD1122ADF800206B4601AA02F06C
:1015A0009FFBFF23DFF8342A40F2DB51601C02F07E
:1015B00093FD451C40F2DB51AAB2491B0220A05406
:1015C0006D1C491BAEB241F20303DFF8AC2A89B2AD
:1015D000A01902F081FD4519A9B2032060546D1CC9
:1015E00002F035F940F2DC56761B401E03280BD87A
:1015F000DFE800F002040608012306E0022304E00D
:10160000032302E0042300E00523A8B23AA2B1B20A
:10161000204402F061FD3CE170B5DFF8BC490020D8
:1016200020700121217086B004F05CFD1122ADF81C
:1016300000206B4601AA02F053FBFF23DFF89C2930
:1016400040F2DB51601C02F047FD451C40F2DB51CB
:10165000AAB2491B0220A0546D1C491BAEB241F234
:101660000403DFF8142A89B2A01902F035FD4519E8
:10167000A9B2032060546D1C02F04DF8F6E070B57D
:10168000DFF85449002020700121217086B004F059
:1016900029FD1122ADF800206B4601AA02F020FBC3
:1016A000FF23DFF8382940F2DB51601C02F014FD03
:1016B000451C40F2DB51AAB2491B0220A0546D1C0C
:1016C000491BAEB241F20503DFF8AC2989B2A0197B
:1016D00002F002FD4519A9B2032060546D1C02F00E
:1016E00022FD40F2DC510378491BA8B202A289B264
:1016F000204402F0F1FCCCE025640000905D010084
:1017000070B5DFF8D448002020700121217086B028
:1017100004F0E8FC1122ADF800206B4601AA02F0AB
:10172000DFFAFF23DFF8B42840F2DB51601C02F03F
:10173000D3FC451C40F2DB51AAB2491B0220A05445
:101740006D1C491BAEB241F20603DFF82C2989B2A9
:10175000A01902F0C1FC4519A9B2032060546D1C08
:1017600002F004FD017A019140F2DC5142680092DE
:10177000491B03680FF2F01286E000000C6B0100B9
:1017800080BC92C770B5DFF850480020207001215E
:10179000217086B004F0A6FC1122ADF800206B4643
:1017A00001AA02F09DFAFF23DFF8302840F2DB5156
:1017B000601C02F091FC451C40F2DB51AAB2491BAF
:1017C0000220A0546D1C491BAEB241F20703DFF8A2
:1017D000A82889B2A01902F07FFC4519A9B20320FC
:1017E00060546D1C02F00CFF40F2DC510378491B81
:1017F000A8B2B9A289B2204402F06EFC49E0000010
:10180000801319BC0063010070B5DFF8CC470020DD
:1018100020700121217086B004F064FC1122ADF823
:1018200000206B4601AA02F05BFAFF230FF660323C
:1018300040F2DB51601C02F04FFC451C40F2DB51D2
:10184000AAB2491B0220A0546D1C491BAEB241F242
:1018500009030FF6443289B2A01902F03DFC451984
:10186000A9B2032060546D1C02F076FB016803915D
:10187000827B0292017B019140F2DC5182680092EE
:10188000491B43680FF25402A8B289B2204402F007
:1018900023FC55FA80F5AAB20421A1546D1CDFF88F
:1018A000A40C01F0E1FEA8B201F0E9FEDFF8980C0B
:1018B00001F0DAFEA9B2204601F0DFFEDFF8680D84
:1018C00001F0D2FEA9B2204604F058FB00F026FD3C
:1018D000002006B070BD00000054010025642C25D6
:1018E000642C25642C25642C2564000070B5DFF879
:1018F000E846002020700121217086B004F0F2FB40
:101900001122ADF800206B4601AA02F0E9F9FF238D
:101910000FF67C2240F2DB51601C02F0DDFB451C1F
:1019200040F2DB51AAB2491B0220A0546D1C491B96
:10193000AEB241F20A030FF6602289B2A01902F09A
:10194000CBFB4519A9B2032060546D1C02F011FCB9
:10195000017A019140F2DC5142680092491B036810
:1019600001A291E74C25000025642C25642C2564F8
:101970000000000070B5DFF86046002020700121F3
:10198000217086B004F0AEFB1122ADF800206B464A
:1019900001AA02F0A5F9FF230FF6F41240F2DB5181
:1019A000601C02F099FB451C40F2DB51AAB2491BB6
:1019B0000220A0546D1C491BAEB241F20B030FF67E
:1019C000D81289B2A01902F087FB4519A9B20320E9
:1019D00060546D1C02F086FE03A24178009140F233
:1019E000DC510378491B4FE72530326425303264DF
:1019F0000000000070B5DFF8E045002020700121F4
:101A0000217086B004F06EFB1122ADF800206B4609
:101A100001AA02F065F9FF230FF6741240F2DB51C0
:101A2000601C02F059FB451C40F2DB51AAB2491B75
:101A30000220A0546D1C491BAEB241F20C030FF6FC
:101A4000581289B2A01902F047FB4519A9B2032028
:101A500060546D1C02F087FE034640F2DC51491BC6
:101A6000A8B21DA289B2204402F036FB11E70000A3
:101A7000DC5D010078B5DFF860458BB00020207098
:101A800040F2DC53ADF8003041F20D0269462046C9
:101A900000F04AFCBDF8005040F2DC50401BADF8AD
:101AA000000002F0F9FF282101A802F0F9FF01A9C6
:101AB000204605F057FB01A802F0F4FD064600BFE2
:101AC00007A001F0D1FD01A801F0CEFD55FA86F581
:101AD000A9B20420605477E1256400004C5E010047
:101AE0000D0A54696D652D2D3E0000002DE9F04171
:101AF000DFF8E44484B00020207040F2DC53ADF8FD
:101B00000C3041F20E0203A9204600F00DFCBDF896
:101B10000C5040F2DC50401BADF80C00002703F0E5
:101B200025FD064601F08BFE012818BF012705F0B0
:101B300049FB804605F044FB0190CDF808800096F3
:101B40004FEA0703BDF80C1014A2601902F0C4FAA2
:101B500055FA80F5AAB20421A1546D1CDFF8E409FE
:101B600001F082FDA8B201F08AFDDFF8DC0901F086
:101B70007BFDA9B2204601F080FDDFF8AC0A01F040
:101B800073FDA9B2204604F0F9F900F0C7FB00206C
:101B900004B0BDE8F0810000DC4D010025642C207C
:101BA00025642C2025642C20256400002DE9F047B5
:101BB000DFF8244486B00020207040F2DC53ADF8FA
:101BC000143041F2210205A9204600F0ADFBBDF81A
:101BD000145040F2DC50401BADF81400002703F015
:101BE000C5FC064601F02BFE012818BF012703F0B3
:101BF000BAF9804605F0E6FA814605F0E1FA824638
:101C000003F0B0FC0190CDF81080CDF80C90CDF829
:101C100008A000964FEA0703BDF8141013A260193C
:101C200002F05AFA55FA80F5AAB20421A1546D1CAB
:101C3000DFF8100901F018FDA8B201F020FDDFF86F
:101C4000080901F011FDA9B2204601F016FDDFF8E8
:101C5000D80901F009FDA9B2204604F08FF900F07F
:101C60005DFB002006B0BDE8F087000025642C2055
:101C700025642C2025642C2025642C2025642C2010
:101C8000256C640078B5D44C8DB00020207040F2F3
:101C9000DC53ADF8183041F20F0206A9204600F0DF
:101CA00043FBBDF8185040F2DC50401BADF8180063
:101CB00003F094FC064602210AA896ED020A01F000
:101CC000E7FE022107A896ED030A01F0E1FEB069E4
:101CD000059007AA716904910AA9306903900292DC
:101CE00001917068BDF8181013A200906019336854
:101CF00002F0F2F955FA80F5AAB20421A1546D1C44
:101D0000DFF8400801F0B0FCA8B201F0B8FCDFF841
:101D1000380801F0A9FCA9B2204601F0AEFCDFF8BA
:101D2000080901F0A1FCA9B2204604F027F900F04F
:101D3000F5FA00200EB070BD25642C25642C2573A7
:101D40002C25732C25642C25642C256400000000B0
:101D500070B5A14C8CB00020207040F2DC53ADF87F
:101D6000083041F2100202A9204600F0DDFABDF869
:101D7000085040F2DC50401BADF8080003F04CFA6C
:101D80000646022109A896ED000A01F081FE022113
:101D900006A896ED010A01F07BFE022103A896ED4C
:101DA000020A01F075FE06A903A80091019009AB93
:101DB000BDF808100FF27042601902F08DF955FA63
:101DC00080F5AAB20421A1546D1CDFF8780701F058
:101DD0004BFCA8B201F053FCDFF86C0701F044FCA7
:101DE000A9B2204601F049FCDFF83C0801F03CFCB8
:101DF000A9B2204604F0C2F800F090FA00200CB01E
:101E000070BD38B5744C8CB00020207040F2DC53AB
:101E1000ADF8083041F2110202A9204600F084FA20
:101E2000BDF8085040F2DC50401BADF8080005F04A
:101E3000B7FA022109A801F02BFE05F0CDFA022124
:101E400006A801F025FE05F0EDFA022103A801F035
:101E50001FFE06A903A800910190BBE1F84E010006
:101E60003EB55D4C0020207040F2DC53ADF80430EC
:101E700041F2140201A9204600F056FABDF80450C0
:101E800040F2DC50401BADF8040003F08DFB00BFB6
:101E900015A2016800914368BDF80410601902F0B2
:101EA0001BF955FA80F5AAB20421A1546D1CDFF884
:101EB000940601F0D9FBA8B201F0E1FBDFF8880637
:101EC00001F0D2FBA9B2204601F0D7FBDFF858079A
:101ED00001F0CAFBA9B2204604F050F800F01EFA47
:101EE000002003B030BD000025642C2564000000F4
:101EF00038B5394C0020207040F2DC53ADF800308A
:101F000041F215026946204600F00EFABDF8005075
:101F100040F2DC50401BADF8000002F095FE037863
:101F2000BDF80010BFA2601902F0D6F855FA80F58E
:101F3000AAB20421A1546D1CDFF8080601F094FB3D
:101F4000A8B201F09CFBDFF8000601F08DFBA9B2FE
:101F5000204601F092FBDFF8D00601F085FBA9B224
:101F6000204604F00BF800F0D9F9002032BD10B57E
:101F70003A21DFF8C00D05F0B5FE002400B10524BC
:101F8000204610BD30B5144C8DB00020207040F2BA
:101F9000DC53ADF8103041F21A0204A9204600F0DB
:101FA000C3F9BDF8105005A804F0D4F940F2DC5094
:101FB0000DF12E01401B0391ADF810000DF125012C
:101FC0000DF12B00019105AA029000920AABBDF819
:101FD00010100FF2901202E14C16FF1F9023000028
:101FE00030B5DFF8544D8BB00020207040F2DC5348
:101FF000ADF80C3041F21B0203A9204600F094F921
:10200000BDF80C5004A804F01DFA40F2DC500DF1AC
:102010002901401B0291ADF80C000DF121010DF1D9
:1020200026000091019004ABBDF80C1013A26019BA
:1020300002F052F855FA80F5AAB20421A1546D1CA1
:10204000DFF8000501F010FBA8B201F018FBDFF883
:10205000F80401F009FBA9B2204601F00EFBDFF8FD
:10206000C80501F001FBA9B2204603F087FF00F08C
:1020700055F900200BB030BD9823000025732C25A6
:10208000732C25732C25730038B5DFF8AC4C002079
:10209000207096B004F09BFD012113A801F0F8FC1C
:1020A00004F0C0FD012110A801F0F2FC04F0A7FD2E
:1020B00001210DA801F0ECFC04F004FE012107A8A9
:1020C00001F0E6FC05A804F0D7FD9DF818009DED91
:1020D000050A08B9B1EE400A01210AA801F0D8FCAE
:1020E00040F2DC50ADF8100041F21C0204A9204679
:1020F00000F01AF9BDF8105040F2DC50401BADF86A
:10210000100007A903910AAA10A80DAB0292019032
:10211000009313ABBDF8101012A2601901F0DCFFA0
:1021200055FA80F5AAB20421A1546D1CDFF81404FD
:1021300001F09AFAA8B201F0A2FADFF80C0401F05B
:1021400093FAA9B2204601F098FADFF8DC0401F016
:102150008BFAA9B2204603F011FF00F0DFF800204F
:1021600017B030BD25732C25732C25732C25732CAB
:102170002573000038B5DFF8C04B002121708CB00A
:10218000002005F09FFE022109A801F081FC01203A
:1021900005F098FE022106A801F07AFC04F092FDF9
:1021A000022103A801F074FC40F2DC50ADF80800F5
:1021B00041F21D0202A9204600F0B6F8BDF8085011
:1021C00040F2DC5003A9401B019106AAADF80800BB
:1021D000009200BF0DF12403BDF8081012A260198F
:1021E00001F07AFF55FA80F5AAB20421A1546D1CC2
:1021F000D44801F039FAA8B201F041FAD24801F00E
:1022000033FAA9B2204601F038FADFF81C0401F0D5
:102210002BFAA9B2204603F0B1FE00F07FF80020AF
:102220000DB030BD2564000025732C25732C25735B
:102230000000000038B5DFF8004B84B000202070AB
:1022400040F2DC53ADF80C3041F2220203A92046E3
:1022500000F06AF8BDF80C5040F2DC50401BADF8BD
:102260000C0003F00AFFC168029182680192416884
:1022700012A200910378BDF80C10601901F02CFF38
:1022800055FA80F5AAB20421A1546D1CAD4801F0A5
:10229000EBF9A8B201F0F3F9AB4801F0E5F9A9B206
:1022A000204601F0EAF9E04801F0DEF9A9B2204643
:1022B00003F064FE00F032F801F003B825642C2529
:1022C0006C642C25642C256C640000007CB50546EC
:1022D000DFF87C4B00202070C823ADF8003041F2BD
:1022E00011126946204600F01FF8BDF80000C0F149
:1022F000C801ADF800100646BDF800102B46C8A274
:10230000204401F0E9FE56FA80F080B20421215405
:10231000401C80B200222254204676BD40F2DC519F
:10232000DFF8140A05F0D8BDF8B5044686B00D46AE
:1023300001202070164629884A1E2A80112703F0A2
:10234000D1FEADF800706B4601AA01F0C9FC2988E6
:102350000FA2FF23601C01F0BFFE471C2888C01B92
:10236000BAB228800221A1547F1C29880AA2C91B65
:102370002980B8B2334689B2204401F0ADFEC719B6
:10238000BAB20321A1547F1C2F80012007B0F0BDF9
:10239000253032580000000025303458000000007D
:1023A0002DE9F84384B00446884601F05DF9042322
:1023B0002C226946204601F0C9FB07460FF28C101B
:1023C00001F052F90025012F0CDB6E463C460FF25E
:1023D000542956F8040B01F047F9484601F044F936
:1023E000641EF6D1042F24D10098DFF89C2C4146BE
:1023F00000F0DDFD441E0198DFF8902C08F1040187
:10240000A44100F0D4FDE44300EAD4740298DFF85C
:10241000802C661E08F10801B64100F0C8FDF643A5
:1024200010EAD67F0AD10FF2401001F01DF9042501
:1024300004E00FF2541001F017F90325284605B007
:10244000BDE8F0832DE9F84386B00446884601F0E4
:102450000BF906232C226946204601F077FB07463C
:102460000FF2E80001F000F9012F4FF000090BDB3B
:102470006D463C466BA655F8040B01F0F5F8304666
:1024800001F0F2F8641EF6D1062F53D10098DFF860
:10249000F82B08F1040100F08AFD471E0198DFF8CF
:1024A000EC2B08F10801BF4100F081FDFF4300EA79
:1024B000D77702987D1EDFF8D87B3A4608F10C01E9
:1024C000AD4100F074FDED4300EAD57502986E1E33
:1024D0003A4608F10D01B64100F069FDF64300EA05
:1024E000D6760398751E3A4608F10E01AD4100F00C
:1024F0005EFDED4300EAD57503986E1E3A4608F17D
:102500000F01B64100F053FDF64300EAD676049879
:10251000DFF86C2C741E4146A44100F048FDE443F2
:1025200010EAD47F0BD100BF0FA001F09DF84FF04F
:10253000040904E014A001F097F84FF0030948469D
:1025400058E1000094340000A43400000A50574DB4
:102550002053657420526563656976656420566111
:102560006C756573203A00000A2050776D20536522
:102570007456616C75652F73204F7574206F6620DB
:1025800052616E67650000000A2050776D20536528
:102590007456616C75652F7320496E76616C696441
:1025A000000000002DE9FE43044689461FA001F00B
:1025B0005BF8204601F058F802232C226946204699
:1025C00001F0C4FA074600BF1EA001F04DF8002636
:1025D000012F0BDBE8463C4612A558F8040B01F02E
:1025E00043F8284601F040F8641EF6D1022F0FD1BF
:1025F0000098DFF8402C494600F0EAFC002812BFA2
:102600000FF2500004260FF25C0001F02DF803E0F9
:102610001CA001F029F80326304603B0BDE8F08382
:10262000255800002C000000B03400000D0A496E4F
:102630002050726F6365737353657453746174656E
:102640002D3E00000A73746174652056616C7565D7
:1026500073203A000A204D6F6465205365745661FB
:102660006C7565000A204D6F646520536574566172
:102670006C75652F73204F7574206F662052616EE4
:10268000676500000A204D6F6465205365745661CC
:102690006C75652F7320496E76616C69640000006B
:1026A0002DE9F043044687B00FF25010DFF8189C74
:1026B00000F0DAFF204600F0D7FF07232C226946FE
:1026C000204601F043FA0746484600F0CDFF0025BA
:1026D000012F0CDB6C46B8467BA654F8040B00F0C7
:1026E000C3FF304600F0C0FFB8F10108F5D1072F55
:1026F0007AD103F0CBFC07460098102101F0BBFB18
:10270000441E0198A441402101F0B5FBE44300EAD6
:10271000D4740298661EB641022101F0ACFBF64368
:10272000039A00EAD676711E89411078C9430028C1
:1027300018BF302806D0312806D15078401E80417D
:10274000C00F02E0012000E00020049A00EAD171ED
:102750001078002818BF302806D0312806D15078CC
:10276000401E8041C00F02E0012000E00020059AD9
:1027700001401078002818BF302806D0312806D133
:102780005078401E8041C00F02E0012000E0002090
:10279000014223D0009A1121384601F09DFC019A94
:1027A000412107F1110001F097FC029A032107F182
:1027B000520001F091FC03990A7807F1550002706C
:1027C000049B19784170059A11788170012003F0FB
:1027D000BAFD00BF11A000F047FF0AE009F12C008C
:1027E00000F042FF042504E009F1540000F03CFF32
:1027F0000325284607B0BDE8F08300000D0A496EA6
:102800002050726F636573735365745A69676265AC
:1028100065436F6E6669672D3E0000000A5A69675E
:1028200062656520436F6E6669672020536574009A
:102830002DE9FE43044600BF24A0DFF8209C00F0F1
:1028400013FF204600F010FF02232C226946204689
:1028500001F07CF90746484600F006FF0025012FED
:102860000BDBE8463C4618A658F8040B00F0FCFECB
:10287000304600F0F9FE641EF6D1022F1CD10098FC
:10288000017861B130290DD0312904BF407800288A
:1028900008D009F1300000F0E7FE042511E04FF008
:1028A000FF3002E0A1F1300040B203F04FFD00BF65
:1028B0000DA000F0D9FE04E009F15C0000F0D4FEA8
:1028C00003252846A9E600002C0000000D0A496EE9
:1028D0002050726F6365737352657365745A6967CC
:1028E0006265654E572D3E000A5A6967626565202C
:1028F000204E772052657365742020536574000064
:102900002DE9F8470446DFF85C7B89B0384600F0D3
:10291000ABFE204600F0A8FE02F074FC064696E8E6
:102920000E106846002580E80E1005232C2204A90D
:10293000204601F00BF9804607F1280000F094FED4
:10294000B8F1010F0DDB0DF1100944460FF2341AF6
:1029500059F8040B00F088FE504600F085FE641E16
:10296000F6D1B8F1050F5BD1DFF8FC4A0498224696
:1029700069460DF1100900F01AFBB0F10108D9F811
:102980000400224601A968EB080800F010FB6FEA7A
:10299000080800EAD870B0F1010AD9F80800224608
:1029A00002A96AEB0A0A00F002FB6FEA0A0A00EACF
:1029B000DA70B0F1010868EB08086FEA08004FEA26
:1029C000D078D9F80C00224603A900F0F0FA18EAF2
:1029D000000F1FD007F1880000F046FE684690E81F
:1029E0001E0086E81E00084600F049FE25A4204689
:1029F00000F03AFE706800F042FE204600F034FE1F
:102A0000B06800F03CFE204600F02EFEF06800F0BA
:102A100036FE0AE007F1540000F026FE042504E02B
:102A200007F1B40000F020FE032528460AB0BDE8F7
:102A3000F087000038B5DFF8344A84B000202070F9
:102A400040F2DC53ADF80C3041F2140203A92046E9
:102A5000FFF76AFCBDF80C5040F2DC50401BADF8AB
:102A60000C0002F0CFFBC1680291826801924168BC
:102A700005A200910368BDF80C10601901F02CFB51
:102A800000F000BC2C00000025642C25642C25647B
:102A90002C2564002DE9F847ADF5006DB9B004466A
:102AA00000F0E2FD03232C2203A9204601F04EF89A
:102AB00006460FF28C2000F0D7FD0025002E0DDD1C
:102AC0000DF10C0934460FF2742859F8040B00F08C
:102AD000CBFD404600F0C8FD641EF6D1032E3DD16B
:102AE0000399087800281FBF03AE71680878002892
:102AF00034D003980A22002101F076F90446706868
:102B00000A22002101F070F90646A64220D340F2C5
:102B1000012086421CD2DCB1009623460FF69812A3
:102B2000322106A801F0D8FA06A800F09DFDB3B244
:102B3000A2B2322106A805F081FA80460FF698105D
:102B40000FF6AC1900F090FD0024252606AF38E002
:102B5000DFF81C0900F088FD0425E2E0DFF8140925
:102B600000F082FD0325DCE04179827942EA01220E
:102B700001920DF5D47C0079009006FB04FE4A46D4
:102B800024210CEB0E0018E006A800EBC4004378EB
:102B90000178C2781B0443EA0163817843EA012388
:102BA0001343002CE0D17879B97941EA00210191F1
:102BB0004A463879009025216AA801F08DFA641CF4
:102BC000E4B2444501D2322CDEDB5B4C40F2DC51F6
:102BD000ADF80810257003F014FA022841F21F071F
:102BE0000FF2581957D103F07DFACDE900013A46AA
:102BF00002A9204605F04CFBBDF808700FF6FC0A50
:102C000040F2DC50C01BADF80800E555204600F04E
:102C10002BFD7A1E92B22146022003F0D1F95046D4
:102C200000F022FD0C225146022003F0C9F90027D2
:102C30001DE06AA806FB07F100EB010A504600F010
:102C400013FD504601F02EFD82B25146022003F0E2
:102C5000B7F9A8EB0700022807D301224946022052
:102C600003F0AEF9484600F0FFFC7F1CBFB24745B9
:102C7000DFD3FFF753FB5D20207022217D2261709E
:102C8000A270E570204600F0EFFC032221460220EE
:102C900003F096F945E03A4602A92046FFF744FBC7
:102CA000BDF8087040F2DC50C01BADF808003A4691
:102CB0002146002003F084F9E555204600F0D4FCBD
:102CC00000271DE06AA806FB07F100EB010A504649
:102CD00000F0CAFC504601F0E5FC82B251460020EB
:102CE00003F06EF9A8EB0700022807D3012249463A
:102CF000002003F065F9484600F0B6FC7F1CBFB227
:102D00004745DFD3FFF70AFB5D2004212070617087
:102D1000A57002222146002003F052F9204600F05F
:102D2000A3FCFFF7FBFA0DF5006D28463AB0BDE8AD
:102D3000F08700000000FF1F4C16FF1F2C00000052
:102D40000A52657175657374204C6F672052656314
:102D500065697665642056616C756573203A00007C
:102D600080B500F081FC05F06BF9002002BD70B564
:102D70009CB06A46C9B200F06DF8040015D10FF29C
:102D8000AC7000F071FCDDE9000100F078FCDDE9D9
:102D9000000100244FF6FF72A14208BF904204D107
:102DA0000FF2987000F060FC0724250018BF072C74
:102DB00035D10FF2587000F057FCBDF8080000F054
:102DC0005EFCBDF80800DFF8B026002113465C88E1
:102DD00084420BD0491C10333A29F8DB3A29DFF83A
:102DE0009C6609DB00203060022418E0DFF88C06C6
:102DF00002EB01120260F1E73168002479B1496801
:102E00000DF10A008847040009D131688A68012061
:102E1000904720B10FF2047000F026FC0524072D26
:102E200018BF062D0CD02046FFF750FA054600F0DB
:102E30001BFC284601F036FC81B2284603F09EF8C0
:102E400020461CB070BDDFF8301601603A20704794
:102E5000E429FF1FF0B50646A1B000200024334648
:102E60000D4601E0641CA4B213F8011B012901D036
:102E7000AC42F7DB335D012B57D1641CA4B231198E
:102E800007E011F8013B87B2641C0DF80730A4B2CB
:102E9000401C0B78022B01D0AC42F2DB315D0229E1
:102EA00043D180B200230DF80030174610220021D4
:102EB000684605F027FBC7E90001641CA4B20020A6
:102EC0008DF80000311907E011F8012B83B2641C62
:102ED0000DF80320A4B2401C0A78032A01D0AC42AA
:102EE000F2DB315D032920D180B200220DF80020F1
:102EF00000211022684600F077FF3881641CA4B2DC
:102F000000208DF80000311907E011F8012B83B281
:102F1000641C0DF80320A4B2401C0A78042A01D0D6
:102F2000AC42F2DB315D042902D0012021B0F0BDBA
:102F300080B200210DF800106B46BDA2642107F19C
:102F40000A0001F0C9F808232C2219A9684600F0EC
:102F5000FDFD10B9032021B0F0BD19AB03EB8000DB
:102F6000102250F8040C002100F03EFF87F86E009C
:102F700021B00020F0BD38B52DED028B0C46017854
:102F8000154681B1002102F0C3FAB0EE408AA8478D
:102F9000010018BF84ED008A401E8041C043BDEC93
:102FA000028BC00F32BDBDEC028B012032BD70B56B
:102FB0000C460178154649B10A22002100F014FFA1
:102FC0000646A847010018BF266016E0012070BD24
:102FD00070B50C460178154669B10A22002100F04F
:102FE00003FF461EB641F643F60F3046A8470100E0
:102FF00018BF267001E0012070BD401E8041C04313
:10300000C00F70BD7CB50446DFF860540020287006
:1030100040F2DC53ADF800304FF488526946284640
:10302000FFF782F9BDF800000FF2285340F2DC519F
:10303000091AADF800100646BDF800107CA228441D
:1030400001F04AF856FA80F292B20420A854521CB9
:1030500092B22946204602F0B3FFFFF75FF973BD35
:10306000DFF81C0490ED001ADFEDD20A20EE200AF2
:1030700020EE011ABDEEC11A80ED021A80ED010AA0
:103080000FF2F04000F0F0BA193E00001D3E0000C3
:10309000F73D00002DE9F8432DED028B044682B088
:1030A0000FF2E04000F0E0FA204600F0DDFA02F016
:1030B000BBF88146022399ED008A2C2269462046FE
:1030C00000F044FD07460FF2D84000F0CDFA00258D
:1030D000012F0BDBE8463C46B7A658F8040B00F07E
:1030E000C3FA304600F0C0FA641EF6D1022F23D195
:1030F000009A107840B10021104602F009FAB0EEB3
:10310000408A00F0D5FE90B10FF2B44000F0ACFA66
:1031100089ED008A032099ED000A00F0C7FAA6A005
:1031200000F0A2FA99ED000AFFF79AFF09E0D548EE
:1031300000F09AFA042504E00FF2A44000F094FA9B
:10314000032502B02846BDEC028BBDE8F28338B5FA
:10315000C64C84B00020207040F2DC53ADF8003043
:1031600041F2240269462046FFF7DEF8BDF8005020
:1031700040F2DC50401BADF8000002F055F873E05F
:10318000213E00002DE9F0472DED028B044682B070
:103190000FF26C40DFF8F0A200F066FA204600F073
:1031A00063FA02F043F88046022398ED008A2C224D
:1031B0006946204600F0CAFC0646504600F054FA24
:1031C0000025012E0BDBE94634467BA759F8040B9A
:1031D00000F04AFA384600F047FA641EF6D1022E93
:1031E0001ED1009A107840B10021104602F090F9EB
:1031F000B0EE408A00F06CFE60B10AF1540000F0BD
:1032000033FA88ED008A022098ED000A00F04EFAA9
:1032100069A002E004250AF1280000F025FA04E084
:103220000AF1780000F020FA032502B0BDE00000AA
:1032300025730000673E000038B58C4C84B0002038
:10324000207040F2DC53ADF8003041F225026946AF
:103250002046FFF769F8BDF8005040F2DC50401BF3
:10326000ADF8000001F0E2FF0246012101A892ED55
:10327000000A00F00DFCBDF8001001AB78A2601947
:1032800000F02AFF55FA80F5AAB20421A1546D1C62
:103290000FF2002000F0E8F9A8B200F0F0F90FF208
:1032A000042000F0E1F9A9B2204600F0E6F90FF29F
:1032B000002000F0D9F9A9B2204602F05FFEFFF726
:1032C0002DF8002005B030BDFC5901002DE9F04774
:1032D0002DED028B044686B00FF24430DFF8AC913E
:1032E00000F0C2F9204600F0BFF901F0A1FF8046CE
:1032F000684698EC020A80EC020A03232C2202A9F9
:10330000204600F023FC0646484600F0ADF90025B3
:10331000012E0CDB02AF34460FF29C0A57F8040B67
:1033200000F0A2F9504600F09FF9641EF6D1032E7A
:1033300035D1029A107868B10021104602F0E8F801
:10334000B0EE408A00F0D6FD10B18DED008A01E0AC
:10335000002400E0012403984D4A01A9FFF70BFE69
:10336000044216D00FF2D82000F07EF9684612A46D
:1033700090EC020A88EC020A022000F097F920463D
:1033800000F072F9012098ED010A00F08FF9204653
:1033900002E0042509F1240000F066F904E009F1D7
:1033A0004C0000F061F9032506B02846BDEC028B05
:1033B000BDE8F087C3F548402C00000070B52B4CE9
:1033C00088B00020207040F2DC53ADF8043041F2A8
:1033D000230201A92046FEF7A7FFBDF8045040F2E2
:1033E000DC50401BADF8040001F022FF064601212D
:1033F00005A896ED000A00F04BFB012102A896ED0E
:10340000010A00F045FB02A8009005ABBDF80410CE
:103410000FF24C22601900F05FFE55FA80F5AAB257
:103420000421A1546D1C00BF1AA000F01DF9A8B220
:1034300000F025F91BA000F017F9A9B2204600F012
:103440001CF900BF1AA000F00FF9A9B2204602F043
:1034500095FDFEF763FF002008B070BD74590100B0
:1034600025730000F05001002F3E00004C16FF1F96
:103470006C620100906201000000FF1F5030FF1FCE
:103480000C06FF1F306B0100E4550100BC5E01001B
:10349000193F00000D0A64617461436F756E742DED
:1034A0003E0000000D0A446174612D3E00000000E2
:1034B0000D0A456E640000000A5374617274496E0F
:1034C000646578203D2025642C20456E64496E6437
:1034D0006578203D202564000D0A496E2041504941
:1034E0002050726F63657373696E672D3E00000034
:1034F0005B256C642C25642C25645D002C225641D0
:103500004C554553223A225B000000000A434D44CB
:103510002056616C75653A20000000000A45657010
:10352000726F6D204572726F720000000D0A446563
:10353000766963652049442D2D3E00000A205769B5
:103540006C64204361726420446576696365204938
:10355000440000002A2A2A2A52454E20434F4E5446
:10356000524F4C4552202D2044312E36562A2A2ABD
:103570002A0000000D0A496E2044697374616E636D
:10358000652D3E000D0A496E2050726F636573739E
:10359000536574576865656C4469612D3E00000091
:1035A0000A576865656C2044696120536574205230
:1035B000656365697665642056616C7565203A00BF
:1035C0000A20776865656C446961205365745661AB
:1035D0006C75652F7320736574203A20000000001D
:1035E0000A20776865656C4469612053657456618B
:1035F0006C75652F7320496E76616C6964000000FC
:103600000D0A496E2050726F63657373536574437E
:1036100079636C654672657175656E63792D3E00E0
:103620000D0A496E2050726F636573735365744C55
:103630006F67496E74657276616C2D3E0000000004
:103640000A204C6F67496E74657276616C20536511
:103650007456616C75652F7320736574203A200071
:1036600025732C257300000010B5044611E001B548
:103670000121684604F076FF01BD04F073BF10B568
:103680000346094C07A2FFE73221204600F024FD43
:10369000204601F007F881B22046BDE8104004F052
:1036A00061BF000025640000E82CFF1F00B585B055
:1036B000C1B2684600F0ECF9684600F0F3FF81B251
:1036C000684604F04FFF05B000BD8268521C82605E
:1036D000426832B10268531C036011704168491E90
:1036E0004160704770B586B091E8780002AA0090FA
:1036F00082E8780001F05AFF009A4168914238BF91
:10370000009103D30068824238BF0090684601F000
:1037100018FF06B070BDDFF808037047DFF8040338
:103720007047000038B5DFF8F8526C7C0C2C37D8A5
:10373000DFE804F02F3614112126280E0C2316077B
:103740001F000021052000F085F80CE006211AE09A
:103750000021032018E00221022015E0012112E0DF
:10376000287C012802D1012169741EE0002101207A
:103770000AE0072107E0032105E0287C012808D1A1
:10378000042107E00521022000F064F8012068749C
:103790000BE00021022000F05DF80120687403E0D6
:1037A0000121012C697402D00CB101F0CEFB01F0B3
:1037B0004FFA287D002839D101F01FFB044601F0A3
:1037C0003FFA012800D08CB3287C01281ED100F0DC
:1037D0008FFF80B100F0C2FB002812BF0628012035
:1037E00000F0BFFB05F007F801280CD004F0E4FF5F
:1037F0000120E87507E0E87D012804D004F0FBFF14
:1038000008B104F0EAFF00F0B1FB0FE002280DD18F
:1038100004F0F1FF012818BF04F0CEFFE87C032874
:1038200014BF072800F0A2FB0020E875BDE8314076
:103830009CE07D48007870477B4908707047784865
:10384000007C704701280CBF0A200020D3E0744898
:10385000C07C704770B5012886B005460E4605D17C
:1038600001F091FB012804BF022505266C4C25744C
:103870006D1E042DE67468D8DFE805F06103484842
:103880005C00761E062E60D8DFE806F02F231B5C56
:103890003E110400A07D032818BF022805D005288A
:1038A00018BF042851D1042045E0022043E0E56917
:1038B000012001F053FE21462846FFF713FF06B012
:1038C00070BD00F04BFB002818BF06283DD1012039
:1038D00031E0012001F042FE94E82E0002A801240C
:1038E00080E82E008DF804401FE0012001F036FE34
:1038F00094E82E0002A8002480E82E008DF80440F1
:1039000001F054FE406813E00B201CE0002000F0A2
:1039100028FB012001F022FE424991E83C0002A868
:10392000012680E83C008DF8046001F03FFE00684D
:103930000090EBE6002000F014FB06B070BD002004
:1039400000F00FFB072001F009FE06B070BD3449FE
:10395000087570473248007D7047314908767047D6
:103960002F48406A70472E48806A704710B52C4C2B
:10397000207D012804D03AD3032823D00AD310BDD8
:10398000617C617500F0EAFAA0750221062060747E
:10399000217510BD01F0E6FD0E2828D103F010FCC2
:1039A000606203F00FFCA06202F067FBC06818B908
:1039B0000120A074002001E00021A17420620320F6
:1039C000207510BDA07C012804D10021217506209E
:1039D00000F0C7FA207E50B10C2161740B2001F079
:1039E00069FA0020207502F041FB0020207610BD0E
:1039F0000000000000BF0A494874704780B501F01C
:103A000049FC0749086A48B1401E002803DC012030
:103A10008874002001E000228A74086201BD000061
:103A2000742DFF1F842FFF1F9230FF1FF8B5002554
:103A30000C4600280EE0424B80FB03639B1003EB17
:103A4000D37303EB8307A0EB4700303001F8010B81
:103A50006D1C1800EFD1561B954205DA3022314615
:103A6000601904F0E1FE7519691E002022466318F2
:103A700007E016781F7802F8017B03F80169401C03
:103A8000491E8842F5DB002060552846F2BD000043
:103A9000F8B50025B5EE400AF1EE10FA2DED048BD5
:103AA0000E4604D5FFEE000A012520EE200AFDEEA9
:103AB000C00A0446B8EEE01A30EE418A01222146DF
:103AC00010EE900AFFF7B2FF074636B32E20E055FE
:103AD000304604F0DDFE41EC110B9FED1A0B04F0B3
:103AE000ECFE3246601CC619B0EE409AF0EE609AC9
:103AF000174618EE100A04F0E9FE53EC192B04F0F7
:103B000009FF04F0DDFF01EE100ABDEEC11A11EE4F
:103B1000100A3A463146FFF789FF75B1204600F09A
:103B2000C1FD401C40B2621C03E0215C1154401EE8
:103B300040B20028F9D52D202070BDEC048BF1BDDA
:103B40006766666600000000000024402DE9F04131
:103B50000D460446164698462C6000F0A3FD01274A
:103B6000B0B1204600F09EFDC0B2002810DD2178E3
:103B7000B14208D100234745237008DA611C45F89B
:103B800027107F1CFFB2641C401EF0D100E000270C
:103B90003846BDE8F08130B4A0F130050A2D38BFB9
:103BA000A0F130030FD3A0F16105062D38BFA0F1BD
:103BB000570308D3A0F14104062C38BFA0F1370306
:103BC00001D300B90023A1F130040A2C38BFA1F1C0
:103BD00030000FD3A1F16104062C38BFA1F15700CA
:103BE00008D3A1F14102062A38BFA1F1370001D361
:103BF00001B9002030BC40EA0310C0B270472DE983
:103C0000F04706468A46174600F04CFD84B2002570
:103C10001CB138884000A04203D23D800020BDE89E
:103C2000F0876108B4EB4100A8462AD0307801251E
:103C3000A0F130030A2B38BFA0F130010FD3A0F15F
:103C40006103062B38BFA0F1570108D3A0F1410250
:103C5000062A38BFA0F1370101D300B90021641C46
:103C60008AF80010A846A4B20BE0A8B26D1CA9B255
:103C7000305C715CFFF78FFF0AF809006D1C08F1DA
:103C800001081FFA88F904EBD470B9EB600FECDB84
:103C9000A7F800800120BDE8F08710B4034600209B
:103CA000002111E0A4F14102062A06D2373C04E0CB
:103CB000A4F16102062AF5D2573C090141EA1071CC
:103CC00004F00F0444EA00101A783AB113F8014BDB
:103CD000A4F130020A2AEBD2303CEEE710BC704768
:103CE000F0B40D460446002111700820E6B23709F1
:103CF0000A2FB4BF3037373706F00F060A2EB4BF8D
:103D000030363736B3F800C0ACEB010C4FFA8CFC00
:103D1000BCF1030F0DDB5FFA81FC491C02F80C605B
:103D2000240ACEB244EA0564491C2D0A9755401E68
:103D3000DCD1CCB200201055641E151907E01678AE
:103D40002F7802F8017B05F80169401C641EA0422F
:103D5000F5DBC9B219800120F0BC70472DE9F843AA
:103D600081460D0090461C4608BF6D464F4600E058
:103D70007F1C387804F0D8FE0028F9D13E782D2E2B
:103D800018BF2B2E05D117F8010F04F0CDFE50B946
:103D900000E02B26234642462946384600F00CFD1B
:103DA00029688F4204D1C5F800900020BDE8F28355
:103DB0002B2E04D1B0F1004F06D2BDE8F2832D2E98
:103DC000FBD1B0F1004F0CD9AFF300800CB1012052
:103DD00020602D2E14BF6FF000404FF00040BDE872
:103DE000F2834042BDE8F2830023B7E710B1072811
:103DF0008041C00F704716E0B5EE400AF1EE10FAB0
:103E000008DBDFED4E0AB4EE600AF1EE10FA01D5E0
:103E10000120704700207047012070470120704743
:103E20000120704700BF65288041C00F7047B0F186
:103E3000004FF9E7643845498842F5E720B140F280
:103E4000F51188428041C00F704718B1404988423F
:103E50008041C00F7047010018BF012801D1012027
:103E6000704700207047010018BF012801D10120D0
:103E700070470020704738B504460D4600F012FC2C
:103E800081B28D4211DB012001290FDB2278A2F1E2
:103E900030030A2B21BFA2F14105062D613A062A03
:103EA00003D2641C491EF1D132BD002032BD000096
:103EB000B5EE400AF1EE10FA08DBDFED210AB4EEB0
:103EC000600AF1EE10FA01D501207047002070471A
:103ED000F7EE000AB4EE600AF1EE10FA08DB9FED8F
:103EE000171AB4EE410AF1EE10FA01D5012070471D
:103EF00000207047F7EE000AB4EE600AF1EE10FA07
:103F000008DB9FED101AB4EE410AF1EE10FA01D56C
:103F10000120704700207047F7EE000AB4EE600AF7
:103F2000F1EE10FA08DB9FED081AB4EE410AF1EE4B
:103F300010FA01D501207047002070470100204190
:103F40000100FA43010070420100E0403D8601009B
:103F5000A1BB0D0049487047494870474748007C5D
:103F60007047464908747047000000002DE9F04191
:103F7000424C217C491E042986B000F27380DFE8A0
:103F800001F003082E3B61003FA0FFF76DFB02210B
:103F9000217400BF42A0FFF767FB0221032003F05A
:103FA0009FFF012001F0DAFAFFF749FC012802A87F
:103FB00005D1334991E86C0080E86C0003E094E897
:103FC000805180E8805100218DF8041001F0EEFA54
:103FD00040680090684601F0B4FA032030E001F038
:103FE000C1FA0E283ED101F0F9FA016989B2042024
:103FF00003F076FF0420207430A0FFF735FB032187
:10400000032003F06DFF012001F0A8FAFFF717FC71
:10401000012802A805D11A4991E86C0080E86C00DB
:1040200003E094E8805180E8805101218DF804106C
:1040300001F0BCFA00680090684601F082FA0520A1
:1040400020740FE001F08EFA0E280BD101F0C6FAB1
:10405000416989B2052003F043FF0620094A207414
:104060000021117006B0BDE8F0810448017C0529EB
:1040700001D101207047002070470000102FFF1F62
:10408000342FFF1F8B2DFF1F0A204379636C65209F
:104090004D6F6465205374617274656400000000A4
:1040A0000A204379636C6520506F73697469766583
:1040B0002053746172746564000000000A20437923
:1040C000636C65204E656761746976652053746121
:1040D000727465640000000008B438B585B009AC9E
:1040E00000250494039500290EBF01950190491EF7
:1040F0000291009504AB01A9074878441A3004F0F6
:104100001DFD019901B10D70002858BF039806B03C
:1041100030BC5DF808FB00BFB3F5FFFF80B504F0CD
:104120008FFF012002BDDFF8A803704738B5DFF824
:10413000A4530446287D08B1012005E000F030F8C2
:1041400002280CBF0F2007202874FFF778FB0128F6
:104150000CBFDFF88413DFF884132046BDE8344039
:104160000AE0DFF87013072008747047DFF86C036B
:104170007047DFF86403704730B4DFF864231070D1
:10418000101D91E8380080E838001178DFF84423EA
:10419000D17430BC7047DFF83C03007C70470000EE
:1041A00010B504F0A4FF0324032808D8DFE800F0CA
:1041B00006060204002402E0012400E00224204656
:1041C00010BD000038B5C34D2DED028B287C0E28A4
:1041D00000F21E81DFE810F00F001600C0006F0033
:1041E000790092001C01BE00CF00DC001C01FE0023
:1041F00000011C0116000021E9619FEDB40A04F0E2
:104200007CFF05E10220A874687404F095FF00EEBD
:10421000100AB8EE400A85ED070A0FF22430FFF7C6
:1042200023FA032095ED070AFFF740FA002068758E
:10423000FFF7B6FFE97C02002ED0012828D169B330
:10424000A74890E81E0085E81E00A648FFF70CFA74
:10425000A5A0FFF709FA2C782046FFF710FA00BF57
:10426000A8A0FFF701FA6868FFF709FAAAA0FFF70C
:10427000FBF9A868FFF703FAACA0FFF7F5F9287B74
:10428000FFF7FDF97CB9022004F034FF0320BEE003
:104290000328D5D1080001D00129D1D10120022164
:1042A00068752974B4E0012C40F0B280032004F05A
:1042B00021FF0320ABE0FFF773FF20B1FFF770FF92
:1042C000012840F0A5800420A1E0B3EE040AD5ED5A
:1042D000070AF4EE400AF1EE10FA44BF85ED070A32
:1042E00004F01EFF0020A8740521297499A0FFF78F
:1042F000BBF9032095ED070AFFF7D8F9A87C010068
:104300001CD104F019FF297B081A00EE100AB8EE40
:10431000C00AB5EE400AF1EE10FA9FED6C8A07D4A0
:10432000686828B100EE900AF8EE600A80EE208AF4
:10433000012085ED068A2862A87469E0022867D109
:104340008AA0FFF791F9032095ED070AFFF7AEF970
:1043500006205CE00021697502200821A8742974F8
:1043600004F0EAFE00EE100AB8EE400A85ED070AF6
:1043700085A0FFF779F9002068740921297400BF2E
:1043800088A0FFF771F9032095ED070AFFF78EF972
:10439000687C01001AD104F0CFFE00EE100AB8EEDE
:1043A000400AB5EE400AF1EE10FA9FED488A07D4B4
:1043B000A86828B100EE900AF8EE600A80EE208A24
:1043C000012085ED068A2862687421E002281FD149
:1043D0000C201CE00021697579A0FFF745F9002049
:1043E000E8619FED3A0A04F088FE012004F082FEA5
:1043F0000220A8746874687D012803D100216975C2
:104400000E2004E0287D002814BF0D200F20287402
:10441000BDEC028BBDE8314004F014BE10B504F0D1
:1044200097FE2C4CA07C012829D1206A401E2062D6
:104430001CD1207BD4ED060AF5EE400A00EE100AEE
:10444000F1EE10FAB8EE400A11D094ED071A71EEB1
:10445000200AF4EE400AF1EE10FA08DAC4ED070A79
:10446000B0EE600A04F05CFE0120206210BD84ED15
:10447000070A04F055FE02210020A174F5E7607CD4
:104480000128F3D1206A401E2062EFD194ED060A84
:10449000B5EE400AF1EE10FA0ED0D4ED070A30EE78
:1044A000C00AB5EE400AF1EE10FA05D984ED070A0C
:1044B00004F036FE0120D8E7E0619FED040A04F025
:1044C0002FFE022100206174CFE7000000000000F1
:1044D000D805FF1FC405FF1FA02FFF1F942FFF1F2C
:1044E000242FFF1F546B01000A2042722054617276
:1044F00067657420446972656374696F6E203A2041
:10450000000000000A20427220416363656C205461
:10451000696D65203A2000000A20427220446563DC
:10452000656C2054696D65203A2000000A204272B3
:10453000205374656164792050574D31203A200032
:104540000A204272757368205374617274203A2095
:10455000000000000A2042727573682041636365A1
:104560006C205374617274203A0000000A20427279
:1045700075736820416363656C20436F6D706C6573
:104580007465643A200000000A2042727573682046
:104590004D6F746F72204E6F726D616C2053746F2B
:1045A000700000000A2042727573682044656365DC
:1045B0006C2053746172746564203A20000000001E
:1045C0000A20427275736820456E640038B52D4923
:1045D0002D4C002008704FF4005504F0C9FD00BFB9
:1045E0002FA00188ADF800106A460D21204604F086
:1045F00085FEA56004F05FFE04F063FE656031BDDA
:104600002048704780B51F49087820B904F053FE50
:1046100004F04CFE03E004F054FE04F038FE0CE01D
:1046200080B51849087820B904F04BFE04F02FFE3D
:1046300003E004F040FE04F039FE14494FF400504A
:10464000086001BD0F490878002808BF04F005BEC6
:1046500004F00DBE0B490878002808BF04F007BE1F
:1046600004F0FBBD07490878002808BF04F009BE24
:1046700004F00ABE03490878002808BF04F004BE0D
:1046800004F0FFBD232FFF1FC0F00F40C4F00F4008
:1046900080B504F010FEBDE8014004F012BE000039
:1046A00001002E0000F10103810704D010F8011B66
:1046B000820781B1FAD10268A2F10131914311F070
:1046C000803104BF50F8042FF6E709BAB1FA81F13E
:1046D00000EBD100401CC01A70474300184900206D
:1046E0004860704716487047008815490880704731
:1046F000FEB500F00BF90024F0B100F00AF96846AD
:1047000000F05FF9684600F02DFA0D4E054670681E
:10471000A84211D0684600F039FA77783278C7EBB2
:1047200007114FF46163890013FB021282423FBFFD
:10473000801A062875600124204603B0F0BD0000F1
:10474000F02FFF1F10B504F04BFE441EA44104F0EF
:104750009DFEE44300EAD474601E8041C043C00F54
:1047600010BD104870470F48007870470D49087811
:10477000002818BF04F056BE70470A490878002880
:1047800018BF04F0A5BE704706490878002818BF76
:1047900004F048BE704703490878002818BF04F0A9
:1047A00097BE70478B06FF1F80B504F03EFEBDE844
:1047B000014004F090BEFEE72DE9F84F84B00E46AC
:1047C00017460BB100221A600446A04601E008F12A
:1047D000010898F8000004F0A7F90028F7D198F82C
:1047E00000002D2816BF2B2818F8015B2B25002F61
:1047F000019603D4012F01D0252F03DB002E55D0C5
:10480000346053E0002F0CDD102F04BF98F8000037
:10481000302802BF98F8010040F02000782811D11C
:104820000CE098F80000302818BF0A270AD198F841
:10483000010040F02000782803D1102708F1020879
:1048400000E00827CDF80C8001E008F1010898F895
:1048500000003028F9D0064E7E4414364FF000098F
:1048600006F12800CDF80880CA468DF800000BE05C
:104870005C1901009DF80010401ACA465FFA80FBDF
:1048800007FB09B908F1010898F8000004F043FE9D
:1048900001463A4606F1280004F048FE0028E9D116
:1048A0000399414504D1019800B10460002020E043
:1048B0000299F05DA8EB0101081A002810D406DC6B
:1048C000B9EB0B0103D3B1FBF7F0504508D0AFF3C0
:1048D0000080049808B1012101604FF0FF3903E026
:1048E0002D2D08BFC9F10009019808B1C0F800805A
:1048F000484605B0BDE8F08FFFE700230A220021FB
:104900005AE70000A949012008707047A7480078BD
:104910007047A64947E1A6484178012901D1012005
:1049200070470020704778B5A248A34E83B0016855
:1049300041F0005101600025306920F47050306171
:10494000304604F0A5FFC00715D5684604F048FFBF
:104950006946304604F00CFF306940F480703061E5
:104960000024306920F40070306100F06FF8904945
:104970000D70012016E004F0DBFF41F21001006829
:10498000884204D100F062F889490D7000E00125E9
:10499000706940F0100070614FF400418748016079
:1049A00000202C46824948700821304604F058FF08
:1049B00024B904F0BDFF41F210010160284604B0A3
:1049C00070BD1CB5044669467B4804F033FFA2E085
:1049D0007CB50188784DADF800104FF40046827820
:1049E0008DF802200124C178754A8DF803100179F1
:1049F0008DF8041041798DF8051080798DF8060046
:104A0000686920F0100068611660BFF34F8FBFF334
:104A10006F8F6946284604F0F5FE18B1002400BFE8
:104A200068A008E062490C7004F082FF4FF6FF7244
:104A3000026000BF6AA0FEF717FE68695F4940F098
:104A4000100068610E60204676BD0000E0B540F2BF
:104A5000E2710C22ADF800108DF802201F210F2208
:104A60008DF803108DF80420192100228DF805100F
:104A70008DF806206846FFF7ABFF012806D100BF7E
:104A80005CA0FEF7F1FD012003B000BD5EA0FEF7C3
:104A9000EBFD002003B000BD474804F0DABE000083
:104AA00030B587B004460D460DF11400FFF789FFBD
:104AB0009DF81A009DF819109DF8173058A204901F
:104AC00003919DF81800BDF8141002900191294639
:104AD0009DF8160000902046FFF7FEFA07B030BDA3
:104AE00078B50C4685B011468279049243790393D8
:104AF00002790292B0F8005049A20195867800969A
:104B0000C3782046FFF7E8FA06B070BD1CB50C4626
:104B1000694604F0C1FD9DF80300E070BDF8001087
:104B200021809DF80200A0709DF8040020719DF87E
:104B3000050060719DF80600A07113BDE0B5018805
:104B4000ADF8001082788DF80220C1788DF803103E
:104B500001798DF8041041798DF8051081798DF86F
:104B600006100EE0E0B50188ADF8001082788DF8EF
:104B700002200022C1788DF80310ADF804208DF8D2
:104B80000620684604F04BFD03B000BD90F805C058
:104B900002798079CCEB0C114FF46163890013FB2F
:104BA0000212101870470020087070479330FF1FE2
:104BB0008806FF1F3C80044000D0034004E100E071
:104BC00084E100E00A446174652054696D652056F3
:104BD000616C6964697479204572726F72000000BB
:104BE0000A205254432053657420537563636573E0
:104BF000730000000A44656661756C74205254436A
:104C000043205365740000000A44656661756C7446
:104C1000205254434320536574204552524F520052
:104C2000253032642D253032642D25303464202522
:104C30003032643A253032643A2530326400000064
:104C4000DFF85C0300787047DFF858037047000016
:104C500070B52DED028B00F0F7FADFF84C5330B150
:104C6000FFF71AFF6860A86D40F00200A86500F029
:104C7000EDFA30B1FFF710FFA860A86D40F0040016
:104C8000A86500F0E5FA30B1FFF706FFE860A86D0F
:104C900040F00800A86501F05FFFDFF8044360788A
:104CA000014600EE901AF8EE600AB4EE600AF1EEEA
:104CB00010FA0ED5A86DC0F3001000BB0FF2F4205F
:104CC000FEF7D2FCFFF7E8FE2861A86D40F0100067
:104CD00014E0801C00EE900AF8EEE00AF4EE400AC0
:104CE000F1EE10FA0BD595F85800C10607D50FF272
:104CF000DC20FEF7B9FCA86D20F01000A8650020AC
:104D000003F0E0F8B0EE408A03F0DFF8064696EDD7
:104D1000000AB4EE480AF1EE10FA1FD5A86DC0F3F0
:104D20004010D8B90FF2C020FEF79EFC0320B0EE71
:104D3000480AFEF7BBFC0FF2C820FEF795FC0320E3
:104D400096ED000AFEF7B2FC9848FEF78DFCFFF7DF
:104D5000A3FE6861A86D40F02000A86500F038F857
:104D60002078032831D8DFE800F00204271301215E
:104D700020E0A86D48B300F04DF8AE6D0FF2C820EA
:104D8000EE65FEF771FC3046FEF779FC03201BE070
:104D9000E96DA86D81420AD000F03CF8AE6D00BF0D
:104DA000A9A0EE65FEF760FC3046FEF768FCA86D32
:104DB00058B90221217008E0FEF741FD02281CBF0E
:104DC0000021FEF747FD01202070BDEC028B70BD75
:104DD00010B501F030FE78B1734CA06DC0F38010B7
:104DE00050B900BF8BA0FEF73FFCFFF755FEA06156
:104DF000A06D40F04000A06510BD6B49886D81B08A
:104E0000009020F08000401E009A8A658041C00F0B
:104E100001B0704780B56449886D009030F4186027
:104E2000009888650DD000F09DFB0E2818BF002863
:104E300005D00020FEF78BFD0B2000F08FFB01203A
:104E400002BD002002BD10B501F0E1F801280FD12C
:104E500001F0E5F8544CFFF71FFEE062A06D40F44E
:104E60000060A0650120FEF772FD5148FEF7FCFBD3
:104E7000FEF770FDBDE81040FEF7DEBC70B50446DD
:104E80004FF6FF70844208BF044610D0200008BFD0
:104E900000240CD02546112D434E03DAFFF7FCFD0C
:104EA00046F825000121B06D01FA04F404433E4A9E
:104EB000946570BD4FF6FF7398423B4906D08A6DEA
:104EC000012303FA00F022EA000000E000208865D8
:104ED000704710B5344C94F85800810705D500F0A0
:104EE000B9F9A06D20F00200A06594F858004107C0
:104EF00005D500F0B6F9A06D20F00400A06594F887
:104F00005800010705D500F0B3F9A06D20F00800A6
:104F1000A06510BD10B5244CA06D90B1FFF7D9FF6E
:104F200043A0FEF7A1FBA06D800900F00100FEF791
:104F3000A6FB94F85800410648BF01F081FD00200F
:104F4000A06501211648017010BD10B5164CA06D6A
:104F500028B1FFF7BEFFA06D20F01000A065012072
:104F60000F49087010BD1048806D704710B50E488D
:104F7000846D3CB134A0FEF777FB2046BDE81040BD
:104F8000FEF77DBB10BD0848806D000A00F00100EF
:104F900070470548816D481E8041C043C00F70476F
:104FA0008A30FF1F8B30FF1F382BFF1F786B0100EB
:104FB000206901000A204C6F7720566F6C7461677E
:104FC000652044657465637465642E000A2042613F
:104FD000747465727920566F6C74616765204E6FCA
:104FE000726D616C2E0000000A43757272656E74FA
:104FF0002054656D70657261747572652D2D3E006B
:105000000A5365742054656D7065726174757265BC
:105010002D2D3E000A20426174746572792046612C
:10502000756C742044657465637465642E000000BB
:105030000A436865636B436C6561724261747465B1
:1050400072792D2D3E0000000A204572726F722089
:10505000436F6465203A0000704760487047000065
:1050600010B55E4C61A20B212046FFF735F800BF5A
:1050700060A20B2104F10B00FFF72EF804F11600DB
:10508000BDE810405DA20B21FFF726B810B5FEF772
:1050900061FF02E010B5FEF75FFF044600F024F860
:1050A00064202073607310BD10B5FEF734FB044616
:1050B00000F01AF8642020736073BDE81040E5E743
:1050C00010B5FEF72BFBE8E780B5FFF74FF802E0DD
:1050D00080B5FFF74EF84FF4FA6101604FF47A7231
:1050E00064234260037201BD052101604FF4FA623E
:1050F0006421017341734FF47A73462142608360E7
:105100008173C173704780B500F04EFA1921416078
:10511000016001BD80B5FFF7E5FA002101700122B1
:10512000427001BD80B5FFF76BFAFFE70021017007
:1051300001BD80B500F066F84FF4FA71016040F6E9
:10514000B832012343F69821C2608360416001BDFB
:1051500080B500F061F8B0EE000A80ED000A80ED45
:10516000010A80ED020A01BD704780B5FFF76CFDB2
:105170003221017001BD80B5FEF7D5FF02E080B598
:10518000FFF7EFFA0121017001BD0020FEF75ABBC5
:1051900080B500F072FF0121017040F6B83205239E
:1051A0000F4942608360C16001BD000080B5FFF718
:1051B00087FF04F0DDFB0021017004F045FC0022B4
:1051C000027000BF02F081FE9FED030A80ED000A2D
:1051D00080ED010A01BD00000000C842CC2DFF1F78
:1051E000905F010070477047704700004646464692
:1051F00046000000302E315600000000534C303085
:10520000300000000B48704730B40A4991E83C0078
:1052100080E83C0030BC704707487047064991EC75
:10522000030A80EC030A704704487047044870473B
:1052300004487047742FFF1FC42FFF1F5C30FF1FEF
:105240006030FF1F3830FF1F04F05ABC04F0F0BC80
:1052500004F082BD80B504F056FCBDE8014004F0C6
:1052600056BC80B504F0E7FCBDE8014004F0E7BCA3
:1052700080B504F074FDBDE8014004F074BD80B554
:1052800002F039F804F044FC04F0DAFCBDE8014017
:1052900004F06ABD80B504F0ABFC04F03CFDBDE851
:1052A000014004F0CCBD80B502F025F802F023F8EF
:1052B00002F021F8BDE8014002F0D0B838B52DED7C
:1052C000028B040082B00D4600F0998010EE101A97
:1052D0004A0000F0948048000016401C02D14902A8
:1052E00000F08D80002CB7EE008A3CD5644200BFF0
:1052F00089A1052008E0E20744BFD1ED000A28EEAD
:10530000208A6408091D401E002C18BF0028F2D115
:10531000684604F0B5FD009880EE080A04F0D4FD5C
:1053200010EE101A4A0059D048000016401C01D156
:10533000490253D0002C51D0684604F0A1FD0098DA
:10534000DFED6C0A20EE200A04F0BEFD10EE101A0C
:105350004A0043D048000016401C01D149023DD00C
:10536000641EE9D13AE039DD6BA10520E20744BFB4
:10537000D1ED000A28EE208A6410091D401E002C81
:1053800001DD0028F2D1684604F07AFD009820EE95
:10539000080A04F099FD10EE101A4A001ED04800C9
:1053A0000016401C01D1490218D0002C16DD6846B9
:1053B00004F066FD0098DFED500A20EE200A04F0AC
:1053C00083FD10EE101A4A0008D048000016401C59
:1053D00001D1490202D0641E002CE8DC10EE101A44
:1053E0004A0005D048000016401C08D1490206D1E9
:1053F000AFF300801DB1286840F00100286002B0C2
:10540000BDEC028B31BD00002DE9F14183B088462F
:1054100016461D001CBF00202860039F03A804F04F
:10542000B5FDC41020F00800012804F0010424D1C7
:10543000009001AB03994246384604F039FE10B99A
:105440009FED2E0A15E09DED020A0128B8EEC00A74
:105450000FDD03A9401EDFED2A0A51F8042BB0EE40
:10546000401A00EE102AB8EEC00A401E01EE200AD3
:10547000F3D101982946801928E0022829D101207A
:10548000009001AB03994246384604F0EDFE10B996
:105490009FED1A0A15E09DED020A0128B8EEC00A38
:1054A0000FDD03A9401EDFED170A51F8042BB0EE03
:1054B000401A00EE102AB8EEC00A401E01EE200A83
:1054C000F3D1019804F000FD29463046FFF7F6FEBF
:1054D0000AE0032808BF9FED0C0A05D004280CBF82
:1054E0009FED0A0A9FED050A0CB1B1EE400A04B027
:1054F000BDE8F0811EB14F0AAEC59D7400000000EA
:10550000286B6E4E0000804D0000807FFFFFFF7F04
:105510000023002278E70000000020410000C8427C
:1055200000401C4620BCBE4CCA1B0E5AAEC59D7422
:1055300080B504F09DFF05F037F8FEF7EFFD012080
:1055400002BDF0B490E8FC00DFF88C1881E8FC00A4
:105550000879DFF88818C876F0BC7047DFF87C1847
:1055600008767047DFF87408007E704738B504F09D
:10557000D6FF054605F06FF80324032D12D8DFE8A7
:1055800005F00808020503280CD004E0022809D021
:1055900005E0022801D1002404E0032801D1012400
:1055A00000E00224204632BD01E0000000BFDFF829
:1055B00030087047F8B5DFF82C08DFF82C4890E881
:1055C000EE1084E8EE1001F0C7FA84ED030AFFF74D
:1055D00063FA6060FFF7C7FCA061F1BDDFF808085F
:1055E00070470000F8B5DFF8F4572DED028B287EE8
:1055F0000F2800F29A82DFE810F010001E00260249
:10560000320155019701050222023E025302C302F4
:10561000E502E7020303290336000021A962E962DB
:1056200001F0C5FD95ED0A0A04F082FF95ED0B0A25
:1056300005F01AF879E20121032002F051FCFEF78F
:10564000FEF80146022002F04BFCFEF7F8F80128B4
:1056500003D0FEF7F4F8022805D103F0CCF80128B6
:1056600018BF03F09DF80220A876687604F07FFF4B
:1056700000EE100AB8EE400A85ED0A0A05F013F8AC
:1056800000EE100AB8EE400A85ED0B0A0FF62C006A
:10569000FDF7EAFF032095ED0A0AFEF707F84BA095
:1056A000FDF7E2FF032095ED0B0AFDF7FFFF002059
:1056B000A883FFF75BFFE97E020000F08E800128DF
:1056C00040F08680002900F08B80FEF7CEFC80B988
:1056D00001F074FD08B1FFF76DFFDFF80847FFF731
:1056E000DBF9206001F038FA002084ED020A206125
:1056F000606101F055FDDFF8E00690E8DE0085E826
:10570000DE00DFF8E8663046FDF7AEFF0FF2F86026
:10571000FDF7AAFFD5ED008A18EE900AFDF7AFFF5E
:105720000FF2F860FDF7A0FF2C792046FDF7A7FFE8
:105730000FF20070FDF798FF95ED020AB8EE408A6F
:105740000320B0EE480AFDF7B1FF0FF20070FDF73D
:105750008BFFE868FDF793FF0FF20070FDF784FF01
:105760002869FDF78CFF0FF20470FDF77DFFA87D1F
:10577000FDF785FF0FF20870FDF776FF287DFDF736
:105780007EFF0FF21070FDF76FFFE87DFDF777FFEA
:105790000FF21470FDF768FF687DFDF770FF01F0F0
:1057A0000DFD00EE100AF8EE688AB8EE400A38EEF9
:1057B000C00AB4EE408AF1EE10FA18DB01F0FEFCEC
:1057C00000EE100AB8EE408A13E000BF202C200043
:1057D00003287FF47AAF080002D001297FF475AF67
:1057E000012002212877297601F0DAFC9DE138EECC
:1057F000C88A0FF27070FDF737FF0320B0EE480A39
:10580000FDF754FF200085ED0D8A02D1FEF7BCFFA5
:1058100006E0012C18BF297E40F0D281FEF7BBFFC5
:10582000297E28B106F12800FDF71EFF0B21C7E1F4
:1058300054B9022004F076FE022004F00FFF01208C
:10584000FEF774FC0321BBE1012C40F0B981032079
:1058500004F068FE032004F001FF0020F0E704F0EC
:1058600064FE044604F05BFE844240F05E8104F076
:10587000F8FE044604F0EFFE844240F05681FFF744
:1058800075FE20B1FFF772FE012840F04E81FEF751
:1058900082FC062804D0FEF77EFC0F2840F04581EC
:1058A000042041E101F08AFC00EE100AB8EE400A43
:1058B000D5ED0D0AB4EE600AF1EE10FA03DB02201A
:1058C0000821A8762976B3EE048A95ED0A0AB4EE8B
:1058D000480AF1EE10FA05D585ED0A8AB0EE480ABD
:1058E00004F039FE95ED0B0AB4EE480AF1EE10FA19
:1058F00005D585ED0B8AB0EE480A04F0C8FE0020FD
:10590000A876052129760FF2C850FDF7ADFE0320D9
:1059100095ED0A0AFDF7CAFE98A0FDF7A5FE032043
:1059200095ED0B0AFDF7C2FEFDF789FF022809D1AC
:10593000FDF78DFF032803D0FDF789FF072801D16C
:10594000FFF781FAA87E010035D104F010FE297D11
:10595000081A00EE100AB8EEC00AB5EE400AF1EEE1
:1059600010FA9FEDC78A07D4E86828B100EE900AC4
:10597000F8EE600A80EE208A85ED088A04F093FE36
:10598000697D081A00EE100AB8EEC00AB5EE400AAA
:10599000F1EE10FA9FEDBA8A07D4E86828B100EE5C
:1059A000900AF8EE600A80EE208A012085ED098ACF
:1059B0002863A87614E0022812D10FF22450FDF7D4
:1059C00053FE032095ED0A0AFDF770FE6BA0FDF76C
:1059D0004BFE032095ED0B0AFDF768FE06202876A6
:1059E00001F0ECFB00EE100AB8EE400AD5ED0D0A0E
:1059F000B4EE600AF1EE10FAC0F297800220A876A9
:105A00000821DDE0FDF71BFF022809D1FDF71FFF8C
:105A1000032803D0FDF71BFF072801D1FFF713FA76
:105A200001F0CCFB00EE100AB8EE400AD5ED0D0AED
:105A3000B4EE600AF1EE10FA77DB082074E0012181
:105A400000206977287702210820A976287604F0BB
:105A50008EFD00EE100AB8EE400A85ED0A0A04F049
:105A600022FE00EE100AB8EE400A85ED0B0A0FF296
:105A70008440FDF7F9FD00206876092129760FF2B0
:105A80008840FDF7F1FD032095ED0A0AFDF70EFEB3
:105A90007CA0FDF7E9FD032095ED0B0AFDF706FE5E
:105AA000687E010035D104F062FDA97D401A00EE48
:105AB000100AB8EEC00AB5EE400AF1EE10FA9FEDFA
:105AC000708A07D4286928B100EE900AF8EE600ABF
:105AD00080EE208A85ED088A04F0E5FDE97D401A14
:105AE00000EE100AB8EEC00AB5EE400AF1EE10FA68
:105AF0009FED638A07D4286928B100EE900AF8EE7A
:105B0000600A80EE208A012085ED098A2863687684
:105B10000BE0022809D1287F01281CBF687F0128DB
:105B200019D1002169770C20287604F0A3FC04F039
:105B30003DFDFEF747FB287E002800F09E800B38D5
:105B4000032840F29A80FFF711FD010040F08B809E
:105B5000FEF71AFE8BE00FF2C430FDF785FD03203F
:105B600095ED0A0AFDF7A2FD46A0FDF77DFD032095
:105B700095ED0B0AFDF79AFD0A20D5E7202C0000D1
:105B8000FDF75DFE022809D1FDF761FE032803D071
:105B9000FDF75DFE072801D1FFF755F901F00EFB77
:105BA00000EE100A2868400000EE900AF8EE600A45
:105BB000B8EE400AB4EE600AF1EE10FAB5DB0C2143
:105BC0002976B2E7002028770FF26C30FDF74CFD04
:105BD0000020A862E8629FED2A0A04F0A9FC95ED76
:105BE0000B0A04F041FD012004F09CFC012004F0AC
:105BF00035FDFEF7B6FA0220A87668760D202876E5
:105C0000FEF7C9FA0D2803D0FEF7C5FA0F288CD18C
:105C100001F0CDFA734C266901F0D2FA861926619B
:105C2000666901F0CFFA86196661FFF7C3FC0821A7
:105C3000032002F055F9287F012803D1002129779C
:105C40000F2071E701F0BAFA0E206DE7FDF7F7FDBE
:105C500001287FF46AAF02F0CEFD00283FF465AF63
:105C600002F0A2FD61E7012807D1FEF794FD20B103
:105C7000B4A0FDF7F9FC0C202876BDEC028BF1BD39
:105C800000000000202C200070B5544CA07E01289C
:105C90004FD1206B401E20634AD1207DD4ED080AED
:105CA0000025F5EE400A00EE100AF1EE10FAB8EE0B
:105CB000400A0FD094ED0A1A71EE200AF4EE400A61
:105CC000F1EE10FA06DAC4ED0A0AB0EE600A04F04A
:105CD00042FC04E084ED0A0A04F03DFC0125607DED
:105CE000D4ED090A0026F5EE400A00EE100AF1EEA6
:105CF00010FAB8EE400A0FD094ED0B1A71EE200A9C
