:10000000B851FF1FF96401006F7700009F7D000069
:10001000CF7F0000F37F00000B8000000000000095
:10002000000000000000000000000000F781000058
:10003000B788000000000000E78C0000938D0000EE
:1000400039670100416701004967010051670100FC
:10005000596701006167010069670100716701006C
:1000600079670100816701008967010091670100DC
:1000700099670100A1670100A9670100B16701004C
:10008000B967010089680100896801008968010079
:100090008968010089680100896801008968010098
:1000A000C1670100C9670100D1670100D96701007C
:1000B000E1670100E967010089680100F16701005B
:1000C000F96701007F7E0000016801004FA5000074
:1000D0000968010011680100196801001B6B00002C
:1000E0008968010089680100896801008968010048
:1000F0008968010089680100896801008941000060
:100100008968010089680100896801008968010027
:100110008968010089680100896801008968010017
:1001200089680100896801001B3B0100D5AA000015
:100130008968010019AB0000896801008968010025
:100140008968010021680100296801003168010007
:10015000D79F0000396801008968010089680100A3
:1001600089680100336B00004168010049680100A3
:100170005168010059680100616801006968010067
:1001800071680100796801008968010089680100CF
:100190008968010089680100896801008968010097
:1001A0008968010089680100896801008968010087
:1001B0008968010089680100896801008968010077
:1001C0008968010089680100896801008968010067
:1003F000896801008968010089680100FFFFFFFF2B
:10040000FFFFFFFFFFFFFFFFFFFFFFFFFEFFFFFFFD
:10041000DFF8E42CC2E900017047DFF8DC0CD0E91A
:10042000000170471CB504460FF2480002F050FE70
:10043000204602F04DFE6946204602F067F80400AF
:1004400015D19DF8000008B90A2002E0012802D168
:10045000092002F0FBFF0FF2340002F039FE9DF894
:10046000000002F040FE0FF2340002F031FE2046A0
:1004700016BD00000D0A496E2050726F63657373DC
:100480005365744D6F64652D3E0000000D0A4D6F7D
:100490006465207365742061732000000D0A302D9F
:1004A0003E4155544F2C20312D3E4D414E55414C2F
:1004B000200000002DE9F0430446DFF8408C83B0B3
:1004C000404602F005FE204602F002FE02232C22E6
:1004D00001A9204603F066F80746DFF8240C02F075
:1004E000F7FD0026012F0CDB01AD3C460FF26C3905
:1004F00055F8040B02F0ECFD484602F0E9FD641EDD
:10050000F6D1022F3CD1019B187848B10A22002174
:10051000184603F095F9044603F094F978B1009475
:10052000002002F046FF9DF80000401E05281AD862
:10053000DFE800F003090B0D0F1602200AE0042685
:1005400008F1240019E0032004E0042002E0052063
:1005500000E0062002F07AFF002002F024FF02E013
:10056000012002F026FF00BF09A002F0B1FD9DF8B6
:10057000000002F0B8FD08F14C0002F0A9FD04E013
:1005800008F1900002F0A4FD032601F0FBBF00007B
:100590000A204D616E75616C204D6F646520536556
:1005A0007456616C7565203A200000002DE9F8470B
:1005B0000646A3B00FF2241002F08AFD304602F086
:1005C00087FD02F0ECFD044603F0A4F994E88E00E8
:1005D000054606A880E88E0006A9304601F0EAFE2E
:1005E00006001ED106A890E88E0084E88E0090E8F0
:1005F000004785E800472568DFF8882D0595E07BF2
:100600000490A17B0391607B0290217B0191642186
:10061000A06800900AA8636803F038FA0AA802F0FC
:1006200057FD304624B0BDE8F08700001CB50446F5
:10063000DFF8540D02F04CFD204602F049FD6946FA
:10064000204601F063FF04000CD100BF06A002F0B9
:100650003FFD9DF8000002F046FD03F03EFA9DF8D4
:1006600000100170204616BD0D0A42727573682095
:100670006D6F746F7220737461746520736574207C
:100680006173200070B505469EB00FF2500002F075
:100690001FFD284602F01CFD03F042FA044694E8D0
:1006A0000E0002A880E80E0002A9284601F030FEE4
:1006B000050012D102A890E80E0084E80E00267A08
:1006C000DFF8482D019664216068009005A8236832
:1006D00003F0DCF905A802F0FBFCBCE00D0A496E52
:1006E0002050726F636573735365744D6F746F72CE
:1006F00050574D4D616E75616C2D3E001CB5044622
:100700000CA002F0E5FC204602F0E2FC694620461F
:1007100001F0FCFE04000BD10EA002F0D9FC9DF804
:10072000000002F0E0FC03F047FC9DF800100170AF
:10073000204616BD0D0A496E2050726F63657373B3
:100740005365744272757368446972656374696F46
:100750006E2D3E000D0A4272757368206D6F746FC6
:100760007220646972656374696F6E2073657420AA
:100770006173200078B50546A3B00FF2640002F063
:10078000A7FC284602F0A4FC03F0C6F8044694E84F
:100790004E0006A880E84E0006A9284601F00AFE91
:1007A000050019D106A890E84E0084E84E00059196
:1007B000E07BDFF8782D0490A07B0390617B0291B1
:1007C000207B01900AA8A16800916421636803F06E
:1007D0005DF90AA802F07CFC284624B070BD000038
:1007E0000D0A496E2050726F636573735365744DC3
:1007F0006F746F7250574D4175746F2D3E0000003D
:1008000070B505469EB00FF2580002F061FC284614
:1008100002F05EFC03F087F9044694E80E0002A89B
:1008200080E80E0002A9284601F072FD050012D1F1
:1008300002A890E80E0084E80E00267ADFF8602C0B
:10084000019664216068009005A8236803F01EF9F2
:1008500005A802F03DFC28461EB070BD2C0000002B
:100860000D0A496E2050726F63657373536574424D
:100870007275736850574D4175746F2D3E000000BE
:100880002DE9F0430446DFF8AC8C83B0404602F01B
:100890001FFC204602F01CFC02232C2201A920464A
:1008A00002F080FE074608F1240002F011FC00254A
:1008B000012F0CDB01AE3C460FF2183956F8040B41
:1008C00002F006FC484602F003FC641EF6D1022F3B
:1008D0003AD1019803F0CEFB042835D10198027873
:1008E000417802EB820301EB4301A1F11004E4B271
:1008F0008278C1780FF2600002EB820301EB4301C2
:10090000A1F1100702F0E4FB204602F0ECFB0FF22D
:10091000540002F0DDFBFFB2384602F0E4FB182C75
:10092000B8BF3C2F0ADA8DF800408DF8017003F053
:10093000BDFB684603F0C0FB0DA002E0042508F1F2
:100940004C0002F0C5FB03E010A002F0C1FB032540
:10095000284601F018BE00000D0A486F75722D2D53
:100960003E0000000D0A4D696E7574652D2D3E0028
:100970000A204175746F2074696D65205365745643
:10098000616C75652F732053657400000A204175F2
:10099000746F2074696D652053657456616C75655C
:1009A0002F7320496E76616C696400001CB50446A3
:1009B000DFF8800D02F08CFB204602F089FB6946CF
:1009C000204601F0A3FD04000CD100BF06A002F0F8
:1009D0007FFB9DF8000002F086FB03F0AAFB9DF868
:1009E00000100170204616BD0D0A4564676520732E
:1009F000656E736F72207374617465207365742003
:100A0000617320002DE9F04104468EB00FF2A4007E
:100A100002F05EFB204602F05BFB02232C226946BB
:100A2000204602F0BFFD0646DFF8880C02F050FBBE
:100A30000025012E0BDBE846344666A758F8040B68
:100A400002F046FB384602F043FB641EF6D1022E4C
:100A500028D100980A22002102F0F2FEDFF8D81C0B
:100A6000DFF8542D0918914216D202A903F090FC28
:100A7000282204A902A803F075FC04A802F028FBB0
:100A800002A803F0E7FB68B103F010FB082003F0B5
:100A90003DFE00BF0EA002E0042500BF12A002F040
:100AA00017FB03E018A002F013FB032528460EB045
:100AB000BDE8F0810D0A496E2050726F6365737353
:100AC00053657452544356616C75652D3E000000A9
:100AD0000A205254432053657456616C75652F7318
:100AE00020536574000000000A20525443205365CF
:100AF0007456616C75652F73204F7574206F662076
:100B000052616E67650000000A2052544320205352
:100B1000657456616C75652F7320496E76616C69DA
:100B2000640000002DE9F843044684B00FF2A800E9
:100B3000DFF8887C02F0CCFA204602F0C9FA0423E0
:100B40002C226946204602F02DFD0646384602F06A
:100B5000BFFA0025012E0CDBE84634460FF2E419FB
:100B600058F8040B02F0B4FA484602F0B1FA641ED9
:100B7000F6D1042E26D103F09CFE0446009803F023
:100B800079FA20B1009A0B21204602F07FFF019FE5
:100B9000384603F06FFA28B13A460B2104F10B00F6
:100BA00002F074FF029E304603F064FA28B1324628
:100BB0000B2104F1160002F069FF00BF0DA002F046
:100BC00087FA04E007F1240002F082FA032501F01D
:100BD000EDBB00002C0000000D0A496E2050726F22
:100BE00063657373536574446576696365496E66BE
:100BF0006F2D3E000A2044657669636520496E6664
:100C00006F2053657456616C75652F73205365743E
:100C1000000000002DE9F0472DED048B0446DFF8BD
:100C2000F48C84B0404602F053FA204602F050FAA9
:100C300003F01AFF824604239AED008ADAED018A56
:100C40009AED029A2C226946204602F0ABFC05463A
:100C5000DFF8C40C02F03CFA0026012D0BDBE9465C
:100C60002C4638A759F8040B02F032FA384602F045
:100C70002FFA641EF6D1042D59D1009A107868B16C
:100C80000021104604F0F8F8F0EE409A02F0E0FD82
:100C900010B1B0EE698A01E0002400E00124019A5D
:100CA000107850B10021104604F0E6F8F0EE409ABA
:100CB00002F0CEFD10B1F0EE698A0120029A0440E4
:100CC000107850B10021104604F0D6F8F0EE409AAA
:100CD00002F0BEFD10B1B0EE699A0120044205D1C8
:100CE00008F1240002F0F4F9042625E008F154008C
:100CF00002F0EEF98AED008ACAED018A8AED029AC5
:100D000003209AED000A02F005FAAAA4204602F098
:100D1000DFF903209AED010A02F0FCF9204602F007
:100D2000D7F903209AED020A02F0F4F904E008F181
:100D30007C0002F0CDF9032604B03046BDEC048BF4
:100D4000BDE8F0872C0000002DE9FE4304460FF2B9
:100D50008000DFF8EC9C02F0BBF9204602F0B8F905
:100D600002232C226946204602F01CFC0646484617
:100D700002F0AEF90025012E0BDBE84634468EA7C3
:100D800058F8040B02F0A4F9384602F0A1F9641EE9
:100D9000F6D1022E14D109F1240002F099F900983D
:100DA0001022002102F04CFD02F09DF903F017FD26
:100DB000044603F0DBFC44B1082003F08DFC04E0A2
:100DC00009F1480002F084F90325284601F0DBBB55
:100DD0000D0A496E2050726F63657373436C6561D1
:100DE000724572726F72436F6465732D3E0000002E
:100DF0002DE9F847044683B00FF2A000DFF8008D1C
:100E000002F066F9204602F063F903F04BFB064658
:100E1000022330788DF800002C2201A9204602F030
:100E2000C1FB0746404602F053F90025012F0DDBB8
:100E30000DF104093C460FF2BC2A59F8040B02F0EC
:100E400047F9504602F044F9641EF6D1022F1CD136
:100E5000019B187848B10A220021184602F0F0FCE4
:100E6000044602F00BFD50B100949DF80000307074
:100E700011A002F02DF9307802F035F90AE008F1FE
:100E8000240002F025F9042504E008F14C0002F0EA
:100E90001FF90325284604B0BDE8F0870D0A496E06
:100EA0002050726F636573735365744C6F77426142
:100EB00074536F432D3E00000A204C6F772042612F
:100EC0007420536F432053657456616C75652F739E
:100ED00020536574000000002DE9F04F044683B0F4
:100EE0000FF2D800DFF8EC8C02F0F2F8204602F0A6
:100EF000EFF804F00DF806463768D6F8049003239F
:100F00002C226946204602F04DFB8246404602F004
:100F1000DFF80025BAF1010F0ADBEB4654465BF817
:100F2000040B02F0D5F824A002F0D2F8641EF6D12A
:100F3000BAF1030F36D1009B187860B10A22002164
:100F4000184602F07DFC04460120C04608B1A146C7
:100F500001E0002400E00124019B187848B10A2236
:100F60000021184602F06CFC82460120C04608B100
:100F700057460120044205D108F1240002F0A8F8E8
:100F8000042514E014A002F0A3F83760C6F804901A
:100F9000484602F0A8F807A002F09AF8306802F07C
:100FA000A2F804E008F14C0002F092F8032528466C
:100FB0009DE00000202C00002C0000000D0A496E6E
:100FC0002050726F6365737353657450756C7365ED
:100FD000436F756E742D3E000A2050756C7365204A
:100FE000436F756E742053657456616C75652F730D
:100FF00020736574203A20002DE9F04F0446DFF895
:10100000D48B83B008F1700002F062F8204602F041
:101010005FF803F07DFF07463D68D7F8049003238F
:101020002C226946204602F0BDFA8246404602F074
:101030004FF80026BAF1010F0ADBEB4654465BF885
:10104000040B02F045F82BA002F042F8641EF6D122
:10105000BAF1030F45D1009B187860B10A22002134
:10106000184602F0EDFB04460120C04608B1A14637
:1010700001E0002400E00124019B187848B10A2215
:101080000021184602F0DCFB82460120C04608B170
:1010900055460120044205D108F1940002F018F8E9
:1010A000042623E008F1C40002F012F83D60C7F8FE
:1010B000049002F0F8F8052803D002F0F4F80428B0
:1010C00002D1062002F02DFC042002F0BFF978685E
:1010D00002F009F8ADA001F0FBFF386802F003F858
:1010E00004E008F1F00001F0F3FF0326304603B0FE
:1010F000BDE8F08F2C000000782FFF1F504E01003C
:10110000E82E00002DE9F04F0446DFF844AD87B02B
:10111000504601F0DDFF204601F0DAFF204601F0E5
:10112000D7FF05232C2202A9204602F03BFA0746EE
:101130000AF1240001F0CCFF012F4FF0000B0DDB72
:101140000DF108083C460FF2C82958F8040B01F0CD
:10115000BFFF484601F0BCFF641EF6D1052F40F0EA
:10116000818004F02CFC0446029B94F80090606897
:101170000190A768D4F80C80187880B10A22002169
:10118000184602F05DFB451EAD41ED43E80F02F04D
:1011900095FB10B14FEAD57901E0002600E0012669
:1011A00002AD6B68187850B10A220021184602F08F
:1011B00047FB009002F06AFB10B1009801900120FB
:1011C0000640AB68187848B10A220021184602F0A0
:1011D00037FB009002F05EFB08B1009F0120EB6836
:1011E0000640187848B10A220021184602F028FB70
:1011F000054602F056FB08B1A8460120064206D17A
:101200000AF1540001F064FF4FF0040B30E00AF1E2
:101210008C0001F05DFF84F8009001986060A76089
:10122000C4F80C800AF1B00001F052FF207801F000
:101230005AFF0FF2FC2A504601F04AFF606801F0A5
:1012400052FF504601F044FFA06801F04CFF5046A9
:1012500001F03EFFE06801F046FF207840B104F065
:10126000A7FB05E00AF1D40001F032FF4FF0030BB9
:10127000584607B0BDE8F08F70B5DFF8C84C0020C5
:1012800020700121217086B004F0CEFB1122ADF850
:1012900000206B4601AA02F04FFAFF23DFF8402D31
:1012A00040F2DB51601C02F0F1FB451C40F2DB51C7
:1012B000AAB2491B0220A0546D1C491BAEB241F2D8
:1012C0001603DFF8202D89B2A01902F0DFFB4519C3
:1012D000A9B2032060546D1C05F0DEF8022101A8BC
:1012E00002F002F905F0A4F9009040F2DC51491B2C
:1012F000A8B201AB02A289B2204402F0C7FBA3E26C
:1013000025732C256400000070B5DFF8384C0020F0
:1013100020700121217086B004F086FB1122ADF807
:1013200000206B4601AA02F007FAFF23DFF8B02C79
:1013300040F2DB51601C02F0A9FB451C40F2DB517E
:10134000AAB2491B0220A0546D1C491BAEB241F247
:101350001703DFF8902C89B2A01902F097FB45190A
:10136000A9B2032060546D1C05F062F9034640F2F7
:10137000DC51491BA8B2CEA289B2204402F086FB00
:1013800062E20000B461010070650100202C0000E1
:1013900070B5DFF8B04B002020700121217086B0BD
:1013A00004F042FB1122ADF800206B4601AA02F0C6
:1013B000C3F9FF23DFF8282C40F2DB51601C02F058
:1013C00065FB451C40F2DB51AAB2491B0220A05428
:1013D0006D1C491BAEB241F21803DFF8082C89B22C
:1013E000A01902F053FB4519A9B2032060546D1CEB
:1013F00003F0E5F9034640F2DC51B1EB0501A8B278
:1014000004A289B2204402F041FB1DE25C620100AB
:101410002C000000253030305800000070B5DFF897
:10142000244B002020700121217086B004F0FCFACA
:101430001122ADF800206B4601AA02F07DF9FF23CE
:10144000DFF89C2B40F2DB51601C02F01FFB451CB7
:1014500040F2DB51AAB2491B0220A0546D1C491B6B
:10146000AEB241F21903DFF87C2B89B2A01902F069
:101470000DFB4519A9B2032060546D1C03F019FA45
:1014800008A1029100F10B03009300F116020192F2
:10149000034640F2DC51491BA8B20FF64C32CFE1B3
:1014A0007C63010044312E355600000070B5DFF832
:1014B000944A002020700121217086B004F0B4FA13
:1014C0001122ADF800206B4601AA02F035F9FF2386
:1014D000DFF80C2B40F2DB51601C02F0D7FA451C00
:1014E00040F2DB51AAB2491B0220A0546D1C491BDB
:1014F000AEB241F20103DFF8EC2A89B2A01902F082
:10150000C5FA4519A9B2032060546D1C01F0C1FE53
:1015100040F2DC56761B00230128A8B218BF012335
:1015200063A2B1B2204402F0B1FA8DE1EC61010096
:101530002C2000003C58010070B5DFF8084A00205C
:1015400020700121217086B004F06EFA1122ADF8EE
:1015500000206B4601AA02F0EFF8FF23DFF8802A93
:1015600040F2DB51601C02F091FA451C40F2DB5165
:10157000AAB2491B0220A0546D1C491BAEB241F215
:101580000303DFF8602A89B2A01902F07FFA451937
:10159000A9B2032060546D1C01F085FE40F2DC56B8
:1015A000761B401E03280BD8DFE800F00204060873
:1015B000012306E0022304E0032302E0042300E009
:1015C0000523A8B23AA2B1B2204402F05FFA3BE18F
:1015D00070B5DFF87049002020700121217086B0BD
:1015E00004F022FA1122ADF800206B4601AA02F0A5
:1015F000A3F8FF23DFF8E82940F2DB51601C02F07A
:1016000045FA451C40F2DB51AAB2491B0220A05406
:101610006D1C491BAEB241F20403DFF8C82989B240
:10162000A01902F033FA4519A9B2032060546D1CC9
:1016300001F0B5FDF6E070B5DFF808490020207034
:101640000121217086B004F0EFF91122ADF80020DD
:101650006B4601AA02F070F8FF23DFF8842940F2FC
:10166000DB51601C02F012FA451C40F2DB51AAB2B9
:10167000491B0220A0546D1C491BAEB241F2050368
:10168000DFF8602989B2A01902F000FA4519A9B261
:10169000032060546D1C02F020FA40F2DC51037804
:1016A000491BA8B202A289B2204402F0EFF9CBE0B4
:1016B000256400006058010070B5DFF888480020FC
:1016C00020700121217086B004F0AEF91122ADF82E
:1016D00000206B4601AA02F02FF8FF230FF62042EC
:1016E00040F2DB51601C02F0D1F9451C40F2DB51A5
:1016F000AAB2491B0220A0546D1C491BAEB241F294
:1017000006030FF6044289B2A01902F0BFF9451989
:10171000A9B2032060546D1C02F002FA017A019113
:1017200040F2DC5142680092491B03680FF2EC1250
:1017300085E000009465010080BC92C770B5DFF8B9
:101740000448002020700121217086B004F06CF95B
:101750001122ADF800206B4601AA01F0EDFFFF2336
:101760000FF69C3240F2DB51601C02F08FF9451CF1
:1017700040F2DB51AAB2491B0220A0546D1C491B48
:10178000AEB241F207030FF6803289B2A01902F01F
:101790007DF94519A9B2032060546D1C02F00CFCC0
:1017A00040F2DC510378491BA8B2D4A289B220448C
:1017B00002F06CF948E00000801319BC945F01004E
:1017C00070B5DFF88047002020700121217086B0BD
:1017D00004F02AF91122ADF800206B4601AA01F0AD
:1017E000ABFFFF230FF6183240F2DB51601C02F012
:1017F0004DF9451C40F2DB51AAB2491B0220A0540E
:101800006D1C491BAEB241F209030FF6FC2289B2EE
:10181000A01902F03BF94519A9B2032060546D1CD0
:1018200002F07AF801680391827B0292017B0191B8
:1018300040F2DC5182680092491B436813A2A8B2AF
:1018400089B2204402F022F955FA80F5AAB20421A7
:10185000A1546D1CDFF8580C01F03AFCA8B201F05D
:1018600042FCDFF8300D01F033FCA9B2204601F054
:1018700038FCDFF8240D01F02BFCA9B2204604F05F
:1018800021F800F003FD002006B070BD25642C2572
:10189000642C25642C25642C2564000070B5DFF8C9
:1018A000A446002020700121217086B004F0BCF80D
:1018B0001122ADF800206B4601AA01F03DFFFF2385
:1018C0000FF63C2240F2DB51601C02F0DFF8451CB1
:1018D00040F2DB51AAB2491B0220A0546D1C491BE7
:1018E000AEB241F20A030FF6202289B2A01902F02B
:1018F000CDF84519A9B2032060546D1C02F013F90C
:10190000017A019140F2DC5142680092491B036860
:1019100002A294E7AC4F0100B424000025642C25FA
:10192000642C25640000000070B5DFF81846002024
:1019300020700121217086B004F076F81122ADF8F4
:1019400000206B4601AA01F0F7FEFF230FF6B0124C
:1019500040F2DB51601C02F099F8451C40F2DB516B
:10196000AAB2491B0220A0546D1C491BAEB241F221
:101970000B030FF6941289B2A01902F087F84519EB
:10198000A9B2032060546D1C02F094FB03A24178BD
:10199000009140F2DC510378491B50E72530326456
:1019A000253032640000000038B5DFF8984500208B
:1019B000207040F2DC53ADF8003041F20C02694671
:1019C000204600F069FCBDF8005040F2DC50401B9E
:1019D000ADF8000002F0AFFB034657E278B5DFF840
:1019E00064458BB00020207040F2DC53ADF800302D
:1019F00041F20D026946204600F04EFCBDF8005051
:101A000040F2DC50401BADF8000002F087FC0346BA
:101A1000BDF8001039A2601902F038F806462821F6
:101A200001A802F07FFC00BF06A001F051FB01A855
:101A300001F04EFB55FA86F5A9B20420605479E115
:101A4000AC5801000D0A54696D652D2D3E00000053
:101A50002DE9F041DFF8EC4484B00020207040F222
:101A6000DC53ADF80C3041F20E0203A9204600F021
:101A700013FCBDF80C5040F2DC50401BADF80C00DC
:101A8000002703F027FA064601F003FC012818BFDF
:101A9000012705F026F8804605F021F80190CDF8E1
:101AA000088000964FEA0703BDF80C1015A26019D4
:101AB00001F0ECFF55FA80F5AAB20421A1546D1C87
:101AC000DFF8EC0901F004FBA8B201F00CFBDFF831
:101AD000C40A01F0FDFAA9B2204601F002FBDFF8CA
:101AE000B80A01F0F5FAA9B2204603F0EBFE00F0C7
:101AF000CDFB002004B0BDE8F081000025640000AB
:101B00001C59010025642C2025642C2025642C20E0
:101B1000256400002DE9F047DFF8284486B0002056
:101B2000207040F2DC53ADF8143041F2210205A9D7
:101B3000204600F0B1FBBDF8145040F2DC50401BD1
:101B4000ADF81400002703F0C5F9064601F0A1FB2B
:101B5000012818BF012702F032FE804604F0C1FFC1
:101B6000814604F0BCFF824603F0B0F90190CDF845
:101B70001080CDF80C90CDF808A000964FEA07032E
:101B8000BDF8141014A2601901F080FF55FA80F519
:101B9000AAB20421A1546D1CDFF8140901F098FACF
:101BA000A8B201F0A0FADFF8EC0901F091FAA9B2AD
:101BB000204601F096FADFF8E00901F089FAA9B2AF
:101BC000204603F07FFE00F061FB002006B0BDE878
:101BD000F08700008849010025642C2025642C2012
:101BE00025642C2025642C2025642C20256C640081
:101BF00078B5D44C8DB00020207040F2DC53ADF8A5
:101C0000183041F20F0206A9204600F045FBBDF84E
:101C1000185040F2DC50401BADF8180003F092F968
:101C2000064602210AA896ED020A01F05DFC022197
:101C300007A896ED030A01F057FCB069059007AAC2
:101C4000716904910AA93069039002920191706848
:101C5000BDF8181013A200906019336801F016FF48
:101C600055FA80F5AAB20421A1546D1CDFF8400892
:101C700001F02EFAA8B201F036FADFF8180901F0E7
:101C800027FAA9B2204601F02CFADFF80C0901F07E
:101C90001FFAA9B2204603F015FE00F0F7FA002063
:101CA0000EB070BD25642C25642C25732C25732C57
:101CB00025642C25642C25640000000070B5A14C1F
:101CC0008CB00020207040F2DC53ADF8083041F2B7
:101CD000100202A9204600F0DFFABDF8085040F2D9
:101CE000DC50401BADF8080002F0BEFE06460221A3
:101CF00009A896ED000A01F0F7FB022106A896ED6F
:101D0000010A01F0F1FB022103A896ED020A01F09D
:101D1000EBFB06A903A80091019009ABBDF80810E0
:101D20000FF27442601901F0B1FE55FA80F5AAB2C3
:101D30000421A1546D1CDFF8780701F0C9F9A8B29D
:101D400001F0D1F9DFF84C0801F0C2F9A9B2204640
:101D500001F0C7F9DFF8400801F0BAF9A9B220464E
:101D600003F0B0FD00F092FA00200CB070BD38B561
:101D7000744C8CB00020207040F2DC53ADF8083079
:101D800041F2110202A9204600F086FABDF808507F
:101D900040F2DC50401BADF8080004F091FF022136
:101DA00009A801F0A1FB04F0A7FF022106A801F099
:101DB0009BFB04F0C7FF022103A801F095FB06A9D5
:101DC00003A800910190BBE13EB55E4C002020705D
:101DD00040F2DC53ADF8043041F2140201A9204670
:101DE00000F05AFABDF8045040F2DC50401BADF848
:101DF000040003F08DF800BF16A20168009143684B
:101E0000BDF80410601901F041FE55FA80F5AAB240
:101E10000421A1546D1CDFF8980601F059F9A8B20D
:101E200001F061F9DFF86C0701F052F9A9B2204620
:101E300001F057F9DFF8600701F04AF9A9B220462E
:101E400003F040FD00F022FA002003B030BD000096
:101E5000A44A010025642C256400000038B5394CE3
:101E60000020207040F2DC53ADF8003041F2150242
:101E70006946204600F010FABDF8005040F2DC50F0
:101E8000401BADF8000002F00DFB0378BDF8001018
:101E9000C0A2601901F0FAFD55FA80F5AAB204213A
:101EA000A1546D1CDFF8080601F012F9A8B201F088
:101EB0001AF9DFF8E00601F00BF9A9B2204601F0AB
:101EC00010F9DFF8D40601F003F9A9B2204603F0B7
:101ED000F9FC00F0DBF9002032BD10B53421DFF849
:101EE000140D05F091FB002400B10524204610BD1F
:101EF00030B5144C8DB00020207040F2DC53ADF8AA
:101F0000103041F21A0204A9204600F0C5F9BDF8CC
:101F1000105005A803F0BCFE40F2DC500DF12E017C
:101F2000401B0391ADF810000DF125010DF12B00C0
:101F3000019105AA029000920AABBDF810100FF2B1
:101F4000901202E1E015FF1F30B5DFF8984D8BB01D
:101F50000020207040F2DC53ADF80C3041F21B023F
:101F600003A9204600F098F9BDF80C5004A803F02E
:101F700007FF40F2DC500DF12901401B0291ADF842
:101F80000C000DF121010DF126000091019004AB30
:101F9000BDF80C1014A2601901F078FD55FA80F517
:101FA000AAB20421A1546D1CDFF8040501F090F8D9
:101FB000A8B201F098F8DFF8DC0501F089F8A9B2C1
:101FC000204601F08EF8DFF8D00501F081F8A9B2C3
:101FD000204603F077FC00F059F900200BB030BD2B
:101FE000002300000823000025732C25732C257383
:101FF0002C25730038B5DFF8EC4C0020207096B02B
:1020000004F085FA012113A801F06EFA04F0AAFA8F
:10201000012110A801F068FA04F091FA01210DA83D
:1020200001F062FA04F0EDFA012107A801F05CFA70
:1020300005A804F0C1FA9DF818009DED050A08B93D
:10204000B1EE400A01210AA801F04EFA40F2DC503C
:10205000ADF8100041F21C0204A9204600F01CF962
:10206000BDF8105040F2DC50401BADF8100007A93D
:1020700003910AAA10A80DAB02920190009313AB32
:10208000BDF8101012A2601901F000FD55FA80F59C
:10209000AAB20421A1546D1CDFF8140401F018F851
:1020A000A8B201F020F8DFF8EC0401F011F8A9B2B1
:1020B000204601F016F8DFF8E00401F009F8A9B2B3
:1020C000204603F0FFFB00F0E1F8002017B030BD20
:1020D00025732C25732C25732C25732C2573000058
:1020E00038B5DFF8004C002121708CB0002005F0DD
:1020F00031FB022109A801F0F7F9012005F02AFBC4
:10210000022106A801F0F0F904F07BFA022103A8ED
:1021100001F0EAF940F2DC50ADF8080041F21D028E
:1021200002A9204600F0B8F8BDF8085040F2DC5093
:1021300003A9401B019106AAADF80800009200BF58
:102140000DF12403BDF8081013A2601901F09EFCE4
:1021500055FA80F5AAB20421A1546D1CD44800F0B0
:10216000B7FFA8B200F0BFFFDFF8280400F0B0FF0F
:10217000A9B2204600F0B5FFDFF81C0400F0A8FF6C
:10218000A9B2204603F09EFB00F080F800200DB0BD
:1021900030BD00002564000025732C25732C2573A9
:1021A0000000000038B5DFF83C4B84B00020207000
:1021B00040F2DC53ADF80C3041F2220203A9204674
:1021C00000F06AF8BDF80C5040F2DC50401BADF84E
:1021D0000C0003F0F4FBC16802918268019241682F
:1021E00012A200910378BDF80C10601901F04EFCAA
:1021F00055FA80F5AAB20421A1546D1CAC4800F038
:1022000067FFA8B200F06FFFE24800F061FFA9B2DB
:10221000204600F066FFE04800F05AFFA9B22046D1
:1022200003F050FB00F032F892E3000025642C2507
:102230006C642C25642C256C640000007CB505467C
:10224000DFF8644C00202070C823ADF8003041F264
:1022500011126946204600F01FF8BDF80000C0F1D9
:10226000C801ADF800100646BDF800102B46C7A205
:10227000204401F00BFC56FA80F080B20421215476
:10228000401C80B200222254204676BD40F2DC5130
:10229000DFF8500A05F068BAF8B5044686B00D4676
:1022A00001202070164629884A1E2A80112703F033
:1022B000BBFBADF800706B4601AA01F03DFA29881E
:1022C0000FA2FF23601C01F0E1FB471C2888C01B04
:1022D000BAB228800221A1547F1C29880AA2C91BF6
:1022E0002980B8B2334689B2204401F0CFFBC71928
:1022F000BAB20321A1547F1C2F80012007B0F0BD8A
:10230000253032580000000025303458000000000D
:102310002DE9F84384B00446884600F0D9FE042332
:102320002C226946204601F03DF907460FF2841041
:1023300000F0CEFE0025012F0CDB6E463C460FF26E
:10234000502956F8040B00F0C3FE484600F0C0FECA
:10235000641EF6D1042F24D10098DFF8502B41469B
:1023600000F053FD441E0198DFF8442B08F10401EE
:10237000A44100F04AFDE44300EAD4740298DFF877
:10238000342B661E08F10801B64100F03EFDF6430D
:1023900010EAD67F0AD10FF2381000F099FE04251A
:1023A00004E00FF24C1000F093FE0325284605B020
:1023B000BDE8F0832DE9F84386B00446884600F076
:1023C00087FE06232C226946204601F0EBF80746DB
:1023D00038A000F07DFE012F4FF000090BDB6D46A9
:1023E0003C466BA655F8040B00F072FE304600F038
:1023F0006FFE641EF6D1062F52D10098DFF8AC2A8A
:1024000008F1040100F001FD471E0198DFF8A02A41
:1024100008F10801BF4100F0F8FCFF4300EAD7775C
:1024200002987D1EDFF88C7A3A4608F10C01AD4126
:1024300000F0EBFCED4300EAD57502986E1E3A46BB
:1024400008F10D01B64100F0E0FCF64300EAD67653
:102450000398751E3A4608F10E01AD4100F0D5FC17
:10246000ED4300EAD57503986E1E3A4608F10F0158
:10247000B64100F0CAFCF64300EAD6760498DFF8CD
:102480003C2A741E4146A44100F0BFFCE44310EA1C
:10249000D47F0AD10EA000F01BFE4FF0040904E027
:1024A00013A000F015FE4FF00309484620E100009C
:1024B000F82E00000A50574D205365742052656372
:1024C00065697665642056616C756573203A000015
:1024D0000A2050776D2053657456616C75652F73B3
:1024E000204F7574206F662052616E676500000092
:1024F0000A2050776D2053657456616C75652F7393
:1025000020496E76616C6964000000002DE9FE438D
:10251000044689460FF6042000F0DAFD204600F05C
:10252000D7FD02232C226946204601F03BF80746DE
:102530000FF6B41000F0CCFD0026012F0BDBE846AF
:102540003C4613A558F8040B00F0C2FD284600F0E5
:10255000BFFD641EF6D1022F0FD10098DFF860296D
:10256000494600F061FC002812BF0FF6E81004266F
:102570000FF6C01000F0ACFD04E00FF6E81000F01C
:10258000A7FD0326304603B0BDE8F08325580000C0
:102590002C000000082F0000142F00002DE9F0434C
:1025A000044687B00FF6D810DFF8189900F090FDB8
:1025B000204600F08DFD07232C226946204600F0BE
:1025C000F1FF0746484600F083FD0025012F0CDB94
:1025D0006C46B846BAA654F8040B00F079FD3046B4
:1025E00000F076FDB8F10108F5D1072F7AD103F09C
:1025F000EFF907460098102101F070F9441E019888
:10260000A441402101F06AF9E44300EAD47402983D
:10261000661EB641022101F061F9F643039A00EA11
:10262000D676711E89411078C943002818BF30281A
:1026300006D0312806D15078401E8041C00F02E0FC
:10264000012000E00020049A00EAD17110780028EF
:1026500018BF302806D0312806D15078401E80415E
:10266000C00F02E0012000E00020059A0140107830
:10267000002818BF302806D0312806D15078401ED7
:102680008041C00F02E0012000E00020014223D081
:10269000009A1121384601F0F9F9019A412107F118
:1026A000110001F0F3F9029A032107F1520001F041
:1026B000EDF903990A7807F155000270049B197827
:1026C0004170059A11788170012003F0DAFA0FF653
:1026D000D00000F0FDFC0AE009F12C0000F0F8FC4D
:1026E000042504E009F1540000F0F2FC032528461B
:1026F00007B0BDE8F0832DE9FE4304460FF6B400B1
:10270000DFF8C49700F0E4FC204600F0E1FC02236F
:102710002C226946204600F045FF0746484600F057
:10272000D7FC0025012F0BDBE8463C4664A658F891
:10273000040B00F0CDFC304600F0CAFC641EF6D15C
:10274000022F1CD10098017861B130290DD03129B8
:1027500004BF4078002808D009F1300000F0B8FC30
:10276000042511E04FF0FF3002E0A1F1300040B24B
:1027700003F08AFA0FF6580000F0AAFC04E009F111
:102780005C0000F0A5FC03252846FCE62DE9F8478F
:102790000446DFF8387789B0384600F099FC2046C7
:1027A00000F096FC02F056F9064696E80E106846D0
:1027B000002580E80E1005232C2204A9204600F0F5
:1027C000F1FE804607F1280000F082FCB8F1010F0D
:1027D0000DDB0DF1100944460FF2E40A59F8040B21
:1027E00000F076FC504600F073FC641EF6D1B8F1A0
:1027F000050F5BD1DFF8D8460498224669460DF1F3
:10280000100900F002FBB0F10108D9F804002246DB
:1028100001A968EB080800F0F8FA6FEA080800EA76
:10282000D870B0F1010AD9F80800224602A96AEB73
:102830000A0A00F0EAFA6FEA0A0A00EADA70B0F16E
:10284000010868EB08086FEA08004FEAD078D9F869
:102850000C00224603A900F0D8FA18EA000F1FD096
:1028600007F1880000F034FC684690E81E0086E816
:102870001E00084600F037FC11A4204600F028FC9A
:10288000706800F030FC204600F022FCB06800F0D8
:102890002AFC204600F01CFCF06800F024FC0AE052
:1028A00007F1540000F014FC042504E007F1B40023
:1028B00000F00EFC032528460AB0BDE8F0870000B2
:1028C0002C00000038B5DFF81C4484B000202070D4
:1028D00040F2DC53ADF80C3041F2140203A920465B
:1028E000FFF7DAFCBDF80C5040F2DC50401BADF8AD
:1028F0000C0002F0AFF8C168029182680192416851
:102900000FF2E46200910368BDF80C10601901F049
:10291000BDF855FA80F5AAB20421A1546D1C0FF23E
:10292000D85000F0D5FBA8B200F0DDFB0FF2D85074
:1029300000F0CEFBA9B2204600F0D3FB0FF2D4503A
:1029400000F0C6FBA9B2204602F0BCFFFFF79EFCD8
:10295000002005B030BD2DE9F847ADF5006DB9B0E8
:10296000044600F0B5FB03232C2203A9204600F007
:1029700019FE06460FF27C6000F0AAFB0025002E2F
:102980000DDD0DF10C0934460FF24C3859F8040BEB
:1029900000F09EFB404600F09BFB641EF6D1032E28
:1029A0003DD10399087800281FBF03AE71680878ED
:1029B000002834D003980A22002100F041FF044689
:1029C00070680A22002100F03BFF0646A64220D391
:1029D00040F2012086421CD2DCB1009623460FF261
:1029E0003462322106A801F051F806A800F070FB0D
:1029F000B3B2A2B2322106A804F06AFF80460FF2F9
:102A000034600FF2486900F063FB0024252606AF0E
:102A100038E0DFF8C00400F05BFB0425E2E0DFF8FB
:102A2000B80400F055FB0325DCE04179827942EAE5
:102A3000012201920DF5D47C0079009016FB04FE72
:102A40004A4624210CEB0E0018E006A800EBC40057
:102A500043780178C2781B0443EA0163817843EA32
:102A600001231343002CE0D17879B97941EA0021A0
:102A700001914A463879009025216AA801F006F8AC
:102A8000641CE4B2444501D2322CDEDB954C40F2AA
:102A9000DC51ADF80810257002F057FF022841F212
:102AA0001F070FF2342957D102F0BEFFCDE9000114
:102AB0003A4602A9204605F035F8BDF808700FF235
:102AC000985A40F2DC50C01BADF80800E55520468E
:102AD00000F0FEFA7A1E92B22146022002F014FFA4
:102AE000504600F0F5FA0C225146022002F00CFF8D
:102AF00000271DE06AA806FB07F100EB010A50461B
:102B000000F0E6FA504601F0B5FA82B251460220D2
:102B100002F0FAFEA8EB0700022807D3012249467B
:102B2000022002F0F1FE484600F0D2FA7F1CBFB24C
:102B30004745DFD3FFF7AAFB5D20207022217D22CD
:102B40006170A270E570204600F0C2FA03222146AF
:102B5000022002F0D9FE45E03A4602A92046FFF7DE
:102B60009BFBBDF8087040F2DC50C01BADF80800BC
:102B70003A462146002002F0C7FEE555204600F007
:102B8000A7FA00271DE06AA806FB07F100EB010A7F
:102B9000504600F09DFA504601F06CFA82B2514660
:102BA000002002F0B1FEA8EB0700022807D30122A3
:102BB0004946002002F0A8FE484600F089FA7F1C32
:102BC000BFB24745DFD3FFF761FB5D2004212070D2
:102BD0006170A57002222146002002F095FE204679
:102BE00000F076FAFFF752FB0DF5006D28463AB07B
:102BF000BDE8F0870000FF1F80B500F069FA04F01F
:102C000069FE002002BD70B59CB06A46C9B200F0F2
:102C10006BF8040015D10FF2704000F059FADDE9AD
:102C2000000100F060FADDE9000100244FF6FF72B8
:102C3000A14208BF904204D10FF25C4000F048FA74
:102C40000724250018BF072C32D10FF21C4000F0DA
:102C50003FFABDF8080000F046FABDF808009F4AA8
:102C6000002113465C8884420AD0491C1033342961
:102C7000F8DB34299A4E08DB00203060022417E08C
:102C8000974802EB01120260F3E73168002479B142
:102C900049680DF10A008847040009D131688A6843
:102CA0000120904720B10FF2D03000F011FA052436
:102CB000072D18BF062D0CD02046FFF7BFFA05469A
:102CC00000F006FA284601F0D5F981B2284602F054
:102CD000F9FD20461CB070BD2C0000007F4901604A
:102CE00034207047E015FF1FF0B50646A1B0002064
:102CF000002433460D4601E0641CA4B213F8011B06
:102D0000012901D0AC42F7DB335D012B57D1641CA4
:102D1000A4B2311907E011F8013B87B2641C0DF829
:102D20000730A4B2401C0B78022B01D0AC42F2DB7E
:102D3000315D022943D180B200230DF800301746DF
:102D400010220021684605F027F8C7E90001641C3D
:102D5000A4B200208DF80000311907E011F8012B12
:102D600083B2641C0DF80320A4B2401C0A78032A25
:102D700001D0AC42F2DB315D032920D180B20022C8
:102D80000DF8002000211022684600F059FD38811E
:102D9000641CA4B200208DF80000311907E011F87E
:102DA000012B83B2641C0DF80320A4B2401C0A78E6
:102DB000042A01D0AC42F2DB315D042902D00120AB
:102DC00021B0F0BD80B200210DF800106B463AA290
:102DD000642107F10A0000F059FE08232C2219A9EA
:102DE000684600F0DFFB10B9032021B0F0BD19AB3D
:102DF00003EB8000102250F8040C002100F020FDAD
:102E000087F86E0021B00020F0BD70B50C46017847
:102E1000154639B10A22002100F012FD0646A847E6
:102E200008B12660012070BD70B50C4601781546CA
:102E300059B10A22002100F003FD461EB641F643B7
:102E4000F60F3046A84708B12670012070BD7CB54A
:102E50000446244D0020287040F2DC53ADF80030C9
:102E60004FF4885269462846FFF716FABDF800006D
:102E70000FF23C2340F2DC51091AADF8001006466F
:102E8000BDF800100CA2284400F000FE56FA80F2B3
:102E900092B20420A854521C92B22946204602F055
:102EA00033FDFFF7F3F973BD7829FF1F7138000078
:102EB000753800004F380000257300007938000095
:102EC000CD380000BC5701009C5501009C4C01000E
:102ED00087380000185E01003C5E01000000FF1F03
:102EE000742FFF1FE015FF1F0A737461746520566D
:102EF000616C756573203A000D0A64617461436FFB
:102F0000756E742D3E0000000D0A446174612D3E03
:102F1000000000000D0A456E640000000D0A496EB5
:102F20002050726F63657373536574537461746575
:102F30002D3E00000A204D6F646520536574566174
:102F40006C75652F73204F7574206F662052616E0B
:102F5000676500000A204D6F6465205365745661F3
:102F60006C7565000A204D6F646520536574566169
:102F70006C75652F7320496E76616C696400000082
:102F80000D0A496E2050726F636573735365745AEE
:102F90006967626565436F6E6669672D3E00000074
:102FA0000A5A696762656520436F6E66696720200B
:102FB000536574000D0A496E2050726F6365737318
:102FC00052657365745A69676265654E572D3E0098
:102FD0000A5A696762656520204E772052657365DD
:102FE000742020536574000025642C25642C25640E
:102FF0002C2564000A52657175657374204C6F67E7
:103000002052656365697665642056616C756573E9
:10301000203A00000A5374617274496E6465782026
:103020003D2025642C20456E64496E646578203D02
:10303000202564000D0A496E204150492050726FCE
:1030400063657373696E672D3E0000005B256C64D9
:103050002C25642C25645D002C2256414C5545538B
:10306000223A225B000000000A434D442056616C66
:1030700075653A20000000000A456570726F6D208A
:103080004572726F720000000D0A446576696365CF
:103090002049442D2D3E00000A2057696C642043CE
:1030A00061726420446576696365204944000000CC
:1030B0002A2A2A2A52454E20434F4E54524F4C45FD
:1030C00052202D2044312E35562A2A2A2A0000006B
:1030D00010B5044611E001B50121684604F08CFEEC
:1030E00001BD04F089BE10B50346094C07A2FFE7F5
:1030F0003221204600F0CAFC204600F0BBFF81B21E
:103100002046BDE8104004F077BE000025640000B2
:10311000782CFF1F00B585B0C1B2684600F0E4F915
:10312000684600F0A7FF81B2684604F065FE05B06E
:1031300000BD30B4002513E050F8042BD30744BF82
:10314000A9F101039A18091F042942F8045BFAD275
:1031500013468C0744BF15809B1CC90748BF1D70D0
:1031600050F8041B0029E7D130BC704770B586B019
:1031700091E8780002AA009082E8780001F0CAFE87
:10318000009A4168914238BF009103D3006882429F
:1031900038BF0090684601F088FE06B070BDDFF8C9
:1031A000D8027047DFF8D4027047000038B5DFF866
:1031B000C8526C7C0C2C37D8DFE804F02F36141181
:1031C0002126280E0C2316071F000021052000F0E1
:1031D0006DF80CE006211AE00021032018E002211E
:1031E000022015E0012112E0287C012802D10121F2
:1031F00069741EE0002101200AE0072107E0032195
:1032000005E0287C012808D1042107E005210220DF
:1032100000F04CF8012068740BE00021022000F05F
:1032200045F80120687403E00121012C697402D083
:103230000CB101F0B6FA01F039F9287D00BB01F0BC
:103240000AFA044601F02AF9012800D0C4B1287C0A
:1032500001280CD100F034FF80B100F05FFB0028A2
:1032600018BF06280AD1012000F05BFB06E0022807
:1032700006D1E87C032818BF072801D100F056FBCF
:10328000BDE831409EE07E48007870477C49087078
:1032900070477948007C7047012808BF0A2001D098
:1032A00000B10020D3E07448C07C704770B501289D
:1032B00086B005460E4605D101F091FA012804BFFB
:1032C000022505266C4C25746D1E042DE67468D805
:1032D000DFE805F0610348485C00761E062E60D8E2
:1032E000DFE806F02F231B5C3E110400A07D0328BD
:1032F00018BF022805D0052818BF042851D1042082
:1033000045E0022043E0A569012001F0DBFD2146F4
:103310002846FFF72BFF06B070BD00F0FFFA00282B
:1033200018BF06283DD1012031E0012001F0CAFD7F
:1033300094E82E0002A8012480E82E008DF80440B5
:103340001FE0012001F0BEFD94E82E0002A8002439
:1033500080E82E008DF8044001F0DCFD406813E0A9
:103360000B201CE0002000F0DCFA012001F0AAFD97
:10337000424991E83C0002A8012680E83C008DF813
:10338000046001F0C7FD0068009003E7002000F032
:10339000C8FA06B070BD002000F0C3FA072001F0A3
:1033A00091FD06B070BD3449087570473248007D04
:1033B00070473149C87570472F48006A70472E48DA
:1033C000406A704710B52C4C207D012804D03AD3B8
:1033D000032823D00AD310BD617C617500F09EFAEA
:1033E000A075022106206074217510BD01F06EFDEC
:1033F0000E2828D103F073FB206203F072FB606299
:1034000002F0DDFAC06818B90120A074002001E0C4
:103410000021A174E0610320207510BDA07C01286B
:1034200004D100212175062000F07BFAE07D50B127
:103430000C2161740B2001F069F90020207502F065
:10344000B7FA0020E07510BD0000000000BF0A4977
:103450004874704780B501F039FB0749C86940B12D
:10346000401E002803DC01208874002001E00022B7
:103470008A74C86101BD0000302DFF1F102FFF1F8F
:103480000E30FF1FF8B500250C4600280EE0424B19
:1034900080FB03639B1003EBD37303EB8307A0EB69
:1034A0004700303001F8010B6D1C1800EFD1561B9E
:1034B000954205DA30223146601904F055FD751940
:1034C000691E00202246631807E016781F7802F86C
:1034D000017B03F80169401C491E8842F5DB00208E
:1034E00060552846F2BD0000F8B50025B5EE400A4B
:1034F000F1EE10FA2DED048B0E4604D5FFEE000A16
:10350000012520EE200AFDEEC00A0446B8EEE01ABE
:1035100030EE418A0122214610EE900AFFF7B2FFF9
:10352000074636B32E20E055304604F051FD41ECFD
:10353000110B9FED1A0B04F060FD3246601CC6199A
:10354000B0EE409AF0EE609A174618EE100A04F0BA
:103550005DFD53EC192B04F07DFD04F04DFE01EEF2
:10356000100ABDEEC11A11EE100A3A463146FFF7B5
:1035700089FF75B1204600F07DFD401C40B2621C01
:1035800003E0215C1154401E40B20028F9D52D20E3
:103590002070BDEC048BF1BD67666666000000001C
:1035A000000024402DE9F0410D4604461646984699
:1035B0002C6000F05FFD0127B0B1204600F05AFDFD
:1035C000C0B2002810DD2178B14208D10023474560
:1035D000237008DA611C45F827107F1CFFB2641CB9
:1035E000401EF0D100E000273846BDE8F08130B43D
:1035F000A0F130050A2D38BFA0F130030FD3A0F1A0
:103600006105062D38BFA0F1570308D3A0F141048E
:10361000062C38BFA0F1370301D300B90023A1F174
:1036200030040A2C38BFA1F130000FD3A1F161049E
:10363000062C38BFA1F1570008D3A1F14102062A98
:1036400038BFA1F1370001D301B9002030BC40EAF6
:103650000310C0B270472DE9F04706468A46174668
:1036600000F008FD84B200251CB138884000A0425B
:1036700003D23D800020BDE8F0876108B4EB410033
:10368000A8462AD030780125A0F130030A2B38BF94
:10369000A0F130010FD3A0F16103062B38BFA0F1D8
:1036A000570108D3A0F14102062A38BFA0F1370123
:1036B00001D300B90021641C8AF80010A846A4B206
:1036C0000BE0A8B26D1CA9B2305C715CFFF78FFFF4
:1036D0000AF809006D1C08F101081FFA88F904EBCB
:1036E000D470B9EB600FECDBA7F800800120BDE8D7
:1036F000F08710B403460020002111E0A4F141023C
:10370000062A06D2373C04E0A4F16102062AF5D26B
:10371000573C090141EA107104F00F0444EA00101B
:103720001A783AB113F8014BA4F130020A2AEBD20D
:10373000303CEEE710BC7047F0B40D460446002163
:1037400011700820E6B237090A2FB3F800C0B4BFE1
:103750003037373706F00F060A2EACEB010CB4BF3A
:10376000303637364FFA8CFCBCF1030F0DDB5FFAB5
:1037700081FC491C02F80C60240ACEB244EA0564BC
:10378000491C2D0A9755401EDCD1CCB200201055A3
:10379000641E151907E016782F7802F8017B05F8EA
:1037A0000169401C641EA042F5DBC9B219800120EA
:1037B000F0BC70472DE9F84381460D0090461C4649
:1037C00008BF6D464F4600E07F1C387804F048FD86
:1037D0000028F9D13E782D2E18BF2B2E05D117F8D1
:1037E000010F04F03DFD50B900E02B262346424670
:1037F0002946384604F03EFD29688F4204D1C5F8B9
:1038000000900020BDE8F2832B2E04D1B0F1004FD0
:1038100006D2BDE8F2832D2EFBD1B0F1004F0CD9BA
:10382000AFF300800CB1012020602D2E14BF6FF08B
:1038300000404FF00040BDE8F2834042BDE8F28313
:103840000023B7E710B107288041C00F704716E08A
:10385000B5EE400AF1EE10FA08DBDFED150AB4EE22
:10386000600AF1EE10FA01D5012070470020704780
:1038700001207047012070470120704700BF652874
:103880008041C00F7047B0F1004FF9E76438094933
:103890008842F5E720B140F2F51188428041C00F1F
:1038A000704718B1044988428041C00F704700003A
:1038B000010020413D860100A1BB0D00010018BFA1
:1038C000012801D10120704700207047010018BF76
:1038D000012801D1012070470020704738B5044607
:1038E0000D4600F0C7FB81B28D4211DB012001299A
:1038F0000FDB2278A2F130030A2B21BFA2F1410590
:10390000062D613A062A03D2641C491EF1D132BD4C
:10391000002032BD47487047474870474548007C03
:103920007047444908747047000000002DE9F041D9
:10393000404C217C491E042986B06FD8DFE801F095
:1039400003092F3C610000BF3CA0FFF7C1FB02212F
:10395000217400BF3FA0FFF7BBFB0221032003F04F
:1039600007FF012001F0AEFAFFF793FC012802A83F
:1039700005D1314991E86C0080E86C0003E094E8DF
:10398000805180E8805100218DF8041001F0C2FAC6
:1039900040680090684601F088FA03203DE001F09D
:1039A00095FA0E283AD101F0CDFA016989B20420C6
:1039B00003F0DEFE042020742DA0FFF789FB032115
:1039C000032003F0D5FE012001F07CFAFFF761FC33
:1039D000012802A805D1184991E86C0080E86C0024
:1039E00003E094E8805180E8805101218DF80410B3
:1039F00001F090FA00680090684601F056FA052040
:103A00000BE001F063FA0E2808D101F09BFA41693E
:103A100089B2052003F0ACFE0620207406B0BDE894
:103A2000F0810448017C052901D101207047002064
:103A3000704700009C2EFF1FC02EFF1F0A204379F5
:103A4000636C65204D6F64652053746172746564A6
:103A5000000000000A204379636C6520506F736991
:103A600074697665205374617274656400000000A7
:103A70000A204379636C65204E65676174697665D9
:103A800020537461727465640000000008B438B596
:103A900085B009AC00250494039500290EBF01955B
:103AA0000190491E0291009504AB01A90748784492
:103AB0001A3004F07FFC019901B10D70002858BF45
:103AC000039806B030BC5DF808FB00BF8F0500000E
:103AD00080B504F0F1FE012002BDDFF8AC037047B1
:103AE00038B5DFF8A8530446287D08B1012005E069
:103AF00000F030F802280CBF0F2007202874FFF7D1
:103B0000C8FB01282046BDE834400CBFDFF8801315
:103B1000DFF880130AE0DFF8741307200874704799
:103B2000DFF870037047DFF86803704730B4DFF8E0
:103B300068231070101D91E8380080E83800117873
:103B4000DFF84823D17430BC7047DFF84003007CB5
:103B50007047000010B504F007FF0324032808D8BD
:103B6000DFE800F006060204002402E0012400E081
:103B70000224204610BD000038B5C44C2DED028B48
:103B8000207C0E2800F21D81DFE810F00F001600E7
:103B9000BE006D00770090001B01BC00CD00DA0074
:103BA0001B01FC00FE001B0116000021E1619FEDDE
:103BB000B50A04F0DFFE04E10220A074607404F092
:103BC000F8FE00EE100AB8EE400A84ED070A0FF284
:103BD0002830FFF77DFA032094ED070AFFF79AFAE1
:103BE00000206075FFF7B6FFE17C02002DD00128B0
:103BF00027D161B3A84890E82E0084E82E00A7489A
:103C0000FFF766FAA6A0FFF763FA2078FFF76BFAD2
:103C1000AAA0FFF75DFA6068FFF765FAACA0FFF7AE
:103C200057FAA068FFF75FFAAEA0FFF751FA207BC2
:103C3000FFF759FA207870B9022004F098FE0320AB
:103C4000BEE00328D6D1080001D00129D2D101203D
:103C500060750221B1E0012840F0B380032004F038
:103C600086FE0320ACE0FFF775FF20B1FFF772FF7F
:103C7000012840F0A6800420A2E0B3EE040AD4EDAF
:103C8000070AF4EE400AF1EE10FA44BF84ED070A89
:103C900004F083FE0020A074052121749BA0FFF78F
:103CA00017FA032094ED070AFFF734FAA07C01000D
:103CB0001CD104F07EFE217B081A00EE100AB8EE3B
:103CC000C00AB5EE400AF1EE10FA9FED6E8A07D4F5
:103CD000606828B100EE900AF8EE600A80EE208A53
:103CE000012084ED068A2062A0746AE0022868D16F
:103CF0008CA0FFF7EDF9032094ED070AFFF70AFA0D
:103D000006205DE00021617502200821A074217465
:103D100004F04FFE00EE100AB8EE400A84ED070AE8
:103D200087A0FFF7D5F9002060740921217400BF36
:103D30008AA0FFF7CDF9032094ED070AFFF7EAF90F
:103D4000607C01001AD104F034FE00EE100AB8EED7
:103D5000400AB5EE400AF1EE10FA9FED4A8A07D408
:103D6000A06828B100EE900AF8EE600A80EE208A82
:103D7000012084ED068A2062607422E0022820D1AE
:103D80000C201DE0002161757BA0FFF7A1F9002048
:103D9000E0619FED3C0A04F0EDFD012004F0E7FD39
:103DA0000220A0746074607D012803D10021617538
:103DB0000E2005E0207D10B10D21217401E00F20BF
:103DC0002074BDEC028BBDE8314004F077BD0000EB
:103DD00010B504F0FBFD2D4CA07C012828D1206AF1
:103DE000401E20624DD1207BD4ED060AF5EE400A3C
:103DF00000EE100AF1EE10FAB8EE400A0FD094ED82
:103E0000071A71EE200AB0EE601AB4EE401AF1EE15
:103E100010FA04DA84ED071AB0EE600A23E084EDAC
:103E2000070A04F0BAFD002002212062A17410BD2F
:103E3000607C012825D1206A401E206221D194EDAA
:103E4000060AB5EE400AF1EE10FA11D0D4ED070AD9
:103E500030EEC00AF0EE400AF5EE400AF1EE10FA3C
:103E600006D9C4ED070A04F098FD0120206210BDB8
:103E7000E0619FED040A04F090FD00200221206221
:103E8000617410BD000000007805FF1F6405FF1F6E
:103E90002C2FFF1F202FFF1FB02EFF1FB865010022
:103EA0000A20427220546172676574204469726509
:103EB0006374696F6E203A20000000000A2042728D
:103EC00020416363656C2054696D65203A200000D1
:103ED0000A20427220446563656C2054696D652038
:103EE0003A2000000A2042722053746561647920F0
:103EF00050574D31203A20000A20427275736820D5
:103F00005374617274203A20000000000A2042724B
:103F100075736820416363656C205374617274200B
:103F20003A0000000A20427275736820416363659D
:103F30006C20436F6D706C657465643A20000000FE
:103F40000A204272757368204D6F746F72204E6F35
:103F5000726D616C2053746F700000000A20427211
:103F600075736820446563656C2053746172746571
:103F700064203A20000000000A2042727573682015
:103F8000456E640038B52D492D4C002008704FF463
:103F9000005504F02BFD00BF2FA00188ADF80010E4
:103FA0006A460D21204604F0E7FDA56004F0C1FD3E
:103FB00004F0C5FD656031BD2048704780B51F49DC
:103FC000087820B904F0B5FD04F0AEFD03E004F07C
:103FD000B6FD04F09AFD0CE080B51849087820B9C8
:103FE00004F0ADFD04F091FD03E004F0A2FD04F047
:103FF0009BFD14494FF40050086001BD0F4908783B
:10400000002808BF04F067BD04F06FBD0B490878B5
:10401000002808BF04F069BD04F05DBD07490878B9
:10402000002808BF04F06BBD04F06CBD034908789C
:10403000002808BF04F066BD04F061BDAF2EFF1F6D
:10404000C0F00F40C4F00F4080B504F072FDBDE831
:10405000014004F074BD000001008268521C8260BF
:10406000426832B10268531C036011704168491EF6
:104070004160704700F10103810704D010F8011B73
:10408000820781B1FAD10268A2F10131914311F0A6
:10409000803104BF50F8042FF6E709BAB1FA81F174
:1040A00000EBD100401CC01A70472E0018490020B8
:1040B0004860704716487047008815490880704767
:1040C000FEB500F065F80024F0B100F064F8684631
:1040D00000F0B9F8684600F073F90D4E05467068B7
:1040E000A84211D0684600F07FF977783278C7EBA4
:1040F00007114FF46163890013FB021282423FBF34
:10410000801A062875600124204603B0F0BD000027
:10411000802FFF1F10B504F0A1FD441EA44104F040
:10412000F3FDE44300EAD474601E8041C043C00F35
:1041300010BD104870470F48007870470D49087847
:10414000002818BF04F0ACBD70470A490878002861
:1041500018BF04F0FBBD704706490878002818BF57
:1041600004F09EBD704703490878002818BF04F08A
:10417000EDBD70471F06FF1F80B504F094FDBDE83C
:10418000014004F0E6BD43009F49012008707047DC
:104190009D48007870479C4933E19C48417801294B
:1041A00001D1012070470020704778B59848994E9A
:1041B00083B0016841F0005101600025306920F4AE
:1041C00070503061304604F06BFFC00715D568466B
:1041D00004F00EFF6946304604F0D2FE306940F428
:1041E000807030610024306920F40070306100F08C
:1041F0006FF886490D70012016E004F0A1FF41F22E
:1042000010010068884204D100F062F87F490D7007
:1042100000E00125706940F0100070614FF400412A
:104220007D48016000202C467849487008213046BE
:1042300004F01EFF24B904F083FF41F21001016075
:10424000284604B070BD1CB504466946714804F0A8
:10425000F9FEA2E07CB501886E4DADF800104FF478
:10426000004682788DF802200124C1786B4A8DF8CF
:10427000031001798DF8041041798DF805108079CB
:104280008DF80600686920F0100068611660BFF3C1
:104290004F8FBFF36F8F6946284604F0BBFE18B1FD
:1042A000002400BF5EA008E058490C7004F048FFED
:1042B0004FF6FF72026000BF60A0FEF709FF686959
:1042C000554940F0100068610E60204676BD000040
:1042D000E0B540F2E2710C22ADF800108DF802203A
:1042E0001F210F228DF803108DF8042019210022C0
:1042F0008DF805108DF806206846FFF7ABFF012802
:1043000006D100BF52A0FEF7E3FE012003B000BDBE
:1043100054A0FEF7DDFE002003B000BD3D4804F0D0
:10432000A0BE000030B587B004460D460DF1140064
:10433000FFF789FF9DF81A009DF819109DF81730B6
:104340004EA2049003919DF81800BDF8141002903D
:10435000019129469DF8160000902046FFF796FB34
:1043600007B030BD78B50C4685B01146827904920D
:104370004379039302790292B0F800503FA201956D
:1043800086780096C3782046FFF780FB06B070BDA4
:104390001CB50C46694604F087FD9DF80300E070EB
:1043A000BDF8001021809DF80200A0709DF8040067
:1043B00020719DF8050060719DF80600A07113BD85
:1043C000E0B50188ADF8001082788DF80220002257
:1043D000C1788DF80310ADF804208DF806206846EA
:1043E00004F025FD03B000BD90F805C00279807986
:1043F000CCEB0C114FF46163890013FB021210180F
:1044000070470020087070470F30FF1F1C06FF1F09
:104410003C80044000D0034004E100E084E100E07F
:104420000A446174652054696D652056616C696445
:10443000697479204572726F720000000A2052542C
:1044400043205365742053756363657373000000E4
:104450000A44656661756C74205254434320536569
:10446000740000000A44656661756C742052544300
:104470004320536574204552524F52002530326418
:104480002D253032642D2530346420253032643AB5
:10449000253032643A25303264000000DFF85803DA
:1044A00000787047DFF854037047000070B52DEDB9
:1044B000028B00F0E5FADFF8485330B1FFF72EFF2A
:1044C0006860A86D40F00200A86500F0DBFA30B12A
:1044D000FFF724FFA860A86D40F00400A86500F075
:1044E000D3FA30B1FFF71AFFE860A86D40F008007A
:1044F000A86501F0D1FFDFF800436078014600EEC7
:10450000901AF8EE600AB4EE600AF1EE10FA0ED5D9
:10451000A86DC0F3001000BB0FF2F020FEF7D8FD2D
:10452000FFF7FCFE2861A86D40F0100014E0801C2D
:1045300000EE900AF8EEE00AF4EE400AF1EE10FA0E
:104540000BD595F85800C10607D50FF2D820FEF715
:10455000BFFDA86D20F01000A865002003F0FAF858
:10456000B0EE408A03F0F9F8064696ED000AB4EE84
:10457000480AF1EE10FA1FD5A86DC0F34010D8B963
:104580000FF2BC20FEF7A4FD0320B0EE480AFEF7B0
:10459000C1FD0FF2C420FEF79BFD032096ED000A3B
:1045A000FEF7B8FD9748FEF793FDFFF7B7FE686189
:1045B000A86D40F02000A86500F038F820780328A6
:1045C00031D8DFE800F002042713012120E0A86DB4
:1045D00048B300F04DF8AE6D0FF2C420EE65FEF763
:1045E00077FD3046FEF77FFD03201BE0E96DA86DE7
:1045F00081420AD000F03CF8AE6D00BFA8A0EE6585
:10460000FEF766FD3046FEF76EFDA86D58B9022133
:10461000217008E0FEF73DFE02281CBF0021FEF7D6
:1046200045FE01202070BDEC028B70BD10B501F07D
:10463000A2FE78B1724CA06DC0F3801050B900BFDB
:104640008AA0FEF745FDFFF769FEA061A06D40F06E
:104650004000A06510BD6A49886D81B0009020F0CF
:104660008000401E009A8A658041C00F01B07047EB
:1046700080B56349886D009030F4186000988865B3
:104680000DD000F023FC0E2818BF002805D0002014
:10469000FEF789FE0B2000F015FC012002BD002072
:1046A00002BD10B501F057F901280FD101F05BF9F7
:1046B000534CFFF733FEE062A06D40F40060A0654C
:1046C0000120FEF770FE5048FEF702FDFEF76EFE79
:1046D000BDE81040FEF7DABD70B505464FF6FF7035
:1046E0008542474C02D0280002D10020A06570BD51
:1046F0002E46112E03DAFFF711FE44F826000121A1
:10470000A06D01FA05F50543A56570BD4FF6FF7371
:1047100098423B4906D08A6D012303FA00F022EA51
:10472000000000E000208865704710B5344C94F814
:104730005800810705D500F0A9F9A06D20F002000E
:10474000A06594F85800410705D500F0A6F9A06DC2
:1047500020F00400A06594F85800010705D500F08A
:10476000A3F9A06D20F00800A06510BD10B5244C81
:10477000A06D90B1FFF7D9FF43A0FEF7A9FCA06D93
:10478000800900F00100FEF7AEFC94F858004106E5
:1047900048BF01F0F5FD0020A06501211648017019
:1047A00010BD10B5164CA06D28B1FFF7BEFFA06D6F
:1047B00020F01000A06501200F49087010BD1048BE
:1047C000806D704710B50E48846D3CB134A0FEF783
:1047D0007FFC2046BDE81040FEF785BC10BD0848B0
:1047E000806D000A00F0010070470548816D481E89
:1047F0008041C043C00F70470630FF1F0730FF1FC6
:10480000CC2AFF1FDC650100A86301000A204C6F61
:104810007720566F6C7461676520446574656374B6
:1048200065642E000A204261747465727920566FA7
:104830006C74616765204E6F726D616C2E000000B4
:104840000A43757272656E742054656D706572618D
:10485000747572652D2D3E000A5365742054656D84
:1048600070657261747572652D2D3E000A2042617B
:104870007474657279204661756C74204465746542
:10488000637465642E0000000A436865636B436CC3
:10489000656172426174746572792D2D3E0000006D
:1048A0000A204572726F7220436F6465203A0000DF
:1048B000704760487047000010B55E4C5FA20B2146
:1048C0002046FFF7E3F800BF5EA20B2104F10B00C6
:1048D000FFF7DCF804F11600BDE810405BA20B21E5
:1048E000FFF7D4B810B5FFF715F802E010B5FFF7E1
:1048F00013F8044600F024F864202073607310BDA0
:1049000010B5FEF74CFC044600F01AF86420207342
:104910006073BDE81040E5E710B5FEF743FCE8E73B
:1049200080B5FFF7FDF802E080B5FFF7FCF84FF423
:10493000FA6101604FF47A7264234260037201BD30
:10494000052101604FF4FA626421017341734FF451
:104950007A734621426083608173C173704780B56A
:1049600000F0D6FA19214160016001BD80B5FFF762
:10497000A1FB002101700122427001BD80B5FFF74B
:104980001BFBFFE70021017001BD80B500F062F85C
:104990004FF4FA71016040F6B832012343F69821D2
:1049A000C2608360416001BD80B500F05DF8B0EE8B
:1049B000000A80ED000A80ED010A80ED020A01BDC7
:1049C000704780B5FFF76EFD3221017001BD80B5E3
:1049D000FFF783F802E080B5FFF7ABFB0121017020
:1049E00001BD0020FEF758BC80B500F0E8FF0121B2
:1049F000017040F6B83205230F4942608360C16000
:104A000001BD000080B5FFF787FF04F0B9FB00216E
:104A1000017004F021FC0022027000BF02F09DFE34
:104A20009FED030A80ED000A80ED010A01BD000040
:104A30000000C842582DFF1F905F010046464646C1
:104A400046000000302E315600000000534C30303C
:104A5000300000000848704730B4074991E83C0036
:104A600080E83C0030BC704704487047034991EC33
:104A7000030A80EC030A7047002FFF1F502FFF1F0F
:104A800004F046BC04F0DCBC04F06EBD80B504F05C
:104A900042FCBDE8014004F042BC80B504F0D3FC08
:104AA000BDE8014004F0D3BC80B504F060FDBDE872
:104AB000014004F060BD80B502F0ACF804F030FCB9
:104AC00004F0C6FCBDE8014004F056BD80B504F01A
:104AD00096FC04F028FDBDE8014004F0B8BD80B5A7
:104AE00002F098F802F096F802F094F8BDE8014060
:104AF00002F044B980B510EE101A21F000402DEDFF
:104B0000028BB0F5000F82B0B0EE608A06D20021B1
:104B1000009160B1684604F0BBFD08E0C00D21F0D3
:104B2000FF417E3841F07C51009000EE101A20EEDB
:104B3000080A10EE102A22F00041009BC80D1B1835
:104B4000D0B1002B18DDFF2B0CDB10EE101A02B0D9
:104B50004FF0FF4001F000410843BDEC028B00EE36
:104B6000100A01BD02B022F0FF4242EAC352BDEC7E
:104B7000028B00EE102A01BD11B1009804F0ACFDCB
:104B800002B0BDEC028B01BD38B52DED028B0400E7
:104B900082B00D4600F0C78010EE100A410000F010
:104BA000C28010EE101A48000016401C02D14902C3
:104BB00000F0B980002CB7EE008A6CD5644200BFCB
:104BC000AFA1052008E0E20744BFD1ED000A28EEBE
:104BD000208A6408091D401E002C18BF0028F2D14D
:104BE00010EE101A21F00040B0F5000F06D200219F
:104BF000009160B1684604F04BFD08E0C00D21F063
:104C0000FF417E3841F07C51009000EE101A80EE9A
:104C1000080A10EE102A22F00041009BC80D1B1854
:104C2000A0B1002B12DDFF2B09DB10EE101A4FF0A4
:104C3000FF4001F00041084300EE100A0AE022F0B4
:104C4000FF4242EAC35200EE102A03E011B100987D
:104C500004F042FD10EE100A410051D010EE101A7F
:104C600048000016401C01D1490249D0002C47D011
:104C7000DFED7A0AFFF73EFF10EE100A41003FD049
:104C800010EE101A48000016401C01D1490237D01E
:104C9000641EEDD134E033DD79A10520E20744BF85
:104CA000D1ED000A28EE208A6410091D401E002C58
:104CB00001DD0028F2D1F0EE480AFFF71BFF10EEED
:104CC000100A41001CD010EE101A48000016401CBB
:104CD00001D1490214D0002C12DDDFED610AFFF78B
:104CE00009FF10EE100A41000AD010EE101A480019
:104CF0000016401C01D1490202D0641E002CECDCDD
:104D000010EE100A410007D010EE101A48000016ED
:104D1000401C08D1490206D1AFF300801DB12868BC
:104D200040F00100286002B0BDEC028B31BD0000F4
:104D30002DE9F14183B01D001CBF00202860039EB7
:104D40000F46904603A804F029FDC41020F0080087
:104D5000012804F0010424D1009001AB03993A46E4
:104D6000304604F0ADFD10B99FED3E0A15E09DED13
:104D7000020A0128B8EEC00A0FDD03A9401EDFEDCC
:104D80003A0A51F8042BB0EE401A00EE102AB8EEA1
:104D9000C00A401E01EE200AF3D101982946404482
:104DA00047E0022848D10120009001AB03993A4620
:104DB000304604F061FE10B99FED2A0A15E09DED22
:104DC000020A0128B8EEC00A0FDD03A9401EDFED7C
:104DD000270A51F8042BB0EE401A00EE102AB8EE64
:104DE000C00A401E01EE200AF3D110EE103A019ADB
:104DF00023F00041C80D02EB000714D0002F12DD94
:104E0000FF2F09DB10EE101A4FF0FF4001F00041B8
:104E1000084300EE100A0AE023F0FF4343EAC753B9
:104E200000EE103A03E011B1104604F055FC29469B
:104E30004046FFF7A9FE0AE0032808BF9FED0C0AD1
:104E400005D004280CBF9FED0B0A9FED060A0CB19C
:104E5000B1EE400A04B0BDE8F08100001EB14F0A77
:104E6000AEC59D7400000000286B6E4E0000804DA2
:104E70000000807FFFFFFF7F0023002258E7000033
:104E8000000020410000C84200401C4620BCBE4C2F
:104E9000CA1B0E5AAEC59D7480B504F0F1FE04F035
:104EA0008DFFFEF715FE012002BDF0B490E8FC0076
:104EB000DFF86C1881E8FC000879DFF86818C8761C
:104EC000F0BC7047DFF85C1808767047DFF85408CC
:104ED000007E704738B504F02BFF054604F0C6FF8E
:104EE0000324032D12D8DFE805F008080205032883
:104EF0000CD004E0022809D005E0022801D10024EA
:104F000004E0032801D1012400E00224204632BD40
:104F100001E0000000BFDFF810087047F8B5DFF8C7
:104F20000C08DFF80C4890E8EE1084E8EE1001F071
:104F3000B3FA84ED030AFFF7F1F96060FFF73FFC75
:104F4000A061F1BDDFF8E80770470000F8B5DFF8B1
:104F5000D4472DED028B207E0F2800F20B83DFE873
:104F600010F010001E001B02260149018B01F901FF
:104F7000170233024802A302C502C702E302090373
:104F800028000021A162E16201F0A0FD94ED0A0A6F
:104F900004F0D7FE94ED0B0A04F071FFEAE2012160
:104FA000032002F0E5FBFEF774F90146022002F04F
:104FB000DFFB0220A076607604F0E2FE00EE100A2D
:104FC000B8EE400A84ED0A0A04F078FF00EE100AF9
:104FD000B8EE400A84ED0B0A0FF62800FEF778F8C9
:104FE000032094ED0A0AFEF795F84BA0FEF770F83F
:104FF000032094ED0B0AFEF78DF80020A083FFF745
:1050000069FFE17E020000F08E80012840F086807A
:10501000002900F08B80FEF704FD80B901F05DFDF2
:1050200008B1FFF77BFFDFF80457FFF777F9286037
:1050300001F032FA002085ED020A2861686101F072
:105040003EFDDFF8DC0690E8EE0084E8EE00DFF8D5
:10505000E4562846FEF73CF80FF2F460FEF738F805
:105060002068FEF740F80FF2FC60FEF731F8207977
:10507000FEF739F80FF20470FEF72AF894ED020AF1
:105080000320B8EE400AFEF745F80FF20870FEF76D
:105090001FF8E068FEF727F80FF20870FEF718F81F
:1050A0002069FEF720F80FF20C70FEF711F8A07DD2
:1050B000FEF719F80FF21070FEF70AF8207DFEF7E0
:1050C00012F80FF21870FEF703F8E07DFEF70BF808
:1050D0000FF21C70FDF7FCFF607DFEF704F894ED05
:1050E000000AB8EE408A01F0F8FC00EE900A94ED58
:1050F000020AF8EE600AB8EE400A78EE600AB4EEF2
:10510000600AF1EE10FA18DB01F0E7FC00EE100A7D
:10511000B8EE408A13E000BF202C200003287FF463
:105120007AAF080002D001297FF475AF0120022177
:105130002077217601F0C3FC1CE238EE408A0FF2A2
:105140006C70FDF7C5FF0320B0EE480AFDF7E2FFE3
:10515000207984ED0D8A010002D1FEF7FDFF03E006
:10516000012815D1FEF7FFFF28B105F12800FDF752
:10517000AFFF0B20FDE1207950B9022004F0DBFDE8
:10518000022004F076FE0120FEF7AAFC0320F0E1E5
:105190002079012840F0EE81032004F0CCFD0320AB
:1051A00004F067FE0020FEF79BFC0320E1E104F021
:1051B000C5FD054604F0BCFD854240F0DB8104F0EE
:1051C0005BFE054604F052FE854240F0D381FFF7B6
:1051D00081FE20B1FFF77EFE012840F0CB81FEF773
:1051E000B4FC062804D0FEF7B0FC0F2840F0C281C2
:1051F0000420BEE194ED0D8A01F06FFC00EE100A70
:10520000B8EE400AB4EE480AF1EE10FA03DB0220D1
:105210000821A0762176B3EE048A94ED0A0AB4EE52
:10522000480AF1EE10FA05D584ED0A8AB0EE480A74
:1052300004F09AFD94ED0B0AB4EE480AF1EE10FA70
:1052400005D584ED0B8AB0EE480A04F02BFE002051
:10525000A076052121760FF2C050FDF739FF03201B
:1052600094ED0A0AFDF756FF8EA0FDF731FF0320EB
:1052700094ED0B0AFDF74EFFFEF70BF8022809D15B
:10528000FEF711F8032803D0FEF70DF8072801D127
:10529000FFF707FAA07E010035D104F071FD217DF2
:1052A000081A00EE100AB8EEC00AB5EE400AF1EE98
:1052B00010FA9FEDC08A07D4E06828B100EE900A8A
:1052C000F8EE600A80EE208A84ED088A04F0F6FD8C
:1052D000617D081A00EE100AB8EEC00AB5EE400A69
:1052E000F1EE10FA9FEDB38A07D4E06828B100EE22
:1052F000900AF8EE600A80EE208A012084ED098A87
:105300002063A07614E0022812D10FF21C50FDF7A2
:10531000DFFE032094ED0A0AFDF7FCFE61A0FDF715
:10532000D7FE032094ED0B0AFDF7F4FE062020764D
:1053300094ED0D8A01F0D1FB00EE100AB8EE400AA0
:10534000B4EE480AF1EE10FAC0F214810220A07601
:105350000821C9E0FDF79DFF022809D1FDF7A3FF51
:10536000032803D0FDF79FFF072801D1FFF799F924
:1053700094ED0D8A01F0B1FB00EE100AB8EE400A80
:10538000B4EE480AF1EE10FAC0F2F4800820F0E022
:10539000012100206177207702210820A176207664
:1053A00004F0EEFC00EE100AB8EE400A84ED0A0AA2
:1053B00004F084FD00EE100AB8EE400A84ED0B0AFA
:1053C0000FF27840FDF784FE0020607609212176F7
:1053D0000FF27C40FDF77CFE032094ED0A0AFDF7F6
:1053E00099FE75A0FDF774FE032094ED0B0AFDF7FE
:1053F00091FE607E010035D104F0C2FCA17D401A0F
:1054000000EE100AB8EEC00AB5EE400AF1EE10FA4E
:105410009FED688A07D4206928B100EE900AF8EE63
:10542000600A80EE208A84ED088A04F047FDE17D61
:10543000401A00EE100AB8EEC00AB5EE400AF1EECE
:1054400010FA9FED5C8A07D4206928B100EE900A1B
:10545000F8EE600A80EE208A012084ED098A20633C
:10546000607687E0022840F08580207F01281CBFFD
:10547000607F012803D1002161770C2079E00FF2D1
:10548000E430FDF725FE032094ED0A0AFDF742FE05
:1054900049A0FDF71DFE032094ED0B0AFDF73AFE2F
:1054A0000A2066E0202C0000FDF7F3FE022809D157
:1054B000FDF7F9FE032803D0FDF7F5FE072801D11B
:1054C000FFF7EFF801F009FB00EE100A206840003A
:1054D00000EE900AF8EE600AB8EE400AB4EE600AF8
:1054E000F1EE10FA46DB0C21217643E00020207714
:1054F0000FF28C30FDF7ECFD0020A062E0629FED22
:105500002D0A04F01EFC94ED0B0A04F0B8FC0120F7
:1055100004F011FC012004F0ACFCFEF7FCFA0220C0
:10552000A07660760D202076FEF70FFB0D2803D0C5
:10553000FEF70BFB0F281DD101F0C8FA01F0CFFADE
:105540007A4D29694018286101F0CBFA6969401841
:105550006861FFF7E3FC0821032002F009F9207FCE
:10556000012803D1002121770F2002E001F0B5FAD4
:105570000E20207604F086FB04F022FCFEF7FCFAF5
:10558000207EA0B10B38032811D9FFF7A3FC01003E
:1055900002D1FEF7E1FD03E0012808D1FEF7E3FDAB
:1055A00028B100BFB9A0FDF793FD0C202076BDEC1B
:1055B000028BF1BD00000000202C200070B5594C7A
:1055C000A07E012853D1206B401E206340F0A780AD
:1055D000207DD4ED080A0025F5EE400A00EE100A01
:1055E000F1EE10FAB8EE400A11D094ED0A1A71EEFD
:1055F000200AB0EE601AB4EE401AF1EE10FA06DAA4
:1056000084ED0A1AB0EE600A04F0AEFB04E084ED0B
:105610000A0A04F0A9FB0125607DD4ED090A0026E1
:10562000F5EE400A00EE100AF1EE10FAB8EE400A6C
:1056300011D094ED0B1A71EE200AB0EE601AB4EEA0
:10564000401AF1EE10FA06DA84ED0B1AB0EE600A99
:1056500004F028FC04E084ED0B0A04F023FC01268E
:1056600035425AD0002102202163A07670BD607EB1
:10567000012854D1206B401E206350D1A07DD4ED71
:10568000080A0025F5EE400A00EE100AF1EE10FAC5
:10569000B8EE400A11D094ED0A1A71EE600AB0EE2D
:1056A000601AB4EE410AF1EE10FA06DA84ED0A1A35
:1056B000B0EE600A04F058FB04E084ED0A0A04F03E
:1056C00053FB0125E07DD4ED090A0026F5EE400AE2
:1056D00000EE100AF1EE10FAB8EE400A11D094ED87
:1056E0000B1A71EE600AB0EE601AB4EE410AF1EEE8
:1056F00010FA06DA84ED0B1AB0EE600A04F0D2FB61
:1057000004E084ED0B0A04F0CDFB0126354204D001
:10571000002102202163607670BD0121216370BDEC
:10572000442EFF1FD004FF1FC82FFF1FD82DFF1FBF
:10573000F42DFF1FD45B010080B5FFF73FFF04F09D
:105740002CFB04F0C8FBBDE80140FEF741BB0000A4
:105750000A2054617267657420436F756E74203A35
:10576000200000000A205461726765742044697249
:10577000656374696F6E203A200000000A2044655A
:1057800063656C204469666620436F756E74203AC9
:10579000200000000A20416363656C2054696D6538
:1057A000203A20000A20446563656C2054696D65C9
:1057B000203A20000A20417070726F6163682050A7
:1057C000574D31203A2000000A20537465616479F6
:1057D0002050574D31203A20000000000A2041702F
:1057E00070726F6163682050574D32203A2000007C
:1057F0000A205374656164792050574D32203A2055
:10580000000000000A20526F626F742053746172AE
:1058100074203A20000000000A20416363656C2078
:105820005374617274203A000A20416363656C20EE
:10583000436F6D706C657465643A20000A204D6F8B
:10584000746F72204E6F726D616C2053746F7000B4
:105850000A20446563656C2053746172746564202A
:105860003A2000000A20417070726F616368204323
:105870006F756E74205374617274203A00000000DA
:105880000A20526F626F7420456E64000A20526FC6
:10589000626F7420456467652053656E736F722074
:1058A0004465746563746564000000000A20446503
:1058B00063656C20537461727420436F756E74203D
:1058C0003A00000013B53F4909780446012039B970
:1058D000FAF7A3FDBDF80430224600F0A7F916BD83
:1058E000012905D1BDF80410204602F085FA16BD45
:1058F000022908D101A9204602F018F8BDF80410C9
:10590000204604F025FB16BD38B503460C460120A1
:105910001900154608D1FAF780FD2B46224601B042
:10592000BDE8304000F082B9012B05D12946204660
:10593000BDE8344002F060BA022B05D1294620466A
:10594000BDE8344004F004BB32BD1E480078704707
:105950001C49087070471C480179012901D1007861
:10596000704700207047184900200870704716499A
:1059700018B901200870002001E000220A70486177
:1059800070471149486990B1401E002848610CDCFD
:105990008869401E88610028C4BF8868FFF7E7BF98
:1059A0000120087000224A61704700220A70704787
:1059B0000548C2688261002141618068D7E70348D9
:1059C000704700001E06FF1FA02DFF1FA42DFF1F04
:1059D000DFF87803704710B5DFF874430FF2BD109D
:1059E0000FF239216060A1600022DFF86803DFF860
:1059F0006813E0602161E261DFF86003DFF86013A3
:105A00006061A161201D002104F0BAFB28B90FF2EA
:105A10001440FDF75DFB002004E00FF22040FDF78D
:105A200057FB0120E07010BDDFF82403C178012985
:105A300008BF04F0C9BB4FF0FF300146704710B5F6
:105A4000DFF80C43207898B9206AB0F5FA6F0FD3CD
:105A500004F02DFC401E8041C043C00F2070002187
:105A60002078216220B10020FDF7F1F9FEF7AAFEAF
:105A7000207810BD78B5B64CE078012889B040F0A8
:105A80008A80FFF7DCFF012808BF04F03BFC94F993
:105A9000020010F1010F08D0401E8041C043C00F2A
:105AA00004F0FFFB4FF0FF30A0706078002872D048
:105AB000A64D287860B12846FDF71BFE04F087FB51
:105AC00010B90FF2E8305BE00FF2FC30FDF700FB9D
:105AD000687CB0B12021ADF800106A4601A905F13B
:105AE0001100FDF7B8FD012804D1BDF8001001A890
:105AF00004F09BFB08B99B4842E00FF2E030FDF751
:105B0000E7FA15F8521F89B1687810B9302069702A
:105B1000287069782878FDF76AFD04F0ADFB08B9B4
:105B200091482DE00FF2D030FDF7D2FAE87868B155
:105B30003038401E8041C043C00F04F087FB08B9D5
:105B40008A481DE00FF2D030FDF7C2FA287978B10B
:105B50003038401E8041C043C00F04F03FFB814EEF
:105B600010B906F170000BE006F19C00FDF7B0FAE9
:105B7000687968B131280BD104F08EFB20B97C48DC
:105B8000FDF7A6FA0AB070BD0FF2AC30FDF7A0FA2F
:105B90000020207060700AB070BD00000FB470B5B6
:105BA000B6B000BFABA0FDF793FABDF8F0109DF8BA
:105BB000F800BDF8F2606F4A0291DDE93A4500282D
:105BC000DDE93A01009114BF0FF2A4230FF2AC23D8
:105BD00003960194C82104A8FDF758FF04A8FDF717
:105BE00077FA00BFA7A0FDF773FA00BFA7A0FDF7E3
:105BF0006FFADDE93A013D9A334604F055FC36B0C0
:105C000070BC5DF814FB80B504F0B7FA5048016A27
:105C1000491C016201BD04F063BA000080B504F0C4
:105C2000FEFB401E8041C00F02BD00002DE97847F9
:105C3000894647490E7880460020012E17D100245E
:105C400092461E4602E0761BB6B2641976B1B6F5EE
:105C5000807FA0B2B4BF3546FF250AEB00022B4679
:105C60004046494604F026FB0128ECD030B900BF7D
:105C700088A0FDF72DFA0120BDE872870020BDE85D
:105C80007287334948707047314988707047000007
:105C900010B5044684B00020207520706074E07553
:105CA000A07602A804F0BBFA10B900BFAAA03EE09B
:105CB0001120ADF800006B46DDE902012246FDF738
:105CC0003BFD0DF1050004F0E1FA00283CD0032073
:105CD000ADF800006B469DF8050004F111020021AB
:105CE000FDF72AFD01A804F0BBFA08B9A2A01EE046
:105CF0009DF804100320ADF800003031002020761C
