:1000000090FFFF1F59D60100338100009F8100003F
:10001000FB8900008B9B0000FBAD0000000000008E
:10002000000000000000000000000000B7AE00006B
:1000300073AF00000000000073B000007FB100004B
:1000400025D901002DD9010035D901003DD9010084
:1000500045D901004DD9010055D901005DD90100F4
:1000600065D901006DD9010075D901007DD9010064
:1000700085D901008DD9010095D901009DD90100D4
:10008000A5D9010075DA010075DA010075DA010001
:1000900075DA010075DA010075DA010075DA010020
:1000A000ADD90100B5D90100BDD90100C5D9010004
:1000B000CDD90100D5D9010075DA0100DDD90100E3
:1000C000E5D90100C5DD0000EDD90100D90C010022
:1000D000F5D90100FDD9010005DA0100A7B1000042
:1000E00075DA010075DA010075DA010075DA0100D0
:1000F00075DA010075DA010075DA0100ED820000A1
:1001000075DA010075DA010075DA010075DA0100AF
:1001100075DA010075DA010075DA010075DA01009F
:1001200075DA010075DA0100EB7801006112010057
:1001300075DA0100A512010075DA010075DA010017
:1001400075DA01000DDA010015DA01001DDA01008F
:100150004907010025DA010075DA010075DA0100AE
:1001600075DA0100BFB100002DDA010035DA0100B7
:100170003DDA010045DA01004DDA010055DA0100EF
:100180005DDA010065DA010075DA010075DA010057
:1001900075DA010075DA010075DA010075DA01001F
:1001A00075DA010075DA010075DA010075DA01000F
:1001B00075DA010075DA010075DA010075DA0100FF
:1001C00075DA010075DA010075DA010075DA0100EF
:1003F00075DA010075DA010075DA0100FFFFFFFF11
:10040000FFFFFFFFFFFFFFFFFFFFFFFFFEFFFFFFFD
:10041000DFF8802DC2E900017047DFF8780DD0E9E0
:10042000000170471CB504460FF2480006F040F981
:10043000204606F03DF96946204602F0FBFC040028
:1004400015D19DF8000008B90A2002E0012802D168
:10045000092006F05BFB0FF2340006F029F99DF845
:10046000000006F030F90FF2340006F021F92046C2
:1004700016BD00000D0A496E2050726F63657373DC
:100480005365744D6F64652D3E0000000D0A4D6F7D
:100490006465207365742061732000000D0A302D9F
:1004A0003E4155544F2C20312D3E4D414E55414C2F
:1004B000200000002DE9F8410446DFF8008C83B0ED
:1004C000404606F0F5F8204606F0F2F802232C220A
:1004D00001A9204606F0D0FB0646DFF8BC0C06F06A
:1004E000E7F8012E0BDB01AF3446B8A557F8040B33
:1004F00006F0DEF8284606F0DBF8641EF6D1022E80
:1005000071D1019B187860B10A220021184606F0CB
:1005100001FD044606F000FD08B1009401E000244E
:1005200000E0012406F0E8FD064606F0E7FD076856
:1005300014B908F1240046E03068022845D00020B4
:1005400006F05BFA9DF80000401E062831D8DFE86F
:1005500000F004090E1A1F242900022006F0D6FA22
:10056000002024E0032006F0D1FA00201FE0042040
:1005700006F0CCFA012006F01AFEDFF8201C01205C
:100580000870002013E0052006F0C0FA00200EE0FD
:10059000062006F0BBFA002009E007F025F906F076
:1005A000CBFE06E0DFF8580D7F1C0770012006F037
:1005B0001EFA0FF2400006F07BF89DF8000006F0EE
:1005C00082F808F14C0006F073F80FF2280006F0EC
:1005D0006FF89DF8000006F076F808F14C0006F080
:1005E00067F8002404E008F1900006F061F80324A5
:1005F00020463EE30A204D616E75616C204D6F64AC
:10060000652053657456616C7565203A20000000C2
:1006100078B50546ABB00FF2502006F049F82846F1
:1006200006F046F806F0A2F8044606F0B9FD0646C4
:1006300009A82146242207F0ADF909A9284602F0AD
:10064000F3FA050025D1204609A9242207F0A2F9D2
:10065000304609A9242207F09DF9E069DFF8A42CAF
:100660000890617D0791207D0690E17C0591A07C3A
:100670000490617C0391207C0290E16801916421E7
:100680006068009012A8236807F0C8F912A806F065
:100690000FF828462CB070BD2DE9F847044683B00A
:1006A000DFF8640C06F004F8204606F001F8DFF8E5
:1006B0005C0C05F0FDFF204605F0FAFF03232C2219
:1006C0006946204606F0D8FA8046DFF8CC0A05F0E5
:1006D000EFFF0025B8F1010F0BDB6E4644463BA748
:1006E00056F8040B05F0E4FF384605F0E1FF641E00
:1006F000F6D1B8F1030FDFF8184C40D1009B187801
:100700004FF0010880B10A220021184606F002FCD1
:10071000461EB641F643F00F06F03DFC10B14FEA1D
:10072000D67A01E0002600E00126019B187878B116
:100730000A220021184606F0EDFB471EBF41FF4389
:10074000F80F06F028FC002814BF4FEAD779A84616
:1007500026B904202070DFF8BC0B02E02570DFF81A
:10076000B80B05F0A5FFB8F1000F04D104206070AC
:10077000DFF8A00B05E06570DFF89C0B01E0DFF807
:10078000D40C05F095FF207860B90FF2440005F015
:100790008FFF5FFA8AF005F096FF07F066F980F8A0
:1007A00000A000E00425607860B90FF2400005F079
:1007B0007FFF5FFA89F005F086FF05F0B7FF80F84C
:1007C000009000E0042500F0DEBC00002C000000DA
:1007D0000D0A4272757368206D6F746F72207374A6
:1007E0006174652073657420617320000D0A4C6983
:1007F0006E656172206D6F746F72207374617465C1
:1008000020736574206173200000000070B50546F8
:10081000A0B00FF2540005F04BFF284605F048FF4A
:1008200007F046F9044694E84E0003A880E84E001D
:1008300003A9284602F096F9050013D103A890E811
:100840004E0084E84E000296207ADFF8842D019055
:1008500007A8616800916421236807F0DFF807A802
:1008600005F026FFCCE000000D0A496E2050726FA3
:10087000636573735365744D6F746F7250574D4D4C
:10088000616E75616C2D3E001CB504460FF234009C
:1008900005F00EFF204605F00BFF6946204602F0EA
:1008A000C9FA04000CD10FF23C0005F001FF9DF8DD
:1008B000000005F008FF07F045FB9DF800100170EF
:1008C000204616BD0D0A496E2050726F6365737322
:1008D0005365744272757368446972656374696FB5
:1008E0006E2D3E000D0A4272757368206D6F746F35
:1008F0007220646972656374696F6E207365742019
:100900006173200030B50546ADB00FF27C0005F0F4
:10091000CFFE284605F0CCFE06F044FC044624A891
:100920002146242207F036F824A9284602F07CF953
:10093000050026D1204624A9242207F02BF8DFF851
:10094000940CDFF88C2D416E0A91206A0990E169C0
:100950000891607D0790217D0691E07C0590A17C47
:100960000491607C0390217C0291E06801900BA8C7
:10097000616800916421236807F050F80BA805F026
:1009800097FE28462DB030BD0D0A496E2050726F7B
:10099000636573735365744D6F746F7250574D4137
:1009A00075746F2D3E00000070B50546A0B00FF2C3
:1009B000580005F07DFE284605F07AFE07F07BF82A
:1009C000044694E84E0003A880E84E0003A9284698
:1009D00002F0C8F8050013D103A890E84E0084E89F
:1009E0004E000296207ADFF8682C019007A8616813
:1009F00000916421236807F011F807A805F058FE5C
:100A0000284620B070BD00000D0A496E2050726F5C
:100A100063657373536574427275736850574D41C3
:100A200075746F2D3E0000002DE9F84F0446DFF885
:100A3000A49CA4B0484605F03BFE204605F038FED5
:100A4000DFF8940C0168491C016014232C226946CC
:100A5000204606F011F9054609F1240005F028FEAC
:100A6000012D0CDBEB462C460FF238385BF8040BFB
:100A700005F01EFE404605F01BFE641EF6D1142D47
:100A800043D107F0B1FA0DF15206EA4613240FF2F2
:100A90008C0B0FF29408DAF800000278417802EB30
:100AA000820301EB4301A1F11005C1788078EDB21A
:100AB00000EB8002404601EB4201A1F1100705F076
:100AC000F7FD284605F0FFFD584605F0F1FDFFB2A1
:100AD000384605F0F8FD182DB8BF3C2F0ADA3570FE
:100AE000B77707F081FA14A807F084FA00250FF20F
:100AF000440002E0042509F14C0005F0D9FD761C04
:100B0000641E0AF1040AC6D104E00FF2440005F0A5
:100B1000CFFD0325284625B0BDE8F08F0D0A4D69AD
:100B20006E7574652D2D3E000D0A486F75722D2D62
:100B30003E0000000A204175746F2074696D6520C5
:100B400053657456616C75652F732053657400008E
:100B50000A204175746F2074696D65205365745661
:100B6000616C75652F7320496E76616C6964000055
:100B70002DE9F041044684B0DFF8800C05F098FDC3
:100B8000204605F095FDDFF8840705F091FD20462D
:100B900005F08EFD03232C2201A9204606F06CF8F7
:100BA0000646DFF8F40505F083FD0025012E0CDB79
:100BB00001AF34460FF2EC1857F8040B05F078FD3E
:100BC000404605F075FD641EF6D1032EDFF8304C6B
:100BD00028D1DFF8308C019842460DF1010102F076
:100BE000D4FE0126471E0298BF4142466946FF4394
:100BF00002F0CBFEFF0F00B9002627B904202070B9
:100C0000DFF8100702E02570DFF80C0705F050FD53
:100C100026B904206070DFF8FC0605E06570DFF897
:100C2000F80601E0DFF82C0805F042FD207868B9ED
:100C30000FF2440005F03CFD9DF8010005F043FD76
:100C400007F04DFA9DF80110017000E0032560786F
:100C500068B90FF2400005F02BFD9DF8000005F08B
:100C600032FD07F076FA9DF80010017000E00325D0
:100C7000284604B0BDE8F0810D0A4564676520731D
:100C8000656E736F72207374617465207365742070
:100C9000617320000D0A526F746174652073656E74
:100CA000736F72207374617465207365742061734F
:100CB000200000002DE9F841044695B00FF2E8004D
:100CC00005F0F6FC204605F0F3FC07232C2204A9CE
:100CD000204605F0D1FF0646DFF8280C05F0E8FCB9
:100CE0000025012E0CDB0DF1100834462DA758F815
:100CF000040B05F0DDFC384605F0DAFC641EF6D185
:100D000004ACA06807F0ECFAADF80000606807F0EA
:100D1000E7FA8DF80200049807F0E2FA8DF8030074
:100D2000079807F0DDFA8DF80400089807F0D8FA64
:100D30008DF80500099807F0D3FA8DF8060068468B
:100D400007F0ECFB072E23D1DFF8501CDFF82C2D29
:100D50000918914216D202A907F0C8FB28220BA954
:100D600002A807F0ADFB0BA805F0A2FC02A807F053
:100D700023FB68B107F038F9082006F023FD0FF2D5
:100D8000440002E004250FF2540005F091FC04E059
:100D90000FF2680005F08CFC0325284616B0BDE86C
:100DA000F08100002C0000000D0A496E2050726F87
:100DB0006365737353657452544356616C75652D46
:100DC0003E0000000A205254432053657456616C63
:100DD00075652F7320536574000000000A2052547B
:100DE000432053657456616C75652F73204F75747D
:100DF000206F662052616E67650000000A20525421
:100E000043202053657456616C75652F7320496EBD
:100E100076616C69640000002DE9F843044684B0F3
:100E20000FF2A400DFF8587C05F042FC204605F0E4
:100E30003FFC04232C226946204605F01DFF064690
:100E4000384605F035FC0025012E0CDBE84634461B
:100E50000FF23C3958F8040B05F02AFC484605F01F
:100E600027FC641EF6D1042E26D107F0DAFB0446D7
:100E7000009807F0A7FD20B1009A0B21204606F04C
:100E8000CDFD019F384607F09DFD28B13A460B2164
:100E900004F10B0006F0C2FD029E304607F092FD01
:100EA00028B132460B2104F1160006F0B7FD0FF20F
:100EB000340005F0FDFB04E007F1240005F0F8FB29
:100EC000032501F0A9BE00000D0A496E2050726F83
:100ED00063657373536574446576696365496E66CB
:100EE0006F2D3E000A2044657669636520496E6671
:100EF0006F2053657456616C75652F73205365744C
:100F0000000000002DE9F0472DED048B0446DFF8CA
:100F1000508C84B0404605F0CBFB204605F0C8FB62
:100F200006F0DCF8824604239AED008ADAED018AA5
:100F30009AED029A2C226946204605F09DFE054650
:100F4000DFF8200C05F0B4FB0026012D0BDBE94691
:100F50002C468FA759F8040B05F0AAFB384605F07C
:100F6000A7FB641EF6D1042D59D1009A107868B100
:100F70000021104607F06CFEF0EE409A05F0D2FF1B
:100F800010B1B0EE698A01E0002400E00124019A6A
:100F9000107850B10021104607F05AFEF0EE409A4A
:100FA00005F0C0FF10B1F0EE698A0120029A0440FA
:100FB000107850B10021104607F04AFEF0EE409A3A
:100FC00005F0B0FF10B1B0EE699A0120044205D1DE
:100FD00008F1240005F06CFB042625E008F154001C
:100FE00005F066FBCAED018A8AED029A8AED008A55
:100FF0000320B0EE480A05F07DFBC0A4204605F0B2
:1010000057FB03209AED010A05F074FB204605F01A
:101010004FFB03209AED020A05F06CFB04E008F197
:101020007C0005F045FB032604B0304602F0BCBD51
:101030002DE9FE4304460FF28800DFF8109C05F00E
:1010400037FB204605F034FB02232C22694620465C
:1010500005F012FE0646484605F02AFB0025012E43
:101060000BDBE84634464AA758F8040B05F020FB92
:10107000384605F01DFB641EF6D1022E16D109F18B
:10108000240005F015FB00981022002105F042FF16
:1010900005F019FB06F0FAFB044606F0A5FB06F086
:1010A0004BF944B1082006F08AFB04E009F148003E
:1010B00005F0FEFA032502F04CB80000F8BC010070
:1010C0000D0A496E2050726F63657373436C6561DE
:1010D000724572726F72436F6465732D3E0000003B
:1010E0002DE9F847044683B00FF2B400DFF8608BB7
:1010F00005F0DEFA204605F0DBFA06F027F9064691
:10110000022330788DF800002C2201A9204605F03A
:10111000B3FD0746404605F0CBFA0025012F0DDB55
:101120000DF104093C460FF2680A59F8040B05F06A
:10113000BFFA504605F0BCFA641EF6D1022F1DD14D
:10114000019B187848B10A220021184605F0E2FEFA
:10115000044605F0FDFE58B100949DF80000307083
:101160000FF2580005F0A4FA307805F0ACFA0AE066
:1011700008F1240005F09CFA042504E008F14C0075
:1011800005F096FA0325284604B0BDE8F087000074
:101190002C000000600F0020D02E00008C0E0020DC
:1011A0000D0A496E2050726F636573735365744CFA
:1011B0006F77426174536F432D3E00000A204C6FDD
:1011C000772042617420536F432053657456616CDD
:1011D00075652F7320536574000000002DE9F04FF2
:1011E000054687B0DFF8400CDFF840AC05F060FA48
:1011F000284605F05DFA07F077FD0746D7F800802E
:10120000D7F8049007232C226946284605F034FDC0
:101210000646504605F04CFA0024012E0ADBEB4648
:1012200035465BF8040B05F043FA8BA005F040FA55
:101230006D1EF6D1072E59D1DFF89853012028648E
:10124000009808F096FC51EC100B08F09FFCA86287
:10125000019808F08EFC51EC100B08F097FCE86246
:10126000009807F03DF82865019807F039F868659F
:1012700003F0C4F9DFF84C0C05F01AFA287860B1D5
:101280000A220021284605F045FE06460120C046F8
:1012900008B1B14601E0002600E00126287D50B1EA
:1012A0000A22002105F1140005F034FE0546012054
:1012B000C04608B1A8460120064205D10AF1240023
:1012C00005F0F6F9042416E0DFF8FC0B05F0F0F960
:1012D000C7F80080C7F80490484605F0F4F907A065
:1012E00005F0E6F9386805F0EEF904E00AF14C0083
:1012F00005F0DEF90324204667E10000202C000001
:10130000D40F002090D00100D0D60100B82E0000EC
:1013100028100020F02E0000E02E00002DE9F04FF4
:101320000446DFF8088B83B008F1700005F0C0F9BF
:10133000204605F0BDF907F0D7FC07463E68D7F810
:1013400004A003232C226946204605F095FC814623
:10135000404605F0ADF90025B9F1010F0ADBEB4677
:101360004C465BF8040B05F0A3F93BA005F0A0F98F
:10137000641EF6D1B9F1030F65D1964C04202064A8
:10138000009808F0F6FB51EC100B08F0FFFB20630F
:10139000019808F0EEFB51EC100B08F0F7FB6063CE
:1013A000009806F09DFFA063019806F099FFE063A6
:1013B00003F024F9DFF8143B187D68B10A220021FC
:1013C00003F1140005F0A6FD04460120C04608B153
:1013D000A24601E0002400E00124DFF8F43A187886
:1013E00048B10A220021184605F094FD81460120EB
:1013F000C04608B14E460120044205D108F19400D0
:1014000005F056F9042523E008F1C40005F050F971
:101410003E60C7F804A005F057FA052803D005F090
:1014200053FA042802D1062005F0C1FE042005F07D
:101430006DFB786805F047F9CBA005F039F93868FD
:1014400005F041F904E008F1F00005F031F9032559
:1014500002F028BF102F00002C0000002DE9F04FF3
:101460000446DFF8F8AB87B0504605F021F9204676
:1014700005F01EF9204605F01BF905232C2202A9D0
:10148000204605F0F9FB07460AF1240005F010F9A3
:10149000012F4FF0000B0DDB0DF108083C460FF259
:1014A000CC2958F8040B05F003F9484605F000F97B
:1014B000641EF6D1052F40F0818008F01AFC044626
:1014C000029B94F8009060680190A768D4F80C80A3
:1014D000187880B10A220021184605F01BFD451E30
:1014E000AD41ED43E80F05F04EFD10B14FEAD5795F
:1014F00001E0002600E0012602AD6B68187850B1CB
:101500000A220021184605F005FD009005F02AFD8D
:1015100010B10098019001200640AB68187848B1DE
:101520000A220021184605F0F5FC009005F01EFD8A
:1015300008B1009F0120EB680640187848B10A22E4
:101540000021184605F0E6FC054605F016FD08B139
:10155000A8460120064206D10AF1540005F0A8F879
:101560004FF0040B30E00AF18C0005F0A1F884F88C
:10157000009001986060A760C4F80C800AF1B00088
:1015800005F096F8207805F09EF80FF26C2A504688
:1015900005F08EF8606805F096F8504605F088F87A
:1015A000A06805F090F8504605F082F8E06805F074
:1015B0008AF8207840B108F095FB05E00AF1D400E4
:1015C00005F076F84FF0030B584607B0BDE8F08FF2
:1015D00084D3010098DBFF1F70B5DFF8744B002047
:1015E00020700121217086B008F0B8FB1122ADF8FF
:1015F00000206B4601AA05F009FC42F20F76FF239A
:10160000DFF8502B3146601C06F008FA451CA9B2E1
:10161000761B022060546D1C761BB1B2AEB241F253
:101620001703DFF8742CA01906F0F8F94519A9B2D0
:10163000032060546D1C09F099F9034642F21071C1
:10164000491BA8B2D4A289B2204406F0E7F9DBE234
:10165000B8D3010070B5DFF8F84A002020700121EE
:10166000217086B008F07AFB1122ADF800206B469D
:1016700001AA05F0CBFB42F20F76FF23DFF8D42A54
:101680003146601C06F0CAF9451CA9B2761B02203F
:1016900060546D1C761BB1B2AEB241F21803DFF894
:1016A000F82BA01906F0BAF94519A9B20320605425
:1016B0006D1C06F0D7F8034642F21071491BA8B220
:1016C0000FF2180289B2204406F0A8F99CE200004B
:1016D0004CCE0100F4C80100EC0F00202530303062
:1016E0005800000070B5DFF8684A00202070012122
:1016F000217086B008F032FB1122ADF800206B4655
:1017000001AA05F083FB42F20F76FF23DFF8442A9B
:101710003146601C06F082F9451CA9B2761B0220F6
:1017200060546D1C761BB1B2AEB241F21903DFF802
:10173000682BA01906F072F94519A9B2032060546C
:101740006D1C06F06EFF0FF22801029100F10B03F1
:10175000009300F116020192034642F21071491BF8
:10176000A8B2DFF8642E4BE2202C00002C00000011
:1017700044312E365600000070B5DFF8D449002001
:1017800020700121217086B008F0E8FA1122ADF82E
:1017900000206B4601AA05F039FB42F20F76FF23C9
:1017A000DFF8B0293146601C06F038F9451CA9B2B3
:1017B000761B022060546D1C761BB1B2AEB241F2B2
:1017C0000103DFF8D42AA01906F028F94519A9B2B7
:1017D000032060546D1C05F06FF842F21076761B02
:1017E0000023012818BF0123A8B26BA2B1B2204484
:1017F00006F014F908E200002C200000F4D60100E5
:101800002A100020976F000070B5DFF844490020CF
:1018100020700121217086B008F0A0FA1122ADF8E5
:1018200000206B4601AA05F0F1FA42F20F76FF2381
:10183000DFF820293146601C06F0F0F8451CA9B2FB
:10184000761B022060546D1C761BB1B2AEB241F221
:101850000303DFF8442AA01906F0E0F84519A9B2FD
:10186000032060546D1C05F02FF842F21076761BB1
:10187000401E03280BD8DFE800F00204060801230D
:1018800006E0022304E0032302E0042300E0052332
:10189000A8B241A2B1B2204406F0C0F8B4E170B5DC
:1018A000DFF8AC48002020700121217088B008F0DA
:1018B00055FA1122ADF800206B4601AA05F0A6FAF0
:1018C00042F20F76FF23DFF88C283146601C06F0C9
:1018D000A5F8451CA9B2761B022060546D1C761B2E
:1018E000B1B2AEB241F20403DFF8AC29A01906F0A0
:1018F00095F84519A9B2032060546D1C04F036FF19
:10190000F1E0000018C9010070B5DFF8444800207C
:1019100020700121217086B008F020FA1122ADF864
:1019200000206B4601AA05F071FA42F20F76FF2300
:10193000DFF820283146601C06F070F8451CA9B27B
:10194000761B022060546D1C761BB1B2AEB241F220
:101950000503DFF84429A01906F060F84519A9B27B
:10196000032060546D1C06F080F8064604F0DEFE8D
:1019700042F210710078DFF8FC2D0090491B33789B
:10198000AEB289B2A01906F049F855FA80F5A9B2AD
:10199000042060543DE100002564000080BC92C733
:1019A00070B5DFF8AC47002020700121217086B0AF
:1019B00008F0D4F91122ADF800206B4601AA05F019
:1019C00025FA42F20F76FF23DFF888273146601CA4
:1019D00006F024F8451CA9B2761B022060546D1C49
:1019E000761BB1B2AEB241F20603DFF8AC28A01903
:1019F00006F014F84519A9B2032060546D1C06F0D6
:101A000057F8F0E070B5DFF848470020207001215A
:101A1000217086B008F0A2F91122ADF800206B46C3
:101A200001AA05F0F3F942F20F76FF23DFF824272D
:101A30003146601C05F0F2FF451CA9B2761B02205E
:101A400060546D1C761BB1B2AEB241F20703DFF8F1
:101A50004828A01905F0E2FF4519A9B203206054F7
:101A60006D1C06F06FFA42F210710378491BA8B2A0
:101A7000CEA289B2204405F0D1FFC5E0801319BC85
:101A8000E4CE010070B5DFF8C846002020700121C7
:101A9000217088B008F062F91122ADF800206B4681
:101AA00001AA05F0B3F942F20F76FF23DFF8A4266E
:101AB0003146601C05F0B2FF451CA9B2761B02201E
:101AC00060546D1C761BB1B2AEB241F20903DFF86F
:101AD000C827A01905F0A2FF4519A9B20320605438
:101AE0006D1C05F05FFBC1690791C26806928169B0
:101AF0000591027D0492817C0391027C02928168AF
:101B0000019142F2107142680092491B03680FF282
:101B10005802A8B289B2204405F080FF55FA80F53A
:101B2000AAB20421A1546D1CDFF84C0C04F0C0FDD6
:101B3000A8B204F0C8FDDFF8440C04F0B9FDA9B266
:101B4000204604F0BEFDDFF8380C04F0B1FDA9B268
:101B5000204608F04FF800F0CAFF002008B070BD22
:101B600000BF0100DC2D000025642C25642C2564B9
:101B70002C25642C25642C25642C25642C25642CB0
:101B80002564000070B5DFF8C845002020700121F1
:101B9000217086B008F0E2F81122ADF800206B4603
:101BA00001AA05F033F942F20F76FF23DFF8A425EE
:101BB0003146601C05F032FF451CA9B2761B02209D
:101BC00060546D1C761BB1B2AEB241F20A03DFF86D
:101BD000C826A01905F022FF4519A9B203206054B8
:101BE0006D1C05F068FFC1680291027A019241689C
:101BF000DFF8CC2C009142F210710368491BA8B2A7
:101C000089B2204405F00AFF55FA80F5AAB20421F2
:101C1000A1546D1CDFF8600B04F04AFDA8B204F07B
:101C200052FDDFF8580B04F043FDA9B2204604F042
:101C300048FDDFF84C0B04F03BFDA9B2204607F04D
:101C4000D9FF00F054FF002006B070BD64C9010048
:101C5000D4C9010078B5DFF8F844002020700121D4
:101C60002170A5B008F07AF81122ADF800206B467B
:101C700001AA05F0CBF842F20F76FF23DFF8D42457
:101C80003146601C05F0CAFE451CA9B2761B022035
:101C900060546D1C761BB1B2AEB241F20B03DFF89B
:101CA000F825A01905F0BAFE4519A9B20320605421
:101CB0006D1C06F09DF900F121014A7C2492037D00
:101CC00023930A7C2292C37C2193CA7B2092837C3B
:101CD0001F938A7B1E92437C1D934A7B1C92037C3C
:101CE0001B930A7B1A92C37B1993CA7A1892837B3F
:101CF00017938A7A1692437B15934A7A1492037B40
:101D000013930A7A1292C37A1193CA791092837A42
:101D10000F938A790E92437A0D934A790C92037A43
:101D20000B930A790A92C3790993CA780892837946
:101D300007938A780692437905934A780492037947
:101D4000039309780291C278019290F82010DFF88D
:101D50007C2C009142F210718378491BA8B289B2A1
:101D6000204405F05BFE55FA80F5AAB20421A15487
:101D70006D1CDFF8040A04F09BFCA8B204F0A3FC7D
:101D8000DFF8F80904F094FCA9B2204604F099FCAD
:101D9000DFF8EC0904F08CFCA9B2204607F02AFF1A
:101DA00000F0A5FE002026B070BD000025640000F4
:101DB00070B5E74C002020700121217086B007F03B
:101DC000CDFF1122ADF800206B4601AA05F01EF8E8
:101DD00042F20F76FF23DF4A3146601C05F01EFEFB
:101DE000451CA9B2761B022060546D1C761BB1B253
:101DF000AEB241F20C03DFF8A024A01905F00EFEEC
:101E00004519A9B2032060546D1C06F0A4F90646DA
:101E100006F067F9034642F21071491BA8B200961A
:101E200089B2DFF85029ECE6784A000068B7010073
:101E300070B5C74C002020700121217086B007F0DA
:101E40008DFF1122ADF800206B4601AA04F0DEFFE1
:101E500042F20F76FF23BF4A3146601C05F0DEFDDB
:101E6000451CA9B2761B022060546D1C761BB1B2D2
:101E7000AEB241F20D03DFF82024A01905F0CEFD2B
:101E80004519A9B20320605406F0F6FA42F2107226
:101E9000A6182821304606F0F3FA3146204608F00D
:101EA0009DFF304606F08EFD55FA80F50FF22400B6
:101EB00004F0FEFB304604F0FBFB6D1CA9B20420CD
:101EC0006054A6E6944A0000A84A000004050020D9
:101ED000280E00200D0A54696D652D2D3E0000006E
:101EE0002DE9F84F9A4C002020700121217090B00C
:101EF00007F034FF1122ADF800206B4601AA04F070
:101F000085FF42F20F76FF23924A3146601C05F0AE
:101F100085FD451CA9B2761B022060546D1C761B02
:101F2000B1B2AEB241F20E03DB4AA01905F076FD64
:101F30004519A9B2032060546D1C06F0B7FE8DF858
:101F40003300ADB204F0B8FC814605F0D1F802468A
:101F500000210DA892ED000A42F2107604F02EFE48
:101F6000761B0DABCBA2B1B2601905F057FD0DA8E1
:101F700006F0B6F94FF000080746B9F1010F18BF97
:101F80004FF0010802F03AFB06F0FEF8DFF8902C63
:101F9000516C48430F90FFB206F031F83F1A0E978C
:101FA00006F02DF88DF8320008F028FF8DF831008A
:101FB00008F082FF8DF8300008F0DCFF074609F0DA
:101FC00059F8814607F0D2FC824606F0DFF88346D6
:101FD00006F0DAF80E999DF832200A9109920B95D5
:101FE0009DF831109DF830200891079206970190D6
:101FF000CDF814900F999DF8330002910090CDF820
:1020000010A0CDF80CB04346DFF8182CB1B260191F
:1020100005F004FD0B9951FA80F5ADB2042060552E
:102020006D1CDFF8540704F043FBADB2284604F002
:102030004AFBDFF8480704F03BFB2946204604F042
:1020400040FBDFF83C0704F033FB2946204607F04D
:10205000D1FD00F04CFD002004F002BA84B801006C
:102060002DE9F84F3A4D002028700121297086B0E3
:1020700007F074FE1122ADF800206B4601AA04F0AF
:10208000C5FE42F20F76FF23324A3146681C05F046
:10209000C5FC441CA1B2361B02206854641C361BCC
:1020A000B1B2A6B241F221037B4AA81905F0B6FCF1
:1020B0000419A1B203206854641C06F0F7FD8046A1
:1020C00042F2107604F0F8FB361B0027012818BFF7
:1020D000012705F0C7FB814606F058F8824606F056
:1020E00053F8834606F0DEFD0190CDF81090A0B2C3
:1020F000CDF80CA0CDF808B0CDF800803B460FF22B
:102100005802B1B2284405F089FC54FA80F4A2B216
:102110000421A954641CDFF8600604F0C9FAA0B2D7
:1021200004F0D1FADFF8540604F0C2FAA1B228464E
:1021300004F0C7FADFF8480604F0BAFAA1B228465C
:1021400007F058FD00F0D3FC0020FFF73EBA000076
:10215000007AFF1FB433000025642C2025642C2056
:1021600025642C2025642C2025642C20256C6400FB
:102170002DE9F047DFF83C5DDFF8A48A00202870E5
:10218000012129708AB007F0E9FD1122ADF8002085
:102190006B4601AA04F03AFE42F20F76FF23DFF805
:1021A000382C3146681C05F039FC441CA1B2361BA2
:1021B00002206854641C361BB1B2A6B241F20F0370
:1021C000354AA81905F02AFC0419A1B20320685465
:1021D000641C06F0A3FD0746022107A897ED020A3A
:1021E00004F0ECFC022104A897ED030A04F0E6FCDD
:1021F00002F004FA05F0C8FF0746D8F84400474348
:1022000006F054FD42F2107604F056FB361B01280E
:102210004FF0000906D0022804D14FF001094FF019
:10222000000A02E005F0EBFE824605F0ADFF08F182
:102230007401039102970190CDF800A0A0B24B4623
:102240000FF25802B1B2284405F0E8FB54FA80F4CA
:10225000A2B20421A954641CDFF81C0504F028FA7A
:10226000A0B204F030FADFF8140504F021FAA1B2AC
:10227000284604F026FADFF8080504F019FAA1B29E
:10228000284607F0B7FC00F032FC00200AB0BDE899
:10229000F087000025730000BC33000025642C2566
:1022A000642C25642C25642C2573000078B5DFF898
:1022B000044C00202070012121708BB007F04EFDEE
:1022C0001122ADF800206B4601AA04F09FFD42F2F6
:1022D0000F76FF23DFF8002B3146601C05F09EFBD4
:1022E000451CA9B2761B022060546D1C761BB1B24E
:1022F000AEB241F21003DFF8902DA01905F08EFB6D
:102300004519A9B2032060546D1C04F0E7FE06468F
:10231000022108A896ED000A04F050FC022105A84D
:1023200096ED010A04F04AFC022102A896ED020A89
:1023300004F044FC05A902A80091019042F210713A
:10234000491BA8B208AB0FF2886283E1F0B5DFF851
:10235000644B00202070012121708BB007F0FEFC3F
:102360001122ADF800206B4601AA04F04FFD42F2A5
:102370000F76FF23DFF8602A3146601C05F04EFB24
:10238000451CA9B2761B022060546D1C761BB1B2AD
:10239000AEB241F21103DFF8F02CA01905F03EFBBC
:1023A0004519A9B2032060546D1C08F0CDFF02212D
:1023B00008A804F003FC08F0E3FF022105A804F0DC
:1023C000FDFB09F003F8022102A804F0F7FBADB20F
:1023D00042F2107606F066FC761B102802D006F05A
:1023E00061FCE0B90A2108A809F0D0F80A2105A883
:1023F00009F0CCF80A2102A809F0C8F80FF2740716
:102400000522394608A805F0C5FA0522394605A86F
:1024100005F0C0FA0522394602A805F0BBFA02A869
:1024200005A90190009108AB0FF2A452B1B2601956
:1024300005F0F4FA55FA80F5A9B2042060546D1C39
:10244000CD4804F035F9ADB2284604F03CF9CB484C
:1024500004F02EF92946204604F033F9C84804F068
:1024600027F92946204607F0C5FB00F040FB002075
:102470000BB0F0BD302E30300000000070B5DFF83A
:10248000344A002020700121217086B007F066FCDC
:102490001122ADF800206B4601AA04F0B7FC42F20D
:1024A0000F76FF23DFF830293146601C05F0B6FABD
:1024B000451CA9B2761B022060546D1C761BB1B27C
:1024C000AEB241F21403DFF8C02BA01905F0A6FA52
:1024D0004519A9B2032060546D1C06F005FCDFF815
:1024E000801CD0ED010A91ED000ADFF83427916CD1
:1024F000F8EE600A60EE800AFCEEE00A10EE903A18
:10250000CB18D366D0ED000AD16CF8EE600A20EE4D
:10251000800ABCEEC00A10EE103ACB1813670368AD
:10252000516D02934068136DE54A0091019042F2AB
:102530001071FFF763BB70B5DFF878490020207099
:102540000121217086B007F009FC1122ADF80020AE
:102550006B4601AA04F05AFC42F20F76FF23DFF823
:1025600078283146601C05F059FA451CA9B2761B43
:10257000022060546D1C761BB1B2AEB241F215035D
:10258000DFF8042BA01905F049FA4519A9B2032078
:1025900060546D1C04F0DAFE42F210710378491B9E
:1025A000A8B2C6A289B2204405F038FAFFF72CBBC6
:1025B00010B55021DFF8EC0D09F0E7FC002400B164
:1025C0000524204610BD00008427000070B5DFF808
:1025D000E44800202070012121708CB007F0BEFB80
:1025E0001122ADF800206B4601AA04F00FFC42F264
:1025F0000F76FF23DFF8E0273146601C05F00EFA66
:10260000451CA9B2761B022060546D1C761BB1B22A
:10261000AEB241F21A03DFF8702AA01905F0FEF9F4
:102620004519A9B2032060546D1C04A807F0CEFC24
:102630000DF12A0003900DF1270102910DF1210007
:10264000019004AA009242F21071491BA8B209AB92
:102650000FF2480289B2204405F0E0F955FA80F5FE
:10266000AAB20421A1546D1C434804F021F8A8B279
:1026700004F029F8414804F01BF8A9B2204604F000
:1026800020F83F4804F014F8A9B2204607F0B2FA47
:1026900000F02DFA00200CB070BD000025732C2531
:1026A000732C25732C25732C2573000070B5DFF86F
:1026B000044800202070012121708AB007F04EFBF1
:1026C0001122ADF800206B4601AA04F09FFB42F2F4
:1026D0000F76FF23DFF800273146601C05F09EF9D6
:1026E000451CA9B2761B022060546D1C761BB1B24A
:1026F000AEB241F21B03DFF89029A01905F08EF964
:102700004519A9B2032060546D1C03A807F0D6FC3C
:102710000DF1250002900DF1220101910DF11D0036
:10272000009042F21071491BAEB203AB0FF254029B
:1027300089B2A01905F072F955FA80F5A9B2042002
:1027400060546D1C0C4803F0B3FFA8B203F0BBFF4C
:102750000A4803F0ADFFA9B2204603F0B2FF0848D3
:1027600003F0A6FFA9B2204607F044FA00F0BFF933
:1027700001F0B2BA284B00005865000068650000FF
:102780007465000025732C25732C25732C2573008C
:1027900070B5DFF82047002020709AB008F053F899
:1027A000012117A804F00AFA08F078F8012114A80A
:1027B00004F004FA08F05FF8012111A804F0FEF912
:1027C00008F0BCF801210BA804F0F8F906A808F0FD
:1027D0008FF89DF81C009DED060A08B9B1EE400A7D
:1027E00001210EA804F0EAF90120207042F20F76D0
:1027F00007F0B4FA1122ADF800206B4601AA04F0EC
:1028000005FBFF23DFF8D0253146601C05F006F9F3
:10281000451CA9B2761B022060546D1C761BB1B218
:10282000AEB241F21C03DFF86028A01905F0F6F8FB
:102830004519A9B2032060546D1C07F0C9FF02219D
:1028400008A804F0BBF908F091F805900BA908A8B6
:10285000049003910EAA14AB11A802920193009068
:1028600042F21071491BAEB217AB0FF2580289B297
:10287000A01905F0D3F855FA80F5A9B204206054E8
:102880006D1CDFF8280B03F013FFA8B203F01BFF49
:10289000DFF81C0B03F00CFFA9B2204603F011FF78
:1028A000DFF8D00D03F004FFA9B2204607F0A2F92B
:1028B00000F01DF900201AB070BD00002564000072
:1028C000C433000025732C25732C25732C25732C01
:1028D00025732C25732C25640000000070B5DFF8EB
:1028E000D4450021217090B000200AF04FF9022158
:1028F00008A804F063F901200AF048F9022105A8AC
:1029000004F05CF908F01AF8022102A804F056F964
:102910000120207042F20F7607F020FA1122ADF864
:1029200000206B460BAA04F071FAFF23DFF8A824FD
:102930003146601C05F072F8451CA9B2761B0220D6
:1029400060546D1C761BB1B2AEB241F21D03DFF8CC
:102950003827A01905F062F84519A9B20320605480
:1029600042F210762821A01905F08AFD05A96D1CF8
:10297000009102A8761B0190B1B2AEB208AB0FF283
:102980005002A01905F04AF855FA80F5A9B20420C2
:1029900060546D1CDFF8140A03F08AFEA8B203F03D
:1029A00092FEDFF80C0A03F083FEA9B2204603F082
:1029B00088FEDFF8C00C03F07BFEA9B2204607F0CA
:1029C00019F900F094F8002010B070BDACBD010002
:1029D00025732C25732C25730000000070B5DFF8DB
:1029E000D444002020700121217086B007F0B6F990
:1029F0001122ADF800206B4601AA04F007FA42F25A
:102A00000F76FF23DFF8D0233146601C05F006F86F
:102A1000451CA9B2761B022060546D1C761BB1B216
:102A2000AEB241F22203DFF86026A01904F0F6FFEF
:102A30004519A9B2032060546D1C07F05AF9C1680A
:102A400002918268019241680FF20C02009142F2F9
:102A500010710378FFF7D2B825642C256C642C25FF
:102A6000642C256C64000000F8B50546DFF80C4CBA
:102A7000002020700121217086B007F06FF911222B
:102A8000ADF800206B4601AA04F0C0F9FF23D24A3A
:102A9000C721601C04F0C2FF461CB2B2C6F1C701D8
:102AA0000220A054761C891BB7B241F21113DFF843
:102AB000D82589B2E01904F0B1FF8619B1B203201C
:102AC0006054761CB6B2C6F1C8012B46C1A289B2C9
:102AD000A01904F0A3FF56FA80F080B2042121541B
:102AE000401C80B200222254204607B0F0BD42F2C2
:102AF0001071DFF8C00308F049BDF8B5044686B090
:102B00000D4601202070164629884A1E2A8011276A
:102B100007F024F9ADF800706B4601AA04F076F9CD
:102B20002988AD4AFF23601C04F078FF471C2888E1
:102B3000C01BBAB228800221A1547F1C2988DFF86B
:102B40004825C91B2980B8B2334689B2204404F015
:102B500065FFC719BAB20321A1547F1C2F80012041
:102B600007B0F0BD2DE9F04385B00446884603F078
:102B70009FFD05232C226946204604F07DF8074678
:102B80000FF2582003F094FD0025012F0CDB6E4658
:102B90003C460FF21C3956F8040B03F089FD4846F9
:102BA00003F086FD641EF6D1052F30D10098DFF8C2
:102BB000402C414600F0D8FE441E0198DFF8342C2A
:102BC00008F10401A44100F0CFFEE44300EAD4740C
:102BD0000298DFF8242C661E08F10801B64100F0C7
:102BE000C3FEF64300EAD6760398DFF8102C741E75
:102BF00008F10C01A44100F0B7FEE44310EAD47FD1
:102C00000AD10FF2F41003F053FD042504E00FF293
:102C1000082003F04DFD0325284605B0BDE8F083EC
:102C200098DBFF1FE8D301002DE9F04F8BB004467D
:102C30000D4603F03DFD0B232C226946204604F08F
:102C40001BF807460FF2941003F032FD012F4FF0EE
:102C5000000A0CDBE846B94695A458F8040B03F0CB
:102C600027FD204603F024FDB9F10109F5D10B2F12
:102C700040F0A580DFF8ACBCDFF8AC7C0220CBF8DC
:102C80004000A946029805F02BFBCBF85C000698A3
:102C900005F026FBCBF8600001F0B0FC0098DFF8EF
:102CA000502B494600F060FEB0F101080198DFF8B2
:102CB000442B09F1040168EB080800F055FE6FEAA7
:102CC000080400EAD470441E02983A4609F108014B
:102CD000A44100F049FEE44300EAD474651EDFF825
:102CE0004C4C224609F10C010BF1E000AD4100F023
:102CF0003BFEED4300EAD57503986E1EDFF8F85AE7
:102D00002A4609F11001B64100F02EFEF64300EA12
:102D1000D676701E8041C043C60F03982A4609F13B
:102D2000110100F021FE0640701E8041C043C60F15
:102D300004982A4609F1120100F016FE0640701EA2
:102D40008041C043C60F04982A4609F1130100F0E0
:102D50000BFE0640701E8041C043C60F05982A46F0
:102D600009F1140100F000FE0640701E8041C043CE
:102D7000C60F05982A4609F1150100F0F5FD064039
:102D80000698751E3A4609F11801AD4100F0ECFDB8
:102D9000ED4300EAD5756F1E224609F11C010BF1C7
:102DA000F400BF4100F0E0FDFF4310EAD77F0CD1F3
:102DB0000FF2440003F07CFC4FF0040A05E00FF230
:102DC000580003F075FC4FF0030A50460BB0BDE805
:102DD000F08F000025580000B43300000A50574D12
:102DE0002053657420526563656976656420566179
:102DF0006C756573203A00000A2050776D2053658A
:102E00007456616C75652F73204F7574206F662042
:102E100052616E67650000000A2050776D2053658F
:102E20007456616C75652F7320496E76616C6964A8
:102E3000000000002DE9FE43044689460FF27800A9
:102E400003F036FC204603F033FC02232C226946B3
:102E5000204603F011FF07460FF2740003F028FC30
:102E60000026012F0BDBE8463C4611A558F8040B61
:102E700003F01EFC284603F01BFC641EF6D1022F53
:102E80000FD10098DFF8902B494600F07EFD002816
:102E900012BF0FF24C0004260FF2540003F008FC9E
:102EA00004E00FF26C0003F003FC0326304651E10E
:102EB0002C000000007AFF1F0D0A496E2050726F2F
:102EC0006365737353657453746174652D3E0000BC
:102ED0000A73746174652056616C756573203A00DD
:102EE0000A204D6F64652053657456616C756500EA
:102EF0000A204D6F64652053657456616C75652FAB
:102F000073204F7574206F662052616E67650000F4
:102F10000A204D6F64652053657456616C75652F8A
:102F20007320496E76616C69640000002DE9F043FE
:102F3000044687B00FF25410DFF8789C03F0B8FB1A
:102F4000204603F0B5FB07232C226946204603F0F8
:102F500093FE0746484603F0ABFB0025012F0CDB30
:102F60006C46B8467DA654F8040B03F0A1FB30462E
:102F700003F09EFBB8F10108F5D1072F7AD106F0D6
:102F8000C1FE07460098102104F00DF8441E019878
:102F9000A441402104F007F8E44300EAD474029805
:102FA000661EB641022103F0FEFFF643039A00EAD3
:102FB000D676711E89411078C943002818BF302881
:102FC00006D0312806D15078401E8041C00F02E063
:102FD000012000E00020049A00EAD1711078002856
:102FE00018BF302806D0312806D15078401E8041C5
:102FF000C00F02E0012000E00020059A0140107897
:10300000002818BF302806D0312806D15078401E3D
:103010008041C00F02E0012000E00020014223D0E7
:10302000009A1121384604F0F9FC019A412107F178
:10303000110004F0F3FC029A032107F1520004F09E
:10304000EDFC03990A7807F155000270049B19788A
:103050004170059A11788170012006F0B0FF0FF2DF
:103060004C0003F025FB0AE009F12C0003F020FBE3
:10307000042504E009F1540003F01AFB0325284657
:1030800007B0BDE8F0830000BC3300000D0A496EB4
:103090002050726F636573735365745A6967626514
:1030A00065436F6E6669672D3E0000000A5A6967C6
:1030B00062656520436F6E66696720205365740002
:1030C0002DE9FE4304460FF29C00DFF8189C03F044
:1030D000EFFA204603F0ECFA02232C226946204640
:1030E00003F0CAFD0746484603F0E2FA0025012F27
:1030F0000BDBE8463C4619A658F8040B03F0D8FA57
:10310000304603F0D5FA641EF6D1022F1CD1009888
:10311000017861B130290DD0312904BF40780028F1
:1031200008D009F1300003F0C3FA042511E04FF094
:10313000FF3002E0A1F1300040B206F043FF0FF291
:10314000400003F0B5FA04E009F15C0003F0B0FAC6
:103150000325284603B0BDE8F08300002C000000E2
:10316000F00F00200D0A496E2050726F6365737373
:1031700052657365745A69676265654E572D3E00E6
:103180000A5A696762656520204E7720526573652B
:1031900074202053657400002DE9F04F0446DFF8D9
:1031A00018AC87B0504603F083FA204603F080FA4B
:1031B00003F08AFF0746D7F800907968019105234C
:1031C000BA6800922C22D7F80C8002A9204603F09E
:1031D00053FD05460AF1280003F06AFA0026012D86
:1031E0000BDB0DF1080B2C465BF8040B03F060FAC7
:1031F0006DA003F05DFA641EF6D1052D6AD1029B25
:10320000187860B10A220021184603F083FE0446B4
:1032100003F0A5FE08B1A14601E0002500E001256C
:1032200002AC6368187850B10A220021184603F0F6
:1032300071FE834603F093FE10B1CDF804B0012077
:10324000A3680540187850B10A220021184603F0FF
:1032500061FE834603F083FE10B1CDF800B001207B
:10326000E3680540187848B10A220021184603F0A7
:1032700051FE044603F073FE08B1A046012005424A
:1032800005D10AF1540003F013FA042627E00AF1ED
:10329000880003F00DFAC7F8009043A40198786005
:1032A0000099B960C7F80C80386803F00CFA204622
:1032B00003F0FEF9786803F006FA204603F0F8F907
:1032C000B86803F000FA204603F0F2F9F86803F05A
:1032D000FAF904E00AF1B40003F0EAF903263046F3
:1032E000FEF773B970B5DFF8844B00202070012120
:1032F000217086B006F032FD1122ADF800206B4639
:1033000001AA03F083FD42F20F76FF230FF2A4021D
:103310003146601C04F082FB451CA9B2761B0220DA
:1033200060546D1C761BB1B2AEB241F214030FF2C1
:103330008C02A01904F072FB4519A9B20320605455
:103340006D1C03F0C1FEC168029182680192416860
:103350000FF27002009142F210710368491BA8B28B
:1033600089B2204404F05AFB55FA80F5AAB2042130
:10337000A1546D1C0D4803F09BF9A8B203F0A3F90A
:103380000B4803F095F9A9B2204603F09AF9B94821
:1033900003F08EF9A9B2204606F02CFCFFF7A7FB3C
:1033A000FEF751BC040000202C000000586500000E
:1033B0006865000025303258000000002530345880
:1033C0000000000025642C25642C25642C25640055
:1033D0002DE9F847ADF5006DB9B0054603F068F981
:1033E00003232C2203A9284603F046FC0646DFF8F7
:1033F000980C03F05DF90024002E0CDD0DF10C0893
:1034000035469DA758F8040B03F052F9384603F0EF
:103410004FF96D1EF6D1032E3ED10399087800288E
:103420001FBF03AE71680878002835D003980A22C0
:10343000002103F06FFD054670680A22002103F0A9
:1034400069FD0646AE4221D340F2012086421DD2DC
:10345000E5B100962B46DFF8382C322106A804F09F
:10346000DDFA06A803F024F9B3B2AAB2322106A805
:1034700009F044FC06460FF208200FF21C2803F066
:1034800017F900254FF0250A06AF38E0DFF8040CE5
:1034900003F00EF90424E4E0DFF8FC0B03F008F974
:1034A0000324DEE04179827942EA012201920DF59E
:1034B000D47C007900900AFB05FE424624210CEBE7
:1034C0000E0018E006A800EBC50043780178C2782A
:1034D0001B0443EA0163817843EA01231343002D6F
:1034E000E0D17879B97941EA0021019142463879F1
:1034F000009025216AA804F091FA6D1CEDB2B54246
:1035000001D2322DDEDB3546DFF8606942F21078F9
:103510003470ADF8088006F0B0FB022841F21F07B6
:103520000FF2541957D106F019FCCDE900013A46C3
:1035300002A9304609F010FDBDF80870A8EB07009D
:10354000ADF80800F455304603F0B2F87A1E92B296
:103550003146022006F070FB0FF24817384603F0A0
:10356000A7F80C223946022006F066FBA0461EE0B2
:103570006AA80AFB08F14718384603F099F838465C
:1035800005F020FA82B23946022006F055FBA5EB81
:103590000800022807D301224946022006F04CFB0E
:1035A000484603F085F808F101001FFA80F8A845A5
:1035B000DED3FFF79CFA5D20307022217D227170EE
:1035C000B270F470304603F073F8032231460220E3
:1035D00006F032FB45E03A4602A93046FFF78DFA85
:1035E000BDF80870A8EB0700ADF808003A46314670
:1035F000002006F021FBF455304603F059F8A046B0
:103600001EE06AA80AFB08F14718384603F050F894
:10361000384605F0D7F982B23946002006F00CFB97
:10362000A5EB0800022807D301224946002006F036
:1036300003FB484603F03CF808F101001FFA80F84C
:10364000A845DED3FFF753FA5D2004213070717076
:10365000B47002223146002006F0EEFA304603F044
:1036600027F8FFF744FA0DF5006D20463AB0BDE8A3
:10367000F0870000746500002C0000000C0800209A
:103680000D0A496E204150492050726F6365737373
:10369000696E672D3E0000005B256C642C25642C50
:1036A00025645D002C2256414C554553223A225B3D
:1036B0000000000080B502F0FBFF09F021FB0020B4
:1036C00002BD70B59CB06A46C9B200F099F804001A
:1036D00015D10FF2C80002F0EBFFDDE9000102F0A6
:1036E000F2FFDDE9000100244FF6FF72A14208BF9E
:1036F000904204D10FF2B40002F0DAFF0724250053
:1037000018BF072C35D10FF2BC0002F0D1FFBDF875
:10371000080002F0D8FFBDF80800DFF87C2C00217B
:1037200013465C8884420BD0491C10335029F8DBC7
:103730005029DFF85C6D09DB00203060022418E0BE
:10374000DFF84C0D02EB01120260F1E73168002452
:1037500079B149680DF10A008847040009D1316840
:103760008A680120904720B10FF2680002F0A0FFA4
:103770000524072D18BF062D0CD02046FFF774F93D
:10378000054602F095FF284605F01CF981B228464F
:1037900006F030FA20461CB070BD00000D0A4465EA
:1037A000766963652049442D2D3E00000A20576943
:1037B0006C642043617264204465766963652049C6
:1037C000440000000A434D442056616C75653A2060
:1037D000000000000A456570726F6D204572726FBF
:1037E00072000000DFF8B01B01605020704700003D
:1037F000456F0000496F0000236F0000C17000009A
:10380000F0B50646B7B00020002433460D4601E06F
:10381000641CA4B213F8011B012901D0AC42F7DBF0
:10382000335D012B57D1641CA4B2311907E011F8A4
:10383000013B87B2641C0DF80730A4B2401C0B7822
:10384000022B01D0AC42F2DB315D022943D180B2C0
:1038500000230DF80030174610220021684609F0B9
:10386000B5FCC7E90001641CA4B200208DF800007B
:10387000311907E011F8012B83B2641C0DF8032005
:10388000A4B2401C0A78032A01D0AC42F2DB315DBD
:10389000032920D180B200220DF80020002110223F
:1038A000684603F037FB3881641CA4B200208DF811
:1038B0000000311907E011F8012B83B2641C0DF8E8
:1038C0000320A4B2401C0A78042A01D0AC42F2DBE7
:1038D000315D042902D0012037B0F0BD80B2002153
:1038E0000DF800106B46B2A2642107F10A0004F043
:1038F00095F81E232C2219A9684603F0BDF910B9CA
:10390000032037B0F0BD19AB03EB8000102250F854
:10391000040C002103F0FEFA87F86E0037B0002097
:10392000F0BD000098DBFF1F5B6F00004D6F0000D3
:1039300038B52DED028B0C460178154681B100217A
:1039400005F086F9B0EE408AA847010018BF84ED63
:10395000008A401E8041C043BDEC028BC00F32BDC7
:10396000BDEC028B012032BD70B50C4601781546C6
:1039700049B10A22002103F0CDFA0646A84701000A
:1039800018BF266016E0012070BD70B50C460178A6
:10399000154669B10A22002103F0BCFA461EB64161
:1039A000F643F60F3046A847010018BF267001E025
:1039B000012070BD401E8041C043C00F70BD7CB56A
:1039C0000446DFF8A8540020287042F21076ADF8C3
:1039D00000604FF4885269462846FFF78EF8BDF81C
:1039E00000000FF23803361AADF800600646BDF845
:1039F00000106FA2284404F011F856FA80F292B237
:103A00000420A854521C92B22946204606F014F90C
:103A1000FFF76DF873BD0000976F00002A2A2A2A6D
:103A200052454E20434F4E54524F4C4552202D206C
:103A300044312E36562A2A2A2A0000002DE9F04762
:103A40002DED048B044686B00FF26C1002F030FEB0
:103A5000204602F02DFE03F049FB80460623D8F8ED
:103A600008A098ED008AD8ED018A2C2269462046EC
:103A700003F002F906460FF25C1002F019FE002571
:103A8000002E0BDDE946344695A759F8040B02F0E9
:103A90000FFE384602F00CFE641EF6D1062E7CD1D5
:103AA000009A107868B10021104605F0D1F8B0EE08
:103AB000409A03F095FA10B1B0EE498A01E0002473
:103AC00000E00124019A107850B10021104605F061
:103AD000BFF8B0EE409A03F093FA10B1F0EE498AC5
:103AE0000120029B0440187848B10A2200211846A0
:103AF00003F010FA064603F014FA08B1B2460120AA
:103B00000440029804F0ECFBA0F137010A2938BF09
:103B10000F200FD3A0F14101062938BF052009D39A
:103B2000A0F14701052938BF022003D34C380A28E9
:103B30008041C00FDFF8F01C48662CB9DFF8EC0CB0
:103B400002F0B6FD04252DE00FF2A80002F0B0FD52
:103B500088ED008AC8ED018AC8F808A0032098ED16
:103B6000000A02F0C7FD032098ED010A02F0C2FD31
:103B700098ED020A0320B8EE400A02F0BBFD58A0FF
:103B800002F096FD98ED000ADFF8140DDFEDB60A9D
:103B900060EE200AC0ED000A04E00FF2780002F0A7
:103BA00087FD032506B02846BDEC048BBDE8F087F1
:103BB0002573000090C501000D0A496E2050726FF8
:103BC00063657373536574576865656C4469612DEB
:103BD0003E0000000A576865656C20446961205307
:103BE00065742052656365697665642056616C75FD
:103BF00065203A000A20776865656C446961205346
:103C0000657456616C75652F7320736574203A2056
:103C1000000000000A20776865656C4469612053E4
:103C2000657456616C75652F7320496E76616C6999
:103C30006400000070B58D4C00208AB0207042F204
:103C40001076ADF80C6041F2310203A92046FEF770
:103C500054FFBDF80C50761BADF80C6003F046FA2B
:103C60000646002107A896ED000A02F0A7FF0021F2
:103C700004A896ED010A02F0A1FFDFF8AC0B416E3B
:103C8000029104AAB0680190009207ABBDF80C1035
:103C90000FF25402601903F0C1FE55FA80F5AAB282
:103CA0000421A1546D1CDFF8EC0C02F001FDA8B258
:103CB00002F009FDDFF8E00C02F0FAFCA9B22046A0
:103CC00002F0FFFCDFF8D40C02F0F2FCA9B22046AF
:103CD00005F090FFFEF70BFF00200AB070BD00005A
:103CE0002C00000008C5010025732C25732C2564C9
:103CF0002C2564002DE9F0472DED028B044682B09F
:103D00000FF2B800DFF898AC02F0D2FC204602F0C7
:103D1000CFFC03F0EDF98046022398ED008A2C22B7
:103D20006946204602F0A8FF0646504602F0C0FC55
:103D30000025012E0BDBE9463446D2A759F8040BC7
:103D400002F0B6FC384602F0B3FC641EF6D1022E37
:103D500026D1009A107840B10021104604F078FF77
:103D6000B0EE408A03F05EF9A0B10AF1540002F00F
:103D70009FFC88ED008A002098ED000A02F0BAFC52
:103D800098ED000ADFF8EC0CBDEEC00A80ED000AE9
:103D9000BCA002E004250AF1280002F089FC04E03E
:103DA0000AF1780002F084FC032502B02846BDEC3D
:103DB000028BBDE8F08700007CBA01000D0A496E55
:103DC0002050726F636573735365744379636C65D8
:103DD0004672657175656E63792D3E0070B5234C32
:103DE000002084B0207042F21075ADF8005041F20E
:103DF000320269462046FEF780FEBDF80060AD1B2A
:103E0000ADF8005003F074F90246002101A892EDCC
:103E1000000A02F0D3FEBDF8001001AB9BA2A0196E
:103E200003F0FCFD56FA80F5AAB20421A1546D1CE2
:103E3000DFF8600B02F03CFCA8B202F044FCDFF8B3
:103E4000580B02F035FCA9B2204602F03AFCDFF82C
:103E50004C0B02F02DFCA9B2204605F0CBFEFEF77C
:103E600046FE002004B070BDC3F54840007AFF1F35
:103E70002DE9F04F04469BB0DFF8980CDFF898BCB2
:103E800002F016FC204602F013FC03F033F98246E0
:103E900068465146382203F07DFD0D232C220EA9E1
:103EA000204602F0E9FE0746584602F001FC012FC9
:103EB0004FF000090BDB0EAD3C4672A655F8040B23
:103EC00002F0F6FB304602F0F3FB641EF6D10D2F34
:103ED00040F0CD80DFF8444C0E98224669460EAD86
:103EE000FFF726FDDFF8388C471E6868424607A9B1
:103EF000BF41FFF71DFDFF4300EAD777A8687E1E8C
:103F0000224601A9B641FFF713FDF64300EAD67633
:103F1000E868771E424608A9BF41FFF709FDFF4345
:103F200000EAD77728697E1E224602A9B641FFF72C
:103F3000FFFCF64300EAD6766869771E424609A977
:103F4000BF41FFF7F5FCFF4300EAD77714987E1EC8
:103F5000224603A9B641FFF7EBFCF64300EAD6760A
:103F6000E869771E42460AA9BF41FFF7E1FCFF431B
:103F700000EAD777286A7E1E224604A9B641FFF7D9
:103F8000D7FCF64300EAD676686A771E42460BA94C
:103F9000BF41FFF7CDFCFF4300EAD777A86A7E1E3A
:103FA000224605A9B641FFF7C3FCF64300EAD676E0
:103FB000E86A741E42460CA9A441FFF7B9FCE44329
:103FC00010EAD47F4CD0DFF85C0B02F071FB504656
:103FD0006946382203F0DEFC02209AED000A02F066
:103FE00089FB28A4204602F063FB01209AED070A12
:103FF00002F080FB204602F05BFB02209AED010AF2
:1040000002F078FB01209AED080A02F073FB02200F
:104010009AED020A02F06EFB01209AED090A02F005
:1040200069FB02209AED030A02F064FB01209AED7D
:104030000A0A02F05FFB02209AED040A02F05AFB22
:1040400001209AED0B0A02F055FB02209AED050AB9
:1040500002F050FB01209AED0C0A02F04BFB0CE041
:104060000BF1240002F024FB4FF0040905E00BF1F2
:104070004C0002F01DFB4FF0030948461BB0BDE8A1
:10408000F08F00002C000000DC45000025730000CC
:104090007C65000098CE0100BCCE010070B5DFF851
:1040A000784C0020B0B0207042F21076ADF82C6051
:1040B00041F230020BA92046FEF71FFDBDF82C503F
:1040C000761BADF82C6003F015F8064600212DA8EC
:1040D00096ED000A02F072FD00211BA896ED070A7A
:1040E00002F06CFD00212AA896ED010A02F066FD9F
:1040F000002118A896ED080A02F060FD002127A80B
:1041000096ED020A02F05AFD002115A896ED090A63
:1041100002F054FD002124A896ED030A02F04EFDA2
:10412000002112A896ED0A0A02F048FD002121A8FC
:1041300096ED040A02F042FD00210FA896ED0B0A4D
:1041400002F03CFD00211EA896ED050A02F036FDA6
:1041500000210CA896ED0C0A02F030FD1EA90CA857
:1041600009910FAA0A90089224A921AB12A80591DF
:1041700015AA0793069004922AA927AB18A80191C3
:104180001BAA0393029000922DABBDF82C10DFF810
:10419000902B601903F042FC55FA80F5AAB2042175
:1041A000A1546D1CDFF8EC0702F082FAA8B202F00D
:1041B0008AFADFF8E40702F07BFAA9B2204602F09F
:1041C00080FADFF8D80702F073FAA9B2204605F0AA
:1041D00011FDFEF78CFC002030B070BD2DE9FE4FC4
:1041E00004460FF2B81002F063FA204602F060FABB
:1041F00002F082FF0646D6F80090D6F8048002232B
:104200002C226946204602F037FD07460FF2A8101F
:1042100002F04EFA0025012F0CDBEA463C460FF275
:10422000742B5AF8040B02F043FA584602F040FA95
:10423000641EF6D1022F30D1009B187860B10A229B
:104240000021184602F066FE044602F031FF08B174
:10425000A14601E0002400E00124009804F040F8A9
:1042600007462CB9DFF8280C02F022FA04250AE0F0
:10427000C6F80090C6F804800FF25C1002F018FA3D
:10428000306802F020FAFFB2012F0BD104F00EFDCE
:1042900040B90D2004F002FD04E00FF2581002F0C6
:1042A00007FA0325284603B0BDE8F08F7CB5DFF898
:1042B000684A0020207042F21075ADF8005041F2BB
:1042C000330269462046FEF718FCBDF80060AD1BBE
:1042D000ADF8005002F010FFB2E02DE9FC470446B3
:1042E0000FF2B80002F0E4F9204602F0E1F902F022
:1042F00005FF06460223D6F800802C226946204698
:1043000002F0BAFC07460FF2B00002F0D1F9002526
:10431000012F0CDBE9463C460FF2781A59F8040BE2
:1043200002F0C6F9504602F0C3F9641EF6D1022F1E
:1043300029D1009B187860B10A220021184602F0AA
:10434000E9FD044602F0B6FE08B1A04601E00024F3
:1043500000E00124019803F0C3FF07462CB9DFF801
:10436000300B02F0A5F9042508E0C6F800800FF232
:10437000680002F09DF9306802F0A5F9FFB23FB97C
:1043800002F0DAFF04E00FF26C0002F091F903256D
:104390002846BDE8F6870000040000200D0A496E9B
:1043A0002050726F63657373536574436F6E7469E5
:1043B0006E75652D3E0000000A436F6E74696E7560
:1043C000652053657420526563656976656420567F
:1043D000616C756573203A000A20436F6E74696ED4
:1043E00075652053657456616C75652F7320536530
:1043F000740000000A20436F6E74696E7565205367
:10440000657456616C75652F7320496E76616C69B1
:10441000640000007CB5DFF800490020207042F203
:104420001075ADF8005041F2340269462046FEF79F
:1044300064FBBDF80060AD1BADF8005002F05EFEFD
:104440000368BDF8001064A2A01903F0E7FA56FA59
:1044500080F5AAB20421A1546D1CDFF8380502F0E2
:1044600027F9A8B202F02FF9DFF82C0502F020F9A5
:10447000A9B2204602F025F9DFF8200502F018F96C
:10448000A9B2204605F0B6FBFEF731FB002076BD51
:10449000DC0F00202C0000002DE9F04383B004461F
:1044A00002F006F902232C2201A9204602F0E4FBC7
:1044B00007460FF22810DFF8606802F0F9F830467E
:1044C00004F080FA0146304607F060F8002F4FF004
:1044D00000080CDD01AD3C460FF21C3955F8040B09
:1044E00002F0E6F8484602F0E3F8641EF6D1022F27
:1044F00069D10198002866D003F0F2FE044642F22A
:10450000107786F80080ADF8007041F23F026946EE
:104510003046FEF7F2FABDF80050781BADF8000007
:104520002821F01903F0ACFFDFF85C7B42F211792F
:104530004946384608F04EFE4946DFF8500B08F071
:1045400049FE012C02D108F028FF12E0022C02D112
:1045500008F0F6FF0DE0032C02D109F0FBF808E0AB
:10456000042C02D109F0D6FA03E0052C08BF09F0AB
:10457000E1F9BDF800103B46C8A2701903F04EFAED
:10458000384604F01FFA4519A9B2042070546D1C76
:10459000DFF8000402F08CF8A8B202F094F8DFF81B
:1045A000F80302F085F8A9B2304602F08AF8DFF885
:1045B000EC0302F07DF8AAB23146022005F03CFB84
:1045C000FEF795FA05E0DFF83C0C02F071F84FF0C9
:1045D00003084046FEF7BEBD256400000A5265711F
:1045E00075657374204C6F672052656365697665E5
:1045F000642056616C756573203A000070B5DFF871
:10460000085CA748D5ED0A0A90ED000A864C60EEDA
:10461000200AFDEEE00AC4ED110A02F067FD94EDF8
:10462000110AD0ED010A616EB8EEC00AC0EE200A90
:10463000FDEEE00A10EE900A90FBF1F100EE101A88
:104640006064B8EEC00A85ED0F0A216C012935D1EE
:1046500000EE100AB8EEC00AD4ED0B0AC0EE800AD4
:10466000C5ED0C0A216DD4ED0A0A91FBF0F200FBB6
:104670001211A16480EE800A616D91FBF0F300FBE2
:104680001310E06485ED0B0A0021204602F096FA33
:10469000002104F1140095ED0C0A02F08FFAD4ED1C
:1046A000120A95ED0F0AF8EEE00AC0EE800AFDEE60
:1046B000E00AC5ED160A94ED131A92E002290A46A3
:1046C00042D1216E00EE100A00EE901AB8EEC00A38
:1046D000F8EEE00AC0EE800AC5ED0E0A91FBF0F696
:1046E000E26D92FBF0F300EE902A00FB132300FB37
:1046F00016106865F8EEE00A2B6580EE800A85EDFD
:104700000D0A002104F1E00002F058FA002104F142
:10471000F40095ED0E0A02F051FAD5ED140A95ED6C
:10472000151A95ED0F0AF8EEE00AB8EEC11AC0EEC0
:10473000800A81EE000AFDEEE00ABDEEC00AC5ED7A
:10474000180A85ED190A54E0032912D194ED1A0ACA
:10475000B8EEC00AF8EEE00A80EE200ABDEEC00A0C
:1047600085ED1A0A00212846B8EEC00A02F026FAA2
:104770003FE004293ED100EE100AB8EEC00AD4EDA5
:104780000D0AC0EE800AC5ED110AA16B91FBF0F293
:1047900000FB1211A964E16B91FBF0F300FB131015
:1047A000E8640021D4ED0C0A80EE800A85ED100A41
:1047B00005F1140002F002FA0021DFF8C00D95EDBA
:1047C000110A02F0FBF9D5ED120A95ED0F0A95EDED
:1047D000131AF8EEE00AC0EE800AFDEEE00AC5ED1D
:1047E000160AB8EEC11A81EE000ABDEEC00A85EDC8
:1047F000170A0022226470BD2C00000010B50020B2
:1048000008F0C4F9DFF8784D0221204602F0D6F90D
:10481000012008F0BBF9022104F10C0002F0CEF9EE
:1048200006F08CF850E0000098DBFF1F18D701005D
:104830001CB506F008F8DFF84C4D0121204602F0C7
:10484000BDF906F02BF8012104F10C0002F0B6F9D5
:1048500006F011F8012104F1180002F0AFF906F09A
:104860006DF8012104F1300002F0A8F9684606F065
:104870003FF89DF804009DED000A08B9B1EE400A2A
:10488000012104F1240002F099F905F0A1FF0221B1
:1048900004F13C0002F092F916BD000025730000FF
:1048A000F00F002010B506F04FFDDFF85C4B022141
:1048B000204602F083F906F063FD022104F10C00AA
:1048C00002F07CF906F082FD04F11800BDE810400A
:1048D000022102F073B930B58DB004F0E7F9044657
:1048E000DFF8285B692105F1740006F04FFE2346CE
:1048F00086A2032105F1740003F090F8282103A893
:1049000003F0BEFD03A905F1740006F067FA80A468
:10491000214606F063FA05F05BFF0221684602F0CB
:104920004DF9694605F1740006F058FA214606F083
:1049300055FA0DB030BD38B58EB00021ADF800107D
:1049400004A8DFF8CC1ADFF8C44A0A7830328DF8B0
:104950000020282103F094FD04A904F1740006F05E
:104960003DFA6BA5294606F039FA05F031FF022120
:1049700001A802F023F901A904F1740006F02EFA4F
:10498000294606F02BFA694604F1740006F026FA6F
:104990000FB030BD58650000686500007465000008
:1049A000E4C001002DE9FE4F04460FF2CC00DFF811
:1049B000DC8B01F07DFE204601F07AFE02F0A0FBC8
:1049C00083460223DBF800902C226946204602F041
:1049D00053F90546404601F06BFE0026012D0BDB26
:1049E000EA462C464AA75AF8040B01F061FE384605
:1049F00001F05EFE641EF6D1022D33D1DFF80C4AC1
:104A000003202064009805F0B4F851EC100B09F075
:104A10004DF9A066009803F063FCA065FFF7EEFD7A
:104A20000FF2700001F044FEDFF8DC37187840B177
:104A30000A220021184602F06DFA81460120C04684
:104A400050B10FF2640001F033FECBF800904846FD
:104A500001F039FEAFA002E0042608F1240001F0C5
:104A600027FE04E008F14C0001F022FE0326304648
:104A700019E40000EC0F00200D0A496E2050726FFF
:104A80006365737353657450756C7365436F756EAE
:104A9000742D3E000D0A496E2050756C736563617C
:104AA0006C632D3E000000000A2050756C73652079
:104AB000436F756E742053657456616C75652F7302
:104AC00020736574203A20007CB5934C0020207040
:104AD00042F21075ADF8045041F2350201A92046AA
:104AE000FEF70BF8BDF80460AD1BADF8045002F002
:104AF00007FBDFF8181900688B6DBDF804100FF282
:104B000028020090A01902F089FFA0E425642C007F
:104B10002C0000009C65000044CA010049700000A0
:104B20006D700000BC65000025642C256400000049
:104B30002DE9F04FADF5A06D054695B0DFF8540AAC
:104B400001F0B6FD284601F0B3FD2B232C220DF514
:104B50009561284602F090F80746DFF83C0A01F01C
:104B6000A7FD012F4FF000080CDB0DF5956B3D46BE
:104B70006AA45BF8040B01F09BFD204601F098FD50
:104B80006D1EF6D12B2F00F3BB80DDF8A81408783A
:104B900000281FBF0DF5956569680878002800F0AA
:104BA000AF80DDF8A8040A22002102F0B3F906461E
:104BB00068680A22002102F0ADF90546B542C0F04E
:104BC0009880152D80F09580002E00F09280009541
:104BD0003346DFF8A82B322105A802F01FFF05A8F5
:104BE00001F066FDAD1B6D1C0095A7F1030ADFF80F
:104BF000900B01F05DFD009801F065FDDFF8840B7E
:104C000001F056FD504601F05EFD00984000504511
:104C10007AD101F0B1FD029012A802994FF48C6292
:104C200002F0B8FEDFF8602B0392701E12A9554601
:104C300001274FF0020B01EBC0040DF59669824687
:104C400001961AE0039A59F8040B2146FEF78CFEF0
:104C50000740039A59F8040B7E1EB641211DFEF74A
:104C600083FEF64300EAD676771EBF41FF43FF0F6F
:104C70000AF1010A0BF1020B083400980199081897
:104C8000401E04900498824501D25D45DAD2009D11
:104C900047B3DFF8F80A01F00BFD029812A94FF4B0
:104CA0008C6202F077FE01980299A0F1010B019845
:104CB000451901EBCB046D1E0FF2D0190FF25C0AFF
:104CC000AB4523D2206801F0FEFC504601F0F0FC19
:104CD000606801F0F8FC484601F0EAFC0BF1010BBA
:104CE0000834EDE7DFF8A80A01F0E2FC4FF0040811
:104CF0000CE0DFF8A00A01F0DBFC4FF0040805E04F
:104D0000DFF8FC0B01F0D4FC4FF003080DF5A06DAB
:104D1000404673E3202C0000007AFF1F2C000000A7
:104D20003CD701002DE9F847044691B0DFF8680A46
:104D300001F0BEFC204601F0BBFC03232C2201A99C
:104D4000204601F099FF0546DFF8B80B01F0B0FCF2
:104D50000026012D0DDB0DF104092C460FF234184D
:104D600059F8040B01F0A4FC404601F0A1FC641EBC
:104D7000F6D1032D4AD10199087800281FBF01AD53
:104D800069680878002841D001980A22002102F0C1
:104D9000C1F8044668680A22002102F0BBF8074601
:104DA000A7422DD3152F2BD254B3381B152827D249
:104DB00000972346DFF8C429322104A802F02EFE12
:104DC00004A801F075FCDFF8449B42F2107889F8E2
:104DD0000060ADF8008041F2410269464846FDF7A7
:104DE0008CFEBDF80050A8EB0500ADF80000641E75
:104DF00001F0C2FC7F1E00EBC40ADFF8148B22E036
:104E0000DFF8100B01F054FC04263DE0DFF8080B3E
:104E100001F04EFC032637E05AF8043BBDF80010C1
:104E2000A8B24246484402F0F9FD55FA80F55AF816
:104E3000043BBDF80010A8B24246484402F0EEFD23
:104E400055FA80F5641CA742E6D26C1EA1B204207C
:104E500009F80100641CDFF8C40A01F029FCA0B2C3
:104E600001F031FCDFF8B80A01F022FCA1B248469B
:104E700001F027FCDFF8980C01F01AFCA1B24846BB
:104E800004F0B8FEFDF733FEB6E10000202000007C
:104E900060D701002C0000002DE9F04FADF5A06DAA
:104EA000054695B0DFF8EC0601F002FC284601F05B
:104EB000FFFB2B232C220DF59561284601F0DCFE2B
:104EC0000646DFF8D40601F0F3FB012E4FF0000A8E
:104ED0000DDB0DF5956B35460FF2A8185BF8040B4A
:104EE00001F0E6FB404601F0E3FB6D1EF6D12B2EF0
:104EF00000F3C180DDF8A814087800281FBF0DF565
:104F0000956569680878002800F0B580DDF8A80488
:104F10000A22002101F0FEFF044668680A220021EF
:104F200001F0F8FF0546A542C0F09E80152D80F0E7
:104F30009B80002C00F0988000952346DFF83C28E9
:104F4000322105A802F06AFD05A801F0B1FB2D1B76
:104F50006D1C0095F61EDFF8280801F0A9FB0098EB
:104F600001F0B1FBDFF81C0801F0A2FB304601F0B4
:104F7000AAFB00984000B04240F0818001F0FCFBA9
:104F8000029012A802994FF48C6202F003FD601E99
:104F900012A901EBC00202F1A008DFF8EC2703928E
:104FA000354601274FF0020B0DF596690646019430
:104FB0001BE0039A59F8040B4146FEF7D5FC074065
:104FC000039A59F8040B7C1E08F10401A441FEF772
:104FD000CBFCE44300EAD474671EBF41FF43FF0FDC
:104FE000761C0BF1020B08F10808009801990818CB
:104FF000401E04900498864201D25D45D9D2009D9E
:105000005FB3DFF8880701F053FB029812A94FF451
:105010008C6202F0BFFC019E0298761E00EBC60176
:105020000198451901F1A0086D1E0FF2D4190FF275
:10503000540BAE4225D2D8F8000001F044FB58468C
:1050400001F036FBD8F8040001F03DFB484601F0C2
:105050002FFB761C08F10808EBE7DFF8340701F0B6
:1050600027FB4FF0040A0CE0DFF8280701F020FBD3
:105070004FF0040A05E0DFF8880801F019FB4FF053
:10508000030AB8E12C0000007429FF1F6002FF1F13
:105090002DE9F847044691B0DFF8FC0601F008FB63
:1050A000204601F005FB03232C2201A9204601F034
:1050B000E3FD0546DFF84C0801F0FAFA0026012D61
:1050C0000DDB0DF104092C460FF2401859F8040BC2
:1050D00001F0EEFA404601F0EBFA641EF6D1032D22
:1050E0004CD10199087800281FBF01AD6968087884
:1050F000002843D001980A22002101F00BFF04464A
:1051000068680A22002101F005FF0746A7422FD355
:10511000152F2DD264B3381B152829D200972346AA
:10512000DFF85826322104A802F078FC04A801F028
:10513000BFFADFF8D89742F2107889F80060ADF82E
:10514000008041F2420269464846FDF7D6FCBDF8B0
:105150000050A8EB0500ADF80000641E01F00CFB48
:1051600000EBC4007F1E00F1A00ADFF8A48722E054
:10517000DFF8A00701F09CFA04263DE0DFF898076D
:1051800001F096FA032637E05AF8043BBDF8001008
:10519000A8B24246484402F041FC55FA80F55AF85C
:1051A000043BBDF80010A8B24246484402F036FC69
:1051B00055FA80F5641CA742E6D26C1EA1B2042009
:1051C00009F80100641CDFF8540701F071FAA0B27D
:1051D00001F079FADFF8480701F06AFAA1B248460F
:1051E00001F06FFADFF8280901F062FAA1B248462F
:1051F00004F000FDFDF77BFC304612B0BDE8F087FF
:1052000020200000BCCE0100040500202C0000007E
:105210002DE9F04FADF5A06D054695B0DD4801F0E4
:1052200047FA284601F044FA2B232C220DF595610C
:10523000284601F021FD0646D74801F039FA012E33
:105240004FF0000A0DDB0DF5956B35460FF2B418E3
:105250005BF8040B01F02CFA404601F029FA6D1EB0
:10526000F6D12B2E00F3C180DDF8A81408780028B1
:105270001FBF0DF5956569680878002800F0B580B6
:10528000DDF8A8040A22002101F044FE0446686803
:105290000A22002101F03EFE0546A542C0F09E8094
:1052A000152D80F09B80002C00F0988000952346FF
:1052B000DFF8C824322105A802F0B0FB05A801F0F0
:1052C000F7F92D1B6D1C0095F61EDFF8B40401F0F4
:1052D000EFF9009801F0F7F9DFF8A80401F0E8F918
:1052E000304601F0F0F900984000B04240F0818073
:1052F00001F042FA029012A802994FF48C6202F077
:1053000049FB601E12A901EBC00202F5A078DFF88C
:1053100078240392354601274FF0020B0DF596696C
:10532000064601941BE0039A59F8040B4146FEF728
:105330001BFB0740039A59F8040B7C1E08F104017B
:10534000A441FEF711FBE44300EAD474671EBF4199
:10535000FF43FF0F761C0BF1020B08F108080098C1
:1053600001990818401E04900498864201D25D45B8
:10537000D9D2009D5FB3DFF8140401F099F90298C7
:1053800012A94FF48C6202F005FB019E0298761E72
:1053900000EBC6010198451901F5A0786D1E0FF2CA
:1053A000E8190FF2600BAE4225D2D8F8000001F0E8
:1053B0008AF9584601F07CF9D8F8040001F083F925
:1053C000484601F075F9761C08F10808EBE7DFF8AC
:1053D000C00301F06DF94FF0040A0CE0DFF8B403EC
:1053E00001F066F94FF0040A05E0DFF8140501F05A
:1053F0005FF94FF0030A0DF5A06D504615B0BDE8FA
:10540000F08F00002C000000580C002098DBFF1FDC
:10541000D50F00202DE9F847044691B0DE4801F091
:1054200047F9204601F044F903232C2201A9204624
:1054300001F022FC0546DFF8CC0401F039F9002622
:10544000012D0DDB0DF104092C460FF2441859F81B
:10545000040B01F02DF9404601F02AF9641EF6D143
:10546000032D4BD10199087800281FBF01AD696851
:105470000878002842D001980A22002101F04AFD54
:10548000044668680A22002101F044FD0746A7424D
:105490002ED3152F2CD25CB3381B152828D2009799
:1054A0002346B64A322104A802F0B8FA04A801F053
:1054B000FFF8DFF8589442F2107889F80060ADF8F0
:1054C000008041F2430269464846FDF716FBBDF8ED
:1054D0000050A8EB0500ADF80000641E01F04CF987
:1054E00000EBC4007F1E00F5A07ADFF8248422E0E0
:1054F000DFF8200401F0DCF804263DE0DFF81804B2
:1055000001F0D6F8032637E05AF8043BBDF8001046
:10551000A8B24246484402F081FA55FA80F55AF89A
:10552000043BBDF80010A8B24246484402F076FAA7
:1055300055FA80F5641CA742E6D26C1EA1B2042085
:1055400009F80100641CDFF8D40301F0B1F8A0B23F
:1055500001F0B9F8DFF8C80301F0AAF8A1B2484693
:1055600001F0AFF8DFF8240701F0A2F8A1B2484635
:1055700004F040FBFDF7BBFA3EE60000280E0020D9
:10558000340C0020A4DDFF1F2020000068B70100BC
:105590002C000000DC650000E8C301002DE9F04F9D
:1055A000ADF5A06D054695B0DFF8480A01F080F82A
:1055B000284601F07DF82B232C220DF59561284615
:1055C00001F05AFB0646DFF8140C01F071F8012EC9
:1055D0004FF0000A0DDB0DF5956B35460FF298186C
:1055E0005BF8040B01F064F8404601F061F86D1EB1
:1055F000F6D12B2E00F3B980DDF8A8140878002826
:105600001FBF0DF5956569680878002800F0AD802A
:10561000DDF8A8040A22002101F07CFC0446686839
:105620000A22002101F076FC0546A542C0F09780D1
:10563000152D80F09480002C00F091800095234679
:105640004E4A322105A802F0E9F905A801F030F828
:105650002D1B6D1C0095F61E494801F029F8009895
:1056600001F031F8474801F023F8304601F02BF8FB
:1056700000984000B0427CD101F07EF8029012A860
:1056800002994FF48C6202F085F9601E12A901EBB9
:10569000C00202F5F0783C4A0392354601274FF0EC
:1056A000020B0DF59669064601941BE0039A59F822
:1056B000040B4146FEF758F90740039A59F8040BCA
:1056C0007C1E08F10401A441FEF74EF9E44300EA10
:1056D000D474671EBF41FF43FF0F761C0BF1020B12
:1056E00008F10808009801990818401E04900498D1
:1056F000864201D25D45D9D2009D57B3234800F0C0
:10570000D7FF029812A94FF48C6202F043F9019E70
:105710000298761E00EBC6010198451901F5F07854
:105720006D1E0FF2D8190FF2500BAE4223D2D8F8EB
:10573000000000F0C8FF584600F0BAFFD8F8040097
:1057400000F0C1FF484600F0B3FF761C08F10808DE
:10575000EBE70F4800F0ACFF4FF0040A0BE00D48F8
:1057600000F0A6FF4FF0040A05E0DFF8100700F094
:105770009FFF4FF0030A3EE62C0000007C6500000E
:10578000FC650000186600005B6F000030660000DA
:105790000CC4010034C40100506600002DE9F84734
:1057A000044691B0DFF8A40B00F082FF204600F021
:1057B0007FFF03232C2201A9204601F05DFA054654
:1057C000504800F075FF0026012D0DDB0DF1040996
:1057D0002C460FF2341859F8040B00F069FF4046CC
:1057E00000F066FF641EF6D1032D4BD101990878B5
:1057F00000281FBF01AD69680878002842D00198D1
:105800000A22002101F086FB044668680A22002172
:1058100001F080FB0746A7422FD3152F2DD264B38A
:10582000381B152829D200972346DFF8402C322157
:1058300004A802F0F3F804A800F03AFFDFF8CC90D7
:1058400042F2107889F80060ADF8008041F244021D
:1058500069464846FDF751F9BDF80050A8EB050030
:10586000ADF80000641E00F087FF00EBC4007F1E4F
:1058700000F5F07ADFF8988020E0264800F018FF65
:1058800004263AE0244800F013FF032635E05AF8D6
:10589000043BBDF80010A8B24246484402F0BEF8EE
:1058A00055FA80F55AF8043BBDF80010A8B24246FC
:1058B000484402F0B3F855FA80F5641CA742E6D2DA
:1058C0006C1EA1B2042009F80100641C134800F00A
:1058D000EFFEA0B200F0F7FE114800F0E9FEA1B221
:1058E000484600F0EEFEDFF8A40300F0E1FEA1B2AE
:1058F000484604F07FF9FDF7FAF87DE42020000027
:1059000058C40100706600002C000000007AFF1FE0
:1059100090660000FCCC010028CD01005865000015
:10592000686500002DE9F04FADF5A06D054695B016
:10593000DFF8C00600F0BCFE284600F0B9FE2B23BD
:105940002C220DF59561284601F096F90646DFF800
:105950008C0800F0ADFE012E4FF0000A0DDB0DF5B6
:10596000956B35460FF2AC185BF8040B00F0A0FE07
:10597000404600F09DFE6D1EF6D12B2E00F3C18037
:10598000DDF8A814087800281FBF0DF59565696833
:105990000878002800F0B580DDF8A8040A2200216C
:1059A00001F0B8FA044668680A22002101F0B2FA50
:1059B0000546A542C0F09E80152D80F09B80002CEE
:1059C00000F0988000952346DFF8A02A322105A830
:1059D00002F024F805A800F06BFE2D1B6D1C00954D
:1059E000F61EDFF82C0B00F063FE009800F06BFE53
:1059F000DFF8200B00F05CFE304600F064FE0098FB
:105A00004000B04240F0808000F0B6FE029012A844
:105A100002994FF48C6201F0BDFF601E12A901EBE8
:105A2000C00202F52078DFF8F02A039235460127FC
:105A30004FF0020B0DF59669064601941BE0039AA0
:105A400059F8040B4146FDF78FFF0740039A59F8B8
:105A5000040B7C1E08F10401A441FDF785FFE4431B
:105A600000EAD474671EBF41FF43FF0F761C0BF1A1
:105A7000020B08F10808009801990818401E0490CC
:105A80000498864201D25D45D9D2009D5FB3DFF80C
:105A90008C0A00F00DFE029812A94FF48C6201F0FE
:105AA00079FF019E0298761E00EBC6010198451908
:105AB00001F520786D1E0FF2CC190FF2580BAE4293
:105AC00024D2D8F8000000F0FEFD584600F0F0FDAA
:105AD000D8F8040000F0F7FD484600F0E9FD761C18
:105AE00008F10808EBE7DFF8380A00F0E1FD4FF0B5
:105AF000040A0BE0DFF82C0A00F0DAFD4FF0040A8C
:105B000004E0DE4800F0D4FD4FF0030A73E4000027
:105B1000746500002C0000002DE9F847044691B0A0
:105B2000DFF8280800F0C4FD204600F0C1FD032383
:105B30002C2201A9204601F09FF80546DFF8E8096C
:105B400000F0B6FD0026012D0DDB0DF104092C46F9
:105B50000FF2341859F8040B00F0AAFD404600F08B
:105B6000A7FD641EF6D1032D4CD1019908780028B9
:105B70001FBF01AD69680878002843D001980A2248
:105B8000002101F0C7F9044668680A22002101F0EB
:105B9000C1F90746A7422FD3152F2DD264B3381B66
:105BA000152829D200972346DFF8C028322104A8FF
:105BB00001F034FF04A800F07BFDDFF8709942F299
:105BC000107889F80060ADF8008041F2450269461E
:105BD0004846FCF792FFBDF80050A8EB0500ADF871
:105BE0000000641E00F0C8FD00EBC4007F1E00F53D
:105BF000207ADFF83C8922E0DFF8380900F058FD10
:105C000004263CE0DFF8300900F052FD032636E0C0
:105C10005AF8043BBDF80010A8B24246484401F0CF
:105C2000FDFE55FA80F55AF8043BBDF80010A8B205
:105C30004246484401F0F2FE55FA80F5641CA74242
:105C4000E6D26C1EA1B2042009F80100641CDFF842
:105C5000EC0800F02DFDA0B200F035FDDFF8E00803
:105C600000F026FDA1B2484600F02BFD074800F0E9
:105C70001FFDA1B2484603F0BDFFFCF738FFFFF758
:105C8000BBBA0000202000002C000000746500005A
:105C90002DE9F04FADF5A06D054695B0D54800F063
:105CA00007FD284600F004FD2B232C220DF59561FD
:105CB000284600F0E1FF0646DFF8200500F0F8FC7A
:105CC000012E4FF0000A0DDB0DF5956B35460FF2F6
:105CD0001C385BF8040B00F0EBFC404600F0E8FCDD
:105CE0006D1EF6D12B2E00F3C180DDF8A8140878C4
:105CF00000281FBF0DF5956569680878002800F039
