:100000004851FF1F955A0100B36F0000E3750000CF
:1000100013780000377800004F78000000000000DF
:100020000000000000000000000000003B7A00001B
:10003000FB800000000000002B850000D785000039
:10004000D55C0100DD5C0100E55C0100ED5C0100B8
:10005000F55C0100FD5C0100055D01000D5D010026
:10006000155D01001D5D0100255D01002D5D010094
:10007000355D01003D5D0100455D01004D5D010004
:10008000555D0100255E0100255E0100255E010031
:10009000255E0100255E0100255E0100255E010050
:1000A0005D5D0100655D01006D5D0100755D010034
:1000B0007D5D0100855D0100255E01008D5D010013
:1000C000955D0100C37600009D5D0100F39B00007B
:1000D000A55D0100AD5D0100B55D0100FB630000A1
:1000E000255E0100255E0100255E0100255E010000
:1000F000255E0100255E0100255E0100453E0000F1
:10010000255E0100255E0100255E0100255E0100DF
:10011000255E0100255E0100255E0100255E0100CF
:10012000255E0100255E01005734010079A1000021
:10013000255E0100BDA10000255E0100255E0100D5
:10014000255E0100BD5D0100C55D0100CD5D0100C2
:100150003FA50000D55D0100255E0100255E010080
:10016000255E010013640000DD5D0100E55D010016
:10017000ED5D0100F55D0100FD5D0100055E010022
:100180000D5E0100155E0100255E0100255E010087
:10019000255E0100255E0100255E0100255E01004F
:1001A000255E0100255E0100255E0100255E01003F
:1001B000255E0100255E0100255E0100255E01002F
:1001C000255E0100255E0100255E0100255E01001F
:1003F000255E0100255E0100255E0100FFFFFFFF75
:10040000FFFFFFFFFFFFFFFFFFFFFFFFFEFFFFFFFD
:10041000DFF8502DC2E900017047DFF8480DD0E940
:10042000000170471CB504460FF2480002F032FD8F
:10043000204602F02FFD6946204601F04FFF0400E0
:1004400015D19DF8000008B90A2002E0012802D168
:10045000092002F077FE00BF0CA002F01BFD9DF802
:10046000000002F022FD00BF0CA002F013FD2046A8
:1004700016BD00000D0A496E2050726F63657373DC
:100480005365744D6F64652D3E0000000D0A4D6F7D
:100490006465207365742061732000000D0A302D9F
:1004A0003E4155544F2C20312D3E4D414E55414C2F
:1004B000200000002DE9F0430446DFF8AC8C83B047
:1004C000404602F0E7FC204602F0E4FC02232C2226
:1004D00001A9204602F0E2FE0746DFF8900C02F088
:1004E000D9FC0026012F0CDB01AD3C460FF2583938
:1004F00055F8040B02F0CEFC484602F0CBFC641E1B
:10050000F6D1022F32D1019B187848B10A2200217E
:10051000184603F011F8044603F010F860B1009497
:100520009DF80010491E042913D8DFE801F00309E3
:100530000B0D0F0002200AE0042608F1240012E04F
:10054000032004E0042002E0052000E0062002F081
:10055000F9FD00BF09A002F09DFC9DF8000002F02B
:10056000A4FC08F14C0002F095FC04E008F19000B6
:1005700002F090FC032601F0F8BE00000A204D6155
:100580006E75616C204D6F64652053657456616CA7
:100590007565203A200000002DE9F8470646A3B013
:1005A0000FF2241002F076FC304602F073FC02F0E9
:1005B000D8FC044603F00CF894E88E00054606A823
:1005C00080E88E0006A9304601F0DEFD06001ED14F
:1005D00006A890E88E0084E88E0090E8004785E841
:1005E00000472568DFF8A02D0595E07B0490A17BEE
:1005F0000391607B0290217B01916421A0680090AF
:100600000AA8636803F0A0F80AA802F043FC304689
:1006100024B0BDE8F08700001CB50446DFF86C0D7F
:1006200002F038FC204602F035FC6946204601F015
:1006300055FE04000CD100BF06A002F02BFC9DF873
:10064000000002F032FC03F0A6F89DF800100170E3
:10065000204616BD0D0A4272757368206D6F746F67
:100660007220737461746520736574206173200057
:1006700070B505469EB000BF13A002F00BFC2846E3
:1006800002F008FC03F0AAF8044694E80E0002A861
:1006900080E80E0002A9284601F024FD050012D1D1
:1006A00002A890E80E0084E80E00267ADFF87C2D80
:1006B000019664216068009005A8236803F044F85F
:1006C00005A802F0E7FBBCE00D0A496E2050726FEE
:1006D000636573735365744D6F746F7250574D4DEE
:1006E000616E75616C2D3E001CB504460CA002F0D5
:1006F000D1FB204602F0CEFB6946204601F0EEFD1C
:1007000004000BD10EA002F0C5FB9DF8000002F022
:10071000CCFB03F0AFFA9DF800100170204616BD27
:100720000D0A496E2050726F63657373536574428E
:1007300072757368446972656374696F6E2D3E00EB
:100740000D0A4272757368206D6F746F7220646950
:1007500072656374696F6E20736574206173200025
:1007600078B50546A3B000BF18A002F093FB284659
:1007700002F090FB02F02EFF044694E84E0006A81B
:1007800080E84E0006A9284601F0FEFC050019D1BC
:1007900006A890E84E0084E84E000591E07BDFF863
:1007A0007C2D0490A07B0390617B0291207B0190C3
:1007B0000AA8A16800916421636802F0C5FF0AA835
:1007C00002F068FB284624B070BD00000D0A496E97
:1007D0002050726F636573735365744D6F746F72DD
:1007E00050574D4175746F2D3E00000070B50546A1
:1007F0009EB000BF15A002F04DFB284602F04AFB58
:1008000002F0EFFF044694E80E0002A880E80E0014
:1008100002A9284601F066FC050012D102A890E862
:100820000E0084E80E00267ADFF86C2C0196642115
:100830006068009005A8236802F086FF05A802F012
:1008400029FB28461EB070BD2C0000000D0A496E21
:100850002050726F63657373536574427275736869
:1008600050574D4175746F2D3E0000002DE9F04347
:100870000446DFF8AC8C83B0404602F00BFB204608
:1008800002F008FB02232C2201A9204602F006FDFB
:10089000074608F1240002F0FDFA0025012F0CDBC9
:1008A00001AE3C460FF2143956F8040B02F0F2FA8E
:1008B000484602F0EFFA641EF6D1022F38D10198B3
:1008C00003F036FA042833D101980278417802EB1C
:1008D000820301EB4301A1F11004E4B28278C178F4
:1008E00017A002EB820301EB4301A1F1100702F014
:1008F000D1FA204602F0D9FA14A002F0CBFAFFB2E6
:10090000384602F0D2FA182CB8BF3C2F0ADA8DF81C
:1009100000408DF8017003F027FA684603F02AFAC8
:100920000DA002E0042508F14C0002F0B3FA03E048
:1009300010A002F0AFFA0325284601F017BD000011
:100940000D0A486F75722D2D3E0000000D0A4D698D
:100950006E7574652D2D3E000A204175746F2074EC
:10096000696D652053657456616C75652F732053EE
:10097000657400000A204175746F2074696D6520EC
:1009800053657456616C75652F7320496E76616C82
:10099000696400001CB50446DFF8480D02F07AFADD
:1009A000204602F077FA6946204601F097FC0400E1
:1009B0000CD100BF06A002F06DFA9DF8000002F015
:1009C00074FA03F014FA9DF800100170204616BD69
:1009D0000D0A456467652073656E736F72207374CA
:1009E0006174652073657420617320002DE9F04106
:1009F00004468EB00FF2A40002F04CFA204602F03A
:100A000049FA02232C226946204602F047FC06469A
:100A1000DFF8D40C02F03EFA0025012E0BDBE8468D
:100A2000344666A758F8040B02F034FA384602F050
:100A300031FA641EF6D1022E28D100980A22002134
:100A400002F07AFDDFF8A41CDFF8AC2D0918914202
:100A500016D202A903F0FAFA282204A902A803F088
:100A6000DFFA04A802F016FA02A803F051FA68B1FE
:100A700003F07AF9082003F082FC00BF0EA002E028
:100A8000042500BF12A002F005FA03E018A002F04E
:100A900001FA032528460EB0BDE8F0810D0A496E23
:100AA0002050726F6365737353657452544356617B
:100AB0006C75652D3E0000000A205254432053659A
:100AC0007456616C75652F732053657400000000C7
:100AD0000A205254432053657456616C75652F7318
:100AE000204F7574206F662052616E6765000000AC
:100AF0000A20525443202053657456616C75652F4B
:100B00007320496E76616C69640000002DE9F8433A
:100B1000044684B00FF2A800DFF8207D02F0BAF995
:100B2000204602F0B7F904232C226946204602F041
:100B3000B5FB0646384602F0ADF90025012E0CDB68
:100B4000E84634460FF2E41958F8040B02F0A2F913
:100B5000484602F09FF9641EF6D1042E26D103F018
:100B6000E0FC0446009803F0E3F820B1009A0B2162
:100B7000204602F0E9FD019F384603F0D9F828B17C
:100B80003A460B2104F10B0002F0DEFD029E3046D6
:100B900003F0CEF828B132460B2104F1160002F022
:100BA000D3FD00BF0DA002F075F904E007F12400A9
:100BB00002F070F9032501F0E3BA00002C000000F8
:100BC0000D0A496E2050726F6365737353657444E8
:100BD0006576696365496E666F2D3E000A2044653F
:100BE0007669636520496E666F2053657456616C43
:100BF00075652F7320536574000000002DE9F047E0
:100C00002DED048B0446DFF89C8C84B0404602F046
:100C100041F9204602F03EF903F050FD82460423DC
:100C20009AED008ADAED018A9AED029A2C22694641
:100C3000204602F033FB0546DFF8280D02F02AF9C2
:100C40000026012D0BDBE9462C4638A759F8040B8A
:100C500002F020F9384602F01DF9641EF6D1042D89
:100C600059D1009A107868B10021104603F02EFF88
:100C7000F0EE409A02F068FC10B1B0EE698A01E033
:100C8000002400E00124019A107850B100211046A0
:100C900003F01CFFF0EE409A02F056FC10B1F0EEAB
:100CA000698A0120029A0440107850B10021104650
:100CB00003F00CFFF0EE409A02F046FC10B1B0EEEB
:100CC000699A0120044205D108F1240002F0E2F8FB
:100CD000042625E008F1540002F0DCF88AED008AD1
:100CE000CAED018A8AED029A03209AED000A02F009
:100CF000F3F8AAA4204602F0CDF803209AED010AE9
:100D000002F0EAF8204602F0C5F803209AED020A44
:100D100002F0E2F804E008F17C0002F0BBF80326E0
:100D200004B03046BDEC048BBDE8F0872C00000019
:100D30002DE9FE43044600BF1FA0DFF8FC9C02F033
:100D4000A9F8204602F0A6F802232C226946204684
:100D500002F0A4FA0646484602F09CF80025012E4F
:100D60000BDBE84634468EA758F8040B02F092F8E5
:100D7000384602F08FF8641EF6D1022E14D109F124
:100D8000240002F087F800981022002102F0D4FB22
:100D900002F08BF803F05DFB044603F021FB44B145
:100DA000082003F0D2FA04E009F1480002F072F8DA
:100DB0000325284601F0DABA0D0A496E2050726FF9
:100DC00063657373436C6561724572726F72436FD2
:100DD0006465732D3E0000002DE9F847044683B09A
:100DE0000FF2A000DFF8248D02F054F8204602F044
:100DF00051F803F0B5F90646022330788DF800006B
:100E00002C2201A9204602F049FA0746404602F08A
:100E100041F80025012F0DDB0DF104093C460FF2CE
:100E2000801A59F8040B02F035F8504602F032F8F7
:100E3000641EF6D1022F1CD1019B187848B10A22FA
:100E40000021184602F078FB044602F095FB50B1F1
:100E500000949DF80000307011A002F01BF830786B
:100E600002F023F80AE008F1240002F013F8042548
:100E700004E008F14C0002F00DF80325284604B008
:100E8000BDE8F0870D0A496E2050726F6365737379
:100E90005365744C6F77426174536F432D3E00006D
:100EA0000A204C6F772042617420536F43205365B2
:100EB0007456616C75652F732053657400000000D3
:100EC0002DE9F04F044683B00FF2D800DFF8648DAF
:100ED00001F0E0FF204601F0DDFF03F043FE06468F
:100EE0003768D6F8049003232C226946204602F086
:100EF000D5F98246404601F0CDFF0025BAF1010F39
:100F00000ADBEB4654465BF8040B01F0C3FF24A058
:100F100001F0C0FF641EF6D1BAF1030F36D1009B79
:100F2000187860B10A220021184602F005FB044639
:100F30000120C04608B1A14601E0002400E00124E0
:100F4000019B187848B10A220021184602F0F4FAF1
:100F500082460120C04608B157460120044205D10F
:100F600008F1240001F096FF042514E014A001F01C
:100F700091FF3760C6F80490484601F096FF07A03D
:100F800001F088FF306801F090FF04E008F14C00A8
:100F900001F080FF032528469DE00000202C000082
:100FA0002C0000000D0A496E2050726F6365737348
:100FB00053657450756C7365436F756E742D3E0088
:100FC0000A2050756C736520436F756E74205365ED
:100FD0007456616C75652F7320736574203A200018
:100FE0002DE9F04F0446DFF84C8C83B008F1700017
:100FF00001F050FF204601F04DFF03F0B3FD07461E
:101000003D68D7F8049003232C226946204602F05D
:1010100045F98246404601F03DFF0026BAF1010F36
:101020000ADBEB4654465BF8040B01F033FF71A07A
:1010300001F030FF641EF6D1BAF1030F45D1009BD9
:10104000187860B10A220021184602F075FA0446A9
:101050000120C04608B1A14601E0002400E00124BF
:10106000019B187848B10A220021184602F064FA60
:1010700082460120C04608B155460120044205D1F0
:1010800008F1940001F006FF042623E008F1C400F3
:1010900001F000FF3D60C7F8049001F0D8FF05287B
:1010A00003D001F0D4FF042802D1062002F097FA01
:1010B000042002F047F8786801F0F7FEB4A001F0D0
:1010C000E9FE386801F0F1FE04E008F1F00001F0FB
:1010D000E1FE0326304603B0BDE8F08F70B5DFF8BF
:1010E000684D002020700121217086B004F014FAB0
:1010F0001122ADF800206B4601AA02F099F9FF23F6
:10110000DFF8482D40F2DB51601C02F01DFB451C4E
:1011100040F2DB51AAB2491B0220A0546D1C491BAE
:10112000AEB241F21603DFF8102E89B2A01902F018
:101130000BFB4519A9B2032060546D1C04F058FE46
:10114000022101A802F04CF804F01EFF009040F2CA
:10115000DC51491BA8B201AB05A289B2204402F0C0
:10116000F3FA9DE2002FFF1F3C450100AC2C00006C
:1011700025732C256400000070B5DFF8CC4C0020EE
:1011800020700121217086B004F0C6F91122ADF85B
:1011900000206B4601AA02F04BF9FF23DFF8AC2CCC
:1011A00040F2DB51601C02F0CFFA451C40F2DB51EB
:1011B000AAB2491B0220A0546D1C491BAEB241F2D9
:1011C0001703DFF8742D89B2A01902F0BDFA451992
:1011D000A9B2032060546D1C04F0D6FE034640F211
:1011E000DC51491BA8B2CCA289B2204402F0ACFA6F
:1011F00056E200002C00000070B5DFF84C4C0020D7
:1012000020700121217086B004F086F91122ADF81A
:1012100000206B4601AA02F00BF9FF23DFF82C2C0B
:1012200040F2DB51601C02F08FFA451C40F2DB51AA
:10123000AAB2491B0220A0546D1C491BAEB241F258
:101240001803DFF8F42C89B2A01902F07DFA4519D1
:10125000A9B2032060546D1C03F0EBF8034640F282
:10126000DC51B1EB0501A8B202A289B2204402F020
:101270006BFA15E2253030305800000070B5DFF809
:10128000C84B002020700121217086B004F044F981
:101290001122ADF800206B4601AA02F0C9F8FF2325
:1012A000DFF8A82B40F2DB51601C02F04DFA451C20
:1012B00040F2DB51AAB2491B0220A0546D1C491B0D
:1012C000AEB241F21903DFF8702C89B2A01902F016
:1012D0003BFA4519A9B2032060546D1C03F021F9B3
:1012E00007A1029100F10B03009300F11602019295
:1012F000034640F2DC51491BA8B20FF65432CBE151
:1013000044312E345600000070B5DFF83C4B00200D
:1013100020700121217086B004F0FEF81122ADF892
:1013200000206B4601AA02F083F8FF23DFF81C2B94
:1013300040F2DB51601C02F007FA451C40F2DB5121
:10134000AAB2491B0220A0546D1C491BAEB241F247
:101350000103DFF8E42B89B2A01902F0F5F9451971
:10136000A9B2032060546D1C01F067FE40F2DC5608
:10137000761B00230128A8B218BF012366A2B1B2D0
:10138000204402F0E1F98BE1445701000C5B0100BD
:10139000202C000070B5DFF8B04A00202070012139
:1013A000217086B004F0B8F81122ADF800206B4629
:1013B00001AA02F03DF8FF23DFF8902A40F2DB514A
:1013C000601C02F0C1F9451C40F2DB51AAB2491B76
:1013D0000220A0546D1C491BAEB241F20303DFF89A
:1013E000582B89B2A01902F0AFF94519A9B2032010
:1013F00060546D1C01F02BFE40F2DC56761B401E43
:1014000003280BD8DFE800F002040608012306E0F9
:10141000022304E0032302E0042300E00523A8B232
:101420003DA2B1B2204402F08FF939E12458010005
:1014300070B5DFF8144A002020700121217086B0B9
:1014400004F06AF81122ADF800206B4601AA01F001
:10145000EFFFFF23DFF8F42940F2DB51601C02F0BC
:1014600073F9451C40F2DB51AAB2491B0220A0547B
:101470006D1C491BAEB241F204030FF6604289B203
:10148000A01902F061F94519A9B2032060546D1C3E
:1014900001F067FDF2E000004459010070B5DFF88B
:1014A000A849002020700121217086B004F034F892
:1014B0001122ADF800206B4601AA01F0B9FFFF230D
:1014C0000FF6104240F2DB51601C02F03DF9451C62
:1014D00040F2DB51AAB2491B0220A0546D1C491BEB
:1014E000AEB241F205030FF6F43289B2A01902F050
:1014F0002BF94519A9B2032060546D1C02F04BF979
:1015000040F2DC510378491BA8B203A289B22044FF
:1015100002F01AF9C4E00000256400007C570100C5
:10152000904E010070B5DFF82049002020700121A5
:10153000217086B003F0F0FF1122ADF800206B4659
:1015400001AA01F075FFFF230FF6883240F2DB514C
:10155000601C02F0F9F8451C40F2DB51AAB2491BAD
:101560000220A0546D1C491BAEB241F206030FF6D7
:101570006C3289B2A01902F0E7F84519A9B203202C
:1015800060546D1C02F02AF9017A019140F2DC519D
:1015900042680092491B03680FF2DC127BE070B5D1
:1015A000DFF8A448002020700121217086B003F0EC
:1015B000B3FF1122ADF800206B4601AA01F038FFFD
:1015C000FF230FF6103240F2DB51601C02F0BCF832
:1015D000451C40F2DB51AAB2491B0220A0546D1CED
:1015E000491BAEB241F207030FF6F02289B2A019EF
:1015F00002F0AAF84519A9B2032060546D1C02F04C
:1016000039FB40F2DC510378491BA8B2D4A289B25D
:10161000204402F099F843E070B5DFF82C48002030
:1016200020700121217086B003F076FF1122ADF801
:1016300000206B4601AA01F0FBFEFF230FF6942267
:1016400040F2DB51601C02F07FF8451C40F2DB5198
:10165000AAB2491B0220A0546D1C491BAEB241F234
:1016600009030FF6782289B2A01902F06DF8451926
:10167000A9B2032060546D1C01F0ACFF0168039116
:10168000827B0292017B019140F2DC5182680092E0
:10169000491B436816A2A8B289B2204402F054F84C
:1016A00055FA80F5AAB20421A1546D1CDFF8CC0CC8
:1016B00001F0F0FBA8B201F0F8FBDFF8C40C01F078
:1016C000E9FBA9B2204601F0EEFBDFF8140E01F0B1
:1016D000E1FBA9B2204604F007FE00F0C1FC0020A7
:1016E00006B070BD305B0100B44E010080BC92C7F3
:1016F00025642C25642C25642C25642C256400008D
:1017000070B5DFF84447002020700121217086B0B9
:1017100003F002FF1122ADF800206B4601AA01F090
:1017200087FEFF230FF6AC1240F2DB51601C02F083
:101730000BF8451C40F2DB51AAB2491B0220A05411
:101740006D1C491BAEB241F20A030FF6901289B22A
:10175000A01901F0F9FF4519A9B2032060546D1CCE
:1017600002F03FF8017A019140F2DC5142680092A8
:10177000491B036800A28EE725642C25642C256490
:101780000000000070B5DFF8C04600202070012185
:10179000217086B003F0C0FE1122ADF800206B4628
:1017A00001AA01F045FEFF230FF6281240F2DB519B
:1017B000601C01F0C9FF451C40F2DB51AAB2491B75
:1017C0000220A0546D1C491BAEB241F20B030FF670
:1017D0000C1289B2A01901F0B7FF4519A9B2032074
:1017E00060546D1C02F0C4FA04A24178009140F2EA
:1017F000DC510378491B4EE7801319BC2530326455
:10180000253032640000000038B5DFF83C46002087
:10181000207040F2DC53ADF8003041F20C02694612
:10182000204600F023FCBDF8005040F2DC50401B85
:10183000ADF8000002F0DDFA03465DE22455010038
:1018400078B5DFF804468BB00020207040F2DC53FE
:10185000ADF8003041F20D026946204600F006FC6A
:10186000BDF8005040F2DC50401BADF8000002F023
:10187000B3FB0346BDF8001039A2601901F064FF04
:101880000646282101A802F0ABFB00BF06A001F02C
:1018900001FB01A801F0FEFA55FA86F5A9B2042071
:1018A00060547DE1984601000D0A54696D652D2D47
:1018B0003E0000002DE9F041DFF88C4584B00020A7
:1018C000207040F2DC53ADF80C3041F20E0203A957
:1018D000204600F0CBFBBDF80C5040F2DC50401B22
:1018E000ADF80C00002703F01FF9064601F0A5FB38
:1018F000012818BF012704F064FD804604F05FFD55
:101900000190CDF8088000964FEA0703BDF80C104F
:1019100015A2601901F018FF55FA80F5AAB204214A
:10192000A1546D1CDFF8540A01F0B4FAA8B201F01A
:10193000BCFADFF84C0A01F0ADFAA9B2204601F07A
:10194000B2FADFF89C0B01F0A5FAA9B2204604F028
:10195000CBFC00F085FB002004B0BDE8F081000066
:10196000256400008422000025642C2025642C209E
:1019700025642C20256400002DE9F047DFF8C844D9
:1019800086B00020207040F2DC53ADF8143041F2F4
:10199000210205A9204600F069FBBDF8145040F271
:1019A000DC50401BADF81400002703F0BDF80646DC
:1019B00001F043FB012818BF012702F03AFD8046E1
:1019C00004F0FFFC814604F0FAFC824603F0A8F81C
:1019D0000190CDF81080CDF80C90CDF808A00096BD
:1019E0004FEA0703BDF8141014A2601901F0ACFE11
:1019F00055FA80F5AAB20421A1546D1CDFF87C09C8
:101A000001F048FAA8B201F050FADFF8740901F0C9
:101A100041FAA9B2204601F046FADFF8C40A01F003
:101A200039FAA9B2204604F05FFC00F019FB00204F
:101A300006B0BDE8F0870000004F010025642C20AF
:101A400025642C2025642C2025642C2025642C2042
:101A5000256C640078B5DFF8F0438DB0002020706D
:101A600040F2DC53ADF8183041F20F0206A92046CF
:101A700000F0FCFABDF8185040F2DC50401BADF805
:101A8000180003F089F8064602210AA896ED020A1A
:101A900001F0A6FB022107A896ED030A01F0A0FBC6
:101AA000B069059007AA716904910AA93069039089
:101AB00002920191D6F80400BDF8181014A200900B
:101AC0006019336801F040FE55FA80F5AAB204218E
:101AD000A1546D1CDFF8A40801F0DCF9A8B201F0F4
:101AE000E4F9DFF89C0801F0D5F9A9B2204601F02D
:101AF000DAF9DFF8EC0901F0CDF9A9B2204604F0DB
:101B0000F3FB00F0ADFA00200EB070BD704F010085
:101B100025642C25642C25732C25732C25642C25F9
:101B2000642C25640000000070B5C74C8CB0002008
:101B3000207040F2DC53ADF8083041F2100202A9E7
:101B4000204600F093FABDF8085040F2DC50401BEC
:101B5000ADF8080002F0B2FD0646022109A896ED94
:101B6000000A01F03DFB022106A896ED010A01F0F2
:101B700037FB022103A896ED020A01F031FB06A90A
:101B800003A80091019009ABBDF808100FF2744250
:101B9000601901F0D9FD55FA80F5AAB20421A154CB
:101BA0006D1CDFF8D80701F075F9A8B201F07DF9D6
:101BB000DFF8CC0701F06EF9A9B2204601F073F905
:101BC000DFF81C0901F066F9A9B2204604F08CFB8D
:101BD00000F046FA00200CB070BD38B59A4C8CB0BD
:101BE0000020207040F2DC53ADF8083041F21102C1
:101BF00002A9204600F03AFABDF8085040F2DC5045
:101C0000401BADF8080004F0CBFC022109A801F04C
:101C1000E7FA04F0E1FC022106A801F0E1FA04F081
:101C200001FD022103A801F0DBFA06A903A8009137
:101C30000190BBE1804101003EB5834C0020207043
:101C400040F2DC53ADF8043041F2140201A9204601
:101C500000F00CFABDF8045040F2DC50401BADF827
:101C6000040002F07FFF00BF15A2016800914368E5
:101C7000BDF80410601901F067FD55FA80F5AAB2AD
:101C80000421A1546D1CDFF8F40601F003F9A8B299
:101C900001F00BF9DFF8E80601F0FCF8A9B22046E4
:101CA00001F001F9DFF8380801F0F4F8A9B2204694
:101CB00004F01AFB00F0D4F9002003B030BD00009E
:101CC00025642C256400000038B55F4C002020708E
:101CD00040F2DC53ADF8003041F21502694620466F
:101CE00000F0C4F9BDF8005040F2DC50401BADF8E4
:101CF000000002F035FA0378BDF80010C0A26019A8
:101D000001F022FD55FA80F5AAB20421A1546D1C00
:101D1000DFF8680601F0BEF8A8B201F0C6F8DFF8F7
:101D2000600601F0B7F8A9B2204601F0BCF8DFF870
:101D3000B00701F0AFF8A9B2204604F0D5FA00F0E0
:101D40008FF9002032BD10B53221DFF8800D05F08B
:101D50007DF8002400B10524204610BD30B53A4C72
:101D60008DB00020207040F2DC53ADF8103041F20D
:101D70001A0204A9204600F079F9BDF8105005A810
:101D800003F0FEFC40F2DC500DF12E01401B0391EC
:101D9000ADF810000DF125010DF12B00019105AA00
:101DA000029000920AABBDF810100FF2901202E1FF
:101DB00030B5254C8BB00020207040F2DC53ADF8DC
:101DC0000C3041F21B0203A9204600F04FF9BDF888
:101DD0000C5004A803F04CFD40F2DC500DF1290139
:101DE000401B0291ADF80C000DF121010DF1260010
:101DF000009101900DF11003BDF80C1014A26019B0
:101E000001F0A2FC55FA80F5AAB20421A1546D1C80
:101E1000DFF8680501F03EF8A8B201F046F8DFF8F7
:101E2000600501F037F8A9B2204601F03CF8DFF870
:101E3000B00601F02FF8A9B2204604F055FA00F0E0
:101E40000FF900200BB030BDC015FF1FD4200000DB
:101E500025732C25732C25732C25730038B5DFF8DA
:101E6000704C0020207096B003F0FDFF012113A8F4
:101E700001F0B6F904F022F8012110A801F0B0F940
:101E800004F009F801210DA801F0AAF904F065F8A1
:101E9000012107A801F0A4F905A804F039F89DF87C
:101EA00018009DED050A08B9B1EE400A01210AA803
:101EB00001F096F940F2DC50ADF8100041F21C023E
:101EC00004A9204600F0D2F8BDF8105040F2DC50D2
:101ED000401BADF8100007A903910AAA10A80DAB8A
:101EE00002920190009313ABBDF8101013A2601979
:101EF00001F02AFC55FA80F5AAB20421A1546D1C08
:101F0000DFF8780400F0C6FFA8B200F0CEFFDFF8DB
:101F1000700400F0BFFFA9B2204600F0C4FFDFF854
:101F2000C00500F0B7FFA9B2204604F0DDF900F0CB
:101F300097F8002017B030BDDC20000025732C2559
:101F4000732C25732C25732C2573000038B5DFF80E
:101F5000804B002121708CB0002005F01DF802217B
:101F600009A801F03DF9012005F016F8022106A8A4
:101F700001F036F903F0F1FF022103A801F030F976
:101F800040F2DC50ADF8080041F21D0202A92046E3
:101F900000F06CF8BDF8085040F2DC5003A9401B7B
:101FA000019106AAADF80800009200BF0DF12403CC
:101FB000BDF8081013A2601901F0C6FB55FA80F5B0
:101FC000AAB20421A1546D1CDFF8B00300F062FF37
:101FD000A8B200F06AFFDFF8A80300F05BFFA9B227
:101FE000204600F060FFDFF8F80400F053FFA9B2CC
:101FF000204604F079F900F033F800200DB030BD30
:102000002564000025732C25732C25730000000027
:102010007CB50546DFF8584C00202070C823ADF889
:10202000003041F211126946204600F01FF8BDF859
:102030000000C0F1C801ADF800100646BDF8001060
:102040002B46CCA2204401F07FFB56FA80F080B2F0
:1020500004212154401C80B200222254204676BD27
:1020600040F2DC51DFF8680A04F0A0BFF8B504467E
:1020700086B00D4601202070164629884A1E2A8007
:10208000112703F049FAADF800706B4601AA01F080
:10209000CFF929880FA2FF23601C01F055FB471CD4
:1020A0002888C01BBAB228800221A1547F1C29882D
:1020B0000AA2C91B2980B8B2334689B2204401F074
:1020C00043FBC719BAB20321A1547F1C2F80012002
:1020D00007B0F0BD253032580000000025303458DC
:1020E000000000002DE9F84384B00446884600F063
:1020F000D1FE04232C226946204601F0CFF8074682
:102100000FF2801000F0C6FE0025012F0CDB6E469A
:102110003C460FF2642956F8040B00F0BBFE48461B
:1021200000F0B8FE641EF6D1042F24D10098DFF829
:10213000442B414600F05FFD441E0198DFF8382B28
:1021400008F10401A44100F056FDE44300EAD47410
:102150000298DFF8282B661E08F10801B64100F04E
:102160004AFDF64310EAD67F0AD10FF2341000F090
:1021700091FE042504E00FF2481000F08BFE0325C9
:10218000284605B0BDE8F0832DE9F84386B0044643
:10219000884600F07FFE06232C226946204601F087
:1021A0007DF8074637A000F075FE012F4FF00009BB
:1021B0000BDB6D463C4670A655F8040B00F06AFE3A
:1021C000304600F067FE641EF6D1062F52D100980B
:1021D000DFF8A02A08F1040100F00DFD471E019868
:1021E000DFF8942A08F10801BF4100F004FDFF4325
:1021F00000EAD77702987D1EDFF8807A3A4608F128
:102200000C01AD4100F0F7FCED4300EAD5750298F2
:102210006E1E3A4608F10D01B64100F0ECFCF643A3
:1022200000EAD6760398751E3A4608F10E01AD41D4
:1022300000F0E1FCED4300EAD57503986E1E3A46C6
:1022400008F10F01B64100F0D6FCF64300EAD6765D
:102250000498DFF8302A741E4146A44100F0CBFCFC
:10226000E44310EAD47F0AD10DA000F013FE4FF032
:10227000040904E012A000F00DFE4FF003094846E7
:102280002AE100000A50574D2053657420526563BF
:1022900065697665642056616C756573203A000047
:1022A0000A2050776D2053657456616C75652F73E5
:1022B000204F7574206F662052616E6765000000C4
:1022C0000A2050776D2053657456616C75652F73C5
:1022D00020496E76616C6964000000002DE9FE43C0
:1022E00004460D460FF6F81000F0D4FD204600F02D
:1022F000D1FD02232C226946204600F0CFFF07467D
:102300000FF6A81000F0C6FD0026012F0CDBE846F2
:102310003C460FF2640958F8040B00F0BBFD484638
:1023200000F0B8FD641EF6D1022F19D1009B187879
:1023300068B10A220021184601F0FEF8441EA441AB
:10234000E443E40F204601F01FF918B12C700FF69A
:10235000C81002E004260FF6A01000F09BFD04E078
:102360000FF6C41000F096FD0326304603B0BDE81A
:10237000F0830000255800002C000000BC2C000059
:10238000CC2C00002DE9F043044687B00FF6B410C2
:10239000DFF8F49800F07EFD204600F07BFD072377
:1023A0002C226946204600F079FF0746484600F097
:1023B00071FD0025012F0CDB6C46B846BBA654F816
:1023C000040B00F067FD304600F064FDB8F1010831
:1023D000F5D1072F7AD103F073F807460098102142
:1023E00001F0DAF8441E0198A441402101F0D4F82C
:1023F000E44300EAD4740298661EB641022101F05B
:10240000CBF8F643039A00EAD676711E894110781C
:10241000C943002818BF302806D0312806D150788B
:10242000401E8041C00F02E0012000E00020049A1D
:1024300000EAD1711078002818BF302806D0312862
:1024400006D15078401E8041C00F02E0012000E01C
:102450000020059A01401078002818BF302806D0C7
:10246000312806D15078401E8041C00F02E0012083
:1024700000E00020014223D0009A1121384601F0EB
:1024800063F9019A412107F1110001F05DF9029A07
:10249000032107F1520001F057F903990A7807F177
:1024A00055000270049B19784170059A117881706B
:1024B000012003F05EF90FF6AC0000F0EBFC0AE03F
:1024C00009F12C0000F0E6FC042504E009F15400B9
:1024D00000F0E0FC0325284607B0BDE8F0830000CB
:1024E000D82C00002DE9FE4304460FF68C00DFF8DF
:1024F0009C9700F0CFFC204600F0CCFC02232C225D
:102500006946204600F0CAFE0746484600F0C2FC75
:102510000025012F0BDBE8463C4664A658F8040B67
:1025200000F0B8FC304600F0B5FC641EF6D1022F76
:102530001CD10098017861B130290DD0312904BF38
:102540004078002808D009F1300000F0A3FC0425F1
:1025500011E04FF0FF3002E0A1F1300040B203F093
:102560000BF90FF6300000F095FC04E009F15C0077
:1025700000F090FC03252846F8E62DE9F8470446CC
:10258000DFF80C7789B0384600F084FC204600F074
:1025900081FC02F089F8064696E80E106846002590
:1025A00080E80E1005232C2204A9204600F076FEB8
:1025B000804607F1280000F06DFCB8F1010F0DDB3B
:1025C0000DF1100944460FF2E40A59F8040B00F02B
:1025D00061FC504600F05EFC641EF6D1B8F1050FB8
:1025E0005BD1DFF8B0460498224669460DF1100928
:1025F00000F001FBB0F10108D9F80400224601A95E
:1026000068EB080800F0F7FA6FEA080800EAD870EB
:10261000B0F1010AD9F80800224602A96AEB0A0AB9
:1026200000F0E9FA6FEA0A0A00EADA70B0F101088C
:1026300068EB08086FEA08004FEAD078D9F80C0078
:10264000224603A900F0D7FA18EA000F1FD007F1BD
:10265000880000F01FFC684690E81E0086E81E0017
:10266000084600F022FC11A4204600F013FC70681C
:1026700000F01BFC204600F00DFCB06800F015FCDB
:10268000204600F007FCF06800F00FFC0AE007F1BC
:10269000540000F0FFFB042504E007F1B40000F053
:1026A000F9FB032528460AB0BDE8F0872C0000009E
:1026B00038B5DFF8E44584B00020207040F2DC53E8
:1026C000ADF80C3041F2140203A92046FFF7CEFC0E
:1026D000BDF80C5040F2DC50401BADF80C0001F08E
:1026E000E3FFC16802918268019241680FF2BC6207
:1026F00000910368BDF80C10601901F025F855FA37
:1027000080F5AAB20421A1546D1C0FF2B05000F064
:10271000C1FBA8B200F0C9FB0FF2B05000F0BAFB49
:10272000A9B2204600F0BFFB0FF2AC5000F0B2FBA4
:10273000A9B2204603F0D8FDFFF792FC002005B0B7
:1027400030BD2DE9F847ADF5006DB9B0044600F095
:10275000A1FB03232C2203A9204600F09FFD06467F
:102760000FF2546000F096FB0025002E0DDD0DF1F8
:102770000C0934460FF2483859F8040B00F08AFB74
:10278000404600F087FB641EF6D1032E3DD103992D
:10279000087800281FBF03AE71680878002834D07D
:1027A00003980A22002100F0C7FE044670680A223E
:1027B000002100F0C1FE0646A64220D340F20120CF
:1027C00086421CD2DCB1009623460FF20C62322105
:1027D00006A800F0B9FF06A800F05CFBB3B2A2B2F5
:1027E000322106A804F096FC80460FF20C600FF22E
:1027F000206900F04FFB0024252606AF38E0DFF803
:102800009C0400F047FB0425E2E0DFF8940400F0AC
:1028100041FB0325DCE04179827942EA0122019201
:102820000DF5D47C0079009016FB04FE4A46242165
:102830000CEB0E0018E006A800EBC400437801780A
:10284000C2781B0443EA0163817843EA01231343FE
:10285000002CE0D17879B97941EA002101914A460A
:102860003879009025216AA800F06EFF641CE4B25C
:10287000444501D2322CDEDB954C40F2DC51ADF800
:102880000810257003F073FD022841F21F070FF2B4
:10289000302957D102F040FECDE900013A4602A9A5
:1028A000204604F061FDBDF808700FF2705A40F246
:1028B000DC50C01BADF80800E555204600F0EAFAF0
:1028C0007A1E92B22146022003F030FD504600F0FD
:1028D000E1FA0C225146022003F028FD00271DE0FA
:1028E0006AA806FB07F100EB010A504600F0D2FA95
:1028F000504601F01DFA82B25146022003F016FD47
:10290000A8EB0700022807D301224946022003F062
:102910000DFD484600F0BEFA7F1CBFB24745DFD32D
:10292000FFF79EFB5D20207022217D226170A27046
:10293000E570204600F0AEFA03222146022003F0A3
:10294000F5FC45E03A4602A92046FFF78FFBBDF8AB
:10295000087040F2DC50C01BADF808003A46214632
:10296000002003F0E3FCE555204600F093FA002731
:102970001DE06AA806FB07F100EB010A504600F0D3
:1029800089FA504601F0D4F982B25146002003F092
:10299000CDFCA8EB0700022807D3012249460020FE
:1029A00003F0C4FC484600F075FA7F1CBFB24745EF
:1029B000DFD3FFF755FB5D20042120706170A57007
:1029C00002222146002003F0B1FC204600F062FA0A
:1029D000FFF746FB0DF5006D28463AB0BDE8F087DD
:1029E00080B500F057FA04F097FB002002BD70B5E7
:1029F0009CB06A46C9B200F06DF8040015D10FF220
:102A00004C4000F047FADDE9000100F04EFADDE944
:102A1000000100244FF6FF72A14208BF904204D18A
:102A20000FF2384000F036FA0724250018BF072CB3
:102A300032D10FF2F83000F02DFABDF8080000F0A6
:102A400034FABDF80800214A002113465C8884420C
:102A50000AD0491C10333229F8DB3229914E08DBA9
:102A600000203060022417E08E4802EB0112026061
:102A7000F3E73168002479B149680DF10A0088470D
:102A8000040009D131688A680120904720B10FF213
:102A9000AC3000F0FFF90524072D18BF062D0CD02F
:102AA0002046FFF7B5FA054600F0F4F9284601F094
:102AB0003FF981B2284603F017FC20461CB070BDD8
:102AC0002C00000078490160322070470000FF1F91
:102AD000C015FF1FF0B50646A1B000200024334604
:102AE0000D4601E0641CA4B213F8011B012901D0BA
:102AF000AC42F7DB335D012B57D1641CA4B2311912
:102B000007E011F8013B87B2641C0DF80730A4B24E
:102B1000401C0B78022B01D0AC42F2DB315D022964
:102B200043D180B200230DF8003017461022002157
:102B3000684604F053FDC7E90001641CA4B20020FC
:102B40008DF80000311907E011F8012B83B2641CE5
:102B50000DF80320A4B2401C0A78032A01D0AC422D
:102B6000F2DB315D032920D180B200220DF8002074
:102B700000211022684600F0DFFC3881641CA4B2FA
:102B800000208DF80000311907E011F8012B83B205
:102B9000641C0DF80320A4B2401C0A78042A01D05A
:102BA000AC42F2DB315D042902D0012021B0F0BD3E
:102BB00080B200210DF800106B4631A2642107F1AC
:102BC0000A0000F0C1FD08232C2219A9684600F074
:102BD00065FB10B9032021B0F0BD19AB03EB8000F9
:102BE000102250F8040C002100F0A6FC87F86E00BB
:102BF00021B00020F0BD70B50C460178154639B102
:102C00000A22002100F098FC0646A84708B1266079
:102C1000012070BD7CB504461F4D0020287040F295
:102C2000DC53ADF800304FF4885269462846FFF770
:102C30001DFABDF800000FF23C2340F2DC51091AE6
:102C4000ADF800100646BDF800100DA2284400F0B3
:102C50007BFD56FA80F292B20420A854521C92B224
:102C60002946204603F062FBFFF7FAF973BD000026
:102C70005829FF1F6D3500007135000047350000F1
:102C80002573000075350000104E0100F04B010067
:102C90008843010083350000C015FF1FA8530100C1
:102CA000CC530100FC2EFF1F0000FF1F0A7374614C
:102CB00074652056616C756573203A000D0A646175
:102CC0007461436F756E742D3E0000000D0A4461FF
:102CD00074612D3E000000000D0A456E6400000086
:102CE0000D0A496E2050726F636573735365745398
:102CF000746174652D3E00000A204D6F6465205399
:102D0000657456616C75652F73204F7574206F66FE
:102D10002052616E676500000A204D6F6465205384
:102D2000657456616C7565000A204D6F64652053AB
:102D3000657456616C75652F7320496E76616C6998
:102D4000640000000D0A496E2050726F6365737352
:102D50005365745A6967626565436F6E6669672D6E
:102D60003E0000000A5A696762656520436F6E661F
:102D700069672020536574000D0A496E2050726FF8
:102D80006365737352657365745A69676265654EEE
:102D9000572D3E000A5A696762656520204E7720EC
:102DA00052657365742020536574000025642C25DA
:102DB000642C25642C2564000A5265717565737452
:102DC000204C6F67205265636569766564205661A3
:102DD0006C756573203A00000A5374617274496E11
:102DE000646578203D2025642C20456E64496E641E
:102DF0006578203D202564000D0A496E2041504928
:102E00002050726F63657373696E672D3E0000001A
:102E10005B256C642C25642C25645D002C225641B6
:102E20004C554553223A225B000000000A434D44B2
:102E30002056616C75653A20000000000A456570F7
:102E4000726F6D204572726F720000000D0A44654A
:102E5000766963652049442D2D3E00000A2057699C
:102E60006C6420436172642044657669636520491F
:102E7000440000002A2A2A2A52454E20434F4E542D
:102E8000524F4C4552202D2044312E34562A2A2AA6
:102E90002A00000010B5044611E001B50121684682
:102EA00004F0CCFB01BD04F0C9BB10B50346094CCE
:102EB00007A2FFE73221204600F046FC204600F042
:102EC00037FF81B22046BDE8104004F0B7BB0000D8
:102ED00025640000582CFF1F00B585B0C1B26846BC
:102EE00000F07EF9684600F023FF81B2684604F0E6
:102EF000A5FB05B000BD30B4002513E050F8042B4D
:102F0000D30744BFA9F101039A18091F042942F805
:102F1000045BFAD213468C0744BF15809B1CC9077B
:102F200048BF1D7050F8041B0029E7D130BC704722
:102F300070B586B091E8780002AA009082E8780027
:102F400001F012FE009A4168914238BF009103D30C
:102F50000068824238BF0090684601F0D0FD06B09C
:102F600070BD8348704783487047000038B5804D76
:102F70006C7C0B2C34D8DFE804F02C3313101E23A8
:102F8000250D0B2015060021052000F063F80CE04C
:102F9000062118E00021032016E00221022013E0A0
:102FA000012110E0287C012802D1012169741CE074
:102FB0000021012008E0032105E0287C012808D138
:102FC000042107E00521022000F044F80120687484
:102FD0000BE00021022000F03DF80120687403E0BE
:102FE0000121012C697402D00CB101F014FA01F036
:102FF000BBF8E87C00BB01F086F9044601F0ACF8B0
:10300000012800D0C4B1287C01280CD100F0B6FE04
:1030100070B100F0E1FA002818BF062808D101209D
:1030200000F0DDFA04E0022804BFA87C032803D1E5
:10303000BDE8314000F0D8BA31BD4D48007C704742
:10304000012808BF0A2001D000B100207BE04848D9
:10305000807C704770B5012886B005460E4605D1C4
:1030600001F0F7F9012804BF02250526404CE07C59
:1030700025740228A6745DD06D1E042D5AD8DFE891
:1030800005F053033A3A4E00761E052E52D8DFE87B
:1030900006F021150D4E30036569012001F03CFD5D
:1030A00021462846FFF744FF06B070BD00F094FAB1
:1030B000002818BF06283DD1012031E0012001F091
:1030C0002BFD94E82E0002A8012480E82E008DF844
:1030D00004401FE0012001F01FFD94E82E0002A82B
:1030E000002480E82E008DF8044001F03DFD40688A
:1030F00013E00B201CE0002000F071FA012001F029
:103100000BFD1C4991E83C0002A8012680E83C0028
:103110008DF8046001F028FD006800901CE7002095
:1031200000F05DFA06B070BD002000F058FA0720EC
:1031300001F0F2FC06B070BD0D49C87470470C4830
:10314000C07C704700BF0A494874704780B501F0E1
:10315000E7FA0949486840B1401E002803DC012015
:103160000870002001E000220A70486001BD0000E4
:10317000CC2DFF1F982EFF1F582FFF1FF8B50025DD
:103180000C4600280EE0424B80FB03639B1003EBD0
:10319000D37303EB8307A0EB4700303001F8010B3A
:1031A0006D1C1800EFD1561B954205DA30223146CE
:1031B000601904F0FBFA7519691E00202246631895
:1031C00007E016781F7802F8017B03F80169401CBC
:1031D000491E8842F5DB002060552846F2BD0000FC
:1031E000F8B50025B5EE400AF1EE10FA2DED048B8E
:1031F0000E4604D5FFEE000A012520EE200AFDEE62
:10320000C00A0446B8EEE01A30EE418A0122214697
:1032100010EE900AFFF7B2FF074636B32E20E055B6
:10322000304604F0F7FA41EC110B9FED1A0B04F055
:1032300006FB3246601CC619B0EE409AF0EE609A6A
:10324000174618EE100A04F003FB53EC192B04F098
:1032500023FB04F0F3FB01EE100ABDEEC11A11EEE0
:10326000100A3A463146FFF789FF75B1204600F053
:103270005FFD401C40B2621C03E0215C1154401E03
:1032800040B20028F9D52D202070BDEC048BF1BD93
:103290006766666600000000000024402DE9F041EA
:1032A0000D460446164698462C6000F041FD012765
:1032B000B0B1204600F03CFDC0B2002810DD2178FE
:1032C000B14208D100234745237008DA611C45F854
:1032D00027107F1CFFB2641C401EF0D100E00027C5
:1032E0003846BDE8F08130B4A0F130050A2D38BF72
:1032F000A0F130030FD3A0F16105062D38BFA0F176
:10330000570308D3A0F14104062C38BFA0F13703BE
:1033100001D300B90023A1F130040A2C38BFA1F178
:1033200030000FD3A1F16104062C38BFA1F1570082
:1033300008D3A1F14102062A38BFA1F1370001D319
:1033400001B9002030BC40EA0310C0B270472DE93B
:10335000F04706468A46174600F0EAFC84B200258C
:103360001CB138884000A04203D23D800020BDE857
:10337000F0876108B4EB4100A8462AD030780125D7
:10338000A0F130030A2B38BFA0F130010FD3A0F118
:103390006103062B38BFA0F1570108D3A0F1410209
:1033A000062A38BFA0F1370101D300B90021641CFF
:1033B0008AF80010A846A4B20BE0A8B26D1CA9B20E
:1033C000305C715CFFF78FFF0AF809006D1C08F193
:1033D00001081FFA88F904EBD470B9EB600FECDB3D
:1033E000A7F800800120BDE8F08710B40346002054
:1033F000002111E0A4F14102062A06D2373C04E084
:10340000A4F16102062AF5D2573C090141EA107184
:1034100004F00F0444EA00101A783AB113F8014B93
:10342000A4F130020A2AEBD2303CEEE710BC704720
:10343000F0B40D460446002111700820E6B23709A9
:103440000A2FB3F800C0B4BF3037373706F00F0685
:103450000A2EACEB010CB4BF303637364FFA8CFC79
:10346000BCF1030F0DDB5FFA81FC491C02F80C6014
:10347000240ACEB244EA0564491C2D0A9755401E21
:10348000DCD1CCB200201055641E151907E0167867
:103490002F7802F8017B05F80169401C641EA042E8
:1034A000F5DBC9B219800120F0BC70472DE9F84363
:1034B00081460D0090461C4608BF6D464F4600E011
:1034C0007F1C387804F0EEFA0028F9D13E782D2ED2
:1034D00018BF2B2E05D117F8010F04F0E3FA50B9ED
:1034E00000E02B26234642462946384604F0E4FAFB
:1034F00029688F4204D1C5F800900020BDE8F2830E
:103500002B2E04D1B0F1004F06D2BDE8F2832D2E50
:10351000FBD1B0F1004F0CD9AFF300800CB101200A
:1035200020602D2E14BF6FF000404FF00040BDE82A
:10353000F2834042BDE8F2830023B7E710B10628CA
:103540008041C00F704718E0B5EE400AF1EE10FA66
:1035500008DBDFED050AB4EE600AF1EE10FA01D5E2
:103560000120704700207047010020410120704772
:10357000012070470120704700BF65288041C00FBF
:103580007047B0F1004FF9E7010018BF012801D1E1
:10359000012070470020704738B504460D4600F002
:1035A000C7FB81B28D4211DB012001290FDB22789C
:1035B000A2F130030A2B21BFA2F14105062D613A89
:1035C000062A03D2641C491EF1D132BD002032BD4F
:1035D00047487047474870474548007C7047444912
:1035E00008747047000000002DE9F041404C217C38
:1035F000491E042986B06FD8DFE801F003092F3C8B
:10360000610000BF3CA0FFF745FC0221217400BF10
:103610003FA0FFF73FFC0221032003F0CBFC012079
:1036200001F07AFAFFF709FD012802A805D1314916
:1036300091E86C0080E86C0003E094E8805180E839
:10364000805100218DF8041001F08EFA406800903E
:10365000684601F054FA03203DE001F061FA0E28BB
:103660003AD101F099FA016989B2042003F0A2FC71
:10367000042020742DA0FFF70DFC0321032003F08C
:1036800099FC012001F048FAFFF7D7FC012802A8B5
:1036900005D1184991E86C0080E86C0003E094E8DB
:1036A000805180E8805101218DF8041001F05CFA0E
:1036B00000680090684601F022FA05200BE001F056
:1036C0002FFA0E2808D101F067FA416989B2052066
:1036D00003F070FC0620207406B0BDE8F0810448B9
:1036E000017C052901D101207047002070470000AE
:1036F000242EFF1F482EFF1F0A204379636C65208C
:103700004D6F64652053746172746564000000003D
:103710000A204379636C6520506F7369746976651C
:103720002053746172746564000000000A204379BC
:10373000636C65204E6567617469766520537461BA
:10374000727465640000000008B438B585B009AC37
:1037500000250494039500290EBF01950190491E90
:103760000291009504AB01A9074878441A3004F08F
:1037700043FA019901B10D70002858BF039806B0B3
:1037800030BC5DF808FB00BF8F05000080B504F079
:10379000B5FC012002BDDFF8AC03704738B5DFF897
:1037A000A8530446287D08B1012005E000F030F858
:1037B00002280CBF0F2007202874FFF73EFC0128C9
:1037C0002046BDE834400CBFDFF88013DFF88013DB
:1037D0000AE0DFF87413072008747047DFF87003FD
:1037E0007047DFF86803704730B4DFF86823107063
:1037F000101D91E8380080E838001178DFF8482380
:10380000D17430BC7047DFF84003007C7047000083
:1038100010B504F0CBFC0324032808D8DFE800F03F
:1038200006060204002402E0012400E002242046EF
:1038300010BD000038B5C44C2DED028B207C0E2845
:1038400000F21D81DFE810F00F001600BE006D00D1
:10385000770090001B01BC00CD00DA001B01FC00CA
:10386000FE001B0116000021E1619FEDB50A04F086
:10387000A3FC04E10220A074607404F0BCFC00EE20
:10388000100AB8EE400A84ED070A0FF22830FFF75D
:1038900001FB032094ED070AFFF71EFB0020607573
:1038A000FFF7B6FFE17C02002DD0012827D161B3DC
:1038B000A84890E82E0084E82E00A748FFF7EAFA0F
:1038C000A6A0FFF7E7FA2078FFF7EFFAAAA0FFF724
:1038D000E1FA6068FFF7E9FAACA0FFF7DBFAA0684D
:1038E000FFF7E3FAAEA0FFF7D5FA207BFFF7DDFA8A
:1038F000207870B9022004F05CFC0320BEE00328AD
:10390000D6D1080001D00129D2D101206075022151
:10391000B1E0012840F0B380032004F04AFC03200A
:10392000ACE0FFF775FF20B1FFF772FF012840F010
:10393000A6800420A2E0B3EE040AD4ED070AF4EE58
:10394000400AF1EE10FA44BF84ED070A04F047FC88
:103950000020A074052121749BA0FFF79BFA03208F
:1039600094ED070AFFF7B8FAA07C01001CD104F01F
:1039700042FC217B081A00EE100AB8EEC00AB5EE30
:10398000400AF1EE10FA9FED6E8A07D4606828B104
:1039900000EE900AF8EE600A80EE208A012084EDA5
:1039A000068A2062A0746AE0022868D18CA0FFF722
:1039B00071FA032094ED070AFFF78EFA06205DE006
:1039C0000021617502200821A074217404F013FC09
:1039D00000EE100AB8EE400A84ED070A87A0FFF750
:1039E00059FA002060740921217400BF8AA0FFF7F2
:1039F00051FA032094ED070AFFF76EFA607C01008C
:103A00001AD104F0F8FB00EE100AB8EE400AB5EE49
:103A1000400AF1EE10FA9FED4A8A07D4A06828B157
:103A200000EE900AF8EE600A80EE208A012084ED14
:103A3000068A2062607422E0022820D10C201DE05A
:103A4000002161757BA0FFF725FA0020E0619FED62
:103A50003C0A04F0B1FB012004F0ABFB0220A0748F
:103A60006074607D012803D1002161750E2005E09E
:103A7000207D10B10D21217401E00F202074BDECD8
:103A8000028BBDE8314004F03BBB000010B504F0F0
:103A9000BFFB2D4CA07C012828D1206A401E20624B
:103AA0004DD1207BD4ED060AF5EE400A00EE100A57
:103AB000F1EE10FAB8EE400A0FD094ED071A71EE4D
:103AC000200AB0EE601AB4EE401AF1EE10FA04DAF1
:103AD00084ED071AB0EE600A23E084ED070A04F0D3
:103AE0007EFB002002212062A17410BD607C0128B1
:103AF00025D1206A401E206221D194ED060AB5EE40
:103B0000400AF1EE10FA11D0D4ED070A30EEC00AE7
:103B1000F0EE400AF5EE400AF1EE10FA06D9C4EDD7
:103B2000070A04F05CFB0120206210BDE0619FEDFC
:103B3000040A04F054FB002002212062617410BDCD
:103B4000000000005805FF1F4405FF1FB42EFF1F93
:103B5000A82EFF1F382EFF1F545B01000A2042725F
:103B60002054617267657420446972656374696F7B
:103B70006E203A20000000000A2042722041636358
:103B8000656C2054696D65203A2000000A2042725D
:103B900020446563656C2054696D65203A200000FF
:103BA0000A204272205374656164792050574D3168
:103BB000203A20000A2042727573682053746172A3
:103BC00074203A20000000000A20427275736820B9
:103BD000416363656C205374617274203A00000085
:103BE0000A20427275736820416363656C20436FDD
:103BF0006D706C657465643A200000000A204272A2
:103C0000757368204D6F746F72204E6F726D616CAA
:103C10002053746F700000000A2042727573682090
:103C2000446563656C2053746172746564203A2046
:103C3000000000000A20427275736820456E64001F
:103C400038B52D492D4C002008704FF4005504F074
:103C5000EFFA00BF2FA00188ADF800106A460D21D1
:103C6000204604F0ABFBA56004F085FB04F089FB63
:103C7000656031BD2048704780B51F49087820B97C
:103C800004F079FB04F072FB03E004F07AFB04F02B
:103C90005EFB0CE080B51849087820B904F071FB90
:103CA00004F055FB03E004F066FB04F05FFB1449ED
:103CB0004FF40050086001BD0F490878002808BF84
:103CC00004F02BBB04F033BB0B490878002808BF75
:103CD00004F02DBB04F021BB07490878002808BF79
:103CE00004F02FBB04F030BB03490878002808BF5C
:103CF00004F02ABB04F025BB372EFF1FC0F00F4095
:103D0000C4F00F4080B504F036FBBDE8014004F07C
:103D100038BB000001008268521C8260426832B1E8
:103D20000268531C036011704168491E416070476E
:103D300000F10103810704D010F8011B820781B153
:103D4000FAD10268A2F10131914311F0803104BF30
:103D500050F8042FF6E709BAB1FA81F100EBD1006F
:103D6000401CC01A70472E00184900204860704758
:103D7000164870470088154908807047FEB500F066
:103D800065F80024F0B100F064F8684600F0B9F876
:103D9000684600F073F90D4E05467068A84211D0D0
:103DA000684600F07FF977783278C7EB07114FF457
:103DB0006163890013FB021282423FBF801A06280A
:103DC00075600124204603B0F0BD0000082FFF1FDE
:103DD00010B504F065FB441EA44104F0B7FBE443B6
:103DE00000EAD474601E8041C043C00F10BD10486B
:103DF00070470F48007870470D490878002818BFB1
:103E000004F070BB70470A490878002818BF04F016
:103E1000BFBB704706490878002818BF04F062BB92
:103E2000704703490878002818BF04F0B1BB7047F9
:103E3000FF05FF1F80B504F058FBBDE8014004F00A
:103E4000AABB43009F490120087070479D48007835
:103E500070479C4933E19C484178012901D10120F8
:103E600070470020704778B59848994E83B0016834
:103E700041F0005101600025306920F4705030613C
:103E8000304604F02FFDC00715D5684604F0D2FC7B
:103E90006946304604F096FC306940F48070306129
:103EA0000024306920F40070306100F06FF886491A
:103EB0000D70012016E004F065FD41F2100100686C
:103EC000884204D100F062F87F490D7000E00125BE
:103ED000706940F0100070614FF400417D4801604E
:103EE00000202C46784948700821304604F0E2FC56
:103EF00024B904F047FD41F210010160284604B0E6
:103F000070BD1CB504466946714804F0BDFCA2E0D2
:103F10007CB501886E4DADF800104FF400468278F4
:103F20008DF802200124C1786B4A8DF803100179C5
:103F30008DF8041041798DF8051080798DF8060010
:103F4000686920F0100068611660BFF34F8FBFF3FF
:103F50006F8F6946284604F07FFC18B1002400BF2B
:103F60005EA008E058490C7004F00CFD4FF6FF729B
:103F7000026000BF60A0FEF78DFF6869554940F000
:103F8000100068610E60204676BD0000E0B540F28A
:103F9000E2710C22ADF800108DF802201F210F22D3
:103FA0008DF803108DF80420192100228DF80510DA
:103FB0008DF806206846FFF7ABFF012806D100BF49
:103FC00052A0FEF767FF012003B000BD54A0FEF72A
:103FD00061FF002003B000BD3D4804F064BC000058
:103FE00030B587B004460D460DF11400FFF789FF88
:103FF0009DF81A009DF819109DF817304EA20490F4
:1040000003919DF81800BDF8141002900191294603
:104010009DF8160000902046FFF796FB07B030BDD4
:1040200078B50C4685B011468279049243790393A2
:1040300002790292B0F800503FA20195867800966E
:10404000C3782046FFF780FB06B070BD1CB50C4658
:10405000694604F04BFB9DF80300E070BDF80010CA
:1040600021809DF80200A0709DF8040020719DF849
:10407000050060719DF80600A07113BDE0B50188D0
:10408000ADF8001082788DF802200022C1788DF8FA
:104090000310ADF804208DF80620684604F0E9FA14
:1040A00003B000BD90F805C002798079CCEB0C110B
:1040B0004FF46163890013FB02121018704700204F
:1040C000087070479E2FFF1FFC05FF1F3C800440B7
:1040D00000D0034004E100E084E100E00A446174A0
:1040E000652054696D652056616C69646974792036
:1040F0004572726F720000000A20525443205365CB
:104100007420537563636573730000000A44656629
:1041100061756C7420525443432053657400000051
:104120000A44656661756C7420525443432053659C
:1041300074204552524F5200253032642D253032C2
:10414000642D2530346420253032643A25303264C1
:104150003A25303264000000DFF810030078704721
:10416000DFF80C037047000070B52DED028B00F0F6
:10417000B1FADFF8005330B1FFF72EFF6860A86D89
:1041800040F00200A86500F0A7FA30B1FFF724FF65
:10419000A860A86D40F00400A86500F09FFA30B157
:1041A000FFF71AFFE860A86D40F00800A86501F06D
:1041B0001FFEAE4C6078014600EE901AF8EE600AE1
:1041C000B4EE600AF1EE10FA0ED5A86DC0F300103F
:1041D000F8B90FF2A820FEF75DFEFFF7FDFE28619B
:1041E000A86D40F0100013E0801C00EE900AF8EE7D
:1041F000E00AF4EE400AF1EE10FA0AD595F85800FC
:10420000C10606D5A3A0FEF745FEA86D20F010005C
:10421000A865002002F0C0FEB0EE408A02F0BFFEAA
:10422000064696ED000AB4EE480AF1EE10FA1DD5E6
:10423000A86DC0F34010C8B99DA0FEF72BFE032067
:10424000B0EE480AFEF748FE9FA0FEF723FE0320CB
:1042500096ED000AFEF740FE8748FEF71BFEFFF7CB
:10426000BBFE6861A86D40F02000A86500F036F83C
:10427000207803282FD8DFE800F00204251201215E
:104280001EE0A86D38B300F04BF8AE6DA0A0EE654F
:10429000FEF700FE3046FEF708FE03201AE0E96D47
:1042A000A86D814209D000F03BF8AE6D98A0EE6594
:1042B000FEF7F0FD3046FEF7F8FDA86D58B9022173
:1042C000217008E0FEF7B9FE02281CBF0021FEF7AE
:1042D000C1FE01202070BDEC028B70BD10B501F055
:1042E000FCFC78B1634CA06DC0F3801050B900BFE6
:1042F0007AA0FEF7CFFDFFF76FFEA061A06D40F042
:104300004000A06510BD5B49886D81B0009020F031
:104310008000401E009A8A658041C00F01B070473E
:1043200080B55449886D009030F4C070009888655D
:1043300009D000F0F5FB0E281EBF00280B2000F06E
:10434000EBFB012002BD002002BD70B505464FF613
:10435000FF708542474C02D0280002D10020A065A2
:1043600070BD2E46112E03DAFFF736FE44F8260004
:104370000121A06D01FA05F50543A56570BD4FF655
:10438000FF7398423B4906D08A6D012303FA00F07F
:1043900022EA000000E000208865704710B5354C27
:1043A00094F85800810705D500F09AF9A06D20F027
:1043B0000200A06594F85800410705D500F097F970
:1043C000A06D20F00400A06594F85800010705D501
:1043D00000F094F9A06D20F00800A06510BD000069
:1043E00010B5244CA06D90B1FFF7D8FF42A0FEF7A6
:1043F00051FDA06D800900F00100FEF756FD94F814
:104400005800410648BF01F06DFC0020A065012165
:104410001648017010BD10B5164CA06D28B1FFF7FD
:10442000BDFFA06D20F01000A06501200F490870AD
:1044300010BD1048806D704710B50E48846D3CB1BA
:1044400033A0FEF727FD2046BDE81040FEF72DBD46
:1044500010BD0848806D000A00F001007047054853
:10446000816D481E8041C043C00F7047962FFF1FCB
:10447000972FFF1FAC2AFF1F785B01000A204C6FAB
:104480007720566F6C74616765204465746563744A
:1044900065642E000A204261747465727920566F3B
:1044A0006C74616765204E6F726D616C2E00000048
:1044B0000A43757272656E742054656D7065726121
:1044C000747572652D2D3E000A5365742054656D18
:1044D00070657261747572652D2D3E000A2042610F
:1044E0007474657279204661756C742044657465D6
:1044F000637465642E0000000A436865636B436C57
:10450000656172426174746572792D2D3E00000000
:104510000A204572726F7220436F6465203A000072
:1045200070475A487047000010B5584C58A20B21EC
:104530002046FFF709F900BF57A20B2104F10B0039
:10454000FFF702F904F11600BDE8104054A20B2158
:10455000FFF7FAB810B5FFF73BF802E010B5FFF728
:1045600039F8044600F024F864202073607310BD0D
:1045700010B5FEF7F6FC044600F01AF8642020732C
:104580006073BDE81040E5E710B5FEF7ECFCE8E726
:1045900080B5FFF723F902E080B5FFF722F94FF469
:1045A000FA6101604FF47A7264234260037201BDC4
:1045B000052101604FF4FA626421017341734FF4E5
:1045C0007A734621426083608173C173704780B5FE
:1045D00000F0C8FA19214160016001BD80B5FFF704
:1045E000C7FB002101700122427001BD80B5FFF7B9
:1045F00041FBFFE70021017001BD80B500F054F8D8
:104600004FF4FA71016040F6B832012343F6982165
:10461000C2608360416001BD80B500F04FF8B0EE2C
:10462000000A80ED000A80ED010A80ED020A01BD5A
:10463000704780B5FFF794FD3221017001BD80B550
:10464000FFF7A9F802E080B5FFF7D1FB0121017067
:1046500001BD0020FEF7F4BC0000000080B5FFF7AC
:1046600093FF04F0AFF90021017004F017FA002263
:10467000027000BF02F093FC9FED030A80ED000A78
:1046800080ED010A01BD00000000C842E42CFF1FBC
:104690004646464646000000302E315600000000D7
:1046A000534C3030300000000848704730B40749A0
:1046B00091E83C0080E83C0030BC704704487047FB
:1046C000034991EC030A80EC030A7047882EFF1F10
:1046D000D82EFF1F04F03EBA04F0DABA04F076BB1D
:1046E00080B504F03AFABDE8014004F03ABA80B56A
:1046F00004F0D1FABDE8014004F0D1BA80B504F06D
:1047000068FBBDE8014004F068BB80B501F0F2FE33
:1047100004F028FA04F0C4FABDE8014004F05EBBDE
:1047200080B504F095FA04F031FBBDE8014004F0D7
:10473000CBBB80B501F0DEFE01F0DCFE01F0DAFE5D
:10474000BDE8014001F08ABF80B510EE101A21F0DB
:1047500000402DED028BB0F5000F82B0B0EE608A04
:1047600006D20021009160B1684604F0CDFB08E05C
:10477000C00D21F0FF417E3841F07C51009000EEE9
:10478000101A20EE080A10EE102A22F00041009BB9
:10479000C80D1B18D0B1002B18DDFF2B0CDB10EE61
:1047A000101A02B04FF0FF4001F000410843BDEC89
:1047B000028B00EE100A01BD02B022F0FF4242EA75
:1047C000C352BDEC028B00EE102A01BD11B100985E
:1047D00004F0BEFB02B0BDEC028B01BD38B52DED7F
:1047E000028B040082B00D4600F0C78010EE100A64
:1047F000410000F0C28010EE101A48000016401C64
:1048000002D1490200F0B980002CB7EE008A6CD5C5
:10481000644200BFAFA1052008E0E20744BFD1ED2C
:10482000000A28EE208A6408091D401E002C18BFCB
:104830000028F2D110EE101A21F00040B0F5000F60
:1048400006D20021009160B1684604F05DFB08E0EB
:10485000C00D21F0FF417E3841F07C51009000EE08
:10486000101A80EE080A10EE102A22F00041009B78
:10487000C80D1B18A0B1002B12DDFF2B09DB10EEB9
:10488000101A4FF0FF4001F00041084300EE100AFB
:104890000AE022F0FF4242EAC35200EE102A03E08F
:1048A00011B1009804F054FB10EE100A410051D0F1
:1048B00010EE101A48000016401C01D1490249D0E0
:1048C000002C47D0DFED7A0AFFF73EFF10EE100A0A
:1048D00041003FD010EE101A48000016401C01D1D4
:1048E000490237D0641EEDD134E033DD79A10520D3
:1048F000E20744BFD1ED000A28EE208A6410091DAA
:10490000401E002C01DD0028F2D1F0EE480AFFF72E
:104910001BFF10EE100A41001CD010EE101A4800C8
:104920000016401C01D1490214D0002C12DDDFED2D
:10493000610AFFF709FF10EE100A41000AD010EEDD
:10494000101A48000016401C01D1490202D0641E12
:10495000002CECDC10EE100A410007D010EE101A0B
:1049600048000016401C08D1490206D1AFF3008070
:104970001DB1286840F00100286002B0BDEC028B38
:1049800031BD00002DE9F14183B01D001CBF0020A6
:104990002860039E0F46904603A804F03BFBC4101A
:1049A00020F00800012804F0010424D1009001AB9C
:1049B00003993A46304604F0BFFB10B99FED3E0A1A
:1049C00015E09DED020A0128B8EEC00A0FDD03A92B
:1049D000401EDFED3A0A51F8042BB0EE401A00EE0B
:1049E000102AB8EEC00A401E01EE200AF3D1019849
:1049F0002946404447E0022848D10120009001ABFD
:104A000003993A46304604F073FC10B99FED2A0A28
:104A100015E09DED020A0128B8EEC00A0FDD03A9DA
:104A2000401EDFED270A51F8042BB0EE401A00EECD
:104A3000102AB8EEC00A401E01EE200AF3D110EE93
:104A4000103A019A23F00041C80D02EB000714D080
:104A5000002F12DDFF2F09DB10EE101A4FF0FF4080
:104A600001F00041084300EE100A0AE023F0FF4382
:104A700043EAC75300EE103A03E011B1104604F0C8
:104A800067FA29464046FFF7A9FE0AE0032808BF57
:104A90009FED0C0A05D004280CBF9FED0B0A9FED7B
:104AA000060A0CB1B1EE400A04B0BDE8F081000086
:104AB0001EB14F0AAEC59D7400000000286B6E4EFB
:104AC0000000804D0000807FFFFFFF7F0023002259
:104AD00058E70000000020410000C84200401C468A
:104AE00020BCBE4CCA1B0E5AAEC59D7480B504F0E6
:104AF00003FD04F09FFDFEF749FE012002BDF0B466
:104B000090E8FC00DFF8141881E8FC000879DFF871
:104B10001018C876F0BC7047DFF8041808767047A4
:104B2000DFF8FC07007E704738B504F03DFD054610
:104B300004F0D8FD0324032D12D8DFE805F008089F
:104B4000020503280CD004E0022809D005E0022861
:104B500001D1002404E0032801D1012400E0022453
:104B6000204632BD01E0000000BFDFF8B807704703
:104B7000F8B5DFF8B407DFF8B44790E8EE1084E842
:104B8000EE1001F035F984ED030AFFF725FA6060B5
:104B9000FFF74FFCA061F1BDDFF890077047000000
:104BA000F8B5DFF87C472DED028B207E0F2800F250
:104BB000DE82DFE810F010001E00FF012301460135
:104BC0008801EB01FB0117022C02840298029A0271
:104BD000B602DC0228000021A162E16201F0E6FBDE
:104BE00094ED0A0A04F0E9FC94ED0B0A04F083FD4D
:104BF000BDE20121032002F0DDF9FEF71EFA81B2C9
:104C0000022002F0D7F90220A076607604F0F4FCCE
:104C100000EE100AB8EE400A84ED0A0A04F08AFD9C
:104C200000EE100AB8EE400A84ED0B0A0FF2D070C5
:104C3000FEF730F9032094ED0A0AFEF74DF9D2A0F1
:104C4000FEF728F9032094ED0B0AFEF745F9002042
:104C5000A083FFF769FFE17E020000F08B8001284E
:104C600040F08380002900F08880FEF738FD80B98D
:104C700001F0A3FB08B1FFF77BFFDFF8AC56FFF7AD
:104C8000ABF9286001F0B4F8002085ED020A286134
:104C9000686101F084FBDFF8840690E8EE0084E8A8
:104CA000EE00DFF88C562846FEF7F4F80FF29C6011
:104CB000FEF7F0F82068FEF7F8F80FF2A460FEF7B0
:104CC000E9F82079FEF7F1F80FF2AC60FEF7E2F8B0
:104CD00094ED020A0320B8EE400AFEF7FDF80FF249
:104CE000B060FEF7D7F8E068FEF7DFF80FF2B060CB
:104CF000FEF7D0F82069FEF7D8F80FF2B460FEF79F
:104D0000C9F8A07DFEF7D1F80FF2B860FEF7C2F83F
:104D1000207DFEF7CAF80FF2C060FEF7BBF8E07D19
:104D2000FEF7C3F80FF2C460FEF7B4F8607DFEF73B
:104D3000BCF894ED000AB8EE408A01F03EFB00EEAC
:104D4000900A94ED020AF8EE600AB8EE400A78EE96
:104D5000600AB4EE600AF1EE10FA15DB01F02DFBEB
:104D600000EE100AB8EE408A10E003287FF47DAF11
:104D7000080002D001297FF478AF012002212077BA
:104D8000217601F00CFBF2E138EE408A0FF2187048
:104D9000FEF780F80320B0EE480AFEF79DF8207970
:104DA00084ED0D8A010002D1FFF734F803E00128F9
:104DB00015D1FFF736F828B105F12800FEF76AF89B
:104DC0000B20D3E1207950B9022004F0F0FB02203F
:104DD00004F08BFC0120FEF7E1FC0320C6E1207902
:104DE000012840F0C481032004F0E1FB032004F01B
:104DF0007CFC0020FEF7D2FC0320B7E104F0DAFBD4
:104E0000054604F0D1FB854240F0B18104F070FC0E
:104E1000054604F067FC854240F0A981FFF784FE57
:104E200020B1FFF781FE012840F0A181FEF7EBFCE5
:104E3000062804D0FEF7E7FC0F2840F098810420F4
:104E400094E194ED0D8A01F0B8FA00EE100AB8EE84
:104E5000400AB4EE480AF1EE10FA03DB0220082102
:104E6000A0762176B3EE048A94ED0A0AB4EE480ADD
:104E7000F1EE10FA05D584ED0A8AB0EE480A04F086
:104E8000AFFB94ED0B0AB4EE480AF1EE10FA05D52B
:104E900084ED0B8AB0EE480A04F040FC0020A076B6
:104EA000052121760FF26C50FDF7F4FF032094EDFD
:104EB0000A0AFEF711F8BDA0FDF7ECFF032094ED00
:104EC0000B0AFEF709F8A07E010035D104F094FB2F
:104ED000217D081A00EE100AB8EEC00AB5EE400AAD
:104EE000F1EE10FA9FEDB28A07D4E06828B100EE27
:104EF000900AF8EE600A80EE208A84ED088A04F0B9
:104F000019FC617D081A00EE100AB8EEC00AB5EE71
:104F1000400AF1EE10FA9FEDA68A07D4E06828B1A6
:104F200000EE900AF8EE600A80EE208A012084EDFF
:104F3000098A2063A07614E0022812D10FF2E4401F
:104F4000FDF7A8FF032094ED0A0AFDF7C5FF97A01F
:104F5000FDF7A0FF032094ED0B0AFDF7BDFF06202F
:104F6000207694ED0D8A01F028FA00EE100AB8EED2
:104F7000400AB4EE480AF1EE10FAC0F2F8800220BE
:104F8000A0760821ADE000BF202C200094ED0D8A12
:104F900001F013FA00EE100AB8EE400AB4EE480A27
:104FA000F1EE10FAC0F2E3800820DFE001210020DA
:104FB0006177207702210820A176207604F01CFB7F
:104FC00000EE100AB8EE400A84ED0A0A04F0B2FBC3
:104FD00000EE100AB8EE400A84ED0B0A0FF25840BA
:104FE000FDF758FF00206076092121760FF25C4022
:104FF000FDF750FF032094ED0A0AFDF76DFFC6A0F0
:10500000FDF748FF032094ED0B0AFDF765FF607E76
:10501000010035D104F0F0FAA17D401A00EE100A2B
:10502000B8EEC00AB5EE400AF1EE10FA9FED608AC4
:1050300007D4206928B100EE900AF8EE600A80EEED
:10504000208A84ED088A04F075FBE17D401A00EEA9
:10505000100AB8EEC00AB5EE400AF1EE10FA9FED64
:10506000548A07D4206928B100EE900AF8EE600A4D
:1050700080EE208A012084ED098A2063607676E044
:10508000022874D1207F01281CBF607F012803D132
:10509000002161770C2069E00FF2C430FDF7FAFEC1
:1050A000032094ED0A0AFDF717FF9BA0FDF7F2FE1F
:1050B000032094ED0B0AFDF70FFF0A2056E001F0E4
:1050C0007CF900EE100A2068400000EE900AF8EE2D
:1050D000600AB8EE400AB4EE600AF1EE10FA46DB60
:1050E0000C21217643E0002020770FF29030FDF76D
:1050F000D1FE0020A062E0629FED2D0A04F05DFA6F
:1051000094ED0B0A04F0F7FA012004F050FA0120A4
:1051100004F0EBFAFEF75DFB0220A07660760D202E
:105120002076FEF770FB0D2803D0FEF76CFB0F28EE
:105130001DD101F03BF901F042F97B4D296940187E
:10514000286101F03EF9696940186861FFF710FDB8
:105150000821032001F02EFF207F012803D1002128
:1051600021770F2002E001F028F90E20207604F0CC
:10517000C5F904F061FAFEF75DFB207E98B10B38AB
:10518000032810D9FFF7D0FC010002D1FEF742FE40
:1051900003E0012807D1FEF744FE20B1BAA0FDF7D5
:1051A00079FE0C202076BDEC028BF1BD202C000096
:1051B0000000000070B55A4CA07E012853D1206B2E
:1051C000401E206340F0A780207DD4ED080A002512
:1051D000F5EE400A00EE100AF1EE10FAB8EE400AC1
:1051E00011D094ED0A1A71EE200AB0EE601AB4EEF6
:1051F000401AF1EE10FA06DA84ED0A1AB0EE600AEF
:1052000004F0EEF904E084ED0A0A04F0E9F901255E
:10521000607DD4ED090A0026F5EE400A00EE100A82
:10522000F1EE10FAB8EE400A11D094ED0B1A71EEBF
:10523000200AB0EE601AB4EE401AF1EE10FA06DA67
:1052400084ED0B1AB0EE600A04F068FA04E084ED15
:105250000B0A04F063FA012635425AD000210220DD
:105260002163A07670BD607E012854D1206B401E62
:10527000206350D1A07DD4ED080A0025F5EE400A48
:1052800000EE100AF1EE10FAB8EE400A11D094EDDB
:105290000A1A71EE600AB0EE601AB4EE410AF1EE3D
:1052A00010FA06DA84ED0A1AB0EE600A04F098F9F2
:1052B00004E084ED0A0A04F093F90125E07DD4EDC1
:1052C000090A0026F5EE400A00EE100AF1EE10FA87
:1052D000B8EE400A11D094ED0B1A71EE600AB0EEF0
:1052E000601AB4EE410AF1EE10FA06DA84ED0B1AF8
:1052F000B0EE600A04F012FA04E084ED0B0A04F048
:105300000DFA0126354204D0002102202163607687
:1053100070BD0121216370BD202C2000B42DFF1F22
:10532000B004FF1F502FFF1F482DFF1F642DFF1FCC
:10533000B851010080B5FFF73DFF04F06AF904F0B1
:1053400006FABDE80140FEF7A1BB00000A20546147
:105350007267657420436F756E74203A20000000F8
:105360000A205461726765742044697265637469C8
:105370006F6E203A200000000A20446563656C20AF
:105380004469666620436F756E74203A2000000001
:105390000A20416363656C2054696D65203A2000E2
:1053A0000A20446563656C2054696D65203A2000CD
:1053B0000A20417070726F6163682050574D312030
:1053C0003A2000000A205374656164792050574DDB
:1053D00031203A20000000000A20417070726F6195
:1053E00063682050574D32203A2000000A20537441
:1053F000656164792050574D32203A20000000004A
:105400000A20526F626F74205374617274203A20C4
:10541000000000000A20416363656C2053746172D0
:1054200074203A000A20416363656C20436F6D70FD
:105430006C657465643A20000A204D6F746F7220A9
:105440004E6F726D616C2053746F70000A2044655A
:1054500063656C2053746172746564203A200000A7
:105460000A20417070726F61636820436F756E74BB
:10547000205374617274203A000000000A20526FB9
:10548000626F7420456E64000A20526F626F742050
:10549000456467652053656E736F7220446574655B
:1054A00063746564000000000A20446563656C2035
:1054B000537461727420436F756E74203A0000005B
:1054C000DFF87803704710B5DFF874430FF2BD10B2
:1054D0000FF239216060A1600022DFF86803DFF875
:1054E0006813E0602161E261DFF86003DFF86013B8
:1054F0006061A161201D002104F094F928B90FF228
:105500001440FDF7C7FC002004E00FF22040FDF737
:10551000C1FC0120E07010BDDFF82403C17801292F
:1055200008BF04F0A3B94FF0FF300146704710B533
:10553000DFF80C43207898B9206AB0F5FA6F0FD3E2
:1055400004F007FA401E8041C043C00F20700021C4
:105550002078216220B10020FDF75CFBFEF76CFF94
:10556000207810BD78B5B64CE078012889B040F0BD
:105570008A80FFF7DCFF012808BF04F015FA94F9D0
:10558000020010F1010F08D0401E8041C043C00F3F
:1055900004F0D9F94FF0FF30A0706078002872D085
:1055A000A64D287860B12846FDF71FFF04F061F989
:1055B00010B90FF2E8305BE00FF2FC30FDF76AFC47
:1055C000687CB0B12021ADF800106A4601A905F150
:1055D0001100FDF7BCFE012804D1BDF8001001A8A0
:1055E00004F075F908B99B4842E00FF2E030FDF78E
:1055F00051FC15F8521F89B1687810B930206970D4
:10560000287069782878FDF76EFE04F087F908B9EC
:1056100091482DE00FF2D030FDF73CFCE87868B1FE
:105620003038401E8041C043C00F04F061F908B912
:105630008A481DE00FF2D030FDF72CFC287978B1B4
:105640003038401E8041C043C00F04F019F9814E2C
:1056500010B906F170000BE006F19C00FDF71AFC92
:10566000687968B131280BD104F068F920B97C4819
:10567000FDF710FC0AB070BD0FF2AC30FDF70AFC6C
:105680000020207060700AB070BD00000FB470B5CB
:10569000B6B000BFABA0FDF7FDFBBDF8F0109DF864
:1056A000F800BDF8F2606F4A0291DDE93A45002842
:1056B000DDE93A01009114BF0FF2A4230FF2AC23ED
:1056C00003960194C82104A8FEF73EF804A8FDF74C
:1056D000E1FB00BFA7A0FDF7DDFB00BFA7A0FDF722
:1056E000D9FBDDE93A013D9A334604F02FFA36B092
:1056F00070BC5DF814FB80B504F091F85048016A65
:10570000491C016201BD04F03DB8000080B504F001
:10571000D8F9401E8041C00F02BD00002DE9784736
:10572000894647490E7880460020012E17D1002473
:1057300092461E4602E0761BB6B2641976B1B6F503
:10574000807FA0B2B4BF3546FF250AEB00022B468E
:105750004046494604F000F90128ECD030B900BFBA
:1057600088A0FDF797FB0120BDE872870020BDE807
:10577000728733494870704731498870704700001C
:1057800010B5044684B00020207520706074E07568
:10579000A07602A804F095F810B900BFAAA03EE0D8
:1057A0001120ADF800006B46DDE902012246FDF74D
:1057B0003FFE0DF1050004F0BBF800283CD00320AB
:1057C000ADF800006B469DF8050004F111020021C0
:1057D000FDF72EFE01A804F095F808B9A2A01EE07E
:1057E0009DF804100320ADF8000030310020207631
:1057F000E1750DF1030004F08BF808B91A480EE0CA
:105800009DF803100320ADF8000030310020E07651
:10581000A1760DF1020004F0D4F808B9134873E042
:105820000320ADF800006B469DF8020004F114025D
:105830000021FDF7FDFD012004B010BDC82BFF1FA6
:105840006805FF1F699C0000599C0000719C0000C6
:10585000759C00009C420100C0420100E84201002A
:1058600060430100085701006C550100905501008C
:1058700010B5044684B0002020706074A075607676
:1058800002A804F006F808B97FA00EE01120ADF8D8
:1058900000006B46DDE902012246FDF7C9FD01A8C3
:1058A00003F0FDFF10B900BF7EA02DE00520ADF88C
:1058B00000006B46BDF8040004F111020021FDF761
:1058C000B7FD0DF1030003F0F0FFD8B10320ADF8F0
:1058D00000006B469DF8030004F116020021FDF75D
:1058E000A7FD0DF1020003F0E6FF58B10320ADF86B
:1058F00000006B469DF8020004F119020021FDF73B
:1059000097FD012004B010BDFDF7C4FA002004B0DB
:1059100010BD00000A5A6967626565204150492040
:10592000496E6974204572726F7220000A5A696765
:105930006265652041504920496E6974204F4B20B3
:10594000000000000A5A696762656520446174615D
:10595000205265636569766564202D3E200A00004B
:1059600042524F414443415354000000554E494375
:10597000415354000A202A2A20000000202A2A0A23
:10598000000000000A205A69676265652054726150
:105990006E736D6974204572726F72000A202A2A34
:1059A0002050414E202D494420536574202D204520
:1059B00072726F72200000000A50414E202D49443F
:1059C00020536574202D204F4B2000000A5A696730
:1059D000626565204C696E6B204B65792053657458
:1059E000202D204F4B2000000A5A69676265652010
:1059F0004E6574204F7074696F6E73205365742008
:105A00002D204F4B200000000A5A6967626565200F
:105A100053656320456E61626C6520536574202D6B
:105A2000204F4B20000000000A5A6967626565201C
:105A3000577269746520436F6E6669672053657499
:105A4000202D204F4B2000000A47657474696E6753
:105A500020436F6E6669672050616E20494420467E
:105A600061696C65640000000A47657474696E675B
:105A7000205365637572697479205374617475730A
:105A8000204661696C6564000A47657474696E67D5
:105A9000204F702050616E204944204661696C653A
:105AA000640000000A47657474696E67204F7020B7
:105AB00050616E2049442031364269742046616944
:105AC0006C656400DFF8481701200870704704F027
:105AD000EBB804F0EEB800002DE9F04184B004F01A
:105AE000EBF8DFF82C57DFF82C070FF2EC72A86008
:105AF000694692E8D80081E8D800684604F032FA96
:105B0000686048F214060122314604F056FA044651
:105B10004FF4FA7004F090FA68680022314604F0FD
:105B20004CFA04436868012244F2140104F045FA77
:105B30000646642004F080FA68680122292104F0F6
:105B40003CFA0746642004F077FA6868002243F2C2
:105B5000140104F032FA34433C43044368680722DA
:105B600040F61A7104F029FA0443292000F068F97C
:105B700030B3686807224FF4856104F01EFA0646C8
:105B80006868072245F2284104F017FA074668685A
:105B900007224AF2284104F010FA8046686807227A
:105BA00040F2274104F009FA3E4348EA060606435C
:105BB0006868072245F2274104F0FFF906433443A1
:105BC0009FED5D0A00F0BAF806466868012242F2CD
:105BD000140104F0F2F906433443FEF73CF940F6B1
:105BE000137648B904F048FA41F69911884203D374
:105BF00004F042FA82B202E004F058FA0246686801
:105C0000314604F0DAF904436868012241F20E01DA
:105C100004F0D3F9044300F02CF86868002241F244
:105C2000370104F0CAF904431AD10FF23460DFF8E7
:105C3000E84500880FF22C6120806A460888ADF89C
:105C400000000921DFF8D40502F0B8FB206820F439
:105C5000702040F42020206004F0C3FA012005E009
:105C6000DFF8BC05FDF716F9002000BF04B0BDE861
:105C7000F08180B500208DF800006A46DFF8943589
:105C800000210C2004F018F901BD1CB5DFF8804597
:105C9000207808B300218DF800106A46DFF87435CB
:105CA0000C2004F009F960686A4641F2370104F0FB
:105CB000AEF9BDF8000068B1012161700022606892
:105CC00040F6137104F079F96068002242F2140181
:105CD00004F073F90020207013BDDFF8340540781C
:105CE0007047000010B5DFF828456068002241F2D7
:105CF000370104F062F9002161700122606842F20C
