:10000000984FFF1F95500100436D0000F76E0000F0
:10001000277100004B7100006371000000000000B8
:100020000000000000000000000000004F7300000E
:100030000F7A0000000000003F7E0000EB7E000011
:10004000D5520100DD520100E5520100ED520100E0
:10005000F5520100FD520100055301000D5301004E
:10006000155301001D530100255301002D530100BC
:10007000355301003D530100455301004D5301002C
:100080005553010025540100255401002554010059
:100090002554010025540100255401002554010078
:1000A0005D530100655301006D530100755301005C
:1000B0007D53010085530100255401008D5301003B
:1000C00095530100D76F00009D5301000795000074
:1000D000A5530100AD530100B5530100F3600000CA
:1000E0002554010025540100255401002554010028
:1000F000255401002554010025540100D138000089
:100100002554010025540100255401002554010007
:1001100025540100255401002554010025540100F7
:1001200025540100255401003B2C0100899A000050
:1001300025540100CD9A00002554010025540100EA
:1001400025540100BD530100C5530100CD530100EA
:10015000C7A00000D553010025540100255401001B
:10016000255401000B610000DD530100E55301003F
:10017000ED530100F5530100FD530100055401004A
:100180000D540100155401002554010025540100AF
:100190002554010025540100255401002554010077
:1001A0002554010025540100255401002554010067
:1001B0002554010025540100255401002554010057
:1001C0002554010025540100255401002554010047
:1003F000255401002554010025540100FFFFFFFF93
:10040000FFFFFFFFFFFFFFFFFFFFFFFFFEFFFFFFFD
:100410001CB5044611A002F09BFA204602F098FA9F
:100420006946204601F008FE040014D19DF8000042
:1004300008B90A2002E0012802D1092002F0DEFBFF
:100440000CA002F085FA9DF8000002F08CFA00BFC3
:100450000CA002F07DFA204616BD00000D0A496E80
:100460002050726F636573735365744D6F64652DAF
:100470003E0000000D0A4D6F6465207365742061B5
:10048000732000000D0A302D3E4155544F2C203171
:100490002D3E4D414E55414C200000002DE9F043CA
:1004A0000446DFF88C8C83B0404602F051FA2046B7
:1004B00002F04EFA02232C2201A9204602F04AFC47
:1004C0000746DFF8700C02F043FA0026012F0CDB20
:1004D00001AD3C460FF2583955F8040B02F038FADA
:1004E000484602F035FA641EF6D1022F32D1019B44
:1004F000187848B10A220021184602F079FD044616
:1005000002F078FD60B100949DF80010491E0429A6
:1005100013D8DFE801F003090B0D0F0002200AE0F9
:10052000042608F1240012E0032004E0042002E085
:10053000052000E0062002F061FB00BF09A002F0E8
:1005400007FA9DF8000002F00EFA08F14C0002F0E4
:10055000FFF904E008F1900002F0FAF9032601F037
:10056000B2BD00000A204D616E75616C204D6F6454
:10057000652053657456616C7565203A2000000053
:100580002DE9F8470646A3B00FF2241002F0E0F977
:10059000304602F0DDF902F040FA044602F074FD44
:1005A00094E88E00054606A880E88E0006A930462D
:1005B00001F0C2FC06001ED106A890E88E0084E877
:1005C0008E0090E8004785E800472568DFF87C2D1D
:1005D0000595E07B0490A17B0391607B0290217BD9
:1005E00001916421A06800900AA8636802F0F2FDFE
:1005F0000AA802F0ADF9304624B0BDE8F08700004B
:100600001CB50446DFF8C40D02F0A2F9204602F042
:100610009FF96946204601F00FFD04000CD100BF90
:1006200006A002F095F99DF8000002F09CF902F096
:10063000F8FD9DF800100170204616BD0D0A4272AB
:10064000757368206D6F746F7220737461746520A8
:10065000736574206173200070B505469EB000BFBD
:1006600013A002F075F9284602F072F902F0FCFDC1
:10067000044694E80E0002A880E80E0002A928466D
:1006800001F008FC050012D102A890E80E0084E8F1
:100690000E00267ADFF8B82D01966421606800907C
:1006A00005A8236802F096FD05A802F051F9BCE008
:1006B0000D0A496E2050726F636573735365744DF4
:1006C0006F746F7250574D4D616E75616C2D3E00A9
:1006D0001CB504460CA002F03BF9204602F038F9A4
:1006E0006946204601F0A8FC04000BD10EA002F0E0
:1006F0002FF99DF8000002F036F903F001F89DF89B
:1007000000100170204616BD0D0A496E2050726F10
:100710006365737353657442727573684469726577
:100720006374696F6E2D3E000D0A42727573682006
:100730006D6F746F7220646972656374696F6E2087
:10074000736574206173200078B50546A3B000BFBF
:1007500018A002F0FDF8284602F0FAF802F096FC24
:10076000044694E84E0006A880E84E0006A92846F4
:1007700001F0E2FB050019D106A890E84E0084E8DC
:100780004E000591E07BDFF8482D0490A07B03909C
:10079000617B0291207B01900AA8A16800916421ED
:1007A000636802F017FD0AA802F0D2F8284624B0C8
:1007B00070BD00000D0A496E2050726F636573733F
:1007C0005365744D6F746F7250574D4175746F2D32
:1007D0003E00000070B505469EB000BF15A002F0B7
:1007E000B7F8284602F0B4F802F041FD044694E858
:1007F0000E0002A880E80E0002A9284601F04AFB7C
:10080000050012D102A890E80E0084E80E00267AB6
:10081000DFF8C02C019664216068009005A8236869
:1008200002F0D8FC05A802F093F828461EB070BD6F
:100830002C0000000D0A496E2050726F63657373BF
:10084000536574427275736850574D4175746F2DBE
:100850003E0000002DE9F0430446DFF87C8C83B0B5
:10086000404602F075F8204602F072F802232C226E
:1008700001A9204602F06EFA074608F1240002F0B2
:1008800067F80025012F0CDB01AE3C460FF20C3956
:1008900056F8040B02F05CF8484602F059F8641E62
:1008A000F6D1022F38D1019802F088FF042833D105
:1008B00001980278417802EB820301EB4301A1F138
:1008C0001004E4B28278C17817A002EB820301EB36
:1008D0004301A1F1100702F03BF8204602F043F873
:1008E00014A002F035F8FFB2384602F03CF8182C9C
:1008F000B8BF3C2F0ADA8DF800408DF8017002F085
:1009000079FF684602F07CFF0DA002E0042508F1A3
:100910004C0002F01DF803E010A002F019F80325C6
:10092000284601F0D1BB00000D0A486F75722D2DCD
:100930003E0000000D0A4D696E7574652D2D3E0058
:100940000A204175746F2074696D65205365745673
:10095000616C75652F732053657400000A20417522
:10096000746F2074696D652053657456616C75658C
:100970002F7320496E76616C696400001CB50446D3
:10098000DFF8A00D01F0E4FF204601F0E1FF694629
:10099000204601F051FB04000CD100BF06A001F07D
:1009A000D7FF9DF8000001F0DEFF02F066FF9DF822
:1009B00000100170204616BD0D0A4564676520735E
:1009C000656E736F72207374617465207365742033
:1009D000617320002DE9F04104468EB028A001F09B
:1009E000B7FF204601F0B4FF02232C2269462046BF
:1009F00002F0B0F90646DFF8C00C01F0A9FF0025AF
:100A0000012E0BDBE846344664A758F8040B01F0CE
:100A10009FFF384601F09CFF641EF6D1022E27D1BD
:100A200000980A22002102F0E3FADFF8901CDFF8B8
:100A3000B42D0918914215D202A903F04DF82822CD
:100A400004A902A803F032F804A801F081FF02A86B
:100A500002F0A4FF60B102F0CDFE082003F0D5F94A
:100A60000EA002E0042500BF12A001F071FF03E018
:100A700018A001F06DFF032528460EB0BDE8F081F7
:100A80000D0A496E2050726F63657373536574521B
:100A9000544356616C75652D3E0000000A20525487
:100AA000432053657456616C75652F7320536574CC
:100AB000000000000A205254432053657456616CB4
:100AC00075652F73204F7574206F662052616E67B5
:100AD000650000000A20525443202053657456617B
:100AE0006C75652F7320496E76616C696400000037
:100AF0002DE9F843044684B029A0DFF8EC7C01F02E
:100B000027FF204601F024FF04232C2269462046BB
:100B100002F020F90646384601F01AFF0025012EA2
:100B20000CDBE84634460FF2C81958F8040B01F004
:100B30000FFF484601F00CFF641EF6D1042E25D1AC
:100B400003F035FA0446009802F038FE20B1009A0E
:100B50000B21204602F03EFB019F384602F02EFE9C
:100B600028B13A460B2104F10B0002F033FB029E40
:100B7000304602F023FE28B132460B2104F1160064
:100B800002F028FB0DA001F0E3FE04E007F12400D1
:100B900001F0DEFE032501F0CBB900002C000000BF
:100BA0000D0A496E2050726F636573735365744408
:100BB0006576696365496E666F2D3E000A2044655F
:100BC0007669636520496E666F2053657456616C63
:100BD00075652F7320536574000000002DE9F04700
:100BE0002DED028B0446DFF8CC9C88B0484601F01E
:100BF000AFFE204601F0ACFE03F0A6FA824668463E
:100C00009AEC030A80EC030A04232C2203A9204651
:100C100002F0A0F88046DFF8A00C01F099FE002653
:100C2000B8F1010F0BDB03AD444631A755F8040BB7
:100C300001F08EFE384601F08BFE641EF6D1B8F14D
:100C4000040F49D1039A107868B10021104603F0CF
:100C500083FCB0EE408A02F0D3F910B18DED008A2A
:100C600001E0002400E0012403ADDFF81C8D68687A
:100C7000424601A901F013FD0440A868671E4246E0
:100C800002A9BF4101F00BFDFF4310EAD77F1DD041
:100C900009F1540001F05CFE6846B2A490EC030A2E
:100CA0008AEC030A032001F073FE204601F050FE97
:100CB00003209AED010A01F06BFE204601F048FE88
:100CC00003209AED020A01F063FE0AE009F1240014
:100CD00001F03EFE042604E009F17C0001F038FE3C
:100CE000032608B03046BDEC028BBDE8F08700005B
:100CF0002C0000002DE9FE43044600BF1FA0DFF8D2
:100D0000E89C01F025FE204601F022FE02232C2261
:100D10006946204602F01EF80646484601F018FED5
:100D20000025012E0BDBE8463446C0A758F8040B1B
:100D300001F00EFE384601F00BFE641EF6D1022EC5
:100D400014D109F1240001F003FE009810220021C3
:100D500002F04EF901F007FE03F0C1F8044603F07B
:100D600085F844B1082003F036F804E009F14800A2
:100D700001F0EEFD0325284601F0A6B90D0A496EE3
:100D80002050726F63657373436C65617245727254
:100D90006F72436F6465732D3E0000002DE9F847C4
:100DA000044683B028A0DFF8CC8C01F0D1FD2046AA
:100DB00001F0CEFD02F01AFF0646022330788DF8CE
:100DC00000002C2201A9204601F0C4FF074640463E
:100DD00001F0BEFD0025012F0DDB0DF104093C469D
:100DE0000FF2482A59F8040B01F0B2FD504601F009
:100DF000AFFD641EF6D1022F1DD1019B187848B1BA
:100E00000A220021184602F0F3F8044602F010F915
:100E100058B100949DF80000307000BF11A001F09F
:100E200097FD307801F09FFD0AE008F1240001F001
:100E30008FFD042504E008F14C0001F089FD032535
:100E4000284604B0BDE8F0870D0A496E2050726F45
:100E5000636573735365744C6F77426174536F436A
:100E60002D3E00000A204C6F772042617420536FA2
:100E7000432053657456616C75652F7320536574F8
:100E8000000000002DE9F04F044683B036A0DFF8E3
:100E9000D88C01F05DFD204601F05AFD03F0A8FB5F
:100EA00006463768D6F8049003232C22694620466C
:100EB00001F050FF8246404601F04AFD0025BAF19C
:100EC000010F0ADBEB4654465BF8040B01F040FDD2
:100ED00056A001F03DFD641EF6D1BAF1030F37D1E3
:100EE000009B187860B10A220021184602F080F8B1
:100EF00004460120C04608B1A14601E0002400E0FC
:100F00000124019B187848B10A220021184602F0FA
:100F10006FF882460120C04608B1574601200442BE
:100F200005D108F1240001F013FD042515E000BFF0
:100F300014A001F00DFD3760C6F80490484601F09A
:100F400012FD08A001F004FD306801F00CFD04E082
:100F500008F14C0001F0FCFC0325284603B0BDE875
:100F6000F08F0000202C00000D0A496E2050726F97
:100F70006365737353657450756C7365436F756EF9
:100F8000742D3E000A2050756C736520436F756E9A
:100F9000742053657456616C75652F732073657486
:100FA000203A200070B5DFF85C4C00202070012151
:100FB000217086B003F0E8FF1122ADF800206B46E7
:100FC00001AA01F091FFFF23DFF8242D40F2DB514D
:100FD000601C02F0FFF8451C40F2DB51AAB2491B2D
:100FE0000220A0546D1C491BAEB241F21603DFF87B
:100FF000CC2D89B2A01902F0EDF84519A9B2032051
:1010000060546D1C04F0F4FC022101A801F044FEC0
:1010100004F0BAFD009040F2DC51491BA8B201ABCC
:1010200003A289B2204402F0D5F89BE22C00000014
:1010300025732C256400000070B5DFF8C84B002034
:1010400020700121217086B003F09EFF1122ADF8BF
:1010500000206B4601AA01F047FFFF23DFF8902C28
:1010600040F2DB51601C02F0B5F8451C40F2DB5148
:10107000AAB2491B0220A0546D1C491BAEB241F21A
:101080001703DFF8382D89B2A01902F0A3F845192B
:10109000A9B2032060546D1C04F076FD034640F2B3
:1010A000DC51491BA8B2CAA289B2204402F092F8CE
:1010B00058E2000070B5DFF84C4B00202070012191
:1010C000217086B003F060FF1122ADF800206B465E
:1010D00001AA01F009FFFF23DFF8142C40F2DB51D5
:1010E000601C02F077F8451C40F2DB51AAB2491BA4
:1010F0000220A0546D1C491BAEB241F21803DFF868
:10110000BC2C89B2A01902F065F84519A9B20320D8
:1011100060546D1C02F0D3FE034640F2DC51B1EB8B
:101120000501A8B204A289B2204402F053F819E2E2
:10113000943A010074270000253030305800000038
:1011400070B5DFF8C04A002020700121217086B000
:1011500003F01AFF1122ADF800206B4601AA01F03E
:10116000C3FEFF23DFF8882B40F2DB51601C02F046
:1011700031F8451C40F2DB51AAB2491B0220A054B1
:101180006D1C491BAEB241F21903DFF8302C89B255
:10119000A01902F01FF84519A9B2032060546D1C74
:1011A00002F005FF07A1029100F10B03009300F18B
:1011B00016020192034640F2DC51491BA8B20FF619
:1011C0004822CBE144312E345600000070B5DFF8E0
:1011D000344A002020700121217086B003F0D4FE33
:1011E0001122ADF800206B4601AA01F07DFEFF231D
:1011F000DFF8FC2A40F2DB51601C01F0EBFF451CDC
:1012000040F2DB51AAB2491B0220A0546D1C491BBD
:10121000AEB241F20103DFF8A42B89B2A01901F0AC
:10122000D9FF4519A9B2032060546D1C01F061FC7F
:1012300040F2DC56761B00230128A8B218BF012318
:1012400063A2B1B2204401F0C5FF8BE170B5DFF8B5
:10125000B449002020700121217086B003F094FE73
:101260001122ADF800206B4601AA01F03DFEFF23DC
:10127000DFF87C2A40F2DB51601C01F0ABFF451C1B
:1012800040F2DB51AAB2491B0220A0546D1C491B3D
:10129000AEB241F20303DFF8242B89B2A01901F0AA
:1012A00099FF4519A9B2032060546D1C01F02BFC75
:1012B00040F2DC56761B401E03280BD8DFE800F016
:1012C00002040608012306E0022304E0032302E0EF
:1012D000042300E00523A8B23DA2B1B2204401F0EE
:1012E00079FF3FE170B5DFF81C4900202070012133
:1012F000217086B003F048FE1122ADF800206B4645
:1013000001AA01F0F1FDFF23DFF8E42940F2DB51EF
:10131000601C01F05FFF451C40F2DB51AAB2491B83
:101320000220A0546D1C491BAEB241F20403DFF849
:101330008C2A89B2A01901F04DFF4519A9B20320EA
:1013400060546D1C01F069FBFAE00000A44D01003F
:1013500070B5DFF8B048002020700121217086B000
:1013600003F012FE1122ADF800206B4601AA01F035
:10137000BBFDFF23DFF8782940F2DB51601C01F050
:1013800029FF451C40F2DB51AAB2491B0220A054A0
:101390006D1C491BAEB241F20503DFF8202A89B269
:1013A000A01901F017FF4519A9B2032060546D1C64
:1013B00001F037FF40F2DC510378491BA8B204A2C8
:1013C00089B2204401F006FFCCE000000C5101007E
:1013D0002564000070B5DFF82C4800202070012142
:1013E000217086B003F0D0FD1122ADF800206B46CD
:1013F00001AA01F079FDFF23DFF8F42840F2DB5168
:10140000601C01F0E7FE451C40F2DB51AAB2491B0B
:101410000220A0546D1C491BAEB241F20603DFF856
:101420009C2989B2A01901F0D5FE4519A9B2032063
:1014300060546D1C01F018FF017A019140F2DC51FB
:1014400042680092491B03680FF2E41285E0000035
:101450004C4E010070B5DFF8AC4700202070012130
:10146000217086B003F090FD1122ADF800206B468C
:1014700001AA01F039FDFF23DFF8742840F2DB51A7
:10148000601C01F0A7FE451C40F2DB51AAB2491BCB
:101490000220A0546D1C491BAEB241F20703DFF8D5
:1014A0001C2989B2A01901F095FE4519A9B20320A3
:1014B00060546D1C02F024F940F2DC510378491BA2
:1014C000A8B2C7A289B2204401F084FE4AE000001D
:1014D000DC4D01006C4F01007844010070B5DFF86D
:1014E0002447002020700121217086B003F04CFDBC
:1014F0001122ADF800206B4601AA01F0F5FCFF2394
:10150000DFF8EC2740F2DB51601C01F063FE451C64
:1015100040F2DB51AAB2491B0220A0546D1C491BAA
:10152000AEB241F20903DFF8942889B2A01901F0A4
:1015300051FE4519A9B2032060546D1C01F0A6FDAF
:1015400001680391827B0292017B019140F2DC51A0
:1015500082680092491B436813A2A8B289B2204452
:1015600001F038FE55FA80F5AAB20421A1546D1C91
:10157000DFF8C00C01F0ECF9A8B201F0F4F9DFF8E3
:10158000B80C01F0E5F9A9B2204601F0EAF9DFF85C
:10159000440D01F0DDF9A9B2204604F02DFD00F064
:1015A0003DFC002006B070BD25642C25642C25640C
:1015B0002C25642C2564000070B5DFF84846002017
:1015C00020700121217086B003F0DEFC1122ADF8FD
:1015D00000206B4601AA01F087FCFF23DFF81027EB
:1015E00040F2DB51601C01F0F5FD451C40F2DB517F
:1015F000AAB2491B0220A0546D1C491BAEB241F295
:101600000A03DFF8B82789B2A01901F0E3FD4519F4
:10161000A9B2032060546D1C01F029FE017A0191EA
:1016200040F2DC5142680092491B036800A294E733
:1016300025642C25642C2564000000003EB5DFF8ED
:10164000C4450020207040F2DC53ADF8043041F274
:101650000B0201A9204600F0E7FBBDF8045040F260
:10166000DC50401BADF8040002F0C8F802A241783B
:1016700000910378D6E100002530326425303264D1
:101680000000000038B5DFF87C450020207040F2F3
:10169000DC53ADF8003041F20C026946204600F000
:1016A000C3FBBDF8005040F2DC50401BADF8000019
:1016B00002F0E5F80346FBE19C44010080BC92C7C0
:1016C00078B5DFF840458BB00020207040F2DC5345
:1016D000ADF8003041F20D026946204600F0A4FB4F
:1016E000BDF8005040F2DC50401BADF8000002F0A5
:1016F000B9F90346BDF8001039A2601901F06AFD7E
:101700000646282101A802F0B1F900BF06A001F0A9
:101710001FF901A801F01CF955FA86F5A9B20420B9
:10172000605413E1305101000D0A54696D652D2D8F
:101730003E0000002DE9F041DFF8C84484B00020ED
:10174000207040F2DC53ADF80C3041F20E0203A9D8
:10175000204600F069FBBDF80C5040F2DC50401B05
:10176000ADF80C00002702F025FF064601F0C1F994
:10177000012818BF012704F0A0FC804604F09BFC60
:101780000190CDF8088000964FEA0703BDF80C10D1
:1017900016A2601901F01EFD55FA80F5AAB20421C7
:1017A000A1546D1CDFF88C0A01F0D2F8A8B201F048
:1017B000DAF8DFF8840A01F0CBF8A9B2204601F08C
:1017C000D0F8DFF8100B01F0C3F8A9B2204604F0FE
:1017D00013FC00F023FB002004B0BDE8F081000002
:1017E00025640000801319BC844B010025642C2063
:1017F00025642C2025642C202564000078B5DFF8B2
:1018000004448DB00020207040F2DC53ADF8183055
:1018100041F20F0206A9204600F006FBBDF8185061
:1018200040F2DC50401BADF8180002F0FBFE06460B
:1018300002210AA896ED020A01F02EFA022107A859
:1018400096ED030A01F028FAB069059007AA7169BC
:1018500004910AA93069039002920191D6F804001C
:10186000BDF8181015A200906019336801F0B2FCA1
:1018700055FA80F5AAB20421A1546D1CDFF8B40911
:1018800001F066F8A8B201F06EF8DFF8AC0901F0DB
:101890005FF8A9B2204601F064F8DFF8380A01F0D9
:1018A00057F8A9B2204604F0A7FB00F0B7FA0020D1
:1018B0000EB070BDF03B01008427000025642C258C
:1018C000642C25732C25732C25642C25642C25640D
:1018D0000000000070B5CB4C8CB00020207040F2AE
:1018E000DC53ADF8083041F2100202A9204600F0A6
:1018F0009BFABDF8085040F2DC50401BADF80800E0
:1019000002F022FC0646022109A896ED000A01F029
:10191000C3F9022106A896ED010A01F0BDF90221E2
:1019200003A896ED020A01F0B7F906A903A80091F1
:10193000019009ABBDF808100FF28442601901F064
:1019400049FC55FA80F5AAB20421A1546D1CDFF8B8
:10195000E40800F0FDFFA8B201F005F8DFF8D808B0
:1019600000F0F6FFA9B2204600F0FBFFDFF86409A3
:1019700000F0EEFFA9B2204604F03EFB00F04EFA64
:1019800000200CB070BD00000130000038B59D4C47
:101990008CB00020207040F2DC53ADF8083041F2EA
:1019A000110202A9204600F03FFABDF8085040F2AB
:1019B000DC50401BADF8080004F06EFC022109A8C1
:1019C00001F06AF904F084FC022106A801F064F930
:1019D00004F0A4FC022103A801F05EF906A903A803
:1019E00000910190BEE10000E84401003EB5854C45
:1019F0000020207040F2DC53ADF8043041F21402B4
:101A000001A9204600F010FABDF8045040F2DC5065
:101A1000401BADF8040002F0EBFD00BF16A2016808
:101A200000914368BDF80410601901F0D3FB55FA2A
:101A300080F5AAB20421A1546D1CDFF8F80700F06C
:101A400087FFA8B200F08FFFDFF8EC0700F080FFFF
:101A5000A9B2204600F085FFDFF8780800F078FF93
:101A6000A9B2204604F0C8FA00F0D8F9002003B06B
:101A700030BD00005845010025642C25640000009D
:101A800038B5604C0020207040F2DC53ADF80030D7
:101A900041F215026946204600F0C6F9BDF8005033
:101AA00040F2DC50401BADF8000002F09FF80378D4
:101AB000BDF80010C0A2601901F08CFB55FA80F54A
:101AC000AAB20421A1546D1CDFF8680700F040FFA2
:101AD000A8B200F048FFDFF8600700F039FFA9B2B4
:101AE000204600F03EFFDFF8EC0700F031FFA9B21E
:101AF000204604F081FA00F091F9002032BD10B5C3
:101B00002E21DFF83C0C05F01DF8002400B105245F
:101B1000204610BD30B53B4C8DB00020207040F207
:101B2000DC53ADF8103041F21A0204A9204600F04F
:101B30007BF9BDF8105005A803F056FB40F2DC50CD
:101B40000DF12E01401B0391ADF810000DF12501A0
:101B50000DF12B00019105AA029000920AABBDF88D
:101B600010100FF2901202E1C845010030B5254C6B
:101B70008BB00020207040F2DC53ADF80C3041F205
:101B80001B0203A9204600F04FF9BDF80C5004A831
:101B900003F0A2FB40F2DC500DF12901401B029141
:101BA000ADF80C000DF121010DF12600009101901E
:101BB0000DF11003BDF80C1013A2601901F00AFB1F
:101BC00055FA80F5AAB20421A1546D1CDFF8640611
:101BD00000F0BEFEA8B200F0C6FEDFF85C0600F022
:101BE000B7FEA9B2204600F0BCFEDFF8E80600F020
:101BF000AFFEA9B2204604F0FFF900F00FF9002073
:101C00000BB030BD1C15FF1F25732C25732C2573BD
:101C10002C25730038B5DFF82C4B0020207096B0CF
:101C200003F021FF012113A801F036F803F046FF6D
:101C3000012110A801F030F803F02DFF01210DA8BB
:101C400001F02AF803F089FF012107A801F024F828
:101C500005A803F05DFF9DF818009DED050A08B981
:101C6000B1EE400A01210AA801F016F840F2DC505A
:101C7000ADF8100041F21C0204A9204600F0D4F88F
:101C8000BDF8105040F2DC50401BADF8100007A921
:101C900003910AAA10A80DAB02920190009313AB16
:101CA000BDF8101013A2601901F094FA55FA80F5EE
:101CB000AAB20421A1546D1C0FF6E42000F048FEE6
:101CC000A8B200F050FE0FF6E82000F041FEA9B2E5
:101CD000204600F046FE0FF6E42000F039FEA9B2DF
:101CE000204604F089F900F099F8002017B030BDC3
:101CF000C427000025732C25732C25732C25732CE9
:101D00002573000038B5DFF83C4A002121708CB003
:101D1000002004F0BDFF022109A800F0BDFF012052
:101D200004F0B6FF022106A800F0B6FF03F015FF8D
:101D3000022103A800F0B0FF40F2DC50ADF808002B
:101D400041F21D0202A9204600F06EF8BDF80850CD
:101D500040F2DC5003A9401B019106AAADF808002F
:101D6000009200BF0DF12403BDF8081014A2601901
:101D700001F030FA55FA80F5AAB20421A1546D1C85
:101D80000FF61C2000F0E4FDA8B200F0ECFD0FF609
:101D9000202000F0DDFDA9B2204600F0E2FD0FF6A4
:101DA0001C2000F0D5FDA9B2204604F025F900F072
:101DB00035F800200DB030BD25640000CC270000B0
:101DC00025732C25732C2573000000007CB5054677
:101DD000DFF8784900202070C823ADF8003041F2C8
:101DE00011126946204600F01FF8BDF80000C0F14E
:101DF000C801ADF800100646BDF800102B46B4A28D
:101E0000204401F0E7F956FA80F080B20421215411
:101E1000401C80B200222254204676BD40F2DC51A4
:101E2000DFF8200904F08ABFF8B5044686B00D46F5
:101E300001202070164629884A1E2A80112703F0A7
:101E4000A3F8ADF800706B4601AA01F04DF829889F
:101E50000FF67012FF23601C01F0BCF9471C2888A4
:101E6000C01BBAB228800221A1547F1C29880FF61A
:101E70005C12C91B2980B8B2334689B2204401F0F4
:101E8000A9F9C719BAB20321A1547F1C2F800120E0
:101E900007B0F0BD2DE9F84384B00446884600F051
:101EA00057FD04232C226946204600F053FF0746C5
:101EB0000FF6D00000F04CFD0025012F0CDB6E4624
:101EC0003C460FF2102956F8040B00F041FD48463D
:101ED00000F03EFD641EF6D1042F24D10098DFF8F7
:101EE0007028414600F0EFFB441E0198DFF864289B
:101EF00008F10401A44100F0E6FBE44300EAD474D5
:101F00000298DFF85428661E08F10801B64100F077
:101F1000DAFBF64310EAD67F0AD10FF6B80000F0DC
:101F200017FD042504E00FF6CC0000F011FD032599
:101F3000284605B0BDE8F0832DE9F84386B0044695
:101F4000884600F005FD06232C226946204600F055
:101F500001FF07460FF62C0000F0FAFC012F4FF0AE
:101F600000090BDB6D463C465AA655F8040B00F001
:101F7000EFFC304600F0ECFC641EF6D1062F53D186
:101F80000098DFF8CC2708F1040100F09CFB471E05
:101F90000198DFF8C02708F10801BF4100F093FB6A
:101FA000FF4300EAD77702987D1EDFF8AC773A4608
:101FB00008F10C01AD4100F086FBED4300EAD57558
:101FC00002986E1E3A4608F10D01B64100F07BFB07
:101FD000F64300EAD6760398751E3A4608F10E01DC
:101FE000AD4100F070FBED4300EAD57503986E1E1D
:101FF0003A4608F10F01B64100F065FBF64300EAEE
:10200000D6760498DFF85427741E4146A44100F0A8
:102010005AFBE44310EAD47F0CD10FF2B87000F001
:1020200097FC4FF0040905E00FF2C87000F090FC37
:102030004FF003094846F9E02DE9FE4304460D46FA
:102040000FF2CC7000F084FC204600F081FC0223EB
:102050002C226946204600F07DFE07460FF21470E0
:1020600000F076FC0026012F0CDBE8463C460FF220
:10207000640958F8040B00F06BFC484600F068FC5B
:10208000641EF6D1022F19D1009B187868B10A227C
:102090000021184600F0ACFF441EA441E443E40FC5
:1020A000204600F0CDFF18B12C700FF29C7002E0BA
:1020B00004260FF2747000F04BFC04E00FF29870ED
:1020C00000F046FC0326304603B0BDE8F083000074
:1020D000255800002C0000002DE9F043044687B08D
:1020E0000FF29070DFF8789600F032FC204600F096
:1020F0002FFC07232C226946204600F02BFE0746C2
:10210000484600F025FC0025012F0CDB6C46B84644
:10211000BEA654F8040B00F01BFC304600F018FC7F
:10212000B8F10108F5D1072F7AD102F001FF074677
:102130000098102100F08CFF441E0198A44140211A
:1021400000F086FFE44300EAD4740298661EB641AC
:10215000022100F07DFFF643039A00EAD676711E55
:1021600089411078C943002818BF302806D031288B
:1021700006D15078401E8041C00F02E0012000E0EF
:102180000020049A00EAD1711078002818BF302886
:1021900006D0312806D15078401E8041C00F02E0A1
:1021A000012000E00020059A01401078002818BFA7
:1021B000302806D0312806D15078401E8041C00F0B
:1021C00002E0012000E00020014223D0009A11210A
:1021D000384600F0FFFF019A412107F1110000F09D
:1021E000F9FF029A032107F1520000F0F3FF03996F
:1021F0000A7807F155000270049B19784170059A1E
:1022000011788170012002F0E7FF0FF2886000F082
:102210009FFB0AE009F12C0000F09AFB042504E082
:1022200009F1540000F094FB0325284607B0BDE8EF
:10223000F0830000A0270000B02700002DE9FE4336
:1022400004460FF26460DFF81C9500F081FB204625
:1022500000F07EFB02232C226946204600F07AFD26
:102260000746484600F074FB0025012F0BDBE846CB
:102270003C4666A658F8040B00F06AFB304600F0B6
:1022800067FB641EF6D1022F1CD10098017861B162
:1022900030290DD0312904BF4078002808D009F139
:1022A000300000F055FB042511E04FF0FF3002E054
:1022B000A1F1300040B202F092FF0FF2086000F08E
:1022C00047FB04E009F15C0000F042FB03252846CF
:1022D000FAE60000BC2700002DE9F8470446DFF8C5
:1022E000885489B0284600F033FB204600F030FBCC
:1022F00001F020FF074697E80E106846002680E8A8
:102300000E1005232C2204A9204600F023FD804650
:1023100005F1280000F01CFBB8F1010F0DDB0DF1F9
:10232000100944460FF2E40A59F8040B00F010FBC0
:10233000504600F00DFB641EF6D1B8F1050F5BD1DD
:10234000049B187860B10A220021184600F050FE64
:10235000044600F072FE08B1009401E0002400E0A1
:1023600001240DF11009DFF80484D9F80400424675
:1023700001A900F0A8F90440D9F80800B4F1010A55
:10238000424602A96AEB0A0A00F09DF96FEA0A04C4
:1023900000EAD470441ED9F80C00424603A9A441B7
:1023A00000F091F9E44310EAD47F1FD005F18800D2
:1023B00000F0CEFA684690E81E0087E81E00084646
:1023C00000F0D1FA11A4204600F0C2FA786800F0BB
:1023D000CAFA204600F0BCFAB86800F0C4FA2046F9
:1023E00000F0B6FAF86800F0BEFA0AE005F1540011
:1023F00000F0AEFA042604E005F1B40000F0A8FAFB
:10240000032630460AB0BDE8F08700002C0000002B
:1024100038B5DFF8304384B00020207040F2DC5340
:10242000ADF80C3041F2140203A92046FFF7FCFC82
:10243000BDF80C5040F2DC50401BADF80C0001F030
:1024400079FEC16802918268019241680FF28C4264
:1024500000910368BDF80C10601900F0BBFE55FA3E
:1024600080F5AAB20421A1546D1C0FF2343000F0A3
:102470006FFAA8B200F077FA0FF2343000F068FA81
:10248000A9B2204600F06DFA0FF2303000F060FA89
:10249000A9B2204603F0B0FDFFF7C0FC002005B054
:1024A00030BD70B59CB06A46C9B200F067F8040050
:1024B00015D10FF2544000F04BFADDE9000100F0B5
:1024C00052FADDE9000100244FF6FF72A14208BF75
:1024D000904204D10FF2404000F03AFA0724250060
:1024E00018BF072C32D10FF2004000F031FABDF8CE
:1024F000080000F038FABDF80800914A00211346A0
:102500005C8884420AD0491C10332E29F8DB2E291E
:10251000974E08DB00203060022417E0944802EB5D
:1025200001120260F3E73168002479B149680DF1C6
:102530000A008847040009D131688A680120904761
:1025400020B10FF2B43000F003FA0524072D18BFB4
:10255000062D0CD02046FFF739FC054600F0F8F9AF
:10256000284601F02BF981B2284603F045FD2046AC
:102570001CB070BD724901602E207047F0B5064650
:102580008FB00020002433460D4601E0641CA4B245
:1025900013F8011B012901D0AC42F7DB335D012B9D
:1025A00057D1641CA4B2311907E011F8013B87B27E
:1025B000641C0DF80730A4B2401C0B78022B01D02C
:1025C000AC42F2DB315D022943D180B200230DF829
:1025D0000030174610220021684604F089FCC7E944
:1025E0000001641CA4B200208DF80000311907E03E
:1025F00011F8012B83B2641C0DF80320A4B2401C17
:102600000A78032A01D0AC42F2DB315D032920D1E4
:1026100080B200220DF8002000211022684600F050
:10262000E7FC3881641CA4B200208DF80000311949
:1026300007E011F8012B83B2641C0DF80320A4B24B
:10264000401C0A78042A01D0AC42F2DB315D042937
:1026500002D001200FB0F0BD80B200210DF80010B3
:102660006B4639A2642107F10A0000F0B3FD08238C
:102670002C2207A9684600F06DFB10B903200FB0AB
:10268000F0BD07AB03EB8000102250F8040C0021D2
:1026900000F0AEFC87F86E000FB00020F0BD38B53A
:1026A0002DED028B0C460178154641B1002101F059
:1026B00053FFB0EE408AA84710B184ED008A012094
:1026C000BDEC028B32BD70B50C460178154639B1B0
:1026D0000A22002100F08CFC0646A84708B12660BB
:1026E000012070BD7CB50446164D0020287040F2D4
:1026F000DC53ADF800304FF4885269462846FFF7A6
:1027000093FBBDF800000FF2282340F2DC51091AB8
:10271000ADF800100646BDF800100BA2284400F0EA
:1027200059FD56FA80F292B20420A854521C92B27B
:102730002946204603F080FCFFF770FB73BD0000C4
:102740000000FF1F1C15FF1F257300007427FF1FCB
:102750002530000029300000FF2F00002D30000040
:102760007C4301005C410100E03801003B30000087
:10277000B82DFF1F0A73746174652056616C75650E
:1027800073203A000A50574D2053657420526563F8
:1027900065697665642056616C756573203A000042
:1027A0000D0A64617461436F756E742D3E00000004
:1027B0000D0A446174612D3E000000000D0A456E53
:1027C00064000000253032580000000025303458E5
:1027D000000000000A2050776D2053657456616C2C
:1027E00075652F73204F7574206F662052616E6778
:1027F000650000000A2050776D2053657456616CA7
:1028000075652F7320496E76616C69640000000065
:102810000D0A496E2050726F63657373536574536C
:10282000746174652D3E00000A204D6F646520536D
:10283000657456616C75652F73204F7574206F66D3
:102840002052616E676500000A204D6F6465205359
:10285000657456616C7565000A204D6F6465205380
:10286000657456616C75652F7320496E76616C696D
:10287000640000000D0A496E2050726F6365737327
:102880005365745A6967626565436F6E6669672D43
:102890003E0000000A5A696762656520436F6E66F4
:1028A00069672020536574000D0A496E2050726FCD
:1028B0006365737352657365745A69676265654EC3
:1028C000572D3E000A5A696762656520204E7720C1
:1028D00052657365742020536574000025642C25AF
:1028E000642C25642C2564000A434D442056616CF9
:1028F00075653A20000000000A456570726F6D2012
:102900004572726F720000000D0A44657669636556
:102910002049442D2D3E00000A2057696C64204355
:102920006172642044657669636520494400000053
:102930002A2A2A2A52454E20434F4E54524F4C4584
:1029400052202D2044312E34562A2A2A2A000000F3
:1029500010B5044610E001B50121684604F0F8FA0C
:1029600001BD04F0F5BA10B50346084C06A23221A9
:10297000204600F02FFC204600F020FF81B22046C8
:10298000BDE8104004F0E4BA25640000782AFF1F77
:1029900000B585B0C1B2684600F07EF9684600F027
:1029A0000DFF81B2684604F0D3FA05B000BD30B423
:1029B000002513E050F8042BD30744BFA9F101030D
:1029C0009A18091F042942F8045BFAD213468C07AF
:1029D00044BF15809B1CC90748BF1D7050F8041BDD
:1029E0000029E7D130BC704770B586B091E8780017
:1029F00002AA009082E8780001F0FCFD009A41688C
:102A0000914238BF009103D30068824238BF0090E2
:102A1000684601F0BAFD06B070BD83487047834830
:102A20007047000038B5804D6C7C0B2C34D8DFE843
:102A300004F02C3313101E23250D0B201506002146
:102A4000052000F063F80CE0062118E000210320C7
:102A500016E00221022013E0012110E0287C012869
:102A600002D1012169741CE00021012008E003214A
:102A700005E0287C012808D1042107E00521022077
:102A800000F044F8012068740BE00021022000F0FF
:102A90003DF80120687403E00121012C697402D023
:102AA0000CB101F0FEF901F0A5F8E87C00BB01F0E3
:102AB00070F9044601F096F8012800D0C4B1287CD2
:102AC00001280CD100F0A0FE70B100F0E1FA00285E
:102AD00018BF062808D1012000F0DDFA04E0022822
:102AE00004BFA87C032803D1BDE8314000F0D8BA68
:102AF00031BD4D48007C7047012808BF0A2001D035
:102B000000B100207BE04848807C704770B5012808
:102B100086B005460E4605D101F0E1F9012804BF53
:102B200002250526404CE07C25740228A6745DD061
:102B30006D1E042D5AD8DFE805F053033A3A4E00D3
:102B4000761E052E52D8DFE806F021150D4E300313
:102B50006569012001F026FD21462846FFF744FF64
:102B600006B070BD00F094FA002818BF06283DD1C9
:102B7000012031E0012001F015FD94E82E0002A8AB
:102B8000012480E82E008DF804401FE0012001F0B0
:102B900009FD94E82E0002A8002480E82E008DF89C
:102BA000044001F027FD406813E00B201CE00020EA
:102BB00000F071FA012001F0F5FC1C4991E83C009D
:102BC00002A8012680E83C008DF8046001F012FDA7
:102BD000006800901CE7002000F05DFA06B070BDB0
:102BE000002000F058FA072001F0DCFC06B070BDB0
:102BF0000D49C87470470C48C07C704700BF0A4933
:102C00004874704780B501F0D1FA0949486840B16D
:102C1000401E002803DC01200870002001E0002293
:102C20000A70486001BD0000182CFF1FE42CFF1F34
:102C3000A82DFF1FF8B500250C4600280EE0424BDA
:102C400080FB03639B1003EBD37303EB8307A0EBC1
:102C50004700303001F8010B6D1C1800EFD1561BF6
:102C6000954205DA30223146601904F029FA7519C7
:102C7000691E00202246631807E016781F7802F8C4
:102C8000017B03F80169401C491E8842F5DB0020E6
:102C900060552846F2BD0000F8B50025B5EE400AA3
:102CA000F1EE10FA2DED048B0E4604D5FFEE000A6E
:102CB000012520EE200AFDEEC00A0446B8EEE01A17
:102CC00030EE418A0122214610EE900AFFF7B2FF52
:102CD000074636B32E20E055304604F025FA41EC85
:102CE000110B9FED1A0B04F034FA3246601CC61922
:102CF000B0EE409AF0EE609A174618EE100A04F013
:102D000031FA53EC192B04F051FA04F021FB01EED7
:102D1000100ABDEEC11A11EE100A3A463146FFF70D
:102D200089FF75B1204600F049FD401C40B2621C8D
:102D300003E0215C1154401E40B20028F9D52D203B
:102D40002070BDEC048BF1BD676666660000000074
:102D5000000024402DE9F0410D46044616469846F1
:102D60002C6000F02BFD0127B0B1204600F026FDBD
:102D7000C0B2002810DD2178B14208D100234745B8
:102D8000237008DA611C45F827107F1CFFB2641C11
:102D9000401EF0D100E000273846BDE8F08130B495
:102DA000A0F130050A2D38BFA0F130030FD3A0F1F8
:102DB0006105062D38BFA0F1570308D3A0F14104E7
:102DC000062C38BFA0F1370301D300B90023A1F1CD
:102DD00030040A2C38BFA1F130000FD3A1F16104F7
:102DE000062C38BFA1F1570008D3A1F14102062AF1
:102DF00038BFA1F1370001D301B9002030BC40EA4F
:102E00000310C0B270472DE9F04706468A461746C0
:102E100000F0D4FC84B200251CB138884000A042E8
:102E200003D23D800020BDE8F0876108B4EB41008B
:102E3000A8462AD030780125A0F130030A2B38BFEC
:102E4000A0F130010FD3A0F16103062B38BFA0F130
:102E5000570108D3A0F14102062A38BFA0F137017B
:102E600001D300B90021641C8AF80010A846A4B25E
:102E70000BE0A8B26D1CA9B2305C715CFFF78FFF4C
:102E80000AF809006D1C08F101081FFA88F904EB23
:102E9000D470B9EB600FECDBA7F800800120BDE82F
:102EA000F08710B403460020002111E0A4F1410294
:102EB000062A06D2373C04E0A4F16102062AF5D2C4
:102EC000573C090141EA107104F00F0444EA001074
:102ED0001A783AB113F8014BA4F130020A2AEBD266
:102EE000303CEEE710BC7047F0B40D4604460021BC
:102EF00011700820E6B237090A2FB3F800C0B4BF3A
:102F00003037373706F00F060A2EACEB010CB4BF92
:102F1000303637364FFA8CFCBCF1030F0DDB5FFA0D
:102F200081FC491C02F80C60240ACEB244EA056414
:102F3000491C2D0A9755401EDCD1CCB200201055FB
:102F4000641E151907E016782F7802F8017B05F842
:102F50000169401C641EA042F5DBC9B21980012042
:102F6000F0BC70472DE9F84381460D0090461C46A1
:102F700008BF6D464F4600E07F1C387804F01CFA0D
:102F80000028F9D13E782D2E18BF2B2E05D117F829
:102F9000010F04F011FA50B900E02B2623464246F7
:102FA0002946384604F012FA29688F4204D1C5F840
:102FB00000900020BDE8F2832B2E04D1B0F1004F29
:102FC00006D2BDE8F2832D2EFBD1B0F1004F0CD913
:102FD000AFF300800CB1012020602D2E14BF6FF0E4
:102FE00000404FF00040BDE8F2834042BDE8F2836C
:102FF0000023B7E710B106288041C00F704718E0E2
:10300000B5EE400AF1EE10FA08DBDFED050AB4EE8A
:10301000600AF1EE10FA01D50120704700207047D8
:1030200001002041012070470120704701207047B6
:1030300000BF65288041C00F7047B0F1004FF9E72D
:10304000010018BF012801D10120704700207047FE
:1030500038B504460D4600F0B1FB81B28D4211DB5C
:10306000012001290FDB2278A2F130030A2B21BFB6
:10307000A2F14105062D613A062A03D2641C491EBD
:10308000F1D132BD002032BD3C4870473C4870470A
:103090003A48007C704739490874704700000000C6
:1030A0002DE9F041354C217C491E042986B05AD8BF
:1030B000DFE801F003092B31530000BF31A0FFF717
:1030C00047FC0221217400BF34A0FFF741FC01201E
:1030D00001F068FAFFF70DFD012802A805D1284983
:1030E00091E86C0080E86C0003E094E8805180E88F
:1030F000805100218DF8041001F07CFA40680090A6
:10310000684601F042FA03202CE001F04FFA0E2845
:1031100029D10420207400BF27A0FFF719FC01204B
:1031200001F040FAFFF7E5FC012802A805D1144997
:1031300091E86C0080E86C0003E094E8805180E83E
:10314000805101218DF8041001F054FA00680090BC
:10315000684601F01AFA052004E001F027FA0E286B
:1031600001D10620207406B0BDE8F0810348017C3F
:10317000052901D10120704700207047702CFF1FE6
:10318000942CFF1F0A204379636C65204D6F6465A2
:103190002053746172746564000000000A20437952
:1031A000636C6520506F7369746976652053746130
:1031B00072746564000000000A204379636C652026
:1031C0004E656761746976652053746172746564D5
:1031D0000000000008B438B585B009AC002504949F
:1031E000039500290EBF01950190491E029100959B
:1031F00004AB01A9074878441A3004F087F9019913
:1032000001B10D70002858BF039806B030BC5DF8BE
:1032100008FB00BF8F05000080B504F0F9FB01201A
:1032200002BDDFF8AC03704738B5DFF8A853044699
:10323000287D08B1012005E000F030F802280CBF1D
:103240000F2007202874FFF754FC01282046BDE812
:1032500034400CBFDFF88013DFF880130AE0DFF89A
:103260007413072008747047DFF870037047DFF8A5
:103270006803704730B4DFF868231070101D91E8C0
:10328000380080E838001178DFF84823D17430BC6A
:103290007047DFF84003007C7047000010B504F071
:1032A0000FFC0324032808D8DFE800F00606020418
:1032B000002402E0012400E00224204610BD0000AA
:1032C00038B5C44C2DED028B207C0E2800F21D81F8
:1032D000DFE810F00F001600BE006D0077009000D0
:1032E0001B01BC00CD00DA001B01FC00FE001B012D
:1032F00016000021E1619FEDB50A04F0E7FB04E14F
:103300000220A074607404F000FC00EE100AB8EE15
:10331000400A84ED070A0FF22830FFF719FB03205B
:1033200094ED070AFFF734FB00206075FFF7B6FF46
:10333000E17C02002DD0012827D161B3A84890E894
:103340002E0084E82E00A748FFF702FBA6A0FFF797
:10335000FFFA2078FFF707FBAAA0FFF7F9FA6068E9
:10336000FFF701FBACA0FFF7F3FAA068FFF7FBFA49
:10337000AEA0FFF7EDFA207BFFF7F5FA207870B9E1
:10338000022004F0A0FB0320BEE00328D6D10800F1
:1033900001D00129D2D1012060750221B1E00128BC
:1033A00040F0B380032004F08EFB0320ACE0FFF775
:1033B00075FF20B1FFF772FF012840F0A6800420BE
:1033C000A2E0B3EE040AD4ED070AF4EE400AF1EEEF
:1033D00010FA44BF84ED070A04F08BFB0020A074B0
:1033E000052121749BA0FFF7B3FA032094ED070A8F
:1033F000FFF7CEFAA07C01001CD104F086FB217BF4
:10340000081A00EE100AB8EEC00AB5EE400AF1EE56
:1034100010FA9FED6E8A07D4606828B100EE900A1A
:10342000F8EE600A80EE208A012084ED068A206290
:10343000A0746AE0022868D18CA0FFF789FA032003
:1034400094ED070AFFF7A4FA06205DE000216175FC
:1034500002200821A074217404F057FB00EE100A2A
:10346000B8EE400A84ED070A87A0FFF771FA002042
:1034700060740921217400BF8AA0FFF769FA032054
:1034800094ED070AFFF784FA607C01001AD104F07A
:103490003CFB00EE100AB8EE400AB5EE400AF1EE31
:1034A00010FA9FED4A8A07D4A06828B100EE900A6E
:1034B000F8EE600A80EE208A012084ED068A206200
:1034C000607422E0022820D10C201DE000216175EB
:1034D0007BA0FFF73DFA0020E0619FED3C0A04F07D
:1034E000F5FA012004F0EFFA0220A0746074607D08
:1034F000012803D1002161750E2005E0207D10B167
:103500000D21217401E00F202074BDEC028BBDE879
:10351000314004F07FBA000010B504F003FB2D4CDD
:10352000A07C012828D1206A401E20624DD1207B3A
:10353000D4ED060AF5EE400A00EE100AF1EE10FA9C
:10354000B8EE400A0FD094ED071A71EE200AB0EEE3
:10355000601AB4EE401AF1EE10FA04DA84ED071A9C
:10356000B0EE600A23E084ED070A04F0C2FA0020FE
:1035700002212062A17410BD607C012825D1206A3F
:10358000401E206221D194ED060AB5EE400AF1EE0C
:1035900010FA11D0D4ED070A30EEC00AF0EE400A5E
:1035A000F5EE400AF1EE10FA06D9C4ED070A04F070
:1035B000A0FA0120206210BDE0619FED040A04F032
:1035C00098FA002002212062617410BD0000000002
:1035D000C404FF1FB004FF1F102DFF1F042DFF1F89
:1035E000842CFF1F545101000A2042722054617242
:1035F00067657420446972656374696F6E203A2050
:10360000000000000A20427220416363656C205470
:10361000696D65203A2000000A20427220446563EB
:10362000656C2054696D65203A2000000A204272C2
:10363000205374656164792050574D31203A200041
:103640000A204272757368205374617274203A20A4
:10365000000000000A2042727573682041636365B0
:103660006C205374617274203A0000000A20427288
:1036700075736820416363656C20436F6D706C6582
:103680007465643A200000000A2042727573682055
:103690004D6F746F72204E6F726D616C2053746F3A
:1036A000700000000A2042727573682044656365EB
:1036B0006C2053746172746564203A20000000002D
:1036C0000A20427275736820456E640038B52D4932
:1036D0002D4C002008704FF4005504F033FA00BF61
:1036E0002FA00188ADF800106A460D21204604F095
:1036F000EFFAA56004F0C9FA04F0CDFA656031BDB7
:103700002048704780B51F49087820B904F0BDFAF9
:1037100004F0B6FA03E004F0BEFA04F0A2FA0CE0FA
:1037200080B51849087820B904F0B5FA04F099FA80
:1037300003E004F0AAFA04F0A3FA14494FF400508D
:10374000086001BD0F490878002808BF04F06FBA6F
:1037500004F077BA0B490878002808BF04F071BA62
:1037600004F065BA07490878002808BF04F073BA66
:1037700004F074BA03490878002808BF04F06EBA50
:1037800004F069BA832CFF1FC0F00F40C4F00F4053
:1037900080B504F07AFABDE8014004F07CBA00007C
:1037A00001008268521C8260426832B10268531C78
:1037B000036011704168491E4160704700F10103C8
:1037C000810704D010F8011B820781B1FAD1026889
:1037D000A2F10131914311F0803104BF50F8042F60
:1037E000F6E709BAB1FA81F100EBD100401CC01A2A
:1037F00070472E00184900204860704716487047EF
:103800000088154908807047FEB500F065F800246F
:10381000F0B100F064F8684600F0B9F8684600F0CE
:1038200073F90D4E05467068A84211D0684600F045
:103830007FF977783278C7EB07114FF4616389001D
:1038400013FB021282423FBF801A062875600124D2
:10385000204603B0F0BD0000582DFF1F10B504F046
:10386000A9FA441EA44104F0FBFAE44300EAD4742C
:10387000601E8041C043C00F10BD104870470F4804
:10388000007870470D490878002818BF04F0B4BAD2
:1038900070470A490878002818BF04F003BB704736
:1038A00006490878002818BF04F0A6BA70470349F3
:1038B0000878002818BF04F0F5BA70475B05FF1FB1
:1038C00080B504F09CFABDE8014004F0EEBA430074
:1038D0009F490120087070479D48007870479C49B7
:1038E00033E19C484178012901D101207047002033
:1038F000704778B59848994E83B0016841F00051FF
:1039000001600025306920F470503061304604F0C9
:1039100073FCC00715D5684604F016FC69463046AE
:1039200004F0DAFB306940F48070306100243069C3
:1039300020F40070306100F06FF886490D700120AE
:1039400016E004F0A9FC41F210010068884204D19D
:1039500000F062F87F490D7000E00125706940F0C9
:10396000100070614FF400417D48016000202C463A
:10397000784948700821304604F026FC24B904F048
:103980008BFC41F210010160284604B070BD1CB5EB
:1039900004466946714804F001FCA2E07CB5018848
:1039A0006E4DADF800104FF4004682788DF802207D
:1039B0000124C1786B4A8DF8031001798DF8041049
:1039C00041798DF8051080798DF80600686920F03E
:1039D000100068611660BFF34F8FBFF36F8F6946A9
:1039E000284604F0C3FB18B1002400BF5EA008E025
:1039F00058490C7004F050FC4FF6FF72026000BF93
:103A000060A0FEF7A5FF6869554940F010006861A5
:103A10000E60204676BD0000E0B540F2E2710C2257
:103A2000ADF800108DF802201F210F228DF8031031
:103A30008DF80420192100228DF805108DF806203C
:103A40006846FFF7ABFF012806D100BF52A0FEF782
:103A50007FFF012003B000BD54A0FEF779FF0020D6
:103A600003B000BD3D4804F0A8BB000030B587B0EE
:103A700004460D460DF11400FFF789FF9DF81A006A
:103A80009DF819109DF817304EA2049003919DF8EF
:103A90001800BDF814100290019129469DF81600F7
:103AA00000902046FFF796FB07B030BD78B50C4676
:103AB00085B0114682790492437903930279029288
:103AC000B0F800503FA2019586780096C378204652
:103AD000FFF780FB06B070BD1CB50C46694604F0CC
:103AE0008FFA9DF80300E070BDF8001021809DF86A
:103AF0000200A0709DF8040020719DF8050060711F
:103B00009DF80600A07113BDE0B50188ADF8001066
:103B100082788DF802200022C1788DF80310ADF86C
:103B200004208DF80620684604F02DFA03B000BD8D
:103B300090F805C002798079CCEB0C114FF46163E9
:103B4000890013FB0212101870470020087070479C
:103B5000F02DFF1F5805FF1F3C80044000D003409C
:103B600004E100E084E100E00A44617465205469E6
:103B70006D652056616C6964697479204572726F55
:103B8000720000000A20525443205365742053757C
:103B900063636573730000000A44656661756C7445
:103BA0002052544343205365740000000A44656664
:103BB00061756C7420525443432053657420455200
:103BC000524F5200253032642D253032642D25307D
:103BD000346420253032643A253032643A2530325C
:103BE00064000000DFF8100300787047DFF80C0372
:103BF0007047000070B52DED028B00F0B1FADFF8D0
:103C0000005330B1FFF72EFF6860A86D40F002004E
:103C1000A86500F0A7FA30B1FFF724FFA860A86DEF
:103C200040F00400A86500F09FFA30B1FFF71AFFDA
:103C3000E860A86D40F00800A86501F0D9FEAE4C20
:103C40006078014600EE901AF8EE600AB4EE600A61
:103C5000F1EE10FA0ED5A86DC0F30010F8B90FF20E
:103C6000A820FEF775FEFFF7FDFE2861A86D40F065
:103C7000100013E0801C00EE900AF8EEE00AF4EE6B
:103C8000400AF1EE10FA0AD595F85800C10606D59B
:103C9000A3A0FEF75DFEA86D20F01000A86500202F
:103CA00002F0F6FFB0EE408A03F03EF8064696EDCD
:103CB000000AB4EE480AF1EE10FA1DD5A86DC0F363
:103CC0004010C8B99DA0FEF743FE0320B0EE480A9D
:103CD000FEF75EFE9FA0FEF73BFE032096ED000A76
:103CE000FEF756FE8748FEF733FEFFF7BBFE68611E
:103CF000A86D40F02000A86500F036F82078032871
:103D00002FD8DFE800F00204251201211EE0A86D83
:103D100038B300F04BF8AE6DA0A0EE65FEF718FECC
:103D20003046FEF720FE03201AE0E96DA86D8142BF
:103D300009D000F03BF8AE6D98A0EE65FEF708FEE6
:103D40003046FEF710FEA86D58B90221217008E038
:103D5000FEF7CFFE02281CBF0021FEF7D7FE012090
:103D60002070BDEC028B70BD10B501F0B0FD78B1D4
:103D7000634CA06DC0F3801050B900BF7AA0FEF76D
:103D8000E7FDFFF76FFEA061A06D40F04000A06569
:103D900010BD5B49886D81B0009020F08000401E0E
:103DA000009A8A658041C00F01B0704780B55449C0
:103DB000886D009030F4C0700098886509D000F0DC
:103DC000F5FB0E281EBF00280B2000F0EBFB0120A6
:103DD00002BD002002BD70B505464FF6FF7085425A
:103DE000474C02D0280002D10020A06570BD2E46AD
:103DF000112E03DAFFF736FE44F826000121A06DEC
:103E000001FA05F50543A56570BD4FF6FF739842AD
:103E10003B4906D08A6D012303FA00F022EA000034
:103E200000E000208865704710B5354C94F85800C4
:103E3000810705D500F09AF9A06D20F00200A06579
:103E400094F85800410705D500F097F9A06D20F0CF
:103E50000400A06594F85800010705D500F094F916
:103E6000A06D20F00800A06510BD000010B5244C26
:103E7000A06D90B1FFF7D8FF42A0FEF769FDA06DDD
:103E8000800900F00100FEF76EFD94F8580041062D
:103E900048BF01F021FD0020A065012116480170F6
:103EA00010BD10B5164CA06D28B1FFF7BDFFA06D79
:103EB00020F01000A06501200F49087010BD1048C7
:103EC000806D704710B50E48846D3CB133A0FEF78D
:103ED0003FFD2046BDE81040FEF745BD10BD084837
:103EE000806D000A00F0010070470548816D481E92
:103EF0008041C043C00F7047E82DFF1FE92DFF1F11
:103F0000C828FF1F785101000A204C6F7720566F98
:103F10006C746167652044657465637465642E0024
:103F20000A204261747465727920566F6C746167FF
:103F300065204E6F726D616C2E0000000A43757231
:103F400072656E742054656D70657261747572650A
:103F50002D2D3E000A5365742054656D70657261A5
:103F6000747572652D2D3E000A204261747465726D
:103F700079204661756C742044657465637465646A
:103F80002E0000000A436865636B436C65617242F2
:103F90006174746572792D2D3E0000000A2045720F
:103FA000726F7220436F6465203A000070475A4870
:103FB0007047000010B5584C58A20B212046FFF75F
:103FC00009F900BF57A20B2104F10B00FFF702F91A
:103FD00004F11600BDE8104054A20B21FFF7FAB817
:103FE00010B5FFF751F802E010B5FFF74FF804469F
:103FF00000F024F864202073607310BD10B5FEF744
:104000000CFD044600F01AF8642020736073BDE8CC
:104010001040E5E710B5FEF702FDE8E780B5FFF7D1
:1040200023F902E080B5FFF722F94FF4FA6101604D
:104030004FF47A7264234260037201BD052101606E
:104040004FF4FA626421017341734FF47A7346218D
:10405000426083608173C173704780B500F0C8FA15
:1040600019214160016001BD80B5FFF7C7FB002148
:1040700001700122427001BD80B5FFF741FBFFE7EF
:104080000021017001BD80B500F054F84FF4FA71C1
:10409000016040F6B832012343F69821C260836084
:1040A000416001BD80B500F04FF8B0EE000A80ED30
:1040B000000A80ED010A80ED020A01BD704780B55B
:1040C000FFF794FD3221017001BD80B5FFF7A9F81B
:1040D00002E080B5FFF7D1FB0121017001BD002096
:1040E000FEF70ABD0000000080B5FFF793FF04F063
:1040F000F3F80021017004F05BF90022027000BFA8
:1041000002F012FE9FED030A80ED000A80ED010A25
:1041100001BD00000000C842302BFF1F4646464646
:1041200046000000302E315600000000534C303065
:10413000300000000848704730B4074991E83C005F
:1041400080E83C0030BC704704487047034991EC5C
:10415000030A80EC030A7047D42CFF1F342DFF1F85
:1041600004F082B904F01EBA04F0BABA80B504F0C3
:104170007EF9BDE8014004F07EB980B504F015FA7F
:10418000BDE8014004F015BA80B504F0ACFABDE812
:10419000014004F0ACBA80B502F028F804F06CF9E4
:1041A00004F008FABDE8014004F0A2BA80B504F0BA
:1041B000D9F904F075FABDE8014004F00FBB80B5F1
:1041C00002F014F802F012F802F010F8BDE8014015
:1041D00002F0C0B880B510EE101A21F000402DEDAD
:1041E000028BB0F5000F82B0B0EE608A06D20021DB
:1041F000009160B1684604F011FB08E0C00D21F0A9
:10420000FF417E3841F07C51009000EE101A20EE04
:10421000080A10EE102A22F00041009BC80D1B185E
:10422000D0B1002B18DDFF2B0CDB10EE101A02B002
:104230004FF0FF4001F000410843BDEC028B00EE5F
:10424000100A01BD02B022F0FF4242EAC352BDECA7
:10425000028B00EE102A01BD11B1009804F002FBA0
:1042600002B0BDEC028B01BD38B52DED028B040010
:1042700082B00D4600F0C78010EE100A410000F039
:10428000C28010EE101A48000016401C02D14902EC
:1042900000F0B980002CB7EE008A6CD5644200BFF4
:1042A000AFA1052008E0E20744BFD1ED000A28EEE7
:1042B000208A6408091D401E002C18BF0028F2D176
:1042C00010EE101A21F00040B0F5000F06D20021C8
:1042D000009160B1684604F0A1FA08E0C00D21F039
:1042E000FF417E3841F07C51009000EE101A80EEC4
:1042F000080A10EE102A22F00041009BC80D1B187E
:10430000A0B1002B12DDFF2B09DB10EE101A4FF0CD
:10431000FF4001F00041084300EE100A0AE022F0DD
:10432000FF4242EAC35200EE102A03E011B10098A6
:1043300004F098FA10EE100A410051D010EE101A55
:1043400048000016401C01D1490249D0002C47D03A
:10435000DFED7A0AFFF73EFF10EE100A41003FD072
:1043600010EE101A48000016401C01D1490237D047
:10437000641EEDD134E033DD79A10520E20744BFAE
:10438000D1ED000A28EE208A6410091D401E002C81
:1043900001DD0028F2D1F0EE480AFFF71BFF10EE16
:1043A000100A41001CD010EE101A48000016401CE4
:1043B00001D1490214D0002C12DDDFED610AFFF7B4
:1043C00009FF10EE100A41000AD010EE101A480042
:1043D0000016401C01D1490202D0641E002CECDC06
:1043E00010EE100A410007D010EE101A4800001617
:1043F000401C08D1490206D1AFF300801DB12868E6
:1044000040F00100286002B0BDEC028B31BD00001D
:104410002DE9F14183B01D001CBF00202860039EE0
:104420000F46904603A804F07FFAC41020F008005D
:10443000012804F0010424D1009001AB03993A460D
:10444000304604F003FB10B99FED3E0A15E09DEDE8
:10445000020A0128B8EEC00A0FDD03A9401EDFEDF5
:104460003A0A51F8042BB0EE401A00EE102AB8EECA
:10447000C00A401E01EE200AF3D1019829464044AB
:1044800047E0022848D10120009001AB03993A4649
:10449000304604F0B7FB10B99FED2A0A15E09DEDF8
:1044A000020A0128B8EEC00A0FDD03A9401EDFEDA5
:1044B000270A51F8042BB0EE401A00EE102AB8EE8D
:1044C000C00A401E01EE200AF3D110EE103A019A04
:1044D00023F00041C80D02EB000714D0002F12DDBD
:1044E000FF2F09DB10EE101A4FF0FF4001F00041E2
:1044F000084300EE100A0AE023F0FF4343EAC753E3
:1045000000EE103A03E011B1104604F0ABF9294671
:104510004046FFF7A9FE0AE0032808BF9FED0C0AFA
:1045200005D004280CBF9FED0B0A9FED060A0CB1C5
:10453000B1EE400A04B0BDE8F08100001EB14F0AA0
:10454000AEC59D7400000000286B6E4E0000804DCB
:104550000000807FFFFFFF7F0023002258E700005C
:10456000000020410000C84200401C4620BCBE4C58
:10457000CA1B0E5AAEC59D7480B504F047FC04F00A
:10458000E3FCFEF749FE012002BDF0B490E8FC0018
:10459000DFF8F81781E8FC000879DFF8F417C8762F
:1045A000F0BC7047DFF8E81708767047DFF8E007DF
:1045B000007E704738B504F081FC054604F01CFD10
:1045C0000324032D12D8DFE805F0080802050328AC
:1045D0000CD004E0022809D005E0022801D1002413
:1045E00004E0032801D1012400E00224204632BD6A
:1045F00001E0000000BFDFF89C077047F8B5DFF866
:104600009807DFF8984790E8EE1084E8EE1001F084
:10461000EFF984ED030AFFF725FA6060FFF74FFC1E
:10462000A061F1BDDFF8740770470000F8B5DFF84E
:1046300060472DED028B207E0F2800F2D082DFE84C
:1046400010F010001E00F50119013C017E01E1018E
:10465000F1010D0222027A028E029002AC02CE0219
:104660001E000021A162E16201F01CFD94ED0A0A26
:1046700004F02DFC94ED0B0A04F0C7FCAFE202201D
:10468000A076607604F042FC00EE100AB8EE400A14
:1046900084ED0A0A04F0D8FC00EE100AB8EE400AD5
:1046A00084ED0B0A0FF2C870FEF752F9032094ED67
:1046B0000A0AFEF76DF9D2A0FEF74AF9032094ED3D
:1046C0000B0AFEF765F90020A083FFF773FFE17E78
:1046D000020000F08B80012840F08380002900F068
:1046E0008880FEF743FD80B901F0E3FC08B1FFF7D5
:1046F00085FFDFF8A456FFF7B5F9286001F078F9D7
:10470000002085ED020A2861686101F0C4FCDFF831
:104710007C0690E8EE0084E8EE00DFF88456284638
:10472000FEF716F90FF29460FEF712F92068FEF713
:104730001AF90FF29C60FEF70BF92079FEF713F9D6
:104740000FF2A460FEF704F994ED020A0320B8EE1C
:10475000400AFEF71DF90FF2A860FEF7F9F8E068CD
:10476000FEF701F90FF2A860FEF7F2F82069FEF7F4
:10477000FAF80FF2AC60FEF7EBF8A07DFEF7F3F865
:104780000FF2B060FEF7E4F8207DFEF7ECF80FF2D0
:10479000B860FEF7DDF8E07DFEF7E5F80FF2BC60EB
:1047A000FEF7D6F8607DFEF7DEF894ED000AB8EE6D
:1047B000408A01F07EFC00EE900A94ED020AF8EEC9
:1047C000600AB8EE400A78EE600AB4EE600AF1EED4
:1047D00010FA15DB01F06DFC00EE100AB8EE408A0D
:1047E00010E003287FF47DAF080002D001297FF498
:1047F00078AF012002212077217601F04CFCEEE118
:1048000038EE408A0FF21070FEF7A2F80320B0EEE7
:10481000480AFEF7BDF8207984ED0D8A010002D127
:10482000FFF73EF803E0012815D1FFF740F828B163
:1048300005F12800FEF78CF80B20CFE1207950B964
:10484000022004F03EFB022004F0D9FB0120FEF719
:10485000EBFC0320C2E12079012840F0C081032055
:1048600004F02FFB032004F0CAFB0020FEF7DCFC61
:104870000320B3E104F028FB054604F01FFB85424A
:1048800040F0AD8104F0BEFB054604F0B5FB854267
:1048900040F0A581FFF78EFE20B1FFF78BFE0128C7
:1048A00040F09D81FEF7F5FC062804D0FEF7F1FCF0
:1048B0000F2840F09481042090E194ED0D8A01F0DE
:1048C000F8FB00EE100AB8EE400AB4EE480AF1EE2A
:1048D00010FA03DB02200821A0762176B3EE048AC9
:1048E00094ED0A0AB4EE480AF1EE10FA05D584ED0B
:1048F0000A8AB0EE480A04F0FDFA94ED0B0AB4EE11
:10490000480AF1EE10FA05D584ED0B8AB0EE480A9C
:1049100004F08EFB0020A076052121760FF2645072
:10492000FEF716F8032094ED0A0AFEF731F8BBA053
:10493000FEF70EF8032094ED0B0AFEF729F8A07E8F
:10494000010035D104F0E2FA217D081A00EE100AC8
:10495000B8EEC00AB5EE400AF1EE10FA9FEDB08A4B
:1049600007D4E06828B100EE900AF8EE600A80EE05
:10497000208A84ED088A04F067FB617D081A00EE46
:10498000100AB8EEC00AB5EE400AF1EE10FA9FED3B
:10499000A48A07D4E06828B100EE900AF8EE600A15
:1049A00080EE208A012084ED098A2063A07614E03D
:1049B000022812D10FF2DC40FDF7CAFF032094ED6C
:1049C0000A0AFDF7E5FF95A0FDF7C2FF032094ED6D
:1049D0000B0AFDF7DDFF0620207694ED0D8A01F02D
:1049E00068FB00EE100AB8EE400AB4EE480AF1EE99
:1049F00010FAC0F2F4800220A0760821ADE000BFDA
:104A0000202C200094ED0D8A01F053FB00EE100ADB
:104A1000B8EE400AB4EE480AF1EE10FAC0F2DF80B8
:104A20000820DBE0012100206177207702210820A7
:104A3000A176207604F06AFA00EE100AB8EE400A79
:104A400084ED0A0A04F000FB00EE100AB8EE400AFA
:104A500084ED0B0A0FF25040FDF77AFF00206076DC
:104A6000092121760FF25440FDF772FF032094EDE7
:104A70000A0AFDF78DFFC4A0FDF76AFF032094ED3D
:104A80000B0AFDF785FF607E010035D104F03EFA88
:104A9000A17D401A00EE100AB8EEC00AB5EE400A39
:104AA000F1EE10FA9FED5E8A07D4206928B100EE7E
:104AB000900AF8EE600A80EE208A84ED088A04F0FD
:104AC000C3FAE17D401A00EE100AB8EEC00AB5EE56
:104AD000400AF1EE10FA9FED528A07D4206928B1FE
:104AE00000EE900AF8EE600A80EE208A012084ED44
:104AF000098A2063607672E0022870D1207F012845
:104B00001CBF607F012803D1002161770C2065E084
:104B10000FF2BC30FDF71CFF032094ED0A0AFDF7ED
:104B200037FF99A0FDF714FF032094ED0B0AFDF762
:104B30002FFF0A2052E001F0BCFA00EE100A2068B4
:104B4000400000EE900AF8EE600AB8EE400AB4EEBB
:104B5000600AF1EE10FA42DB0C2121763FE00020E2
:104B600020770FF28830FDF7F3FE0020A062E062AC
:104B70009FED2B0A04F0ABF994ED0B0A04F045FA13
:104B8000012004F09EF9012004F039FAFEF767FBDA
:104B90000220A07660760D202076FEF77AFB0D28A5
:104BA00003D0FEF776FB0F2819D101F07BFA01F054
:104BB00082FA794D29694018286101F07EFA696905
:104BC00040186861FFF71AFD207F012803D10021FA
:104BD00021770F2002E001F06CFA0E20207604F01D
:104BE00017F904F0B3F9FEF76BFB207E98B10B3890
:104BF000032810D9FFF7DEFC010002D1FEF750FEBA
:104C000003E0012807D1FEF752FE20B1BAA0FDF75C
:104C10009FFE0C202076BDEC028BF1BD202C000005
:104C20000000000070B55A4CA07E012853D1206BC3
:104C3000401E206340F0A780207DD4ED080A0025A7
:104C4000F5EE400A00EE100AF1EE10FAB8EE400A56
:104C500011D094ED0A1A71EE200AB0EE601AB4EE8B
:104C6000401AF1EE10FA06DA84ED0A1AB0EE600A84
:104C700004F040F904E084ED0A0A04F03BF9012550
:104C8000607DD4ED090A0026F5EE400A00EE100A18
:104C9000F1EE10FAB8EE400A11D094ED0B1A71EE55
:104CA000200AB0EE601AB4EE401AF1EE10FA06DAFD
:104CB00084ED0B1AB0EE600A04F0BAF904E084ED5A
:104CC0000B0A04F0B5F9012635425AD00021022022
:104CD0002163A07670BD607E012854D1206B401EF8
:104CE000206350D1A07DD4ED080A0025F5EE400ADE
:104CF00000EE100AF1EE10FAB8EE400A11D094ED71
:104D00000A1A71EE600AB0EE601AB4EE410AF1EED2
:104D100010FA06DA84ED0A1AB0EE600A04F0EAF836
:104D200004E084ED0A0A04F0E5F80125E07DD4ED05
:104D3000090A0026F5EE400A00EE100AF1EE10FA1C
:104D4000B8EE400A11D094ED0B1A71EE600AB0EE85
:104D5000601AB4EE410AF1EE10FA06DA84ED0B1A8D
:104D6000B0EE600A04F064F904E084ED0B0A04F08C
:104D70005FF90126354204D00021022021636076CC
:104D800070BD0121216370BD202C2000002CFF1F6D
:104D90001C04FF1FA02DFF1F942BFF1FB02BFF1F14
:104DA0001048010080B5FFF73DFF04F0BCF804F0A7
:104DB00058F9BDE80140FEF7AFBB00000A2054617E
:104DC0007267657420436F756E74203A200000008E
:104DD0000A2054617267657420446972656374695E
:104DE0006F6E203A200000000A20446563656C2045
:104DF0004469666620436F756E74203A2000000097
:104E00000A20416363656C2054696D65203A200077
:104E10000A20446563656C2054696D65203A200062
:104E20000A20417070726F6163682050574D3120C5
:104E30003A2000000A205374656164792050574D70
:104E400031203A20000000000A20417070726F612A
:104E500063682050574D32203A2000000A205374D6
:104E6000656164792050574D32203A2000000000DF
:104E70000A20526F626F74205374617274203A205A
:104E8000000000000A20416363656C205374617266
:104E900074203A000A20416363656C20436F6D7093
:104EA0006C657465643A20000A204D6F746F72203F
:104EB0004E6F726D616C2053746F70000A204465F0
:104EC00063656C2053746172746564203A2000003D
:104ED0000A20417070726F61636820436F756E7451
:104EE000205374617274203A000000000A20526F4F
:104EF000626F7420456E64000A20526F626F7420E6
:104F0000456467652053656E736F722044657465F0
:104F100063746564000000000A20446563656C20CA
:104F2000537461727420436F756E74203A000000F0
:104F3000DFF87003704710B5DFF86C430FF2BD1057
:104F40000FF239216060A1600022DFF86003DFF812
:104F50006013E0602161E261DFF85803DFF8581365
:104F60006061A161201D002104F0E6F828B90FF26C
:104F70000C40FDF7EDFC002004E00FF21840FDF7B7
:104F8000E7FC0120E07010BDDFF81C03C1780129A7
:104F900008BF04F0F5B84FF0FF300146704710B578
:104FA000DFF80443207898B9206AB0F5FA6F0FD380
:104FB00004F059F9401E8041C043C00F2070002109
:104FC0002078216220B10020FDF78CFBFEF77AFFEC
:104FD000207810BD78B5B44CE078012889B040F055
:104FE0008A80FFF7DCFF012808BF04F059F994F923
:104FF000020010F1010F08D0401E8041C043C00FD5
:1050000004F02BF94FF0FF30A0706078002872D0C8
:10501000A44D287860B12846FDF743FF04F0B3F8AB
:1050200010B90FF2E0305BE00FF2F430FDF790FCC6
:10503000687CB0B12021ADF800106A4601A905F1E5
:105040001100FDF7E0FE012804D1BDF8001001A811
:1050500004F0C7F808B9994842E00FF2D830FDF7DC
:1050600077FC15F8521F89B1687810B93020697043
:10507000287069782878FDF792FE04F0D9F808B90D
:105080008F482DE00FF2C830FDF762FCE87868B178
:105090003038401E8041C043C00F04F0B3F808B957
:1050A00088481DE00FF2C830FDF752FC287978B12E
:1050B0003038401E8041C043C00F04F06BF87F4E73
:1050C00010B906F170000BE006F19C00FDF740FC02
:1050D000687968B131280BD104F0BAF820B97A4860
:1050E000FDF736FC0AB070BD0FF2A430FDF730FCBE
:1050F0000020207060700AB070BD00000FB470B561
:10510000B6B000BFA9A0FDF723FCBDF8F0109DF8D4
:10511000F800BDF8F2606D4A0291DDE93A450028D9
:10512000DDE93A01009114BF0FF29C230FF2A42392
:1051300003960194C82104A8FEF74CF804A8FDF7D3
:1051400007FC00BFA5A0FDF703FC00BFA5A0FDF76D
:10515000FFFBDDE93A013D9A334604F073F936B0BE
:1051600070BC5DF814FB80B503F0E3FF4E48016AA4
:10517000491C016201BD03F08FBF000080B504F03F
:105180001CF9401E8041C00F02BD00002DE978418E
:105190000C4645490A7880460020012A12D1002693
:1051A00002E0641BA4B276195CB1B4F5807FB4BF91
:1051B0002546FF25B0B22946404404F057F801289F
:1051C000EFD028B989A0FDF7C3FB0120BDE87281AB
:1051D0000020BDE8728100003349487070473249B1
:1051E000887070470000000010B5044684B00020AD
:1051F000207520706074E075A07602A803F0EBFFC4
:1052000010B900BFAAA03EE01120ADF800006B4627
:10521000DDE902012246FDF767FE0DF1050004F00D
:1052200011F800283CD00320ADF800006B469DF833
:10523000050004F111020021FDF756FE01A803F05C
:10524000EBFF08B9A2A01EE09DF804100320ADF802
:105250000000303100202076E1750DF1030003F0ED
:10526000E1FF08B91A480EE09DF803100320ADF8DD
:10527000000030310020E076A1760DF1020004F04C
:105280001CF808B9134873E00320ADF800006B4622
:105290009DF8020004F114020021FDF725FE012013
:1052A00004B010BDE829FF1FD404FF1F7D95000046
:1052B0006D9500008595000089950000F437010088
:1052C0001838010040380100B8380100684D01006D
:1052D000CC4B0100F04B010010B5044684B0002017
:1052E00020706074A075607602A803F05CFF08B9B6
:1052F0007FA00EE01120ADF800006B46DDE9020151
:105300002246FDF7F1FD01A803F053FF10B900BFDD
:105310007EA02DE00520ADF800006B46BDF804002E
:1053200004F111020021FDF7DFFD0DF1030003F090
:1053300046FFD8B10320ADF800006B469DF803008E
:1053400004F116020021FDF7CFFD0DF1020003F07C
:105350003CFF58B10320ADF800006B469DF80200F9
:1053600004F119020021FDF7BFFD012004B010BDBA
:10537000FDF7EEFA002004B010BD00000A5A69677C
:105380006265652041504920496E697420457272FA
:105390006F7220000A5A6967626565204150492092
:1053A000496E6974204F4B20000000000A5A69675B
:1053B0006265652044617461205265636569766544
:1053C00064202D3E200A000042524F414443415385
:1053D00054000000554E4943415354000A202A2AE4
:1053E00020000000202A2A0A000000000A205A6932
:1053F00067626565205472616E736D6974204572D1
:10540000726F72000A202A2A2050414E202D4944F2
:1054100020536574202D204572726F7220000000A9
:105420000A50414E202D494420536574202D204FB1
:105430004B2000000A5A6967626565204C696E6BF3
:10544000204B657920536574202D204F4B200000A0
:105450000A5A6967626565204E6574204F707469E9
:105460006F6E7320536574202D204F4B2000000079
:105470000A5A69676265652053656320456E6162FB
:105480006C6520536574202D204F4B2000000000D8
:105490000A5A696762656520577269746520436FAF
:1054A0006E66696720536574202D204F4B200000E5
:1054B0000A47657474696E6720436F6E666967207A
:1054C00050616E204944204661696C6564000000AB
:1054D0000A47657474696E672053656375726974F1
:1054E0007920537461747573204661696C6564003A
:1054F0000A47657474696E67204F702050616E2092
:105500004944204661696C65640000000A4765747F
:1055100074696E67204F702050616E2049442031BD
:1055200036426974204661696C656400DFF8E018F2
:1055300001200870704704F03FB804F042B8000042
:105540002DE9F04184B004F03FF8DFF8C458DFF8EB
:10555000C4080FF69422A860694692E8D80081E852
:10556000D800684604F086F9686048F21406012203
:10557000314604F0AAF904464FF4FA7004F0E4F955
:1055800068680022314604F0A0F9044368680122EB
:1055900044F2140104F099F90646642004F0D4F9A9
:1055A00068680122292104F090F90746642004F07C
:1055B000CBF96868002243F2140104F086F9344301
:1055C0003C4304436868052240F61A7104F07DF9F3
:1055D0000443292000F034FA30B3686805224FF400
:1055E000856104F072F906466868052245F2284193
:1055F00004F06BF90746686805224AF2284104F076
:1056000064F980466868052240F2274104F05DF99C
:105610003E4348EA060606436868052245F22741EC
:1056200004F053F9064334439FEDC30A00F086F9B2
:1056300006466868012242F2140104F046F9064366
:105640003443FEF74EF940F6137648B904F09CF95E
:1056500041F69911884203D304F096F982B202E030
:1056600004F0ACF902466868314604F02EF90443B0
:105670006868012241F20E0104F027F9044300F0AA
:105680002EF86868002241F2370104F01EF9044345
:105690001CD10FF2D070DFF8804700880FF2C8717C
:1056A00020806A460888ADF800000921DFF86C0701
:1056B00002F00EFB206820F4702040F420202060CF
:1056C00004F017FA00F017F8012005E0DFF85007A2
:1056D000FDF73EF9002000BF04B0BDE8F08180B5C1
:1056E00000208DF800006A46DFF8283700210C20E2
:1056F00004F06AF801BD70B540F21B5000F0A0F94B
:1057000004460FF26870DFF81C57FDF721F92046B8
:10571000FDF729F940F2433000F092F904460FF208
:105720006470FDF715F92046FDF71DF948F2433086
:1057300000F086F904460FF25C70FDF709F9204687
:10574000FDF711F942F2290000F07AF904460FF250
:105750005070FDF7FDF82046FDF705F940F22A509C
:1057600000F06EF904460FF24870FDF7F1F820469C
:10577000FDF7F9F848F2140000F062F904460FF260
:105780004470FDF7E5F82046FDF7EDF840F61E7091
:1057900000F056F904460FF24470FDF7D9F82046A0
:1057A000FDF7E1F840F61D7000F04AF904460FF2EB
:1057B0004070FDF7CDF82046FDF7D5F842F2140011
:1057C00000F03EF904460FF23C70FDF7C1F82046A8
:1057D000FDF7C9F843F2140000F032F904460FF265
:1057E0004070FDF7B5F82046FDF7BDF84FF4856031
:1057F00000F026F904462846FDF7AAF82046FDF7F2
:10580000B2F845F2274000F01BF9044605F12400E8
:10581000FDF79EF82046FDF7A6F840F60D7000F063
:105820000FF904460FF21470FDF792F82046FDF7C9
:105830009AF840F60E76304600F002F9044605F17B
:105840004800FDF785F82046FDF78DF840F60F700B
:1058500000F0F6F8044605F17000FDF779F82046EF
:10586000FDF781F8304600F0EBF804460FF2EC60EB
:10587000FDF76EF82046BDE87040FDF774B81CB522
:10588000DFF88C45207808B300218DF800106A46B7
:10589000DFF880350C2003F097FF60686A4641F21C
:1058A000370104F03CF8BDF8000068B101216170D7
:1058B0000022606840F6137104F007F86068002267
:1058C00042F2140104F001F80020207013BDDFF84B
:1058D000400540787047000038B5DFF8344560680F
:1058E000002241F2370103F0F0FF00216170012234
:1058F000606842F2140103F0E8FF04F05FF802462A
:1059000040F613756068294603F0DFFF60686A4659
:10591000294604F004F8BDF8000000EE100AB8EEC5
:10592000400ADFED650AC0EE200A9FED951A20EED1
:10593000811A84ED031A31BD0000000010B5B5EEE8
:10594000400AF1EE10FA2DED048B08BF9FED6D0BB0
:1059500017D09FED6E9A20EE099A9FED570A89EEB7
:10596000000A10EE100A01F0FDFB41EC100B53ECA5
:10597000102BDFF8B404DFF8B41401F017FC41EC8D
:10598000100B53EC102BDFF8A804DFF8A81401F07B
:105990000DFC01F0DDFC08EE100A0FF2DC50FCF704
:1059A000D7FFBDEEC80A10EE104AB8EEC00A38EEB6
:1059B000400ADFED740AB4EE600AF1EE10FAA8BFF7
:1059C000641C2046FCF7CFFFBDEC048BA2B2DFF8CD
:1059D00040044068BDE8104040F6127103F075BF06
:1059E00080B5DFF82C0440686A4640F613712DE05C
:1059F00038B503F0E6FDDFF8185404462869211A8B
:105A000040F6B832914200D2B8B968686A4640F6AA
:105A1000137103F084FFBDF800002C6100EE100A42
:105A2000B8EE400ADFED240AC0EE200A9FED5E1AB0
:105A300020EE810A85ED030A31BD95ED030A31BDE3
:105A4000014680B5DFF8C80340686A4603F067FF87
:105A5000BDF8000002BD80B5DFF8B40340686A46B7
:105A600040F63C7106E080B5DFF8A40340686A4662
:105A700040F63B7103F053FFBDF8000004F046F818
:105A8000DFF8B423DFF8B43301F090FB01F060FCE1
:105A900000EE100A01BD80B5DD4840686A4640F658
:105AA0003E7103F03CFFBDF8000004F02FF8E44A1B
:105AB000E44BE9E70000000000FF7F477CB5D44BD2
:105AC00058686A4640F63A7103F029FF40F24330C5
:105AD000FFF7B6FF0646BDF8000004F017F8DA4AF3
:105AE000DA4B01F063FB04460D46304604F00EF835
:105AF00022462B4601F05AFB01F02AFC00EE100A68
:105B000073BD0000AE87D775B4E1C14000006145A8
:105B10001CB5BF4B044658686A4640F63D7103F019
:105B2000FEFEBDF800000121C00B06D0BDF800004C
:105B3000C043401CADF8000000212171BDF80000F9
:105B400003F0E4FFBE4ABF4B01F030FB01F000FC64
:105B500000EE100A84ED000A13BD80B5AC4B586806
:105B60006A4640F63F7103F0DAFEBDF80000B8491E
:105B7000081801F0D9FAB74AB74B03F0D5FF85E70B
:105B80000000C8420100003F80B5A14840686A4655
:105B900046F2340103F0C3FEBDF80000401E804110
:105BA000C043C00F02BD00000000C842002038B54D
:105BB00001F06EF8DFED940AB4EE600AF1EE10FA2F
:105BC000934C3ADBA078002837D148F2140560687E
:105BD0000122294603F079FE6068032240F61A711B
:105BE00003F073FE2920FFF72BFFE8B16068032262
:105BF0004FF4856103F069FE6068032245F2284195
:105C000003F063FE606803224AF2284103F05DFE60
:105C10006068032240F2274103F057FE60680322C8
:105C200045F2274103F051FE60680022294603F047
:105C30004CFE0120A070002142E0002001F028F875
:105C4000DFED720AB4EE600AF1EE10FA39D5E078B1
:105C5000B8BB48F2140560680122294603F035FEFE
:105C60006068052240F61A7103F02FFE2920FFF725
:105C7000E7FEE8B1606805224FF4856103F025FE78
:105C80006068052245F2284103F01FFE6068052286
:105C90004AF2284103F019FE6068052240F22741CC
:105CA00003F013FE6068052245F2274103F00DFE64
:105CB00060680022294603F008FE0020A070012140
:105CC000E17003F07EFC6169644A401A904211D38E
:105CD00048F2140560680122294603F0F6FD05200C
:105CE00003F032FE60680022294603F0EEFD03F067
:105CF00068FC606131BD000070B5E8B0FFF7B3FE2D
