:10000000E868FF1F95F60100A3BB000003D80000BD
:10001000C7D8000037DC00007BDC000000000000D7
:10002000000000000000000000000000BFDC000035
:1000300097DD000000000000C7E4000043E7000077
:10004000E9F90100F1F90100F9F9010001FA0100F3
:1000500009FA010011FA010019FA010021FA010060
:1000600029FA010031FA010039FA010041FA0100D0
:1000700049FA010051FA010059FA010061FA010040
:1000800069FA010029FB010029FB010029FB01009D
:1000900029FB010029FB010029FB010029FB0100CC
:1000A00071FA010079FA010081FA010089FA010070
:1000B00091FA010099FA010029FB0100A1FA01005F
:1000C000A9FA0100AD2F0100B1FA0100B925010024
:1000D000B9FA0100B3DD0000C1FA0100CB0501004F
:1000E00029FB010029FB010029FB0100E934010083
:1000F00029FB010029FB010029FB01006998000090
:1001000029FB010029FB010029FB010029FB01005B
:1001100029FB010029FB010029FB010029FB01004B
:1001200029FB010029FB0100B70A0100D92B0100BE
:1001300029FB0100132C010029FB010029FB010010
:1001400029FB0100C9FA010001CA0100D1FA01002E
:100150009D310100D9FA010029FB010029FB0100B2
:1001600029FB0100E3050100E1FA0100E9FA0100C1
:10017000F1FA0100F9FA010001FB010009FB01009D
:1001800011FB010019FB010029FB010029FB010003
:1001900029FB010029FB010029FB010029FB0100CB
:1001A00029FB010029FB010029FB010029FB0100BB
:1001B00029FB010029FB010029FB010029FB0100AB
:1001C00029FB010029FB010029FB010029FB01009B
:1003F00029FB010029FB010029FB0100FFFFFFFF92
:10040000FFFFFFFFFFFFFFFFFFFFFFFFFEFFFFFFFD
:10041000DFF8B02DC2E900017047DFF8A80DD0E980
:100420000001704710B504460FF2D000C046C04628
:100430002046C046C046022010BD2DE9F8410446C2
:1004400083B00FF2B800C046C0462046C046C04642
:1004500002232C2201A9204606F07EFF0646DFF883
:10046000D00CC046C0460025012E0CDB0DF104085F
:100470003446BBA758F8040BC046C0463846C046B1
:10048000C046641EF6D1022E30D1019B187848B1C7
:100490000A220021184607F0ADF8044607F0ACF830
:1004A00060B100949DF8000010B101280AD010E05E
:1004B0000A2008F0A3FE0021002008E00425DFF850
:1004C0009C0D10E0092008F099FE0021012008F0A1
:1004D00053FD0FF24000C046C0469DF80000C046E4
:1004E000C0460FF24800C046C04604E00FF2540078
:1004F000C046C046032504F01FBE00000D0A496E29
:100500002050726F636573735365744D6F64652D0E
:100510003E0000000A20536574204D6F646520532F
:10052000657456616C7565203A2000000D0A302D07
:100530003E4155544F2C20312D3E4D414E55414C9E
:10054000000000000A20536574204D6F646520533D
:10055000657456616C75652F7320496E76616C69A0
:10056000640000002DE9F0470446DFF85CAC84B07D
:100570005046C046C0462046C046C04603232C22F3
:1005800001A9204606F0E8FE0546DFF8A40BC046A8
:10059000C0460027002D0DDD0DF104082C460FF29A
:1005A000C01958F8040BC046C0464846C046C0466D
:1005B000641EF6D108F002FF0446DFF8A40C0078B0
:1005C000B946B84602E054F82010884454F8202078
:1005D000401E9144F7D5042D6ADA019B187860B16A
:1005E0000A220021184607F005F8054607F006F82C
:1005F00008B1009501E0002500E0012501AE70681A
:1006000008F092FF9DF80010062910D1E16981429F
:100610000CD37068DFF8EC2CDFF8741D05F074FD66
:1006200005406D1EAD41ED43ED0F00E0002508F0E3
:10063000C1FE044608F0C4FE1DB904270AF12400D7
:1006400033E02168022938D09DF80010491E0529A1
:1006500021D8DFE801F0030507090B0D022011E0A6
:1006600003200FE004200DE005200BE0062009E048
:10067000006830B9DFF8181D0888814508DB80451F
:1006800006DA0C2008F0BAFD002008F0E9FC02E0D0
:100690001B2007F032F80FF22800C046C0469DF834
:1006A0000000C046C0460AF14C00C046C04604E007
:1006B0000AF19000C046C04603273846AEE300006A
:1006C0000A204D616E75616C204D6F646520536525
:1006D0007456616C7565203A200000002DE9F84FD2
:1006E0000646A6B00FF27C00C046C0463046C04663
:1006F000C04607F021F8044608F02EFF94E88E511A
:10070000054606A880E88E5106A9304601F040FC57
:10071000060020D106A890E88E5184E88E510DF194
:10072000180999E88F0C85E88F0C2568DFF8CC2D27
:100730000595A06904906069039021690291E068C1
:1007400001900DA8A16800916421636808F0C0FFC2
:100750000DA8C046C046304627B0BDE8F08F000067
:100760002C0000000D0A496E2050726F6365737390
:100770005365744D6F746F7250574D4D616E756156
:100780006C2D3E00F8B50546A6B00FF26400C046D9
:10079000C0462846C046C04608F0E0FE044694E83D
:1007A000CE5006A880E8CE5006A9284601F0F0FBFE
:1007B000050019D106A890E8CE5084E8CE500591E6
:1007C000A069DFF83C2D04906069039021690291D3
:1007D000E06801900DA8A16800916421636808F0A9
:1007E00077FF0DA8C046C046284627B0F0BD0000E0
:1007F0000D0A496E2050726F636573735365744DB3
:100800006F746F7250574D4175746F2D3E0000002C
:100810002DE9F0430446DFF8488C83B04046C046DB
:10082000C0462046C046C04602232C2201A92046CD
:1008300006F092FD074608F12400C046C046002598
:10084000012F0CDB01AE3C460FF2143956F8040BB5
:10085000C046C0464846C046C046641EF6D1022F78
:100860003BD1019808F056FF042836D10198027850
:10087000417802EB820301EB4301A1F11004E4B2E1
:100880008278C1780FF2600002EB820301EB430132
:10089000A1F11007C046C0462046C046C0460FF230
:1008A0005400C046C046FFB23846C046C046182C69
:1008B000B8BF3C2F0BDA8DF800408DF8017008F0BE
:1008C00045FF684608F048FF0FF2340002E00425B7
:1008D00008F14C00C046C04604E00FF24000C0469C
:1008E000C04603252FE200000D0A486F75722D2DBA
:1008F0003E0000000D0A4D696E7574652D2D3E0099
:100900000A204175746F2074696D652053657456B3
:10091000616C75652F732053657400000A20417562
:10092000746F2074696D652053657456616C7565CC
:100930002F7320496E76616C696400002DE9FE43D7
:100940000446DFF8C00BC046C0462046C046C0463D
:100950000FF29C00C046C0462046C046C046022357
:100960002C226946204606F0F7FC0746DFF8C00750
:10097000C046C0460026012F0CDBE8463C460FF27D
:10098000E01958F8040BC046C0464846C046C04669
:10099000641EF6D1022F24D1009B187860B10A2280
:1009A0000021184606F026FE451EAD41ED43ED0F31
:1009B000284606F040FE70B10FF24C00C046C0461B
:1009C0000FF25400C046C046E8B2C046C04608F028
:1009D00020FF05700AE00FF25C00C046C046042606
:1009E00004E00FF27000C046C04603263046ABE17B
:1009F0000D0A496E2050726F6365737353657453AB
:100A0000746174652D3E00000A204D6F64652053AB
:100A1000657456616C7565000D0A456467652073E1
:100A2000656E736F722073746174652073657420D2
:100A3000617320000A204D6F646520536574566110
:100A40006C75652F73204F7574206F662052616E30
:100A5000676500000A204D6F646520536574566118
:100A60006C75652F7320496E76616C6964000000B7
:100A70002DE9F841044695B00FF2E800C046C046A3
:100A80002046C046C04607232C2204A9204606F073
:100A900063FC0646DFF8600CC046C0460025012E08
:100AA0000CDB0DF1100834462DA758F8040BC04696
:100AB000C0463846C046C046641EF6D104ACA068A5
:100AC00008F032FDADF80000606808F02DFD8DF8EB
:100AD0000200049808F028FD8DF80300079808F03C
:100AE00023FD8DF80400089808F01EFD8DF8050020
:100AF000099808F019FD8DF80600684608F0D0FF47
:100B0000072E23D1DFF8F41BDFF8EC2D09189142F2
:100B100016D202A908F0ACFF28220BA902A808F0FF
:100B200091FF0BA8C046C04602A808F003FF68B1B9
:100B300008F00CFE082009F0CBF90FF2440002E0A7
:100B400004250FF25400C046C04604E00FF26800CE
:100B5000C046C0460325284616B0BDE8F081000017
:100B60002C0000000D0A496E2050726F636573738C
:100B700053657452544356616C75652D3E000000F8
:100B80000A205254432053657456616C75652F7367
:100B900020536574000000000A205254432053651E
:100BA0007456616C75652F73204F7574206F6620C5
:100BB00052616E67650000000A20525443202053A2
:100BC000657456616C75652F7320496E76616C692A
:100BD000640000002DE9F843044684B00FF2A4003D
:100BE000DFF81C7BC046C0462046C046C0460423F2
:100BF0002C226946204606F0AFFB06463846C04622
:100C0000C0460025012E0CDBE84634460FF24019A1
:100C100058F8040BC046C0464846C046C046641E4D
:100C2000F6D1042E26D109F00AFA0446009808F0FD
:100C300071FD20B1009A0B21204608F049FD019F6B
:100C4000384608F067FD28B13A460B2104F10B0045
:100C500008F03EFD029E304608F05CFD28B13246A9
:100C60000B2104F1160008F033FD0FF23400C046EA
:100C7000C04604E007F12400C046C04603252846CC
:100C800004F040B90D0A496E2050726F63657373AA
:100C9000536574446576696365496E666F2D3E00E1
:100CA0000A2044657669636520496E666F20536546
:100CB0007456616C75652F732053657400000000D5
:100CC0002DE9FE4304460FF28C00DFF8309CC0464D
:100CD000C0462046C046C04602232C226946204614
:100CE00006F03AFB06464846C046C0460025012E9F
:100CF0000BDBE846344616A758F8040BC046C0463E
:100D00003846C046C046641EF6D1022E16D109F1FF
:100D10002400C046C04600981022002106F06AFC5C
:100D2000C046C04609F040F9044609F001F908F050
:100D30003DFF44B1082009F0C8F804E009F148007B
:100D4000C046C0460325284603B0BDE8F083000036
:100D50002C0000000D0A496E2050726F636573739A
:100D6000436C6561724572726F72436F6465732D77
:100D70003E0000002DE9F847044683B00FF2A400BE
:100D8000DFF8E88BC046C0462046C046C04608F0A3
:100D900016FF0646022330788DF800002C2201A9A8
:100DA000204606F0D9FA07464046C046C046002510
:100DB000012F0DDB0DF104093C460FF2EC2A59F826
:100DC000040BC046C0465046C046C046641EF6D11D
:100DD000022F1DD1019B187848B10A220021184624
:100DE00006F008FC044606F018FC58B100949DF883
:100DF000000030700FF24800C046C0463078C04650
:100E0000C0460AE008F12400C046C046042504E0BC
:100E100008F14C00C046C0460325284604B0BDE892
:100E2000F08700000D0A496E2050726F636573737E
:100E30005365744C6F77426174536F432D3E0000CD
:100E40000A204C6F772042617420536F4320536512
:100E50007456616C75652F73205365740000000033
:100E60002DE9F04F044683B0DFF8AC0BDFF8AC8B14
:100E7000C046C0462046C046C04609F0ABFA06460A
:100E80003768D6F8049003232C226946204606F0E2
:100E900063FA82464046C046C0460025BAF1010FBB
:100EA0000ADBEB4654465BF8040BC046C0467EA006
:100EB000C046C046641EF6D1BAF1030F37D1009B7D
:100EC000187860B10A220021184606F093FB044608
:100ED0000120C04608B1A14601E0002400E0012441
:100EE000019B187848B10A220021184606F082FBBF
:100EF00082460120C04608B157460120044205D170
:100F000008F12400C046C046042515E0DFF8DC0BDC
:100F1000C046C0463760C6F804904846C046C04642
:100F2000CDA0C046C0463068C046C04604E008F1C7
:100F30004C00C046C046032505F0A4BA70B5DFF8E2
:100F4000B04B002020700121217086B009F0EEFF27
:100F50001122ADF800206B4601AA06F0C7FA42F252
:100F60000F76FF23DFF8682C3146601C08F0B0FBD9
:100F7000451CA9B2761B022060546D1C761BB1B2D1
:100F8000AEB241F21703DFF84C2CA01908F0A0FB19
:100F90004519A9B2032060546D1C0AF0D1FC30E25F
:100FA00070B5DFF84C4B002020700121217086B015
:100FB00009F0BCFF1122ADF800206B4601AA06F033
:100FC00095FA42F20F76FF23DFF8042C3146601CBD
:100FD00008F07EFB451CA9B2761B022060546D1CF4
:100FE000761BB1B2AEB241F21803DFF8E82BA019BC
:100FF00008F06EFB4519A9B2032060546D1C08F07F
:10100000BDFF034642F21071491BA8B20FF2040261
:10101000FDE10000253030305800000070B5DFF8E9
:10102000D04A002020700121217086B009F07EFF97
:101030001122ADF800206B4601AA06F057FA42F2E1
:101040000F76FF23DFF8882B3146601C08F040FB49
:10105000451CA9B2761B022060546D1C761BB1B2F0
:10106000AEB241F21903DFF86C2BA01908F030FB87
:101070004519A9B2032060546D1C08F0E0FF0FF27F
:101080002C01029100F10B03009300F11602019272
:10109000034642F21071491BA8B2DFF86C2E89B2E8
:1010A000204408F015FBB6E12C00000046563A3308
:1010B0002E302E330000000070B5DFF8344A0020D7
:1010C00020700121217086B009F030FF1122ADF8A7
:1010D00000206B4601AA06F009FA42F20F76FF23C0
:1010E000DFF8EC2A3146601C08F0F2FA451CA9B280
:1010F000761B022060546D1C761BB1B2AEB241F279
:101100000103DFF8D02AA01908F0E2FA4519A9B2C4
:10111000032060546D1C07F016FF42F21076761B18
:10112000002300B10123A8B2CCA2B1B270E100004B
:10113000A05C000070B5DFF8B849002020700121E4
:10114000217086B009F0F2FE1122ADF800206B4646
:1011500001AA06F0CBF942F20F76FF23DFF8702ADE
:101160003146601C08F0B4FA451CA9B2761B022077
:1011700060546D1C761BB1B2AEB241F20303DFF8CE
:10118000542AA01908F0A4FA4519A9B20320605402
:101190006D1C07F0E6FE42F21076761B401E032817
:1011A0000BD8DFE800F002040608012306E0022362
:1011B00004E0032302E0042300E00523A8B2A7A271
:1011C000B1B225E190BA0020DCDF010070B5DFF894
:1011D0002049002020700121217086B009F0A6FE70
:1011E0001122ADF800206B4601AA06F07FF942F209
:1011F0000F76FF23DFF8D8293146601C08F068FA23
:10120000451CA9B2761B022060546D1C761BB1B23E
:10121000AEB241F20403DFF8BC29A01908F058FA75
:101220004519A9B2032060546D1C06F085FA0168C7
:10123000039142690292C168019142F21071826881
:101240000092491B43680FF21C02A8B289B22044E5
:1012500008F03EFADFE00000202C000074DB010003
:101260009ABA002025642C25642C256C642C256CEE
:10127000642C25640000000070B5DFF8744800207D
:1012800020700121217086B009F050FE1122ADF8C6
:1012900000206B4601AA06F029F942F20F76FF23DF
:1012A000DFF82C293146601C08F012FA451CA9B25F
:1012B000761B022060546D1C761BB1B2AEB241F2B7
:1012C0000903DFF81029A01908F002FA4519A9B29C
:1012D000032060546D1C08F041F9016803914269D4
:1012E0000292C168019142F2107182680092491B1A
:1012F0004368DFF8982DA8B289B2204408F0E8F9D5
:1013000089E000000776000070B5DFF8E4470020B0
:1013100020700121217086B009F008FE1122ADF87D
:1013200000206B4601AA06F0E1F842F20F76FF2397
:10133000DFF89C283146601C08F0CAF9451CA9B2A8
:10134000761B022060546D1C761BB1B2AEB241F226
:101350000B03DFF88028A01908F0BAF94519A9B2E3
:10136000032060546D1C08F0F5F9DFF8241D0A789D
:10137000019242F2107143780FF218020093491B58
:101380000378A8B289B2204408F0A2F943E0000033
:1013900074BB002025303264253032642C25640073
:1013A00070B5DFF84C47002020700121217086B015
:1013B00009F0BCFD1122ADF800206B4601AA06F031
:1013C00095F842F20F76FF23DFF804283146601CBF
:1013D00008F07EF9451CA9B2761B022060546D1CF2
:1013E000761BB1B2AEB241F20C03DFF8E827A019C8
:1013F00008F06EF94519A9B2032060546D1C08F07D
:101400000AFA034642F21071491BA8B213A289B22C
:10141000204408F05DF955FA80F5AAB20421A154E0
:101420006D1CDFF8600BC046C046A8B2C046C0467F
:10143000DFF8540BC046C046A9B22046C046C0469D
:10144000DFF8480BC046C046A9B220460AF0C4FAED
:1014500000F05CFD002006B070BD000025640000B7
:1014600090E8010070B5DFF8884600202070012167
:10147000217086B009F05AFD1122ADF800206B46AC
:1014800001AA06F033F842F20F76FF23DFF8402777
:101490003146601C08F01CF9451CA9B2761B0220DD
:1014A00060546D1C761BB1B2AEB241F20D03DFF891
:1014B0002427A01908F00CF94519A9B2032060549B
:1014C00008F09CFA42F21072A6182821304608F063
:1014D00099FA314620460AF0CFFA304608F01AF958
:1014E00055FA80F50FF22000C046C0463046C0468F
:1014F000C0466D1CA9B20420605491E7B4F201000B
:1015000068F301000CF701000D0A54696D652D2D7B
:101510003E0000002DE9F84FDFF8D4450020207090
:101520000121217094B009F001FD1122ADF80020D5
:101530006B4601AA05F0DAFF42F20F76FF23DFF8CF
:1015400090263146601C08F0C3F8451CA9B2761BF2
:10155000022060546D1C761BB1B2AEB241F20E0394
:10156000DFF87026A01908F0B3F84519AAB20321D4
:10157000A1546D1C42F210735B1BADF8283000279C
:1015800008F00AFF0B9007F0DEFC10B1012804D030
:1015900006E0DFF8FC0A067803E00127012600E0F8
:1015A000012706F0CFF8804607F0FEFEDFF8E89A44
:1015B0004068D9F80010B1FBF0F0C9F8040007F05A
:1015C000FDFEB0E80C5C0CA9A1E80C5C0CC80CC1D9
:1015D000DFF8C8AA9AF8000030B9A8A001788AF804
:1015E000001041788AF80110DFF8B41A08680B2857
:1015F00015DA0AF09DFA83460AF09AFADFF8A01A83
:10160000139A0968DFF8543CCDF820A0521A0992C9
:101610001A68079208EB810353F8042C2FE0A0F11D
:101620000B010A2914D20AF083FA83460AF080FAE1
:10163000DFF86C1A139A0968DFF8203CCDF820A077
:10164000521A09921A68079208EB81035A6A16E047
:10165000153805282ED20AF06BFA83460AF068FA8C
:10166000DFF83C1A139A0968DFF8F03BCDF820A0A8
:10167000521A09921A68079208EB8103DA6CDFF8B4
:10168000E03B0591F6B2049606921E68D9F8041064
:10169000039601FB0BF102910190AEB20B98BDF8DD
:1016A0002810DFF8C02B00903B46A01908F010F876
:1016B00055FA80F5A9B2042060546D1CDFF8C40807
:1016C000C046C046A8B2C046C046DFF8BC08C04607
:1016D000C046A9B22046C046C046DFF8B008C046A2
:1016E000C046A9B220460AF077F900F00FFC0020AE
:1016F00015B0BDE8F08F0000B4E8010080BC92C7CF
:101700000CF101002DE9F84FDFF8E44300202070D0
:101710000121217098B009F009FC1122ADF80020D8
:101720006B4601AA05F0E2FE42F20F77FF23DFF8D5
:10173000A0243946601C07F0CBFF461CB1B2BF1B8A
:1017400002206054761CBF1BB9B2B7B241F20F033E
:10175000DFF88024E01907F0BBFF8619B1B203203F
:101760006054761C08F050FE8046022115A898EDC2
:10177000020A05F093FD022112A898ED030A05F074
:101780008DFD08F009FE804642F2107707F0DBFB82
:10179000BF1B18B1012808BF012502E0DFF8F008DF
:1017A000057807F00BFEB0E80C5E0AA9A1E80C5E14
:1017B0000268DFF8E498DFF8E8A80A6007F0F4FDB3
:1017C000D9F800104068B1FBF0F0C9F80400DAF86D
:1017D00000000B2806DBA0F10B010A2924BF1538F5
:1017E000052829D208F0CAFB089009F16000DFF84B
:1017F000702ADFF8741B136809680790099309F1D0
:101800003800069009F13002059209F108030AA890
:101810000493434650F825200291521ADAF800103A
:1018200003920191B0B20095B9B2DFF8402B204489
:1018300007F04EFF56FA80F6B2B20421A154761C8E
:10184000DFF84007C046C046B0B2C046C046DFF829
:101850003807C046C046B1B22046C046C046DFF891
:101860002C07C046C046B1B220460AF0B5F800F0D9
:101870004DFB002019B0BDE8F08F000030000000E3
:1018800070B59B4C002020700121217086B009F0BA
:101890004DFB1122ADF800206B4601AA05F026FE93
:1018A00042F20F76FF23CA4A3146601C07F010FF50
:1018B000451CA9B2761B022060546D1C761BB1B288
:1018C000AEB241F21403C34AA01907F001FF451953
:1018D000A9B2032060546D1C08F07CFD0FF22002B9
:1018E0000168009142F210714368491BA8B289B2A5
:1018F000204407F0EDFE8EE5801319BC00E90100DD
:1019000025642C256400000070B5794C00202070FF
:101910000121217086B009F009FB1122ADF80020E9
:101920006B4601AA05F0E2FD42F20F76FF23A84ABA
:101930003146601C07F0CCFE451CA9B2761B022084
:1019400060546D1C761BB1B2AEB241F21503A14AD0
:10195000A01907F0BDFE4519A9B2032060546D1C03
:1019600008F02DF942F2107103784DE570E901009D
:1019700070B55F4C002020700121217086B009F005
:10198000D5FA1122ADF800206B4601AA05F0AEFD94
:1019900042F20F76FF238E4A3146601C07F098FE14
:1019A000451CA9B2761B022060546D1C761BB1B297
:1019B000AEB241F22203DFF8202DA01907F088FE15
:1019C0004519A9B2032060546D1C05F0BDFE0188C5
:1019D00002914288019281880FF21802009142F22E
:1019E0001071C388491BA8B289B2204407F070FE69
:1019F00011E50000255825582558255800000000FD
:101A000010B56221DFF8D40C0AF0E8FF002400B121
:101A10000524204610BD0000E46C0000E0E9010050
:101A200070B5334C00202070012121708CB009F07A
:101A30007DFA1122ADF800206B4601AA05F056FD93
:101A400042F20F76FF23624A3146601C07F040FEE7
:101A5000451CA9B2761B022060546D1C761BB1B2E6
:101A6000AEB241F21A035B4AA01907F031FE4519E4
:101A7000A9B2032060546D1C04A809F08FFB0DF17E
:101A80002A0003900DF1270102910DF12100019030
:101A900004AA009242F21071491BA8B209AB0FF2DE
:101AA000540289B2204407F013FE55FA80F5AAB219
:101AB0000421A1546D1CDFF8CC04C046C046A8B276
:101AC000C046C046DFF8C004C046C046A9B22046A2
:101AD000C046C046DFF8B404C046C046A9B220469E
:101AE00009F07AFF00F012FA04F047BE9C71000082
:101AF000284E002025732C25732C25732C25732C40
:101B00002573000070B5DFF8DC4B00202070012148
:101B100021708AB009F00AFA1122ADF800206B4654
:101B200001AA05F0E3FC42F20F76FF23284A314672
:101B3000601C07F0CDFD451CA9B2761B0220605445
:101B40006D1C761BB1B2AEB241F21B03214AA01943
:101B500007F0BEFD4519A9B2032060546D1C03A80F
:101B600009F094FB0DF1250002900DF12201019185
:101B70000DF11D00009042F21071491BAEB203AB93
:101B80000FF2540289B2A01907F0A2FD55FA80F5B0
:101B9000A9B2042060546D1CDFF8E803C046C046BB
:101BA000A8B2C046C046DFF8E003C046C046A9B2AE
:101BB0002046C046C046DFF8D403C046C046A9B29E
:101BC000204609F009FF00F0A1F900200AB070BD1D
:101BD000284A0000304A000025732C25732C2573F9
:101BE0002C2573002DE9F04FDFF8F85A00202870FB
:101BF000A5B009F012FE012122A805F04FFB09F063
:101C000037FE01211FA805F049FB09F01EFE012146
:101C10001CA805F043FB09F07BFE012116A805F086
:101C20003DFB11A809F04EFE9DF848009DED110AFC
:101C300008B9B1EE400A012119A805F02FFB0120D7
:101C4000287042F20F7609F071F91122ADF80020E8
:101C50006B4601AA05F04AFCFF23DFF88C2A3146C7
:101C6000681C07F035FD441CA1B2361B02206854E5
:101C7000641C361BB1B2A6B241F21C03DFF8582A2D
:101C8000A81907F025FD0419A1B203206854641CAB
:101C900009F090FD022113A805F000FB07F0EDFA12
:101CA000804642F2107607F04EF9361B002700B14D
:101CB00001270BF04CFC814608F060F9824607F0E2
:101CC000DFFA834609F028FFDFF8201ADFF8203A10
:101CD0000A7810921968DFF81C3A0F91DFF8181A89
:101CE0000A680E921968DFF8143A0D910B93DFF829
:101CF000101ADFF8103A0A68DFF80C1A0C920A91F1
:101D000008933B46DFF8041A0A68DFF8041A0992C0
:101D100007910190DFF8FC19DFF8EC2B0691059292
:101D2000A0B2CDF81090CDF80CA0CDF808B0CDF849
:101D30000080B1B2DFF8D42B284407F0C9FC54FA74
:101D400080F4A2B20421A954641C8E48C046C04647
:101D5000A0B2C046C0468C48C046C046A1B2284684
:101D6000C046C0468948C046C0460BF035FD012834
:101D700003D1A2B22946022004E00BF02DFD18B9D0
:101D8000A2B2294609F04AFE00F0C0F8002001F096
:101D9000ADBD70B5DFF84C490021217090B0002036
:101DA0000BF030FD022108A805F078FA01200BF0B5
:101DB00029FD022105A805F071FA09F0A9FD02210B
:101DC00002A805F06BFA0120207042F20F7609F0AC
:101DD000ADF81122ADF800206B460BAA05F086FB8A
:101DE000FF23DFF804293146601C07F071FC451C15
:101DF000A9B2761B022060546D1C761BB1B2AEB244
:101E000041F21D03DFF8D028A01907F061FC451945
:101E1000A9B20320605402AA05AB6D1C0192009385
:101E200042F21071491BA8B208AB0FF2480289B206
:101E3000204407F04DFC55FA80F5AAB20421A154C4
:101E40006D1C5048C046C046A8B2C046C0464E4869
:101E5000C046C046A9B22046C046C0464B48C04610
:101E6000C046A9B2204609F0B7FD00F04FF80020A7
:101E700010B070BD25732C25732C25730000000055
:101E8000F8B50546DFF88C4A00202070012121704A
:101E900086B009F04BF81122ADF800206B4601AA7C
:101EA00005F024FBFF23DFF84028C721601C07F062
:101EB0000FFC461CB2B2C6F1C7010220A054761C2A
:101EC000891BB7B241F21113DFF80C2889B2E0196F
:101ED00007F0FEFB8619B1B203206054761CB6B23F
:101EE000C6F1C8012B466BA289B2A01907F0F0FB1E
:101EF00056FA80F080B204212154401C80B20022A6
:101F00002254204607B0F0BDD81B000042F21071E9
:101F1000DFF8D0070BF0CCBCF8B5044686B00D4610
:101F200001202070164629884A1E2A80112708F0B1
:101F3000FDFFADF800706B4601AA05F0D7FA2988BD
:101F4000DFF8A427FF23601C07F0C2FB471C28888A
:101F5000C01BBAB228800221A1547F1C2988DFF857
:101F60007827C91B2980B8B2334689B2204407F0CC
:101F7000AFFBC719BAB20321A1547F1C2F800120E7
:101F800007B0F0BDBC710000CC710000D87100003A
:101F90002DE9F84386B004468946C046C04606236C
:101FA0002C226946204605F0D7F907460FF2F400C7
:101FB000C046C0460026012F0CDB6C46B846A6A5DD
:101FC00054F8040BC046C0462846C046C046B8F187
:101FD0000108F5D1062F52D10098DFF8F42A09F153
:101FE000040104F091F8471E0198DFF8E82A09F18E
:101FF0000801BF4104F088F8FF4300EAD777029850
:102000007C1EDFF8D47A3A4609F10C01A44104F0B1
:102010007BF8E44300EAD4740298651E3A4609F15D
:102020001001AD4104F070F8ED4300EAD575039856
:102030006C1E3A4609F11401A44104F065F8E4432A
:1020400000EAD4740398651E3A4609F11801AD41BF
:1020500004F05AF8ED4300EAD5750498DFF8582CDF
:102060006F1E4946BF4104F04FF8FF4310EAD77F87
:102070000AD10FF24C00C046C046042604E00FF21D
:102080006000C046C04603263046E1E00C4F000029
:102090009ABA002025580000AC09FF1FD80BFF1F7B
:1020A000AC0AFF1F0A50574D2053657420526563D8
:1020B00065697665642056616C756573203A000029
:1020C0000A2050776D2053657456616C75652F73C7
:1020D000204F7574206F662052616E6765000000A6
:1020E0000A2050776D2053657456616C75652F73A7
:1020F00020496E76616C6964000000002DE9F043B0
:10210000044687B00FF26010DFF8B49BC046C046AB
:102110002046C046C04607232C226946204605F0CB
:102120001BF907464846C046C0460025012F0CDB78
:102130006C46B84648A654F8040BC046C046304624
:10214000C046C046B8F10108F5D1072F7AD108F092
:10215000C1FE07460098102105F075FA441E01984B
:10216000A441402105F06FFAE44300EAD4740298D8
:10217000661EB641022105F066FAF643039A00EAAC
:10218000D676711E89411078C943002818BF3028BF
:1021900006D0312806D15078401E8041C00F02E0A1
:1021A000012000E00020049A00EAD1711078002894
:1021B00018BF302806D0312806D15078401E804103
:1021C000C00F02E0012000E00020059A01401078D5
:1021D000002818BF302806D0312806D15078401E7C
:1021E0008041C00F02E0012000E00020014223D026
:1021F000009A1121384607F06BFA019A412107F144
:10220000110007F065FA029A032107F1520007F066
:102210005FFA03990A7807F155000270049B197858
:102220004170059A11788170012008F0B0FF0FF21B
:102230005800C046C0460AE009F12C00C046C0461E
:10224000042504E009F15400C046C0460325284691
:1022500007B0BDE8F08300002C000000B40AFF1FA7
:10226000F0B9002030F701000D0A496E2050726F5E
:10227000636573735365745A6967626565436F6E0E
:102280006669672D3E0000000A5A6967626565202D
:10229000436F6E6669672020536574002DE9FE4325
:1022A00004460FF29000DFF8209AC046C046204650
:1022B000C046C04602232C226946204605F04CF851
:1022C00007464846C046C0460025012F0BDBE846BE
:1022D0003C4655A658F8040BC046C0463046C0469A
:1022E000C046641EF6D1022F1CD10098017861B15E
:1022F00030290DD0312904BF4078002808D009F1D9
:1023000030000BF0D8FA042511E04FF0FF3002E066
:10231000A1F1300040B208F03DFF0FF23400C0469A
:10232000C04604E009F15C00C046C0460325FEF744
:102330000ABD00000D0A496E2050726F6365737309
:1023400052657365745A69676265654E572D3E0024
:102350000A5A696762656520204E77205265736569
:102360007420205365740000B80AFF1F54F7010061
:102370002DE9F0410446DB4E8846002030700121F3
:10238000317086B008F0D2FD1127ADF800706B46B1
:1023900001AA05F0ABF842F20F75FF23D24A294695
:1023A000701C07F095F9471CB9B2ED1B0220705460
:1023B0007F1CED1BA9B2BDB242F20103C64A7019DF
:1023C00007F086F9C719B9B203207F1C7054BFB259
:1023D00042F21071C91BCDF8008023460FF24C0267
:1023E00089B2F01907F074F957FA80F4A4B2042006
:1023F0003055641CDFF8C00AC046C046A4B220466F
:10240000C046C046DFF8880BC046C046214630466D
:10241000C046C046DFF87C0BC046C046FFF776FDDD
:10242000002006B0BDE8F0812C00000025642C25BA
:1024300030303058000000002DE9F847ADF5006D50
:10244000B9B00546C046C04603232C2203A928463E
:1024500004F082FF0646DFF8440BC046C046002465
:10246000002E0CDD0DF10C0835469DA758F8040B25
:10247000C046C0463846C046C0466D1EF6D1032E43
:102480003ED10399087800281FBF03AE7168087811
:10249000002835D003980A22002105F0ABF8054644
:1024A00070680A22002105F0A5F80646AE4221D345
:1024B00040F2012086421DD2E5B100962B46DFF89E
:1024C000E02A322106A807F003F906A8C046C04654
:1024D000B3B2AAB2322106A80BF0F1F906460FF208
:1024E00038200FF24C28C046C04600254FF0250A80
:1024F00006AF38E0DFF8AC0AC046C0460424E3E08B
:10250000DFF8A40AC046C0460324DDE041798279A1
:1025100042EA012201920DF5D47C007900900AFB79
:1025200005FE424624210CEB0E0018E006A800EB45
:10253000C50043780178C2781B0443EA01638178BF
:1025400043EA01231343002DE0D17879B97941EAB8
:102550000021019142463879009025216AA807F0B0
:10256000B7F86D1CEDB2B54201D2322DDEDB354637
:102570005C4E42F210783470ADF8088009F06FFAC2
:10258000022841F21F070FF2581957D108F0CEFC6C
:10259000CDE900013A4602A930460BF095FABDF8A4
:1025A0000870A8EB0700ADF80800F4553046C046A7
:1025B000C0467A1E92B23146022009F02FFA0FF27D
:1025C0007C173846C046C0460C223946022009F026
:1025D00025FAA0461EE06AA80AFB08F1471838460B
:1025E000C046C046384607F095F882B23946022008
:1025F00009F014FAA5EB0800022807D30122494686
:10260000022009F00BFA4846C046C04608F1010016
:102610001FFA80F8A845DED3FFF778FC5D20307004
:1026200022217D227170B270F4703046C046C046DF
:1026300003223146022009F0F1F945E03A4602A9A9
:102640003046FFF769FCBDF80870A8EB0700ADF84D
:1026500008003A463146002009F0E0F9F4553046CA
:10266000C046C046A0461EE06AA80AFB08F147180B
:102670003846C046C046384607F04CF882B2394664
:10268000002009F0CBF9A5EB0800022807D30122AE
:102690004946002009F0C2F94846C046C04608F144
:1026A00001001FFA80F8A845DED3FFF72FFC5D205C
:1026B000042130707170B47002223146002009F09C
:1026C000ADF93046C046C046FFF720FC0DF5006D61
:1026D00020463AB0BDE8F087304A00000000FF1FF6
:1026E0002C000000284E0020284A0000EC08FF1FA4
:1026F0001809FF1F0C09FF1F1009FF1FA009FF1F6A
:102700000809FF1F8809FF1F9409FF1F1409FF1FF5
:102710007C09FF1F7009FF1F0D0A496E20415049B7
:102720002050726F63657373696E672D3E00000001
:102730005B256C642C25642C25645D002C2256419D
:102740004C554553223A225B000000002DE9F04F22
:102750000546D9B0DFF85408C046C0462846C046F2
:10276000C04617232C2210A9284604F0F5FD064682
:10277000DFF83C08C046C0460024012E0CDB0DF1FA
:102780004008354662A758F8040BC046C046384694
:10279000C046C0466D1EF6D1172E00F3AF801099CB
:1027A000087800281FBF10AD69680878002800F07D
:1027B000A58010980A22002104F01CFF8346686857
:1027C0000A22002104F016FF05465D45C0F0908006
:1027D000152D80F08D80BBF1000F00F089800095F1
:1027E0005B46DFF8BC27322103A806F071FF03A87F
:1027F000C046C046A5EB0B056D1C0095F61EDFF824
:10280000F00BC046C0460098C046C046DFF8E40B57
:10281000C046C0463046C046C0460098B04271D15E
:1028200004F08EFF054627A82946C8220BF0C0F900
:10283000ABF10108474627A810AA00EB870102EB7D
:102840008700012601F1140A00F10809CDF804B04F
:102850000AE00120064002D027A90120C8557F1CAC
:1028600009F104090AF1040A009801990818401EA8
:10287000029002998F4211D2D9F8003018780028BE
:10288000E7D00A220021184604F0B4FE8346012056
:10289000C0460028DED0CAF800B0DAE7DDF80090C4
:1028A0000F2F27AA05DA4AF8044BD4557F1C0F2FA7
:1028B000F9DBDFF8440BB6B1C046C046284627A96D
:1028C000C8220BF075F9019805EB8801484401F125
:1028D0001405461EB04516D255F8040BC046C04636
:1028E00008F10108F6E72430C046C04604240AE097
:1028F000DFF8080BC046C046042404E0DFF8000BF4
:10290000C046C0460324D2E16409FF1FA0F30100C2
:102910002C000000A0B200202DE9F04F044691B039
:10292000DFF8E00AC046C0462046C046C046032342
:102930002C2201A9204604F00FFD0546DFF85C06B5
:10294000C046C046012D4FF000080BDB01AF2C46FE
:102950005EA657F8040BC046C0463046C046C04687
:10296000641EF6D1032D73D10199087800281FBF8A
:1029700001AC6168087800286AD001980A22002119
:1029800004F038FE054660680A22002104F032FE99
:102990000446AC4255D3152C53D2002D51D0601BA8
:1029A00015284ED200942B46DFF8F425322104A8D6
:1029B00006F08EFE04A8C046C046DFF8007587F812
:1029C00000800121397042F20F7908F0AFFA11222C
:1029D000ADF800206B4604AA04F088FDFF23DFF861
:1029E000282A4946781C06F073FE461CB1B2022024
:1029F0007854A9EB0609761CA9EB060081B21FFAF0
:102A000086FC41F23703DFF8042A07EB0C0006F0DE
:102A10005FFE8619B1B203207854761C42F2107022
:102A2000A0EB060904F08CFE0146284601EB80016C
:102A3000354601F1100B1FFA89F90FF2802A06467C
:102A400018E0DFF8CC09C046C0464FF004083CE06F
:102A5000DFF8C009C046C0464FF0030835E05BF818
:102A6000043BA8B252464946384406F031FE55FAB6
:102A700080F5761CB442F2D26C1EA1B204207854C8
:102A8000641CDFF83404C046C046A0B2C046C0464D
:102A9000DFF8FC04C046C046A1B23846C046C04676
:102AA000DFF8F004C046C0460AF096FE012803D1C4
:102AB000A2B23946022004E00AF08EFE18B9A2B292
:102AC000394608F0ABFFFFF721FAF0E12C000000D7
:102AD0000F760000137600000B7600002DE9F04F12
:102AE0000546D9B00FF2E410C046C0462846C0469D
:102AF000C04617232C2210A9284604F02DFC0646B8
:102B00000FF2E410C046C0460024012E0CDB10AFCB
:102B100035460FF2B01857F8040BC046C046404681
:102B2000C046C0466D1EF6D1172E00F3BB8010992B
:102B3000087800281FBF10AD69680878002800F0E9
:102B4000B18010980A22002104F054FD8346686881
:102B50000A22002104F04EFD05465D45C0F09C8030
:102B6000152D80F09980BBF1000F00F09580009545
:102B70005B46DFF82C24322103A806F0A9FD03A848
:102B8000C046C046A5EB0B056D1C0095F61EDFF890
:102B90006008C046C0460098C046C046DFF85408EA
:102BA000C046C0463046C046C0460098B0427DD1BF
:102BB00004F0C6FD054627A82946C8220AF0F8FFFA
:102BC000ABF1010627A8304400F1640727A910A83B
:102BD00001EB860200EB86014FF0010A02F1780852
:102BE00001F10809CDF804B00BE0012010EA0A0A4F
:102BF0001CBF01203870761C09F1040908F1040893
:102C00007F1C009801990818401E029002998E427C
:102C100011D2D9F8003018780028E6D00A22002115
:102C2000184604F0E7FC83460120C0460028DDD0AA
:102C3000C8F800B0D9E7009F0F2E0BDA27A800EBE9
:102C4000860101F1140027AB40F8044B9C55761C1B
:102C50000F2EF9DBBAF1000FDFF89C0717D0C04642
:102C6000C046284627A9C8220AF0A2FF019E019863
:102C7000761E05EB8601C71901F178057F1EBE425D
:102C800015D255F8040BC046C046761CF7E7243031
:102C9000C046C04604240AE0DFF86007C046C046CC
:102CA000042404E0DFF85807C046C0460324204649
:102CB00059B0BDE8F08F00001776000025642C00A5
:102CC0009CE701002C00000004E601000D0A496E9B
:102CD0002050726F63657373536574547261636BD4
:102CE000496E666F2D3E00000A547261636B204985
:102CF0006E666F2052656365697665642056616C07
:102D0000756573203A0000002DE9F04F044691B03C
:102D10000FF2AC10C046C0462046C046C046032352
:102D20002C2201A9204604F017FB05469B48C0460B
:102D3000C046012D4FF000080BDB01AF2C4693A6D7
:102D400057F8040BC046C0463046C046C046641E15
:102D5000F6D1032D71D10199087800281FBF01AC6D
:102D600061680878002868D001980A22002104F0E0
:102D700041FC054660680A22002104F03BFC044641
:102D8000AC4253D3152C51D2002D4FD0601B1528C7
:102D90004CD200942B46824A322104A806F098FCBB
:102DA00004A8C046C046454F87F80080012139700D
:102DB00042F20F7908F0BAF81122ADF800206B4604
:102DC00004AA04F093FBFF23DFF83C264946781C55
:102DD00006F07EFC461CB1B202207854A9EB06092D
:102DE000761CA9EB060081B21FFA86FC41F238037B
:102DF000DFF8182607EB0C0006F06AFC8619B1B262
:102E000003207854761C42F21070A0EB060904F0FF
:102E100097FC0146284601EB8001354601F1740B11
:102E20001FFA89F90FF2701A064618E0DFF8E0057C
:102E3000C046C0464FF0040839E0DFF8D805C04668
:102E4000C0464FF0030832E05BF8043BA8B252469C
:102E50004946384406F03CFC55FA80F5761CB442ED
:102E6000F2D26C1EA1B204207854641C1248C046F1
:102E7000C046A0B2C046C0464548C046C046A1B202
:102E80003846C046C0464348C046C0460AF0A4FC87
:102E9000012803D1A2B23946022004E00AF09CFCCA
:102EA00018B9A2B2394608F0B9FDFFF72FF840462D
:102EB00011B0BDE8F08F0000BC710000284E00206A
:102EC0000D0A496E2050726F6365737347657454C1
:102ED0007261636B496E666F2D3E00002DE9F84309
:102EE000044688B00FF2CC00C046C0462046C0461B
:102EF000C04604F029FC814602232C226946204664
:102F000004F02AFA07460FF2CC00C046C04600255E
:102F1000012F0BDBE8463C461CA658F8040BC046C4
:102F2000C0463046C046C046641EF6D1022F24D1AA
:102F3000009806F0EFFB00B3009806F0EBFB1128B9
:102F400005D3DFF8680BC046C04604251AE00FF22F
:102F5000A400C046C046009804F0A5FAC9E90001E3
:102F600002AB1420ADF8080003AAD9E9000104F06F
:102F7000BDFA03A8C046C04604E0DFF84C0DC046C9
:102F8000C0460325284609B0BDE8F0832C000000A8
:102F9000CC710000D871000025642C00D06B0000BB
:102FA000B45B000090EF0100B4EF0100CC2C0000F6
:102FB000E82C00000D0A496E2050726F6365737330
:102FC0002053657420436C65616E6572204D4143EA
:102FD0002D3E00000A436C65616E6572204D4143D1
:102FE0002052656365697665642056616C7565730A
:102FF000203A00000A20436C65616E6572204D41E5
:10300000432053657456616C75652F732073657426
:10301000203A20002DE9F04FADF5C06DA5B000219C
:1030200004468DF80410DFF8880AC046C0462046E2
:10303000C046C0462B232C2212A9204604F08CF94E
:103040000646DFF8704A2046C046C046012E0CDB1B
:1030500012ADB146A0A755F8040BC046C04638468D
:10306000C046C046B9F10109F5D12B2E00F3B68157
:103070001299087800281FBF12AF796808780028D5
:1030800000F0AC8112980A22002104F0B3FA8146C4
:1030900078680A22002104F0ADFA05464D45C0F0DB
:1030A0009781152D80F09481B9F1000F00F0908187
:1030B00000954B46DFF8182C322105A806F008FBD6
:1030C00005A8C046C046A5EB09056D1C0095361F36
:1030D000C748C046C0460098C046C046C548C0461E
:1030E000C0463046C046C04600984000B04240F05E
:1030F000798104F02BFB02903DA80299DFF8D48B74
:103100004FF4B4620AF054FDB868012506F00CFAD9
:103110000128C8F800006BD100994944491EA9F163
:10312000010A3DA80391761C032700EBCA040DF1A8
:103130005408049607E0012005400AF1010ABF1C6B
:1031400008F1080808340398824525D20499B94249
:1031500022D3D8F80030187848B10A220021184646
:1031600004F048FA06460120C04608B12660012056
:10317000D8F8043005401878261D0028DBD00A2234
:103180000021184604F036FA83460120C046002884
:10319000D2D0C6F800B0CEE7002D00F02681DFF8CF
:1031A000380BC046C04602983DA94FF4B4620AF0FD
:1031B000FFFC00990298A9F1010A894400EBCA07B3
:1031C000A9F101040FF2242843A5A24580F00D8146
:1031D0003868C046C0462846C046C0467868C046E3
:1031E000C0464046C046C0460AF1010A0837ECE72F
:1031F000022873D1761C0496A9F1010A3DA800EBC0
:10320000CA01009E032701F1480815AC09E001201E
:103210009DF8005005400AF1010ABF1C083408F16E
:10322000080809EB0600401E03900398824527D248
:103230000499B94224D32368187850B10A22002196
:10324000184604F0D7F983460120C04610B1C8F8EB
:1032500000B0012005408DF8005008F104056368B6
:1032600018780028D3D00A220021184604F0C2F9A9
:1032700083460120C0460028CAD0C5F800B0C6E782
:10328000002D00F0B280DFF8500AC046C046029818
:103290003DA94FF4B4620AF08BFC0298A9F1010A2F
:1032A00000EBCA014E4401F14807761E4FA50FF20C
:1032B0002809B24580F099803868C046C046484623
:1032C000C046C0467868C046C0462846C046C0468C
:1032D0000AF1010A0837ECE72C00000003286FD13F
:1032E000761C0496A9F1010A3DA800EBCA01009ED4
:1032F000032701F1900815AC09E001209DF800506A
:1033000005400AF1010ABF1C083408F1080809EB5E
:103310000600401E03900398824527D20499B942C3
:1033200024D32368187850B10A220021184604F0EB
:1033300061F983460120C04610B1C8F800B00120F1
:1033400005408DF8005008F10405636818780028DE
:10335000D3D00A220021184604F04CF983460120FC
:10336000C0460028CAD0C5F800B0C6E7002D3CD042
:10337000DFF86409C046C04602983DA94FF4B46224
:103380000AF016FC0298A9F1010A00EBCA014E44AA
:1033900001F19007761E15A50FF23839B24524D2F7
:1033A0003868C046C0464846C046C0467868C046F1
:1033B000C0462846C046C0460AF1010A0837EDE774
:1033C00004208DF8040004F12400C046C0460CE03F
:1033D00004F14C00C046C046042004E004F1700033
:1033E000C046C04603208DF804007BE22020000088
:1033F000D8590000F4590000B0E3010000E40100D6
:1034000024E40100C02E0000284A0000304A0000D9
:10341000F0EB01001CEC01002DE9F84F044692B0DE
:10342000DFF85C0AC046C0462046C046C0460423BA
:103430002C2201A9204603F08FFF0546DFF8440A3D
:10344000C046C046002D4FF000080BDD01AF2C46F2
:10345000A0A657F8040BC046C0463046C046C0463A
:10346000641EF6D1042D40F095800199087800285B
:103470001FBF01AD69680878002800F08B800198B3
:103480000A22002104F0B6F8044668680A220021E6
:1034900004F0B0F80546A54217D3292D15D2A4B1E2
:1034A000281B292811D200952346DFF82428322131
:1034B00005A806F00DF905A8C046C046039806F019
:1034C00033F8DFF8D41B086005E0DFF8D00BC04606
:1034D000C0464FF004086D1EB8F1000FA4F1010AB8
:1034E00040F0F480DFF8B87B87F800800121397064
:1034F000112407F01BFDADF800406B4605AA03F050
:10350000F5FF42F20F76FF23DFF8982B3146781C47
:1035100006F0DEF8441CA1B2361B02207854641C6D
:10352000361BB1B2A6B241F24103DFF87C2BB819C9
:1035300006F0CEF80419A1B203207854641C04F0FC
:1035400005F9DFF8541B096842F21076361B012991
:1035500027D100EBCA0BB6B2DFF8509B5545C0F03F
:103560008A805BF8043BA0B24A463146384406F0F4
:10357000AFF854FA80F45BF8043B1FFA84FC4A4627
:10358000314607EB0C0006F0A3F854FA80F40AF178
:10359000010AE3E7DFF8180BC046C0464FF0030806
:1035A00094E0022921D100EBCA0000F1480BB6B229
:1035B000DFF8F89A55455ED35BF8043BA0B24A4663
:1035C0003146384406F084F854FA80F45BF8043B42
:1035D0001FFA84FC4A46314607EB0C0006F078F8E7
:1035E00054FA80F40AF1010AE4E7032921D100EB3F
:1035F000CA0000F1900BB6B2DFF8B09A55453AD345
:103600005BF8043BA0B24A463146384406F060F805
:1036100054FA80F45BF8043B1FFA84FC4A463146B6
:1036200007EB0C0006F054F854FA80F40AF1010A92
:10363000E4E704291FD100EBCA0BB6B2DFF86C9A9D
:1036400017E05BF8043BA0B24A463146384406F026
:103650003FF854FA80F45BF8043B1FFA84FC4A46B6
:10366000314607EB0C0006F033F854FA80F40AF107
:10367000010A5545E5D2641EA1B204207854641CA9
:10368000DFF8300AC046C046A0B2C046C046DFF8E8
:10369000280AC046C046A1B23846C046C046DFF838
:1036A0001804C046C0460AF097F8012803D1A2B218
:1036B0003946022004E00AF08FF818B9A2B2394660
:1036C00008F0ACF9FEF722FCFEF720FC404613B0F0
:1036D000BDE8F08F2C0000002DE9F04FADF5C06D76
:1036E000A5B0002104468DF80410DFF8C403C046DD
:1036F000C0462046C046C0462B232C220DF5BD6196
:10370000204603F029FE0546DFF8A803C046C04660
:10371000012D0CDB0DF5BD6A2C4676A75AF8040B7B
:10372000C046C0463846C046C046641EF6D12B2D62
:1037300000F3D180DDF8E815087800281FBF0DF5EB
:10374000BD6461680878002800F0C580DDF8E805F0
:103750000A22002103F04EFF834660680A220021FE
:1037600003F048FF04465C45C0F0AF80152C80F0A4
:10377000AC80BBF1000F00F0A88000945B46DFF83E
:103780005025322105A805F0A3FF05A8C046C04674
:10379000A4EB0B04641C0294ED1EDFF8D80AC046AB
:1037A000C0460298C046C046DFF8CC0AC046C046B4
:1037B0002846C046C04602984000A84240F08F808C
:1037C00003F0C4FF049012A804994FF4B4620AF005
:1037D000EFF9ABF10104A24612A800EBCA010126E1
:1037E000022701F5F0780DF5BE69CDF80CB00AE0BE
:1037F00001209DF8006006400AF1010ABF1C09F192
:10380000080908F10808029803990818401E00905A
:1038100000998A4528D2BD4226D3D9F800301878BD
:1038200050B10A220021184603F0E4FE834601202D
:10383000C04610B1C8F800B0012006408DF8006005
:1038400008F10406D9F8043018780028D0D00A22EC
:103850000021184603F0CEFE83460120C046002812
:10386000C7D0C6F800B0C3E7029D36B3DFF86804DE
:10387000C046C046049812A94FF4B4620AF098F901
:10388000049800EBC4010398451901F5F0776D1E0B
:103890000FF210280FF25C0AAC4223D23868C046FF
:1038A000C0465046C046C0467868C046C0464046FE
:1038B000C046C046641C0837EEE704208DF80400BB
:1038C000DFF8C80BC046C0460CE0DFF8C40BC046AA
:1038D000C046042004E0DFF8BC0BC046C04603200D
:1038E0008DF804009DF804000DF5C06D25B0BDE80D
:1038F000F08F00002C0000002DE9F04F044691B03D
:10390000DFF87C05C046C0462046C046C0460323BB
:103910002C2201A9204603F01FFD0546DFF86405AF
:10392000C046C046012D4FF000080BDB01AE2C460F
:103930005DA756F8040BC046C0463846C046C04690
:10394000641EF6D1032D6DD10199087800281FBFA0
:1039500001AD69680878002864D001980A22002126
:1039600003F048FE044668680A22002103F042FE84
:103970000546A5424FD3152D4DD2002C4BD0281B08
:10398000152848D200952346D14A322104A805F0D3
:103990009FFE04A8C046C046DFF80477DFF80CA7F6
:1039A00087F8008001213970A5F1010B07F0BEFAFC
:1039B0001125ADF800506B4604AA03F097FD42F2C2
:1039C0000F75FF23DFF8DC262946781C05F080FE02
:1039D000461CB1B2AD1B02207854761CAD1BA9B2B7
:1039E000B5B241F24203DFF8C026781905F070FE47
:1039F0008619B1B203207854761C42F21070A0EB05
:103A0000060903F0A3FE641E00EBC40000F5F07588
:103A10001FFA89F924E0DFF88406C046C0464FF05B
:103A200004083CE0DFF88806C046C0464FF00308B3
:103A300035E055F8043BB0B252464946381805F017
:103A400047FE56FA80F655F8043B1FFA86FC5246AC
:103A5000494607EB0C0005F03BFE56FA80F6641C65
:103A6000A345E6D2741EA1B204207854641CDFF88A
:103A70004406C046C046A0B2C046C046DFF838067D
:103A8000C046C046A1B23846C046C0460A48C046F5
:103A9000C046A1B2384607F09FFFFEF737FAFFF79E
:103AA00006BA0000202000002C000000DCEF01001E
:103AB000644C0000E0E40100D87100002DE9F04FF3
:103AC000ADF5C06DA5B0002104468DF80410DFF8F7
:103AD0007C0BC046C0462046C046C0462B232C2245
:103AE0000DF5BD61204603F037FC0546DFF8600B9D
:103AF000C046C046012D0CDB0DF5BD6A2C4673A7F0
:103B00005AF8040BC046C0463846C046C046641E3C
:103B1000F6D12B2D00F3CF80DDF8E81508780028CA
:103B20001FBF0DF5BD6461680878002800F0C380F0
:103B3000DDF8E8050A22002103F05CFD8346606899
:103B40000A22002103F056FD04465C45C0F0AD801A
:103B5000152C80F0AA80BBF1000F00F0A680009425
:103B60005B465B4A322105A805F0B2FD05A8C046B8
:103B7000C046A4EB0B04641C0294ED1EDFF8F406AF
:103B8000C046C0460298C046C046DFF8EC06C046B4
:103B9000C0462846C046C04602984000A84240F0B1
:103BA0008E8003F0D3FD049012A804994FF4B46200
:103BB00009F0FEFFABF10104A24612A800EBCA0116
:103BC0000126022701F520780DF5BE69CDF80CB06D
:103BD0000AE001209DF8006006400AF1010ABF1CBE
:103BE00009F1080908F10808029803990818401E0D
:103BF000009000998A4528D2BD4226D3D9F80030DA
:103C0000187850B10A220021184603F0F3FC8346CD
:103C10000120C04610B1C8F800B0012006408DF860
:103C2000006008F10406D9F8043018780028D0D0D4
:103C30000A220021184603F0DDFC83460120C0461D
:103C40000028C7D0C6F800B0C3E7029D2EB32248B3
:103C5000C046C046049812A94FF4B46209F0A8FF08
:103C6000049800EBC4010398451901F520776D1EF7
:103C70000FF204280FF2540AAC4223D23868C0462F
:103C8000C0465046C046C0467868C046C04640461A
:103C9000C046C046641C0837EEE704208DF80400D7
:103CA000DFF8E807C046C0460CE0DFF8E407C0468E
:103CB000C046042004E0DFF8DC07C046C04603200D
:103CC0008DF804000EE6000004F001002C00000056
:103CD000B45B000028BB0020844C00002DE9F04FAD
:103CE000044691B06648C046C0462046C046C0461D
:103CF00003232C2201A9204603F02EFB0546614830
:103D0000C046C046012D4FF000080BDB01AE2C462B
:103D10005AA756F8040BC046C0463846C046C046AF
:103D2000641EF6D1032D6AD10199087800281FBFBF
:103D300001AD69680878002861D001980A22002145
:103D400003F058FC044668680A22002103F052FC84
:103D50000546A5424DD3152D4BD2002C49D0281B2A
:103D6000152846D200952346DFF8FC2A322104A804
:103D700005F0AEFC04A8C046C046C94FDFF82CA32E
:103D800087F8008001213970A5F1010B07F0CEF80A
:103D90001125ADF800506B4604AA03F0A7FB42F2D0
:103DA0000F75FF23BF4A2946781C05F091FC461C7D
:103DB000B1B2AD1B02207854761CAD1BA9B2B5B2CE
:103DC00041F24303B84A781905F082FC8619B1B272
:103DD00003207854761C42F21070A0EB060903F021
:103DE000B5FC641E00EBC40000F520751FFA89F9CC
:103DF00022E0AA48C046C0464FF004083AE0AC486A
:103E0000C046C0464FF0030834E055F8043BB0B25A
:103E100052464946381805F05BFC56FA80F655F8CC
:103E2000043B1FFA86FC5246494607EB0C0005F09E
:103E30004FFC56FA80F6641CA345E6D2741EA1B26C
:103E400004207854641C9B48C046C046A0B2C046BB
:103E5000C0469948C046C046A1B23846C046C04692
:103E6000DFF8BC0BC046C046A1B2384607F0B4FD2F
:103E7000FEF74CF8FFF71BB8202000002C000000D4
:103E8000204E0000404E00002DE9F04FADF5C06D12
:103E9000A5B0002104468DF80410DFF8B007C04635
:103EA000C0462046C046C0462B232C220DF5BD61DE
:103EB000204603F051FA0546DFF89407C046C04695
:103EC000012D0CDB0DF5BD6A2C4672A75AF8040BC8
:103ED000C046C0463846C046C046641EF6D12B2DAB
:103EE00000F3CF80DDF8E815087800281FBF0DF536
:103EF000BD6461680878002800F0C380DDF8E8053B
:103F00000A22002103F076FB834660680A22002122
:103F100003F070FB04465C45C0F0AD80152C80F0CA
:103F2000AA80BBF1000F00F0A68000945B46DFF88A
:103F30003829322105A805F0CBFB05A8C046C046AC
:103F4000A4EB0B04641C0294ED1ECA48C046C04694
:103F50000298C046C046C848C046C0462846C0462B
:103F6000C04602984000A84240F08F8003F0EEFB6C
:103F7000049012A804994FF4B46209F019FEABF151
:103F80000104A24612A800EBCA010126022701F58E
:103F900048780DF5BE69CDF80CB00AE001209DF817
:103FA000006006400AF1010ABF1C09F1080908F186
:103FB0000808029803990818401E009000998A4545
:103FC00028D2BD4226D3D9F80030187850B10A2241
:103FD0000021184603F00EFB83460120C04610B1B5
:103FE000C8F800B0012006408DF8006008F1040612
:103FF000D9F8043018780028D0D00A2200211846B9
:1040000003F0F8FA83460120C0460028C7D0C6F85E
:1040100000B0C3E7029D36B3DFF8080AC046C046C9
:10402000049812A94FF4B46209F0C2FD049800EBA1
:10403000C4010398451901F548776D1E0FF22C282D
:104040000FF2500AAC4223D23868C046C0465046F0
:10405000C046C0467868C046C0464046C046C046D6
:10406000641C0837EEE704208DF80400DFF81C0418
:10407000C046C0460CE0DFF81804C046C046042025
:1040800004E0DFF81004C046C04603208DF80400A9
:1040900028E400002C0000002CBB002048EC0100AC
:1040A000284E0020284A0000304A0000D45B00005F
:1040B00074EC0100BC710000CC7100002DE9F04FE0
:1040C000044691B0DFF8840BC046C0462046C04687
:1040D000C04603232C2201A9204603F03DF90546E2
:1040E000DFF86C0BC046C046012D4FF000080BDB1B
:1040F00001AE2C465EA756F8040BC046C0463846B3
:10410000C046C046641EF6D1032D6ED101990878D1
:1041100000281FBF01AD69680878002865D00198A4
:104120000A22002103F066FA044668680A22002188
:1041300003F060FA0546A54250D3152D4ED2002C4F
:104140004CD0281B152849D200952346DFF81827A4
:10415000322104A805F0BCFA04A8C046C046DFF826
:10416000F47ADFF8F4AA87F8008001213970A5F10C
:10417000010B06F0DBFE1125ADF800506B4604AADA
:1041800003F0B4F942F20F75FF23DFF8D02A294675
:10419000781C05F09DFA461CB1B2AD1B0220785484
:1041A000761CAD1BA9B2B5B241F24403DFF8B02AC8
:1041B000781905F08DFA8619B1B203207854761C6F
:1041C00042F21070A0EB060903F0C0FA641E00EB87
:1041D000C40000F548751FFA89F924E0DFF8300CB7
:1041E000C046C0464FF004083DE0DFF8280CC0464A
:1041F000C0464FF0030836E055F8043BB0B25246D3
:104200004946381805F064FA56FA80F655F8043B2A
:104210001FFA86FC5246494607EB0C0005F058FA97
:1042200056FA80F6641CA345E6D2741EA1B204209F
:104230007854641CDFF8E00BC046C046A0B2C0460C
:10424000C046DFF8D80BC046C046A1B23846C046CB
:10425000C046DFF8CC07C046C046A1B2384607F0DA
:10426000BBFBFDF753FEFEF722BE0000202000003E
:104270002C000000D8590000F45900002DE9F04F3F
:10428000ADF5C06DA5B0002104468DF80410DFF82F
:10429000BC03C046C0462046C046C0462B232C2245
:1042A0000DF5BD61204603F057F80546DFF8A00381
:1042B000C046C046012D0CDB0DF5BD6A2C4672A729
:1042C0005AF8040BC046C0463846C046C046641E75
:1042D000F6D12B2D00F3CF80DDF8E8150878002803
:1042E0001FBF0DF5BD6461680878002800F0C38029
:1042F000DDF8E8050A22002103F07CF983466068B6
:104300000A22002103F076F904465C45C0F0AE8035
:10431000152C80F0AB80BBF1000F00F0A78000945B
:104320005B46DFF84425322105A805F0D1F905A840
:10433000C046C046A4EB0B04641C0294ED1EDFF8DB
:10434000180CC046C0460298C046C046DFF80C0CA8
:10435000C046C0462846C046C04602984000A84213
:1043600040F08C8003F0F2F9049012A804994FF405
:10437000B46209F01DFCABF10104A24612A800EBE7
:10438000CA010126022701F570780DF5BE69CDF846
:104390000CB00AE001209DF8006006400AF1010A15
:1043A000BF1C09F1080908F10808029803990818C8
:1043B000401E009000998A4528D2BD4226D3D9F8E4
:1043C0000030187850B10A220021184603F012F983
:1043D00083460120C04610B1C8F800B00120064055
:1043E0008DF8006008F10406D9F804301878002828
:1043F000D0D00A220021184603F0FCF883460120A1
:10440000C0460028C7D0C6F800B0C3E7029D36B347
:10441000DFF81006C046C046049812A94FF4B462F3
:1044200009F0C6FB049800EBC4010398451901F597
:1044300070776D1E0FF20C280FF24C0AAC4220D29E
:104440003868C046C0465046C046C0467868C04638
:10445000C0464046C046C046641C0837EEE704200C
:104460008DF804000948C046C0460AE00848C04626
:10447000C046042003E00748C046C04603208DF82C
:104480000400FFF72FBA00002C00000004E5010033
:104490002CE5010050E501002DE9F04F044691B0F4
:1044A000DFF8A807C046C0462046C046C0460323E2
:1044B0002C2201A9204602F04FFF0546DFF89007A5
:1044C000C046C046012D4FF000080BDB01AE2C4664
:1044D0005DA756F8040BC046C0463846C046C046E5
:1044E000641EF6D1032D6DD10199087800281FBFF5
:1044F00001AD69680878002864D001980A2200217B
:1045000003F078F8044668680A22002103F072F884
:104510000546A5424FD3152D4DD2002C4BD0281B5C
:10452000152848D200952346CF4A322104A805F029
:10453000CFF804A8C046C046DFF81877DFF818A700
:1045400087F8008001213970A5F1010B06F0EEFC1F
:104550001125ADF800506B4604AA02F0C7FF42F2E5
:104560000F75FF230FF2C0422946781C05F0B0F802
:10457000461CB1B2AD1B02207854761CAD1BA9B20B
:10458000B5B241F245030FF2A842781905F0A0F840
:104590008619B1B203207854761C42F21070A0EB59
:1045A000060903F0D3F8641E00EBC40000F5707533
:1045B0001FFA89F924E0DFF85808C046C0464FF0DA
:1045C00004083DE0DFF84C08C046C0464FF0030841
:1045D00036E055F8043BB0B252464946381805F06B
:1045E00077F856FA80F655F8043B1FFA86FC5246D7
:1045F000494607EB0C0005F06BF856FA80F6641C90
:10460000A345E6D2741EA1B204207854641CDFF8DE
:104610000808C046C046A0B2C046C046DFF8FC0746
:10462000C046C046A1B23846C046C046DFF8F003D7
:10463000C046C046A1B2384607F0CEF9FDF766FC89
:10464000FEF735BC202000002C000000644C000068
:10465000E0E401002DE9F04FADF5C06DA5B00021FB
:1046600004468DF80410DFF8300BC046C0462046E3
:10467000C046C0462B232C220DF5BD61204602F01A
:104680006BFE0546DFF8140BC046C046012D0CDB5F
:104690000DF5BD6A2C4673A75AF8040BC046C046F8
:1046A0003846C046C046641EF6D12B2D00F3D0809C
:1046B000DDF8E815087800281FBF0DF5BD646168B6
:1046C0000878002800F0C480DDF8E8050A220021FF
:1046D00002F090FF834660680A22002102F08AFF00
:1046E00004465C45C0F0AE80152C80F0AB80BBF179
:1046F000000F00F0A78000945B465B4A322105A8BA
:1047000004F0E6FF05A8C046C046A4EB0B04641CF9
:104710000294ED1EDFF84008C046C0460298C0462D
:10472000C046DFF83808C046C0462846C046C046E6
:1047300002984000A84240F08F8003F007F80490F0
:1047400012A804994FF4B46209F032FAABF10104F3
:10475000A24612A800EBCA010126022701F58C68C7
:104760000DF5BE69CDF80CB00AE001209DF800609F
:1047700006400AF1010ABF1C09F1080908F10808FE
:10478000029803990818401E009000998A4528D283
:10479000BD4226D3D9F80030187850B10A22002142
:1047A000184602F027FF83460120C04610B1C8F822
:1047B00000B0012006408DF8006008F10406D9F829
:1047C000043018780028D0D00A220021184602F0C0
:1047D00011FF83460120C0460028C7D0C6F800B0AC
:1047E000C3E7029D36B30FF29C40C046C046049812
:1047F00012A94FF4B46209F0DBF9049800EBC4018C
:104800000398451901F58C676D1E0FF20C280FF205
:10481000540AAC4223D23868C046C0465046C0460F
:10482000C0467868C046C0464046C046C046641C84
:104830000837EEE704208DF80400DFF80C0BC046C3
:10484000C0460CE0DFF8040BC046C046042004E07C
:10485000DFF8600CC046C04603208DF80400FFF767
:1048600041B800002C000000B45B00002DE9F04FBF
:10487000044691B0DFF8D403C046C0462046C04687
:10488000C04603232C2201A9204602F065FD0546FF
:10489000DFF8BC03C046C046012D4FF000080BDB1B
:1048A00001AE2C465DA756F8040BC046C0463846FC
:1048B000C046C046641EF6D1032D6DD1019908781B
:1048C00000281FBF01AD69680878002864D00198EE
:1048D0000A22002102F08EFE044668680A220021A6
:1048E00002F088FE0546A5424FD3152D4DD2002C6F
:1048F0004BD0281B152848D200952346DFF8BC2B47
:10490000322104A804F0E4FE04A8C046C046D14FFA
:10491000DFF844A387F8008001213970A5F1010B6D
:1049200006F004FB1125ADF800506B4604AA02F016
:10493000DDFD42F20F75FF230FF2EC022946781CD1
:1049400004F0C6FE461CB1B2AD1B02207854761CA2
:10495000AD1BA9B2B5B241F246030FF2D4027819E9
:1049600004F0B6FE8619B1B203207854761C42F2E8
:104970001070A0EB060902F0E9FE641E00EBC40013
:1049800000F58C651FFA89F924E0DFF88404C0463D
:10499000C0464FF004083CE0DFF87804C046C0464B
:1049A0004FF0030835E055F8043BB0B25246494693
:1049B000381804F08DFE56FA80F655F8043B1FFABD
:1049C00086FC5246494607EB0C0004F081FE56FA7D
:1049D00080F6641CA345E6D2741EA1B2042078546C
:1049E000641CDFF83404C046C046A0B2C046C046CE
:1049F000DFF82804C046C046A1B23846C046C046CB
:104A00000748C046C046A1B2384606F0E5FFFDF7AC
:104A10007DFAFEF74CBA0000202000002C000000B8
:104A2000D8710000844C000025303258000000008E
:104A300025303458000000002DE9F04FADF5C06D71
:104A4000A5B0002104468DF804100FF21820C046CE
:104A5000C0462046C046C0462B232C220DF5BD6122
:104A6000204602F079FC0546DFF83007C046C04614
:104A7000012D0CDB0DF5BD6A2C4673A75AF8040B0B
:104A8000C046C0463846C046C046641EF6D12B2DEF
:104A900000F3D180DDF8E815087800281FBF0DF578
:104AA000BD6461680878002800F0C580DDF8E8057D
:104AB0000A22002102F09EFD834660680A2200213E
:104AC00002F098FD04465C45C0F0AF80152C80F0E4
:104AD000AC80BBF1000F00F0A88000945B46DFF8CB
:104AE000DC29322105A804F0F3FD05A8C046C04624
:104AF000A4EB0B04641C0294ED1EDFF85C04C046BA
:104B0000C0460298C046C046DFF85004C046C046C2
:104B10002846C046C04602984000A84240F08F8018
:104B200002F014FE049012A804994FF4B46209F044
:104B30003FF8ABF10104A24612A800EBCA0101261E
:104B4000022701F5A0680DF5BE69CDF80CB00AE0AA
:104B500001209DF8006006400AF1010ABF1C09F11E
:104B6000080908F10808029803990818401E0090E7
:104B700000998A4528D2BD4226D3D9F8003018784A
:104B800050B10A220021184602F034FD834601206C
:104B9000C04610B1C8F800B0012006408DF8006092
:104BA00008F10406D9F8043018780028D0D00A2279
:104BB0000021184602F01EFD83460120C046002851
:104BC000C7D0C6F800B0C3E7029D36B30FF2B400F9
:104BD000C046C046049812A94FF4B46208F0E8FF3A
:104BE000049800EBC4010398451901F5A0676D1EF8
:104BF0000FF218280FF2500AAC4223D23868C04690
:104C0000C0465046C046C0467868C046C04640468A
:104C1000C046C046641C0837EEE704208DF8040047
:104C2000DFF82407C046C0460CE0DFF82007C04686
:104C3000C046042004E0DFF87C08C046C0460320DC
:104C40008DF80400FEF74EBE2C000000204E000040
:104C5000404E0000284E0020D45B0000284A00008F
:104C6000304A00000D0A496E2050726F63657373FD
:104C7000536574526F774C656E67746844617461F4
:104C80002D3E00000A20526F77204C656E677468D5
:104C90002053657456616C75652F7320736574209D
:104CA0003A2000002DE9F847044691B00FF2701049
:104CB000C046C0462046C046C04603232C2201A958
:104CC000204602F049FB05460FF27410C046C0466C
:104CD0000026012D0DDB0DF104092C460FF274287E
:104CE00059F8040BC046C0464046C046C046641E44
:104CF000F6D1032D4BD10199087800281FBF01ADD3
:104D000069680878002842D001980A22002102F040
:104D100071FC044668680A22002102F06BFC074619
:104D2000A7422FD3152F2DD264B3381B152829D2B3
:104D300000972346DFF88427322104A804F0C8FC3A
:104D400004A8C046C046DFF8409C42F2107889F8BB
:104D50000060ADF8008041F2470269464846FDF721
:104D6000DBF8BDF80050A8EB0500ADF80000641EAC
:104D700002F0ECFC00EBC4007F1E00F5A06ADFF837
:104D80000C8C20E02248C046C04604263AE0214868
:104D9000C046C046032635E05AF8043BBDF8001073
:104DA000A8B24246484404F093FC55FA80F55AF8FC
:104DB000043BBDF80010A8B24246484404F088FC09
:104DC00055FA80F5641CA742E6D26C1EA1B20420FD
:104DD00009F80100641C1048C046C046A0B2C04695
:104DE000C0460E48C046C046A1B24846C046C0466E
:104DF000DFF89C0BC046C046A1B2484606F0ECFD69
:104E0000FDF784F8304600F0E4BC000020200000EC
:104E100048EC010074EC0100BC710000CC71000092
:104E20000D0A496E2050726F636573734765745243
:104E30006F774C656E677468446174612D3E000045
:104E40000A5265717565737420526F77204C656ED8
:104E50006774682056616C756573203A0000000025
:104E60002DE9F043DFF8204B002085B0207042F29E
:104E70001076ADF8106041F2250204A92046FDF736
:104E80004BF8BDF81050761BADF8106008F0D4FE5A
:104E9000064608F0F3FE074608F012FF804604F0CD
:104EA000C4FC814604F0BAFC0346BDF810100FF2B2
:104EB0005C0203960297CDF80480CDF8009060194B
:104EC00004F006FC55FA80F5AAB20421A1546D1C29
:104ED000DFF8C00AC046C046A8B2C046C046DFF8E8
:104EE000B80AC046C046A9B22046C046C046DFF850
:104EF000A00AC046C046A9B2204606F06DFDFDF7E7
:104F000005F8002005B0BDE8F083000025642C25DD
:104F1000642C25642C25642C256400007CB5DFF806
:104F2000684A0020207042F21075ADF8005041F23E
:104F3000260269462046FCF7EFFFBDF80060AD1B76
:104F4000ADF8005002F004FC0368BDF8001090A218
:104F500000F0C8BE2C000000D8590000F459000031
:104F60002DE9FE4F0546DFF82C9C4846C046C0465A
:104F70002846C046C04602F0EBFB044602232668E2
:104F80002C226946284602F0E7F9054609F1280077
:104F9000C046C046002755B3EA46A8460FF2F41BA8
:104FA0005AF8040BC046C0465846C046C046B8F141
:104FB0000108F5D1022D1AD1009B187840B10A22C0
:104FC0000021184602F016FB06460120C04640B1FB
:104FD000266009F18400C046C0462068C046C0462D
:104FE0000AE009F15400C046C046042704E009F174
:104FF000AC00C046C0460327384601F044BA98B515
:1050000004460FF2640008F056FC2046C046C04635
:1050100002F096FB044602F099FB014604F11402EB
:105020001420002742F8047B04F8017B0F6001F58F
:10503000F0734F601F605F6001F520731F605F6059
:1050400001F548731F605F6001F570731F605F605A
:1050500001F58C631F605F6001F5A0630831401E9D
:105060001F605F60DED192BD0D0A436C65617254B2
:105070007261636B496E666F000000002DE9F841B4
:10508000044683B00FF2B800C046C0462046C04672
:10509000C04602232C2201A9204602F05DF90646F3
:1050A000DFF8DC0BC046C0460025012E0CDB0DF1FD
:1050B0000408344637A758F8040BC046C0463846A3
:1050C000C046C046641EF6D1022E30D1019B18782E
:1050D00048B10A220021184602F08CFA044602F078
:1050E0008BFA50B100949DF8000010B1012808D04F
:1050F0000EE006F047FD002006E00425DFF8300C46
:1051000012E006F03FFD012002F0EAFA06F0C3FCCF
:10511000DFF81C4C04F12400C046C0469DF8000096
:10512000C046C04604F14800C046C04604E0DFF86F
:10513000040CC046C0460325284604B0BDE8F081F3
:105140000D0A496E2050726F636573735365745412
:1051500063436F6E74726F6C4D6F64652D3E00001B
:105160007CB5DFF824480020207042F21075ADF8BD
:10517000005041F2270269462046FCF7CDFEBDF8FB
:105180000060AD1BADF8005002F0A6FA00F0A6BD1D
:10519000256C64002C000000644C0000E0E4010079
:1051A0002DE9F04F0546E3B0DFF88C0BC046C04652
:1051B0002846C046C04617232C2210A9284602F0D4
:1051C000CBF80646DFF8740BC046C0460024002E1C
:1051D0000CDD0DF1400835465AA758F8040BC046BF
:1051E000C0463846C046C0466D1EF6D1172E00F3A5
:1051F000A3801099087800281FBF10AD696808784F
:10520000002800F0998010980A22002102F0F2F99B
:10521000834668680A22002102F0ECF905465D45E4
:10522000C0F08480152D80F08180BBF1000F7DD00F
:1052300000955B46A14A322103A804F049FA03A86D
:10524000C046C046A5EB0B056D1C0095DFF81C0C95
:10525000C046C0460098C046C046DFF8140CC046A1
:10526000C046F01EC046C0460098002868D002F034
:1052700069FA054627A82946F02208F099FC502132
:1052800027A808F015FBABF10108474610A800EB72
:10529000870127AA012601F1080902EB870ACDF848
:1052A00004B006E0012006407F1C0AF1040A09F15F
:1052B0000409009801990818401E029002998F4233
:1052C00011D2D9F8003018780028EBD00A2200213A
:1052D000184602F08FF983460120C0460028E2D02C
:1052E000CAF800B0DEE7009FD6B1DFF8880BC046F1
:1052F000C046284627A9F02208F05AFC0198C71991
:1053000005EB88057F1E6CA6B8451AD255F8040B2C
:10531000C046C0463046C046C04608F10108F3E723
:10532000DFF8440CC046C04604240AE0DFF83C0C19
:10533000C046C046042404E0DFF88C0CC046C046DA
:10534000032490E12C00000004E501002CE501009D
:105350002DE9F847044691B0DFF8740CC046C0460A
:105360002046C046C04603232C2201A9204601F056
:10537000F3FF0546DFF85C0CC046C0460027012D50
:105380000CDB01AE2C460FF2E82856F8040BC046A1
:10539000C0464046C046C046641EF6D1032D49D1E2
:1053A0000199087800281FBF01AC616808780028BF
:1053B00040D001980A22002102F01CF906466068DC
:1053C0000A22002102F016F90546B5422CD3152D0C
:1053D0002AD24EB3A81B152826D200953346374A49
:1053E000322104A804F074F904A8C046C046DFF8CE
:1053F000988542F2107988F80070ADF8009041F27B
:10540000390269464046FCF787FDBDF80040A9EB2C
:105410000400ADF8000002F095F900EB8600A0F161
:10542000040ADFF8689517E0DFF8B00BC046C04605
:1054300004273DE0DFF8A80BC046C046032737E04D
:105440005AF8043BBDF80010A0B24A46404404F0AC
:105450003FF954FA80F4761CB542F1D2641EA1B231
:10546000042008F80100641CDFF82805C046C04687
:10547000A0B2C046C046DFF82005C046C046A1B273
:105480004046C046C046DFF80805C046C04608F0A2
:10549000A3F9012803D1A2B24146022004E008F09A
:1054A0009BF918B9A2B2414606F0B8FAFCF72EFDF6
:1054B0008EE1000050E50100202C0000B45B0000EC
:1054C0002DE9F04F0546E3B00FF2D040C046C0468C
:1054D0002846C046C04617232C2210A9284601F0B2
:1054E0003BFF06460FF2D040C046C0460024012EC6
:1054F0000CDB0DF1400835465DA758F8040BC0469B
:10550000C0463846C046C0466D1EF6D1172E00F381
:10551000A5801099087800281FBF10AD6968087829
:10552000002800F09B8010980A22002102F062F807
:10553000834668680A22002102F05CF805465D4552
:10554000C0F08680152D80F08380BBF1000F00F045
:105550007F8000955B46DFF8342C322103A804F0ED
:10556000B7F803A8C046C046A5EB0B056D1C009517
:105570000FF26440C046C0460098C046C0460FF2D5
:105580007440C046C046F01EC046C0460098002881
:1055900068D002F0D7F8054627A82946F02208F07F
:1055A00007FBABF10108474627A810AA00EB8701CB
:1055B00002EB8700012601F1500900F1080ACDF83D
:1055C00004B006E0012006407F1C0AF1040A09F13C
:1055D0000409009801990818401E029002998F4210
:1055E00011D2DAF8003018780028EBD00A22002116
:1055F000184601F0FFFF83460120C0460028E2D094
:10560000C9F800B0DEE7009FE6B10FF20040C046E7
:10561000C046284627A9F02208F0CAFA019805EBEF
:105620008801C71901F150057F1E6BA6B8451AD233
:1056300055F8040BC046C0463046C046C04608F187
:105640000108F3E7DFF82009C046C04604240AE059
:10565000DFF81809C046C046042404E0DFF86809F2
:10566000C046C0460324204663B0BDE8F08F00006A
:105670002C0000002DE9F847044691B00FF21850B5
:10568000C046C0462046C046C04603232C2201A97E
:10569000204601F061FE0546DFF83809C046C046E5
:1056A0000027012D0CDB01AE2C460FF2D82856F84E
:1056B000040BC046C0464046C046C046641EF6D1F4
:1056C000032D4AD10199087800281FBF01AC6168F9
:1056D0000878002841D001980A22002101F08AFFB1
:1056E000064660680A22002101F084FF0546B542A3
:1056F0002DD3152D2BD256B3A81B152827D20095D4
:1057000033460FF2B042322104A803F0E1FF04A8AF
:10571000C046C046DFF8708242F2107988F8007007
:10572000ADF800904FF4825269464046FCF7F4FB16
:10573000BDF80040A9EB0400ADF8000002F002F84B
:1057400000EB860000F14C0A0FF2884917E0DFF801
:105750008C08C046C04604273AE0DFF88408C046FB
:10576000C046032734E05AF8043BBDF80010A0B24D
:105770004A46404403F0ACFF54FA80F4761CB5422C
:10578000F1D2641EA1B2042008F80100641C814813
:10579000C046C046A0B2C046C0467F48C046C046CC
:1057A000A1B24046C046C0467948C046C04608F04F
:1057B00013F8012803D1A2B24146022004E008F008
:1057C0000BF818B9A2B2414606F028F9FCF79EFB87
:1057D000384612B0BDE8F087202C00002DE9F04FCC
:1057E0000546E3B00FF2B410C046C0462846C04696
:1057F000C04617232C2210A9284601F0ADFD06460D
:105800000FF2B410C046C0460024012E0CDB0DF18F
:10581000400835465BA758F8040BC046C0463846DA
:10582000C046C0466D1EF6D1172E00F3A580109914
:10583000087800281FBF10AD69680878002800F0BC
:105840009B8010980A22002101F0D4FE83466868EC
:105850000A22002101F0CEFE05465D45C0F086809B
:10586000152D80F08380BBF1000F00F07F80009544
:105870005B460FF24032322103A803F029FF03A850
:10588000C046C046A5EB0B056D1C00950FF24810F5
:10589000C046C0460098C046C0460FF25810C046E9
:1058A000C046F01EC046C0460098002868D001F0EF
:1058B00049FF054627A82946F02208F079F9ABF1FF
:1058C0000108474627A810AA00EB870102EB8700D2
:1058D000012601F1A00900F1080ACDF804B006E0A4
:1058E000012006407F1C0AF1040A09F1040900980E
:1058F00001990818401E029002998F4211D2DAF8DD
:10590000003018780028EBD00A220021184601F058
:1059100071FE83460120C0460028E2D0C9F800B0DD
:10592000DEE7009FE6B10FF2E400C046C04628461D
:1059300027A9F02208F03CF9019805EB8801C71966
:1059400001F1A0057F1E92A6B8451AD255F8040BA6
:10595000C046C0463046C046C04608F10108F3E7DD
:10596000DFF80406C046C04604240AE0DFF8FC0560
:10597000C046C046042404E0DFF81408C046C04610
:10598000032470E62C000000284E0020D45B0000A9
:10599000D8710000BC710000CC7100000D0A496E86
:1059A0002050726F63657373536574526669644403
:1059B0006174612D3E0000000A5246494420446152
:1059C00074612052656365697665642056616C7503
:1059D0006573203A000000000D0A4E6F206F6620AC
:1059E000646174612061732070657220496E646522
:1059F000782D3E000D0A41637475616C206E6F2036
:105A00006F6620646174612D3E0000000A205246DA
:105A1000494420446174612053657456616C756516
:105A20002F7320736574203A200000002DE9F84799
:105A3000044691B00FF26010C046C0462046C046F2
:105A4000C04603232C2201A9204601F085FC05460F
:105A5000DFF88005C046C0460027012D0CDB01AEF3
:105A60002C460FF2C82856F8040BC046C0464046E4
:105A7000C046C046641EF6D1032D4AD1019908786C
:105A800000281FBF01AC61680878002841D0019848
:105A90000A22002101F0AEFD064660680A220021BC
:105AA00001F0A8FD0546B5422DD3152D2BD256B3D6
:105AB000A81B152827D2009533460FF2F802322191
:105AC00004A803F005FE04A8C046C046DFF8048C15
:105AD00042F2107988F80070ADF8009041F24A0265
:105AE00069464046FCF718FABDF80040A9EB0400EF
:105AF000ADF8000001F026FE00EB860000F19C0AE4
:105B00000FF2D00917E0DFF8D404C046C0460427DE
:105B10003DE0DFF8CC04C046C046032737E05AF822
:105B2000043BBDF80010A0B24A46404403F0D0FD4B
:105B300054FA80F4761CB542F1D2641EA1B204205E
:105B400008F80100641CDFF8380CC046C046A0B25B
:105B5000C046C046DFF82C0CC046C046A1B2404645
:105B6000C046C046DFF8240CC046C04607F034FEED
:105B7000012803D1A2B24146022004E007F02CFE26
:105B800018B9A2B2414605F049FFFCF7BFF91FE67C
:105B9000202C000068DD01000D0A496E2050726F54
:105BA0006365737347657452666964446174612DFB
:105BB0003E0000000A5374617274496E6465782077
:105BC0003D2025642C20456E64496E646578203D37
:105BD00020256400256C642C00000000F0B504460C
:105BE00083B00FF2A000C046C0462046C046C04663
:105BF00002232C2201A9204601F0AEFB05460FF23C
:105C0000A000C046C046012D0BDB01AE2C4647A7C5
:105C100056F8040BC046C0463846C046C046641E0F
:105C2000F6D1022D23D1019B187848B10A22002118
:105C3000184601F0DFFC044601F0DEFC98B1009448
:105C40009DF8000008F0ADF8394D05F19C00C04604
:105C5000C0469DF80000C046C04605F1C000C046E1
:105C6000C046002408E03248C046C046ECE7DFF8F2
:105C70001C0DC046C0460324204603B0F0BD000002
:105C8000A05C00000D0A496E2050726F636573734B
:105C90005365745266696453746174652D3E0000E7
:105CA0000A73746174652056616C756573203A00DF
:105CB0007CB5DFF8204A0020207042F21075ADF864
:105CC000005041F2290269462046FCF725F9BDF84B
:105CD0000060AD1BADF8005008F067F80346BDF852
:105CE0000010B8A2A01903F0F3FC56FA80F5AAB28E
:105CF0000421A1546D1CDFF8880AC046C046A8B232
