:10000000F0C8FF1F09FF010073C50000CBE100002D
:100010008FE20000F7E500003BE600000000000072
:100020000000000000000000000000007FE600006B
:1000300057E700000000000087EE000003F1000019
:10004000250202002D020200350202003D020200DC
:10005000450202004D020200550202005D0202004C
:10006000650202006D020200750202007D020200BC
:10007000850202008D020200950202009D0202002C
:10008000A502020065030200650302006503020089
:1000900065030200650302006503020065030200B8
:1000A000AD020200B5020200BD020200C50202005C
:1000B000CD020200D502020065030200DD0202004B
:1000C000E5020200953C0100ED02020091320100C0
:1000D000F502020073E70000FD0202005F0D01005F
:1000E000650302006503020065030200814101000F
:1000F0006503020065030200650302001D9F000006
:100100006503020065030200650302006503020047
:100110006503020065030200650302006503020037
:10012000650302006503020043170100DD3801008A
:100130006503020021390100650302006503020026
:100140006503020005030200816A01000D0302003D
:10015000793E0100150302006503020065030200F9
:1001600065030200770D01001D0302002503020054
:100170002D030200350302003D0302004503020087
:100180004D030200550302006503020065030200EF
:1001900065030200650302006503020065030200B7
:1001A00065030200650302006503020065030200A7
:1001B0006503020065030200650302006503020097
:1001C0006503020065030200650302006503020087
:1003F000650302006503020065030200FFFFFFFFC3
:10040000FFFFFFFFFFFFFFFFFFFFFFFFFEFFFFFFFD
:1004100010B504460FF2D000C046C0462046C04684
:10042000C046022010BD2DE9F841044683B00FF20A
:10043000B800C046C0462046C046C04602232C2213
:1004400001A9204607F0E6FA0646DFF8D00CC046C0
:10045000C0460025012E0CDB0DF104083446BAA776
:1004600058F8040BC046C0463846C046C046641E15
:10047000F6D1022E30D1019B187848B10A22002112
:10048000184607F015FC044607F014FC60B1009410
:100490009DF8000010B101280AD010E00A2009F0F0
:1004A0000DFA0021002008E00425DFF89C0D10E083
:1004B000092009F003FA0021012009F0C1F80FF228
:1004C0004000C046C0469DF80000C046C0460FF23E
:1004D0004800C046C04604E00FF25400C046C04683
:1004E000032504F041BE00000D0A496E2050726FD2
:1004F000636573735365744D6F64652D3E00000032
:100500000A20536574204D6F6465205365745661ED
:100510006C7565203A2000000D0A302D3E4155547F
:100520004F2C20312D3E4D414E55414C00000000D6
:100530000A20536574204D6F6465205365745661BD
:100540006C75652F7320496E76616C6964000000DC
:100550002DE9F8430446DFF85C8C84B04046C04681
:10056000C0462046C046C04603232C2201A920468F
:1005700007F050FA0746DFF8A40BC046C046002635
:10058000002F0CDD0DF104093C466FA559F8040B52
:10059000C046C0462846C046C046641EF6D101A8E3
:1005A00009F03AFA054609F091FADFF8A01C09783B
:1005B0000024A14602E050F82120914450F8213057
:1005C0001C19491EF7D5032F66DC019B187860B112
:1005D0000A220021184607F06BFB074607F06CFB68
:1005E00008B1009701E0002700E001279DF8000016
:1005F000062810D1ADB2102D0CD10298DFF8502C86
:10060000DFF8781D05F0D2FD07407F1EBF41FF4394
:10061000FF0F00E0002709F055FA054609F058FAE7
:100620001FB9042608F1240033E02968022938D0D4
:100630009DF80010491E052921D8DFE801F00305C7
:1006400007090B0D022011E003200FE004200DE04C
:1006500005200BE0062009E0006830B9DFF81C1D1A
:100660000888844208DB814506DA0C2009F026F967
:10067000002009F059F802E01B2007F09BFB0FF265
:100680002800C046C0469DF80000C046C04608F19C
:100690004C00C046C04604E008F19000C046C04689
:1006A00003263046E0E200000A204D616E75616C61
:1006B000204D6F64652053657456616C7565203AF2
:1006C000200000002DE9F84F0646A6B00FF27C008E
:1006D000C046C0463046C046C04607F08AFB0446C6
:1006E00009F00AFA94E88E51054606A880E88E5172
:1006F00006A9304601F050FC060020D106A890E87B
:100700008E5184E88E510DF1180999E88F0C85E817
:100710008F0C2568DFF8D02D0595A06904906069DD
:10072000039021690291E06801900DA8A1680091F1
:100730006421636809F09CFA0DA8C046C0463046A3
:1007400027B0BDE8F08F00002C0000000D0A496EB4
:100750002050726F636573735365744D6F746F725D
:1007600050574D4D616E75616C2D3E00F8B50546D4
:10077000A6B00FF26400C046C0462846C046C04638
:1007800009F0BCF9044694E8CE5006A880E8CE50A3
:1007900006A9284601F000FC050019D106A890E83A
:1007A000CE5084E8CE500591A069DFF8402D04902A
:1007B0006069039021690291E06801900DA8A16829
:1007C00000916421636809F053FA0DA8C046C04641
:1007D000284627B0F0BD00000D0A496E2050726F08
:1007E000636573735365744D6F746F7250574D41E9
:1007F00075746F2D3E0000002DE9F0430446DFF8CC
:100800004C8C83B04046C046C0462046C046C046D9
:1008100002232C2201A9204607F0FCF8074608F124
:100820002400C046C0460025012F0CDB01AE3C462B
:100830000FF2143956F8040BC046C0464846C0466D
:10084000C046641EF6D1022F3BD1019809F0E4F8AE
:10085000042836D101980278417802EB820301EB3B
:100860004301A1F11004E4B28278C1780FF2600074
:1008700002EB820301EB4301A1F11007C046C04621
:100880002046C046C0460FF25400C046C046FFB2E4
:100890003846C046C046182CB8BF3C2F0BDA8DF83E
:1008A00000408DF8017009F005FA684609F008FA71
:1008B0000FF2340002E0042508F14C00C046C046A7
:1008C00004E00FF24000C046C046032531E20000BC
:1008D0000D0A486F75722D2D3E0000000D0A4D69FE
:1008E0006E7574652D2D3E000A204175746F20745D
:1008F000696D652053657456616C75652F7320535F
:10090000657400000A204175746F2074696D65205C
:1009100053657456616C75652F7320496E76616CF2
:10092000696400002DE9FE430446DFF8C40BC046AD
:10093000C0462046C046C0460FF29C00C046C04696
:100940002046C046C04602232C226946204607F0B6
:1009500061F80746DFF8C407C046C0460026012FED
:100960000CDBE8463C460FF2E01958F8040BC04691
:10097000C0464846C046C046641EF6D1022F24D168
:10098000009B187860B10A220021184607F090F900
:10099000451EAD41ED43ED0F284607F0AAF970B1B1
:1009A0000FF24C00C046C0460FF25400C046C0468D
:1009B000E8B2C046C04609F0DAF905700AE00FF265
:1009C0005C00C046C046042604E00FF27000C0463A
:1009D000C04603263046ADE10D0A496E2050726FC5
:1009E0006365737353657453746174652D3E0000C1
:1009F0000A204D6F64652053657456616C756500FF
:100A00000D0A456467652073656E736F7220737499
:100A10006174652073657420617320000A204D6F36
:100A200064652053657456616C75652F73204F752E
:100A300074206F662052616E676500000A204D6F5A
:100A400064652053657456616C75652F7320496E1B
:100A500076616C69640000002DE9F841044695B0A8
:100A60000FF2E800C046C0462046C046C0460723F5
:100A70002C2204A9204606F0CDFF0646DFF8640CC0
:100A8000C046C0460025012E0CDB0DF1100834468F
:100A90002DA758F8040BC046C0463846C046C0468D
:100AA000641EF6D104ACA06809F02CFAADF8000081
:100AB000606809F027FA8DF80200049809F022FA1C
:100AC0008DF80300079809F01DFA8DF804000898C6
:100AD00009F018FA8DF80500099809F013FA8DF855
:100AE0000600684609F036FB072E23D1DFF8F81B15
:100AF000DFF8002E0918914216D202A909F012FB64
:100B000028220BA902A809F0F7FA0BA8C046C04694
:100B100002A809F069FA68B109F0CCF8082009F0D8
:100B200095FD0FF2440002E004250FF25400C04688
:100B3000C04604E00FF26800C046C04603252846C0
:100B400016B0BDE8F08100002C0000000D0A496ECF
:100B50002050726F636573735365745254435661CA
:100B60006C75652D3E0000000A20525443205365E9
:100B70007456616C75652F73205365740000000016
:100B80000A205254432053657456616C75652F7367
:100B9000204F7574206F662052616E6765000000FB
:100BA0000A20525443202053657456616C75652F9A
:100BB0007320496E76616C69640000002DE9F8438A
:100BC000044684B00FF2A800DFF8207BC046C04680
:100BD0002046C046C04604232C226946204606F023
:100BE00019FF06463846C046C0460025012E0CDBDC
:100BF000E84634460FF2441958F8040BC046C04684
:100C00004846C046C046641EF6D1042E26D109F0DF
:100C1000FAFD0446009808F0FFFE20B1009A0B216F
:100C2000204609F025F8019F384608F0F5FE28B166
:100C30003A460B2104F10B0009F01AF8029E3046E7
:100C400008F0EAFE28B132460B2104F1160009F043
:100C50000FF80FF23800C046C04604E007F1240048
:100C6000C046C0460325284605B0BDE8F083000015
:100C70000D0A496E2050726F636573735365744437
:100C80006576696365496E666F2D3E000A2044658E
:100C90007669636520496E666F2053657456616C92
:100CA00075652F7320536574000000002DE9FE4325
:100CB00004460FF28C00DFF8409CC046C046204638
:100CC000C046C04602232C226946204606F0A2FEFA
:100CD00006464846C046C0460025012E0BDBE846C6
:100CE000344616A758F8040BC046C0463846C046DE
:100CF000C046641EF6D1022E16D109F12400C0466A
:100D0000C04600981022002106F0D2FFC046C0461F
:100D100009F006FD044609F0C9FC09F0A1FA44B146
:100D2000082009F090FC04E009F14800C046C046E4
:100D30000325284603B0BDE8F08300002C00000026
:100D40000D0A496E2050726F63657373436C656161
:100D5000724572726F72436F6465732D3E000000BE
:100D60002DE9F847044683B00FF2A000DFF8FC8BB2
:100D7000C046C0462046C046C04609F07AFA06463C
:100D8000022330788DF800002C2201A9204606F0BD
:100D900041FE07464046C046C0460025012F0DDBF8
:100DA0000DF104093C460FF2703A59F8040BC046A5
:100DB000C0465046C046C046641EF6D1022F1DD123
:100DC000019B187848B10A220021184606F070FFEE
:100DD000044606F080FF58B100949DF80000307082
:100DE0000FF24400C046C0463078C046C0460AE014
:100DF00008F12400C046C046042504E008F14C0078
:100E0000C046C0460325284605F035B80D0A496E90
:100E10002050726F636573735365744C6F774261D2
:100E200074536F432D3E00000A204C6F77204261BF
:100E30007420536F432053657456616C75652F732E
:100E400020536574000000002DE9F04F044683B084
:100E5000DFF8C40BDFF8C48BC046C0462046C0464E
:100E6000C04609F09BFE06463768D6F80490032377
:100E70002C226946204606F0CDFD82464046C046FB
:100E8000C0460025BAF1010F0ADBEB4654465BF879
:100E9000040BC046C046A0A0C046C046641EF6D1A2
:100EA000BAF1030F37D1009B187860B10A220021F4
:100EB000184606F0FDFE04460120C04608B1A146D2
:100EC00001E0002400E00124019B187848B10A22C7
:100ED0000021184606F0ECFE82460120C04608B10B
:100EE00057460120044205D108F12400C046C046FF
:100EF000042515E0DFF8F80BC046C0463760C6F899
:100F000004904846C046C046CEA0C046C0463068A1
:100F1000C046C04604E008F14C00C046C046032568
:100F200005F004BB70B5DFF8CC4B00202070012128
:100F3000217086B00AF0E4FB1122ADF800206B4668
:100F400001AA06F031FEFF23DFF8AC2B40F2DB51A3
:100F5000601C08F08DFE451C40F2DB51AAB2491B13
:100F60000220A0546D1C491BAEB241F21703DFF8FA
:100F70006C2C89B2A01908F07BFE4519A9B2032098
:100F800060546D1C0BF022F932E270B5DFF8644B4F
:100F9000002020700121217086B00AF0B1FB1122DF
:100FA000ADF800206B4601AA06F0FEFDFF23DFF836
:100FB000482B40F2DB51601C08F05AFE451C40F201
:100FC000DB51AAB2491B0220A0546D1C491BAEB2D2
:100FD00041F21803DFF8042C89B2A01908F048FE8A
:100FE0004519A9B2032060546D1C09F085FB034626
:100FF00040F2DC51491BA8B20FF20402FEE10000EE
:10100000253030305800000070B5DFF8E84A002085
:1010100020700121217086B00AF072FB1122ADF818
:1010200000206B4601AA06F0BFFDFF23DFF8C82AA7
:1010300040F2DB51601C08F01BFE451C40F2DB5106
:10104000AAB2491B0220A0546D1C491BAEB241F24A
:101050001903DFF8882B89B2A01908F009FE451999
:10106000A9B2032060546D1C09F0CDFB0FF22801DA
:10107000029100F10B03009300F116020192034666
:1010800040F2DC51491BA8B2DFF8FC2D89B22044A4
:1010900008F0EEFDB6E1000044322E3056000000AC
:1010A00070B5DFF8504A002020700121217086B011
:1010B0000AF026FB1122ADF800206B4601AA06F0CB
:1010C00073FDFF23DFF8302A40F2DB51601C08F08B
:1010D000CFFD451C40F2DB51AAB2491B0220A054AF
:1010E0006D1C491BAEB241F20103DFF8F02A89B250
:1010F000A01908F0BDFD4519A9B2032060546D1C6C
:1011000008F089FA40F2DC56761B002300B1012377
:10111000A8B2CDA2B1B272E12C000000EC5C0000DC
:1011200070B5DFF8D049002020700121217086B011
:101130000AF0E6FA1122ADF800206B4601AA06F08B
:1011400033FDFF23DFF8B02940F2DB51601C08F0CB
:101150008FFD451C40F2DB51AAB2491B0220A0546E
:101160006D1C491BAEB241F20303DFF8702A89B24D
:10117000A01908F07DFD4519A9B2032060546D1C2B
:1011800008F055FA40F2DC56761B401E03280BD8B7
:10119000DFE800F002040608012306E0022304E071
:1011A000032302E0042300E00523A8B2A6A2B1B203
:1011B00025E1000028E6010070B5DFF8384900207D
:1011C00020700121217086B00AF09AFA1122ADF840
:1011D00000206B4601AA06F0E7FCFF23DFF8182980
:1011E00040F2DB51601C08F043FD451C40F2DB512E
:1011F000AAB2491B0220A0546D1C491BAEB241F299
:101200000403DFF8D82989B2A01908F031FD451987
:10121000A9B2032060546D1C06F0EBFD0168039138
:1012200042690292C168019140F2DC5182680092E9
:10123000491B43680FF21C02A8B289B2204408F08F
:1012400017FDDFE0202C0000C0E101005AA6FF1FBF
:10125000C37C000025642C25642C256C642C256C33
:10126000642C25640000000070B5DFF88848002079
:1012700020700121217086B00AF042FA1122ADF8E7
:1012800000206B4601AA06F08FFCFF23DFF86828D8
:1012900040F2DB51601C08F0EBFC451C40F2DB51D6
:1012A000AAB2491B0220A0546D1C491BAEB241F2E8
:1012B0000903DFF8282989B2A01908F0D9FC4519DB
:1012C000A9B2032060546D1C08F018FC016803915A
:1012D00042690292C168019140F2DC518268009239
:1012E000491B4368DFF8AC2DA8B289B2204408F04E
:1012F000BFFC87E070B5DFF8FC47002020700121BB
:10130000217086B00AF0FCF91122ADF800206B467E
:1013100001AA06F049FCFF23DFF8DC2740F2DB518D
:10132000601C08F0A5FC451C40F2DB51AAB2491B29
:101330000220A0546D1C491BAEB241F20B03DFF832
:101340009C2889B2A01908F093FC4519A9B2032082
:1013500060546D1C08F0B2FCDFF83C1D0A78019265
:1013600040F2DC5143780FF218020093491B0378D6
:10137000A8B289B2204408F07BFC43E038A7FF1FE5
:1013800025303264253032642C25640070B5DFF8D6
:101390006447002020700121217086B00AF0B0F966
:1013A0001122ADF800206B4601AA06F0FDFBFF23D9
:1013B000DFF8442740F2DB51601C08F059FC451C63
:1013C00040F2DB51AAB2491B0220A0546D1C491BFC
:1013D000AEB241F20C03DFF8042889B2A01908F07C
:1013E00047FC4519A9B2032060546D1C08F0C1FCEC
:1013F000034640F2DC51491BA8B213A289B2204433
:1014000008F036FC55FA80F5AAB20421A1546D1CEF
:10141000DFF8880CC046C046A8B2C046C046DFF818
:10142000800CC046C046A9B22046C046C046DFF880
:10143000740CC046C046A9B220460AF0BFFF00F0B7
:101440006FFD002006B070BD2564000020F0010093
:1014500070B5DFF8A046002020700121217086B011
:101460000AF04EF91122ADF800206B4601AA06F0F1
:101470009BFBFF23DFF8802640F2DB51601C08F065
:10148000F7FB451C40F2DB51AAB2491B0220A054D5
:101490006D1C491BAEB241F20D03DFF8402789B243
:1014A000A01908F0E5FB4519A9B20320605404F225
:1014B000DC5608F0FDFD2821304608F0FDFD3146E0
:1014C00020460AF0C1FF304608F0A6FA55FA80F52A
:1014D0000FF22000C046C0463046C046C0466D1CD4
:1014E000A9B20420605492E730FB0100E4FB010044
:1014F00080FF01000D0A54696D652D2D3E0000002E
:101500002DE9F84FDFF8EC45002020700121217013
:1015100094B00AF0F5F81122ADF800206B4601AA4C
:1015200006F042FBFF23DFF8D02540F2DB51601CC0
:1015300008F09EFB451C40F2DB51AAB2491B022079
:10154000A0546D1C491BAEB241F20E03DFF88C268D
:1015500089B2A01908F08CFB4519AAB20321A15445
:101560006D1C40F2DC535B1BADF82830002709F0FE
:10157000F7FA0B9008F04FF810B1012804D006E0FC
:10158000DFF8140B067803E00127012600E00127AD
:1015900006F035FC804608F08FFADFF80C9B4068B7
:1015A000D9F80010B1FBF0F0C9F8040008F08EFA89
:1015B000B0E80C5C0CA9A1E80C5C0CC80CC1DFF80D
:1015C000A8AC9AF8000030B9AAA001788AF80010F7
:1015D00041788AF80110DFF8941C08680B2815DAA6
:1015E0000AF08EFF83460AF08BFFDFF8801C139A07
:1015F0000968DFF87C3CCDF820A0521A09921A68DD
:10160000079208EB810353F8042C2FE0A0F10B01A3
:101610000A2914D20AF074FF83460AF071FFDFF83A
:101620004C1C139A0968DFF8483CCDF820A0521AE8
:1016300009921A68079208EB81035A6A16E0153876
:1016400005282ED20AF05CFF83460AF059FFDFF826
:101650001C1C139A0968DFF8183CCDF820A0521A18
:1016600009921A68079208EB8103DA6CDFF8D03C24
:101670000591F6B2049606921E68D9F804100396F6
:1016800001FB0BF102910190AEB20B98BDF828104E
:10169000DFF8B02C00903B46A01908F0E9FA55FAA3
:1016A00080F5A9B2042060546D1CDFF8F009C04633
:1016B000C046A8B2C046C046DFF8E409C046C046EE
:1016C000A9B22046C046C046DFF8D809C046C04689
:1016D000A9B220460AF072FE00F022FC002015B0EC
:1016E000BDE8F08F44F0010080BC92C700F9010012
:1016F0002DE9F84FDFF8FC43002020700121217014
:1017000098B009F0FDFF1122ADF800206B4601AA48
:1017100006F04AFAFF23DFF8E02340F2DB51601CB9
:1017200008F0A6FA461C40F2DB51B2B2891B022037
:10173000A054761C891BB7B241F20F03DFF89C243A
:1017400089B2E01908F094FA8619B1B20320605406
:10175000761C09F03DFA8046022115A898ED020A90
:1017600006F0FAF8022112A898ED030A06F0F4F840
:1017700009F0F6F9804640F2DC5707F04CFFBF1B3A
:101780004FF0000928B1012804BF4FF001090125DD
:1017900002E0DFF80409057808F098F9B0E80C5C7D
:1017A0000AA9A1E80C5C0CC80CC108F085F9DFF8A7
:1017B000F8A84068DAF80010DFF8B0BAB1FBF0F032
:1017C000CAF80400DBF800000B2806DBA0F10B01CF
:1017D0000A2924BF153805282AD208F08DFF099060
:1017E0000AF08EFE0AF10802DFF8901B08920AAB9D
:1017F000096853F82520DFF8483B521A07920691F2
:101800000495CDF80080DBF80010099A1D68059159
:10181000039202954B46DAF80410DFF8642B484334
:101820000190B9B2B0B2204408F022FA56FA80F61C
:10183000B2B20421A154761CDFF86008C046C0464D
:10184000B0B2C046C046DFF85808C046C046B1B284
:101850002046C046C046DFF84C08C046C046B1B27C
:1018600020460AF0ABFD00F05BFB002019B0BDE89C
:10187000F08F00003000000070B59E4C00202070FA
:101880000121217086B009F03BFF1122ADF8002044
:101890006B4601AA06F088F9FF23974A40F2DB5114
:1018A000601C08F0E5F9451C40F2DB51AAB2491B67
:1018B0000220A0546D1C491BAEB241F21403C74A6A
:1018C00089B2A01908F0D4F94519A9B203206054CF
:1018D0006D1C09F063F90FF224020168009140F2D7
:1018E000DC514368491BA8B289B2204408F0C0F912
:1018F00088E50000801319BC90F0010025642C25B8
:101900006400000070B57B4C002020700121217024
:1019100086B009F0F5FE1122ADF800206B4601AA51
:1019200006F042F9FF23744A40F2DB51601C08F0D4
:101930009FF9451C40F2DB51AAB2491B0220A0547A
:101940006D1C491BAEB241F21503A44A89B2A0191D
:1019500008F08EF94519A9B2032060546D1C08F0F7
:1019600088FC40F2DC51037845E5000000F10100FD
:1019700070B5604C002020700121217086B009F004
:10198000BFFE1122ADF800206B4601AA06F00CF94B
:10199000FF23594A40F2DB51601C08F069F9451CED
:1019A00040F2DB51AAB2491B0220A0546D1C491B16
:1019B000AEB241F22203DFF8342D89B2A01908F04B
:1019C00057F94519A9B2032060546D1C06F019FAA5
:1019D000018802914288019281880FF218020091D9
:1019E00040F2DC51C388491BA8B289B2204408F0F8
:1019F0003FF907E5255825582558255800000000CF
:101A000010B56221DFF8E80C0BF0D0FC002400B127
:101A10000524204610BD0000D46D000070F10100C7
:101A200070B5344C00202070012121708CB009F079
:101A300067FE1122ADF800206B4601AA06F0B4F84B
:101A4000FF232D4A40F2DB51601C08F011F9451CC0
:101A500040F2DB51AAB2491B0220A0546D1C491B65
:101A6000AEB241F21A035D4A89B2A01908F000F93A
:101A70004519A9B2032060546D1C04A809F09EFF0B
:101A80000DF12A0003900DF1270102910DF12100C3
:101A9000019004AA009240F2DC51491BA8B209ABA4
:101AA0000FF2580289B2204408F0E2F855FA80F5A6
:101AB000AAB20421A1546D1CDFF8E005C046C0465F
:101AC000A8B2C046C046DFF8D805C046C046A9B295
:101AD0002046C046C046DFF8CC05C046C046A9B285
:101AE00020460AF06BFC00F01BFA00200CB070BD21
:101AF000046E00003882FF1F7C4E000025732C25E9
:101B0000732C25732C25732C2573000070B5DFF81A
:101B1000E84B00202070012121708AB009F0F0FD0F
:101B20001122ADF800206B4601AA06F03DF8FF2314
:101B3000DFF8C82B40F2DB51601C08F099F8451C17
:101B400040F2DB51AAB2491B0220A0546D1C491B74
:101B5000AEB241F21B03214A89B2A01908F088F8FD
:101B60004519A9B2032060546D1C03A809F09EFF1B
:101B70000DF1250002900DF1220101910DF11D00E2
:101B8000009040F2DC51491BAEB203AB0FF25002A1
:101B900089B2A01908F06CF855FA80F5A9B20420B2
:101BA00060546D1CDFF8F404C046C046A8B2C046BD
:101BB000C046DFF8EC04C046C046A9B22046C04685
:101BC000C046DFF8E004C046C046A9B220460AF08D
:101BD000F5FB00F0A5F900200AB070BD844E0000AE
:101BE00025732C25732C25732C2573002DE9F84FB4
:101BF000DFF8045B00202870AAB00AF054FA012133
:101C000027A805F0A9FE0AF079FA012124A805F019
:101C1000A3FE0AF060FA012121A805F09DFE0AF05A
:101C2000BDFA01211BA805F097FE16A80AF090FA4C
:101C30009DF85C009DED160A08B9B1EE400A01213D
:101C40001EA805F089FE01202870002709F058FD24
:101C50001122ADF800206B4601AA05F0A5FFFF2375
:101C6000DFF8982A40F2DB51681C08F001F8441CA8
:101C700040F2DB51A2B2091B0220A854641C091BCC
:101C8000A6B241F21C03DFF8642A89B2A81907F052
:101C9000EFFF0419A1B203206854641C0AF0D0F9C4
:101CA000022118A805F058FE07F047FE8DF85400F1
:101CB00040F2DC5607F0AFFC361B00B101270CF0F8
:101CC0002EF9804608F018FD814607F039FE82465D
:101CD0000AF00AFC83460AF079FA05F2646114916D
:101CE00005F5CB6205F24C631392129305F5C861BA
:101CF000119105F5C56205F23461109105F21C637E
:101D00000F920E9305F5C2610D91059005F20461E5
:101D10000C9118A89DF85420079204901BA90391D8
:101D20001EAB24AA21A8029301920090B1B2A6B2E0
:101D3000CDF82C80CDF82890CDF824A0CDF820B097
:101D4000069727ABDFF8A82BA81907F091FF54FAE4
:101D500080F4A1B204206854641CD048C046C04638
:101D6000A0B2C046C046CE48C046C046A1B2284632
:101D7000C046C046CB48C046C0460CF011FA012808
:101D800003D1A2B22946022004E00CF009FA18B9E6
:101D9000A2B229460AF032FB00F0C2F800202BB0B4
:101DA000BDE8F08F70B5DFF850490021217090B088
:101DB00000200CF00BFA022108A805F0CDFD01204F
:101DC0000CF004FA022105A805F0C6FD0AF0E6F9B8
:101DD000022102A805F0C0FD0120207009F090FC4E
:101DE0001122ADF800206B460BAA05F0DDFEFF23A3
:101DF000DFF8082940F2DB51601C07F039FF451C71
:101E000040F2DB51AAB2491B0220A0546D1C491BB1
:101E1000AEB241F21D03DFF8D42889B2A01907F051
:101E200027FF4519A9B20320605402AA05AB6D1C17
:101E30000192009340F2DC51491BA8B208AB0FF2AB
:101E40004C0289B2204407F013FF55FA80F5AAB27C
:101E50000421A1546D1C9148C046C046A8B2C0469A
:101E6000C0468F48C046C046A9B22046C046C046BC
:101E70008C48C046C046A9B220460AF09FFA00F03E
:101E80004FF8002010B070BDE01B000025732C251A
:101E9000732C257300000000F8B50546DFF8584A9A
:101EA000002020700121217086B009F029FC112248
:101EB000ADF800206B4601AA05F076FEFF23DFF89F
:101EC0003C28C721601C07F0D3FE461CB2B2C6F105
:101ED000C7010220A054761C891BB7B241F211132E
:101EE000DFF8082889B2E01907F0C2FE8619B1B2FE
:101EF00003206054761CB6B2C6F1C8012B46D8A2A6
:101F000089B2A01907F0B4FE56FA80F080B204211D
:101F10002154401C80B200222254204607B0F0BD5C
:101F200040F2DC51DFF8D0070CF0A6B9F8B5044652
:101F300086B00D4601202070164629884A1E2A8048
:101F4000112709F0DDFBADF800706B4601AA05F022
:101F50002BFE2988DFF8A427FF23601C07F088FEEA
:101F6000471C2888C01BBAB228800221A1547F1CBC
:101F70002988DFF87827C91B2980B8B2334689B28F
:101F8000204407F075FEC719BAB20321A1547F1C83
:101F90002F80012007B0F0BD2DE9F84386B004463C
:101FA0008946C046C04606232C226946204605F0D5
:101FB00031FD07460FF2F400C046C0460026012F4F
:101FC0000CDB6C46B846A7A554F8040BC046C046C7
:101FD0002846C046C046B8F10108F5D1062F52D1B7
:101FE0000098DFF8D02A09F1040104F0DFF8471E59
:101FF0000198DFF8C42A09F10801BF4104F0D6F8BE
:10200000FF4300EAD77702987C1EDFF8B07A3A46A1
:1020100009F10C01A44104F0C9F8E44300EAD474C6
:102020000298651E3A4609F11001AD4104F0BEF870
:10203000ED4300EAD57503986C1E3A4609F1140188
:10204000A44104F0B3F8E44300EAD4740398651E95
:102050003A4609F11801AD4104F0A8F8ED4300EA51
:10206000D5750498DFF8382C6F1E4946BF4104F03F
:102070009DF8FF4310EAD77F0AD10FF24C00C0460B
:10208000C046042604E00FF26000C046C0460326A6
:102090003046E1E0384F00005AA6FF1F9C70000058
:1020A000AC700000B8700000D07AFF1F0A50574D86
:1020B00020536574205265636569766564205661B6
:1020C0006C756573203A00000A2050776D205365C7
:1020D0007456616C75652F73204F7574206F662080
:1020E00052616E67650000000A2050776D205365CD
:1020F0007456616C75652F7320496E76616C6964E6
:10210000000000002DE9F043044687B00FF2641090
:10211000DFF8909BC046C0462046C046C046072315
:102120002C226946204605F075FC07464846C04605
:10213000C0460025012F0CDB6C46B84649A654F872
:10214000040BC046C0463046C046C046B8F1010840
:10215000F5D1072F7AD109F0A7FA07460098102188
:1021600005F0CFFD441E0198A441402105F0C9FDB2
:10217000E44300EAD4740298661EB641022105F0D9
:10218000C0FDF643039A00EAD676711E89411078A5
:10219000C943002818BF302806D0312806D150780E
:1021A000401E8041C00F02E0012000E00020049AA0
:1021B00000EAD1711078002818BF302806D03128E5
:1021C00006D15078401E8041C00F02E0012000E09F
:1021D0000020059A01401078002818BF302806D04A
:1021E000312806D15078401E8041C00F02E0012006
:1021F00000E00020014223D0009A1121384607F068
:1022000037FD019A412107F1110007F031FD029AD3
:10221000032107F1520007F02BFD03990A7807F11B
:1022200055000270049B19784170059A11788170ED
:10223000012009F0BCFB0FF25C00C046C0460AE07A
:1022400009F12C00C046C046042504E009F1540001
:10225000C046C0460325284607B0BDE8F08300000D
:10226000255800002C0000001058FF1FE456FF1FE7
:10227000EC56FF1F0D0A496E2050726F6365737331
:102280005365745A6967626565436F6E6669672D49
:102290003E0000000A5A696762656520436F6E66FA
:1022A00069672020536574002DE9FE4304460FF250
:1022B0009800DFF8F899C046C0462046C046C046A0
:1022C00002232C226946204605F0A4FB0746484617
:1022D000C046C0460025012F0BDBE8463C4657A60A
:1022E00058F8040BC046C0463046C046C046641E7F
:1022F000F6D1022F1CD10098017861B130290DD0A0
:10230000312904BF4078002808D009F130000BF0D3
:10231000B6FF042511E04FF0FF3002E0A1F13000DC
:1023200040B209F047FB0FF23C00C046C04604E053
:1023300009F15C00C046C0460325FEF7FABC000068
:1023400024A6FF1FA4FF01000D0A496E2050726FE2
:102350006365737352657365745A69676265654E28
:10236000572D3E000A5A696762656520204E772026
:10237000526573657420205365740000F056FF1F8A
:10238000C8FF0100F8B50446DB4E0D460020307052
:102390000121317086B009F0B3F91127ADF8007052
:1023A0006B4601AA05F000FCFF23D44A40F2DB5142
:1023B000701C07F05DFC471C40F2DB51BAB2C91B30
:1023C0000220B0547F1CC91B1FFA87FC42F2010394
:1023D000C64A89B206EB0C0007F04AFCC719B9B22D
:1023E00003207F1C7054BFB240F2DC51C91B009522
:1023F00023460FF24C0289B2F01907F039FC57FA64
:1024000080F4A4B204203055641CDFF8640BC0468D
:10241000C046A4B22046C046C046DFF8580BC046AE
:10242000C04621463046C046C046DFF84C0BC04689
:10243000C046FFF775FD002007B0F0BD2C0000007E
:1024400025642C2530303058000000002DE9F84775
:10245000ADF5006DB9B00446C046C04603232C223A
:1024600003A9204605F0D6FA0646DFF8100BC04651
:10247000C0460025002E0DDD0DF10C0934460FF28B
:10248000742859F8040BC046C0464046C046C046B2
:10249000641EF6D1032E3DD10399087800281FBF92
:1024A00003AE71680878002834D003980A2200210E
:1024B00005F0FEFB044670680A22002105F0F8FBD7
:1024C0000646A64220D340F2012086421CD2DCB14F
:1024D00000962346DFF8A82A322106A807F0C8FB99
:1024E00006A8C046C046B3B2A2B2322106A80BF07D
:1024F000CAFE80460FF208200FF21C29C046C046D3
:102500000024252606AF38E0DFF8780AC046C0462A
:102510000425E2E0DFF8700AC046C0460325DCE08F
:102520004179827942EA012201920DF5D47C007949
:10253000009006FB04FE4A4624210CEB0E0018E036
:1025400006A800EBC40043780178C2781B0443EA74
:102550000163817843EA01231343002CE0D17879A9
:10256000B97941EA002101914A4638790090252144
:102570006AA807F07DFB641CE4B2444501D2322C0A
:10258000DEDB5D4C40F2DC51ADF80810257009F03F
:102590004DFF022841F21F070FF2581957D109F0D9
:1025A000AFF8CDE900013A4602A920460BF06CFFD6
:1025B000BDF808700FF26C1A40F2DC50C01BADF889
:1025C0000800E5552046C046C0467A1E92B2214614
:1025D000022009F013FF5046C046C0460C22514667
:1025E000022009F00BFF00271DE06AA806FB07F197
:1025F00000EB010A5046C046C046504607F00CFAB0
:1026000082B25146022009F0F9FEA8EB0700022829
:1026100007D301224946022009F0F0FE4846C04691
:10262000C0467F1CBFB24745DFD3FFF779FC5D2072
:10263000207022217D226170A270E5702046C04684
:10264000C04603222146022009F0D8FE45E03A4662
:1026500002A92046FFF76AFCBDF8087040F2DC5082
:10266000C01BADF808003A462146002009F0C6FE1E
:10267000E5552046C046C04600271DE06AA806FB77
:1026800007F100EB010A5046C046C046504607F02D
:10269000C3F982B25146002009F0B0FEA8EB070052
:1026A000022807D301224946002009F0A7FE484628
:1026B000C046C0467F1CBFB24745DFD3FFF730FCA2
:1026C0005D20042120706170A57002222146002047
:1026D00009F094FE2046C046C046FFF721FC0DF5E8
:1026E000006D28463AB0BDE8F0870000844E000037
:1026F0009050FF1F2C0000003882FF1F7C4E00000E
:102700000D0A496E204150492050726F6365737302
:10271000696E672D3E0000005B256C642C25642CDF
:1027200025645D002C2256414C554553223A225BCC
:10273000000000002DE9F04F0546D9B0DFF84C0845
:10274000C046C0462846C046C04617232C2210A9C2
:10275000284605F05FF90646DFF83408C046C04653
:102760000024012E0CDB0DF14008354661A758F816
:10277000040BC046C0463846C046C0466D1EF6D162
:10278000172E00F3AF801099087800281FBF10ADF6
:1027900069680878002800F0A58010980A220021B6
:1027A00005F086FA834668680A22002105F080FA5F
:1027B00005465D45C0F09080152D80F08D80BBF101
:1027C000000F00F0898000955B46DFF8B4273221C6
:1027D00003A807F04DFA03A8C046C046A5EB0B05B9
:1027E0006D1C0095F61EDFF8E80BC046C046009849
:1027F000C046C046DFF8DC0BC046C0463046C04687
:10280000C0460098B04271D105F0F7FA054627A8F6
:102810002946C8220BF0ACFEABF10108474627A8B9
:1028200010AA00EB870102EB8700012601F1140AD0
:1028300000F10809CDF804B00AE00120064002D0FA
:1028400027A90120C8557F1C09F104090AF1040ACF
:10285000009801990818401E029002998F4211D2E7
:10286000D9F8003018780028E7D00A22002118464D
:1028700005F01EFA83460120C0460028DED0CAF8C3
:1028800000B0DAE7DDF800900F2F27AA05DA4AF842
:10289000044BD4557F1C0F2FF9DBDFF83C0BB6B18E
:1028A000C046C046284627A9C8220BF061FE019801
:1028B00005EB8801484401F11405461EB04516D2C7
:1028C00055F8040BC046C04608F10108F6E724306D
:1028D000C046C04604240AE0DFF8000BC046C046EC
:1028E000042404E0DFF8F80AC046C0460324D0E11F
:1028F00020FA01002C000000B89DFF1F2DE9F04FC9
:10290000044691B0DFF8DC0AC046C0462046C04607
:10291000C04603232C2201A9204605F07BF805467A
:10292000DFF85806C046C046012D4FF000080BDB0B
:1029300001AF2C465EA657F8040BC046C046304691
:10294000C046C046641EF6D1032D72D101990878A5
:1029500000281FBF01AC61680878002869D0019881
:102960000A22002105F0A4F9054660680A22002128
:1029700005F09EF90446AC4254D3152C52D2002DDA
:1029800050D0601B15284DD200942B46DFF8F0255F
:10299000322104A807F06CF904A8C046C046DFF84D
:1029A000F87487F80080012139700FF2F02A08F0DE
:1029B000A7FE1122ADF800206B4604AA05F0F4F83A
:1029C000FF23DFF8242A40F2DB51781C07F050F98E
:1029D000461C40F2DB51B2B2891B0220B854761C6F
:1029E000891B1FFA86FC41F23703DFF8002A89B2FF
:1029F00007EB0C0007F03CF98619B1B203207854BC
:102A0000761C40F2DC50A0EB060905F0F6F9014611
:102A1000284601EB8001354601F1100B1FFA89F9B8
:102A2000064618E0DFF8C809C046C0464FF0040863
:102A30003CE0DFF8C009C046C0464FF0030835E06F
:102A40005BF8043BA8B252464946384407F010F9F7
:102A500055FA80F5761CB442F2D26C1EA1B2042065
:102A60007854641CDFF80805C046C046A0B2C046D2
:102A7000C046DFF80005C046C046A1B23846C04691
:102A8000C046DFF8F404C046C0460BF089FB0128BD
:102A900003D1A2B23946022004E00BF081FB18B941
:102AA000A2B2394609F0AAFCFFF73AFAF0E10000B9
:102AB0002C000000CB7C0000CF7C0000C77C000015
:102AC0002DE9F04F0546D9B00FF2E410C046C046DC
:102AD0002846C046C04617232C2210A9284604F0D9
:102AE00099FF06460FF2E410C046C0460024012EAE
:102AF0000CDB10AF35460FF2B01857F8040BC04688
:102B0000C0464046C046C0466D1EF6D1172E00F3A3
:102B1000BB801099087800281FBF10AD696808783D
:102B2000002800F0B18010980A22002105F0C0F8BA
:102B3000834668680A22002105F0BAF805465D451B
:102B4000C0F09C80152D80F09980BBF1000F00F043
:102B5000958000955B46DFF82824322103A807F012
:102B600087F803A8C046C046A5EB0B056D1C009571
:102B7000F61EDFF85C08C046C0460098C046C04656
:102B8000DFF85008C046C0463046C046C0460098F0
:102B9000B0427DD105F031F9054627A82946C82263
:102BA0000BF0E6FCABF1010627A8304400F1640706
:102BB00027A910A801EB860200EB86014FF0010A5D
:102BC00002F1780801F10809CDF804B00BE001200A
:102BD00010EA0A0A1CBF01203870761C09F10409AA
:102BE00008F104087F1C009801990818401E029003
:102BF00002998E4211D2D9F8003018780028E6D018
:102C00000A220021184605F053F883460120C046E9
:102C10000028DDD0C8F800B0D9E7009F0F2E0BDAEE
:102C200027A800EB860101F1140027AB40F8044B04
:102C30009C55761C0F2EF9DBBAF1000FDFF89807D0
:102C400017D0C046C046284627A9C8220BF090FCE2
:102C5000019E0198761E05EB8601C71901F17805E2
:102C60007F1EBE4215D255F8040BC046C046761CE6
:102C7000F7E72430C046C04604240AE0DFF85C07CA
:102C8000C046C046042404E0DFF85407C046C046EE
:102C90000324204659B0BDE8F08F000025642C00C5
:102CA000D37C000044EE01002C000000BCED0100CC
:102CB0000D0A496E2050726F6365737353657454C7
:102CC0007261636B496E666F2D3E00000A5472613B
:102CD000636B20496E666F20526563656976656433
:102CE0002056616C756573203A0000002DE9F04FA5
:102CF000044691B00FF2A410C046C0462046C0461C
:102D0000C04603232C2201A9204604F083FE054679
:102D10009A48C046C046012D4FF000080BDB01AFBA
:102D20002C4691A657F8040BC046C0463046C04614
:102D3000C046641EF6D1032D70D101990878002891
:102D40001FBF01AC61680878002867D001980A228B
:102D5000002104F0ADFF054660680A22002104F05E
:102D6000A7FF0446AC4252D3152C50D2002D4ED0B2
:102D7000601B15284BD200942B46814A322104A8AF
:102D800006F076FF04A8C046C046434F87F800808F
:102D9000012139700FF2D41A08F0B2FC1122ADF8FB
:102DA00000206B4604AA04F0FFFEFF23DFF838265C
:102DB00040F2DB51781C06F05BFF461C40F2DB5111
:102DC000B2B2891B0220B854761C891B1FFA86FCFC
:102DD00041F23803DFF8142689B207EB0C0006F045
:102DE00047FF8619B1B203207854761C40F2DC50BC
:102DF000A0EB060905F001F80146284601EB800129
:102E0000354601F1740B1FFA89F9064618E0DFF820
:102E1000E005C046C0464FF0040839E0DFF8D405AD
:102E2000C046C0464FF0030832E05BF8043BA8B24E
:102E300052464946384406F01BFF55FA80F5761C89
:102E4000B442F2D26C1EA1B204207854641C4848EB
:102E5000C046C046A0B2C046C0464648C046C0466E
:102E6000A1B23846C046C0464348C046C0460BF0F3
:102E700097F9012803D1A2B23946022004E00BF0F1
:102E80008FF918B9A2B2394609F0B8FAFFF748F835
:102E9000404611B0BDE8F08F3882FF1F0D0A496E21
:102EA0002050726F63657373476574547261636B0E
:102EB000496E666F2D3E00002DE9F843044688B048
:102EC0000FF2D000C046C0462046C046C04604F0BF
:102ED00098FF814602232C226946204604F09AFD81
:102EE00007460FF2D000C046C0460025012F0BDB7D
:102EF000E8463C461CA658F8040BC046C04630467F
:102F0000C046C046641EF6D1022F24D1009806F0B8
:102F100083FD00B3009806F07FFD112805D3DFF88C
:102F2000740BC046C04604251AE00FF2A800C04644
:102F3000C046009804F015FEC9E9000102AB142058
:102F4000ADF8080003AAD9E9000104F02DFE03A89A
:102F5000C046C04604E0DFF8540DC046C046032515
:102F6000284609B0BDE8F0832C00000025642C0041
:102F70009C700000AC700000B8700000C06C0000D5
:102F8000005C000068F801008CF80100B02C000023
:102F9000CC2C00000D0A496E2050726F636573736C
:102FA0002053657420436C65616E6572204D41430A
:102FB0002D3E00000A436C65616E6572204D4143F1
:102FC0002052656365697665642056616C7565732A
:102FD000203A00000A20436C65616E6572204D4105
:102FE000432053657456616C75652F732073657447
:102FF000203A20002DE9F04FADF5C06DA5B00021BD
:1030000004468DF80410DFF8900AC046C0462046FA
:10301000C046C0462B232C2212A9204604F0FAFCFD
:103020000646DFF8784A2046C046C046012E0CDB33
:1030300012ADB146A0A755F8040BC046C0463846AD
:10304000C046C046B9F10109F5D12B2E00F3B68177
:103050001299087800281FBF12AF796808780028F5
:1030600000F0AC8112980A22002104F021FE814672
:1030700078680A22002104F01BFE05464D45C0F089
:103080009781152D80F09481B9F1000F00F09081A7
:1030900000954B46DFF81C2C322105A806F0E8FD10
:1030A00005A8C046C046A5EB09056D1C0095361F56
:1030B000C748C046C0460098C046C046C548C0463E
:1030C000C0463046C046C04600984000B04240F07E
:1030D000798104F098FE02903DA80299DFF8D88B20
:1030E0004FF4B4620BF044FAB868012506F00AFF09
:1030F0000128C8F800006BD100994944491EA9F184
:10310000010A3DA80391761C032700EBCA040DF1C8
:103110005408049607E0012005400AF1010ABF1C8B
:1031200008F1080808340398824525D20499B94269
:1031300022D3D8F80030187848B10A220021184666
:1031400004F0B6FD06460120C04608B12660012005
:10315000D8F8043005401878261D0028DBD00A2254
:103160000021184604F0A4FD83460120C046002833
:10317000D2D0C6F800B0CEE7002D00F02681DFF8EF
:103180003C0BC046C04602983DA94FF4B4620BF018
:10319000EFF900990298A9F1010A894400EBCA07E6
:1031A000A9F101040FF2242843A5A24580F00D8166
:1031B0003868C046C0462846C046C0467868C04603
:1031C000C0464046C046C0460AF1010A0837ECE74F
:1031D000022873D1761C0496A9F1010A3DA800EBE0
:1031E000CA01009E032701F1480815AC09E001203F
:1031F0009DF8005005400AF1010ABF1C083408F18F
:10320000080809EB0600401E03900398824527D268
:103210000499B94224D32368187850B10A220021B6
:10322000184604F045FD83460120C04610B1C8F899
:1032300000B0012005408DF8005008F104056368D6
:1032400018780028D3D00A220021184604F030FD57
:1032500083460120C0460028CAD0C5F800B0C6E7A2
:10326000002D00F0B280DFF8540AC046C046029834
:103270003DA94FF4B4620BF07BF90298A9F1010A61
:1032800000EBCA014E4401F14807761E4FA50FF22C
:103290002809B24580F099803868C046C046484643
:1032A000C046C0467868C046C0462846C046C046AC
:1032B0000AF1010A0837ECE72C00000003286FD15F
:1032C000761C0496A9F1010A3DA800EBCA01009EF4
:1032D000032701F1900815AC09E001209DF800508A
:1032E00005400AF1010ABF1C083408F1080809EB7F
:1032F0000600401E03900398824527D20499B942E4
:1033000024D32368187850B10A220021184604F00B
:10331000CFFC83460120C04610B1C8F800B00120A0
:1033200005408DF8005008F10405636818780028FE
:10333000D3D00A220021184604F0BAFC83460120AB
:10334000C0460028CAD0C5F800B0C6E7002D3CD062
:10335000DFF86809C046C04602983DA94FF4B46240
:103360000BF006F90298A9F1010A00EBCA014E44DC
:1033700001F19007761E15A50FF23C39B24524D213
:103380003868C046C0464846C046C0467868C04611
:10339000C0462846C046C0460AF1010A0837EDE794
:1033A00004208DF8040004F12400C046C0460CE05F
:1033B00004F14C00C046C046042004E004F1700053
:1033C000C046C04603208DF804007DE220200000A6
:1033D000205A00003C5A0000F8EB010048EC0100C4
:1033E0006CEC01009C2E00007C4E0000844E00001E
:1033F00068F6010094F601002DE9F84F044692B0FA
:10340000DFF8640AC046C0462046C046C0460423D2
:103410002C2201A9204604F0FDFA0546DFF84C0AEB
:10342000C046C046002D4FF000080BDD01AF2C4612
:10343000A1A657F8040BC046C0463046C046C04659
:10344000641EF6D1042D40F096800199087800287A
:103450001FBF01AD69680878002800F08C800198D2
:103460000A22002104F024FC044668680A22002194
:1034700004F01EFC0546A54217D3292D15D2A4B190
:10348000281B292811D200952346DFF8282832214D
:1034900005A806F0EDFB05A8C046C046039806F057
:1034A00031FDDFF8DC1B086005E0DFF8D80BC04613
:1034B000C0464FF004086D1EB8F1000FA4F1010AD8
:1034C00040F0F580DFF8C07B87F80080012139707B
:1034D000112408F015F9ADF800406B4605AA04F078
:1034E00063FBFF23DFF8A42B40F2DB51781C06F0CE
:1034F000BFFB441C40F2DB51A2B2091B0220B854AE
:10350000641C091BA6B241F24103DFF8842B89B287
:10351000B81906F0ADFB0419A1B203207854641C5D
:1035200004F071FCDFF8581B096840F2DC56361BCA
:10353000012927D100EBCA0BB6B2DFF8589B5545DD
:10354000C0F08A805BF8043BA0B24A46314638445A
:1035500006F08EFB54FA80F45BF8043B1FFA84FCFF
:103560004A46314607EB0C0006F082FB54FA80F421
:103570000AF1010AE3E7DFF8200BC046C0464FF02E
:10358000030894E0022921D100EBCA0000F1480BA6
:10359000B6B2DFF8009B55455ED35BF8043BA0B2A2
:1035A0004A463146384406F063FB54FA80F45BF82F
:1035B000043B1FFA84FC4A46314607EB0C0006F038
:1035C00057FB54FA80F40AF1010AE4E7032921D1F8
:1035D00000EBCA0000F1900BB6B2DFF8B89A55457F
:1035E0003AD35BF8043BA0B24A463146384406F071
:1035F0003FFB54FA80F45BF8043B1FFA84FC4A4614
:10360000314607EB0C0006F033FB54FA80F40AF164
:10361000010AE4E704291FD100EBCA0BB6B2DFF8B8
:10362000749A17E05BF8043BA0B24A46314638442E
:1036300006F01EFB54FA80F45BF8043B1FFA84FC8E
:103640004A46314607EB0C0006F012FB54FA80F4B0
:103650000AF1010A5545E5D2641EA1B2042078544E
:10366000641CDFF8380AC046C046A0B2C046C04657
:10367000DFF8DC0BC046C046A1B23846C046C046A3
:10368000DFF8D00BC046C0460AF08AFD012803D1FE
:10369000A2B23946022004E00AF082FD18B9A2B2B3
:1036A000394608F0ABFEFEF73BFCFEF739FC40461E
:1036B00013B0BDE8F08F00002C0000002DE9F04FA2
:1036C000ADF5C06DA5B0002104468DF80410DFF8FB
:1036D000C803C046C0462046C046C0462B232C2205
:1036E0000DF5BD61204604F095F90546DFF8AC0301
:1036F000C046C046012D0CDB0DF5BD6A2C4676A7F1
:103700005AF8040BC046C0463846C046C046641E40
:10371000F6D12B2D00F3D180DDF8E81508780028CC
:103720001FBF0DF5BD6461680878002800F0C580F2
:10373000DDF8E8050A22002104F0BAFA8346606841
:103740000A22002104F0B4FA04465C45C0F0AF80C0
:10375000152C80F0AC80BBF1000F00F0A880009425
:103760005B46DFF85025322105A806F081FA05A84E
:10377000C046C046A4EB0B04641C0294ED1EDFF8A7
:10378000DC0AC046C0460298C046C046DFF8D00AF0
:10379000C046C0462846C046C04602984000A842DF
:1037A00040F08F8004F02FFB049012A804994FF48E
:1037B000B4620AF0DDFEABF10104A24612A800EBF0
:1037C000CA010126022701F5F0780DF5BE69CDF892
:1037D0000CB00AE001209DF8006006400AF1010AE1
:1037E000BF1C09F1080908F1080802980399081894
:1037F000401E009000998A4528D2BD4226D3D9F8B0
:103800000030187850B10A220021184604F050FA0E
:1038100083460120C04610B1C8F800B00120064020
:103820008DF8006008F10406D9F8043018780028F3
:10383000D0D00A220021184604F03AFA834601202B
:10384000C0460028C7D0C6F800B0C3E7029D36B313
:10385000DFF86804C046C046049812A94FF4B46269
:103860000AF086FE049800EBC4010398451901F59F
:10387000F0776D1E0FF214280FF25C0AAC4223D2CF
:103880003868C046C0465046C046C0467868C04604
:10389000C0464046C046C046641C0837EEE70420D8
:1038A0008DF80400DFF8CC0BC046C0460CE0DFF812
:1038B000C80BC046C046042004E0DFF8C00BC04679
:1038C000C04603208DF804009DF804000DF5C06D7E
:1038D00025B0BDE8F08F00002C0000002DE9F04F6E
:1038E000044691B0DFF88005C046C0462046C04679
:1038F000C04603232C2201A9204604F08BF805467C
:10390000DFF86805C046C046012D4FF000080BDB0C
:1039100001AE2C465EA756F8040BC046C04638469A
:10392000C046C046641EF6D1032D6ED101990878B9
:1039300000281FBF01AD69680878002865D001988C
:103940000A22002104F0B4F9044668680A22002122
:1039500004F0AEF90546A54250D3152D4ED2002CE9
:103960004CD0281B152849D200952346D14A322134
:1039700004A806F07DF904A8C046C046DFF8087721
:10398000DFF810A787F8008001213970A5F1010B3D
:1039900007F0B6FE1125ADF800506B4604AA04F0FE
:1039A00003F9FF23DFF8E42640F2DB51781C06F030
:1039B0005FF9461C40F2DB51B2B2891B0220B854B9
:1039C000761C891BB5B241F24203DFF8C42689B2E6
:1039D000781906F04DF98619B1B203207854761C97
:1039E00040F2DC50A0EB060904F00DFA641E00EB77
:1039F000C40000F5F0751FFA89F924E0DFF88406A9
:103A0000C046C0464FF004083DE0DFF88C06C046D3
:103A1000C0464FF0030836E055F8043BB0B25246BA
:103A20004946381806F024F956FA80F655F8043B52
:103A30001FFA86FC5246494607EB0C0006F018F9BF
:103A400056FA80F6641CA345E6D2741EA1B2042087
:103A50007854641CDFF84406C046C046A0B2C04695
:103A6000C046DFF8EC07C046C046A1B23846C046A3
:103A7000C046DFF8E007C046C046A1B2384608F0AD
:103A80009DFCFEF74DFAFFF703BA0000202000006E
:103A90002C000000B4F80100444C000028ED0100A7
:103AA0002DE9F04FADF5C06DA5B0002104468DF8AD
:103AB0000410DFF8840BC046C0462046C046C0460E
:103AC0002B232C220DF5BD61204603F0A3FF0546F4
:103AD000DFF8680BC046C046012D0CDB0DF5BD6A52
:103AE0002C4673A75AF8040BC046C0463846C04659
:103AF000C046641EF6D12B2D00F3CF80DDF8E8150B
:103B0000087800281FBF0DF5BD646168087800289B
:103B100000F0C380DDF8E8050A22002104F0C8F8AF
:103B2000834660680A22002104F0C2F804465C451E
:103B3000C0F0AD80152C80F0AA80BBF1000F00F022
:103B4000A68000945B465B4A322105A806F090F8F7
:103B500005A8C046C046A4EB0B04641C0294ED1EED
:103B6000DFF8F806C046C0460298C046C046DFF8F7
:103B7000F006C046C0462846C046C04602984000EF
:103B8000A84240F08E8004F03EF9049012A80499F7
:103B90004FF4B4620AF0ECFCABF10104A24612A8A7
:103BA00000EBCA010126022701F520780DF5BE6958
:103BB000CDF80CB00AE001209DF8006006400AF143
:103BC000010ABF1C09F1080908F1080802980399C5
:103BD0000818401E009000998A4528D2BD4226D37D
:103BE000D9F80030187850B10A220021184604F0A4
:103BF0005FF883460120C04610B1C8F800B001202C
:103C000006408DF8006008F10406D9F804301878F1
:103C10000028D0D00A220021184604F049F8834633
:103C20000120C0460028C7D0C6F800B0C3E7029DF7
:103C30002EB32248C046C046049812A94FF4B4627D
:103C40000AF096FC049800EBC4010398451901F5AD
:103C500020776D1E0FF208280FF2540AAC4223D2CF
:103C60003868C046C0465046C046C0467868C04620
:103C7000C0464046C046C046641C0837EEE70420F4
:103C80008DF80400DFF8EC07C046C0460CE0DFF812
:103C9000E807C046C046042004E0DFF8E007C0465D
:103CA000C04603208DF804000EE60000DCF8010099
:103CB0002C000000005C0000ECA6FF1F644C00001C
:103CC0002DE9F04F044691B06748C046C0462046F3
:103CD000C046C04603232C2201A9204603F09AFEC9
:103CE00005466248C046C046012D4FF000080BDB78
:103CF00001AE2C465BA756F8040BC046C0463846BA
:103D0000C046C046641EF6D1032D6BD101990878D8
:103D100000281FBF01AD69680878002862D00198AB
:103D20000A22002103F0C4FF044668680A22002129
:103D300003F0BEFF0546A5424ED3152D4CD2002CF4
:103D40004AD0281B152847D200952346DFF8042BBC
:103D5000322104A805F08CFF04A8C046C046CA4F13
:103D6000DFF830A387F8008001213970A5F1010B3D
:103D700007F0C6FC1125ADF800506B4604AA03F00D
:103D800013FFFF23C14A40F2DB51781C05F070FF9E
:103D9000461C40F2DB51B2B2891B0220B854761C9B
:103DA000891BB5B241F24303B94A89B2781905F0CB
:103DB0005FFF8619B1B203207854761C40F2DC50C4
:103DC000A0EB060904F01FF8641E00EBC40000F528
:103DD00020751FFA89F922E0AA48C046C0464FF074
:103DE00004083BE0AC48C046C0464FF0030835E04D
:103DF00055F8043BB0B252464946381805F038FF32
:103E000056FA80F655F8043B1FFA86FC524649469E
:103E100007EB0C0005F02CFF56FA80F6641CA34556
:103E2000E6D2741EA1B204207854641C9B48C0469C
:103E3000C046A0B2C046C046DFF81404C046C04623
:103E4000A1B23846C046C046DFF80804C046C046A6
:103E5000A1B2384608F0B2FAFEF762F8FFF718B8D8
:103E6000202000002C0000003C4E00005C4E0000B2
:103E70002DE9F04FADF5C06DA5B0002104468DF8D9
:103E80000410DFF8B407C046C0462046C046C0460E
:103E90002B232C220DF5BD61204603F0BBFD05460A
:103EA000DFF89807C046C046012D0CDB0DF5BD6A52
:103EB0002C4672A75AF8040BC046C0463846C04686
:103EC000C046641EF6D12B2D00F3CF80DDF8E81537
:103ED000087800281FBF0DF5BD64616808780028C8
:103EE00000F0C380DDF8E8050A22002103F0E0FEBF
:103EF000834660680A22002103F0DAFE04465C452E
:103F0000C0F0AD80152C80F0AA80BBF1000F00F04E
:103F1000A68000945B46DFF83C29322105A805F015
:103F2000A7FE05A8C046C046A4EB0B04641C02947F
:103F3000ED1ECA48C046C0460298C046C046C848A2
:103F4000C046C0462846C046C04602984000A84227
:103F500040F08F8003F057FF049012A804994FF4AB
:103F6000B4620AF005FBABF10104A24612A800EB13
:103F7000CA010126022701F548780DF5BE69CDF882
:103F80000CB00AE001209DF8006006400AF1010A29
:103F9000BF1C09F1080908F10808029803990818DC
:103FA000401E009000998A4528D2BD4226D3D9F8F8
:103FB0000030187850B10A220021184603F078FE2C
:103FC00083460120C04610B1C8F800B00120064069
:103FD0008DF8006008F10406D9F80430187800283C
:103FE000D0D00A220021184603F062FE8346012049
:103FF000C0460028C7D0C6F800B0C3E7029D36B35C
:10400000DFF8080AC046C046049812A94FF4B4620B
:104010000AF0AEFA049800EBC4010398451901F5C3
:1040200048776D1E0FF224280FF2500AAC4223D2BB
:104030003868C046C0465046C046C0467868C0464C
:10404000C0464046C046C046641C0837EEE7042020
:104050008DF80400DFF81C04C046C0460CE0DFF811
:104060001804C046C046042004E0DFF81004C0462F
:10407000C04603208DF8040026E400002C00000058
:10408000F0A6FF1FC0F601003882FF1F7C4E000023
:10409000844E0000205C0000ECF601009C700000E3
:1040A0002DE9F04F044691B0DFF8780BC046C046CA
:1040B0002046C046C04603232C2201A9204603F017
:1040C000A9FC0546DFF8600BC046C046012D4FF045
:1040D00000080BDB01AE2C465FA756F8040BC04668
:1040E000C0463846C046C046641EF6D1032D6FD187
:1040F0000199087800281FBF01AD69680878002879
:1041000066D001980A22002103F0D2FD04466868B7
:104110000A22002103F0CCFD0546A54251D3152DFE
:104120004FD2002C4DD0281B15284AD2009523468B
:10413000DFF82027322104A805F09AFD04A8C04624
:10414000C046DFF8E87ADFF8E8AA87F800800121A6
:104150003970A5F1010B07F0D3FA1125ADF8005025
:104160006B4604AA03F020FDFF23DFF8C82A40F2C3
:10417000DB51781C05F07CFD461C40F2DB51B2B2ED
:10418000891B0220B854761C891BB5B241F2440346
:10419000DFF8A42A89B2781905F06AFD8619B1B250
:1041A00003207854761C40F2DC50A0EB060903F0A3
:1041B0002AFE641E00EBC40000F548751FFA89F959
:1041C00024E0DFF8780AC046C0464FF004083BE020
:1041D000DFF86C0AC046C0464FF0030834E055F8DB
:1041E000043BB0B252464946381805F041FD56FA34
:1041F00080F655F8043B1FFA86FC5246494607EB09
:104200000C0005F035FD56FA80F6641CA345E6D295
:10421000741EA1B204207854641CDFF81C0CC04644
:10422000C046A0B2C046C0460948C046C046A1B27A
:104230003846C046C0460748C046C046A1B23846C8
:1042400008F0BCF8FDF76CFEFEF722BE202000004F
:10425000AC700000B87000002C000000205A000074
:104260003C5A00002DE9F04FADF5C06DA5B000211E
:1042700004468DF80410DFF8C003C046C04620464F
:10428000C046C0462B232C220DF5BD61204603F00D
:10429000C1FB0546DFF8A403C046C046012D0CDB78
:1042A0000DF5BD6A2C4672A75AF8040BC046C046ED
:1042B0003846C046C046641EF6D12B2D00F3CF8091
:1042C000DDF8E815087800281FBF0DF5BD646168AA
:1042D0000878002800F0C380DDF8E8050A220021F4
:1042E00003F0E6FC834660680A22002103F0E0FC4C
:1042F00004465C45C0F0AE80152C80F0AB80BBF16D
:10430000000F00F0A78000945B46DFF848253221BB
:1043100005A805F0ADFC05A8C046C046A4EB0B04FB
:10432000641C0294ED1EDFF8600CC046C046029883
:10433000C046C046DFF8540CC046C0462846C046BA
:10434000C04602984000A84240F08C8003F05BFD1C
:10435000049012A804994FF4B4620AF009F9ABF181
:104360000104A24612A800EBCA010126022701F5AA
:1043700070780DF5BE69CDF80CB00AE001209DF80B
:10438000006006400AF1010ABF1C09F1080908F1A2
:104390000808029803990818401E009000998A4561
:1043A00028D2BD4226D3D9F80030187850B10A225D
:1043B0000021184603F07CFC83460120C04610B162
:1043C000C8F800B0012006408DF8006008F104062E
:1043D000D9F8043018780028D0D00A2200211846D5
:1043E00003F066FC83460120C0460028C7D0C6F80B
:1043F00000B0C3E7029D36B3DFF81006C046C046E2
:10440000049812A94FF4B4620AF0B2F8049800EBD1
:10441000C4010398451901F570776D1E0FF210283D
:104420000FF24C0AAC4220D23868C046C046504613
:10443000C046C0467868C046C0464046C046C046F2
:10444000641C0837EEE704208DF804000948C046D4
:10445000C0460AE00848C046C046042003E00748BA
:10446000C046C04603208DF80400FFF72DBA0000B7
:104470002C0000004CED010074ED010098ED0100EE
:104480002DE9F04F044691B0DFF89807C046C046CA
:104490002046C046C04603232C2201A9204603F033
:1044A000B9FA0546DFF88007C046C046012D4FF037
:1044B00000080BDB01AE2C465EA756F8040BC04685
:1044C000C0463846C046C046641EF6D1032D6ED1A4
:1044D0000199087800281FBF01AD69680878002895
:1044E00065D001980A22002103F0E2FB04466868C7
:1044F0000A22002103F0DCFB0546A54250D3152D0E
:104500004ED2002C4CD0281B152849D200952346AA
:10451000D04A322104A805F0ABFB04A8C046C0462F
:10452000DFF80877DFF808A787F8008001213970E5
:10453000A5F1010B07F0E4F81125ADF800506B462A
:1045400004AA03F031FBFF23DFF8E82640F2DB5139
:10455000781C05F08DFB461C40F2DB51B2B2891B82
:104560000220B854761C891BB5B241F24503DFF82E
:10457000C82689B2781905F07BFB8619B1B20320F1
:104580007854761C40F2DC50A0EB060903F03BFCAB
:10459000641E00EBC40000F570751FFA89F924E071
:1045A000DFF89806C046C0464FF004083DE0DFF84B
:1045B0009006C046C0464FF0030836E055F8043B6D
:1045C000B0B252464946381805F052FB56FA80F60A
:1045D00055F8043B1FFA86FC5246494607EB0C008F
:1045E00005F046FB56FA80F6641CA345E6D2741E1D
:1045F000A1B204207854641CDFF83C08C046C046D1
:10460000A0B2C046C046DFF8C40BC046C046A1B247
:104610003846C046C046DFF8640DC046C046A1B269
:10462000384607F0CBFEFDF77BFCFEF731BC0000FF
:10463000202000002C000000444C000028ED010068
:104640002DE9F04FADF5C06DA5B0002104468DF801
:104650000410DFF87C0BC046C0462046C046C0466A
:104660002B232C220DF5BD61204603F0D3F905461E
:10467000DFF8600BC046C046012D0CDB0DF5BD6AAE
:104680002C4673A75AF8040BC046C0463846C046AD
:10469000C046641EF6D12B2D00F3D080DDF8E8155E
:1046A000087800281FBF0DF5BD64616808780028F0
:1046B00000F0C480DDF8E8050A22002103F0F8FAD2
:1046C000834660680A22002103F0F2FA04465C4542
:1046D000C0F0AE80152C80F0AB80BBF1000F00F075
:1046E000A78000945B465B4A322105A805F0C0FA1A
:1046F00005A8C046C046A4EB0B04641C0294ED1E42
:10470000DFF88408C046C0460298C046C046DFF8BD
:104710007C08C046C0462846C046C04602984000B5
:10472000A84240F08F8003F06EFB049012A8049919
:104730004FF4B46209F01CFFABF10104A24612A8C9
:1047400000EBCA010126022701F58C680DF5BE6950
:10475000CDF80CB00AE001209DF8006006400AF197
:10476000010ABF1C09F1080908F108080298039919
:104770000818401E009000998A4528D2BD4226D3D1
:10478000D9F80030187850B10A220021184603F0F9
:104790008FFA83460120C04610B1C8F800B001204E
:1047A00006408DF8006008F10406D9F80430187846
:1047B0000028D0D00A220021184603F079FA834657
:1047C0000120C0460028C7D0C6F800B0C3E7029D4C
:1047D00036B30FF29040C046C046049812A94FF479
:1047E000B46209F0C5FE049800EBC40103984519B2
:1047F00001F58C676D1E0FF20C280FF2540AAC42C3
:1048000023D23868C046C0465046C046C046786885
:10481000C046C0464046C046C046641C0837EEE766
:1048200004208DF80400DFF85C0BC046C0460CE0A5
:10483000DFF8540BC046C046042004E0DFF8B40C97
:10484000C046C04603208DF80400FFF73DB80000C5
:104850002C000000005C00002DE9F04F044691B0F0
:10486000DFF8C003C046C0462046C046C04603230A
:104870002C2201A9204603F0CDF80546DFF8A80355
:10488000C046C046012D4FF000080BDB01AE2C46A0
:104890005DA756F8040BC046C0463846C046C04621
:1048A000641EF6D1032D6DD10199087800281FBF31
:1048B00001AD69680878002864D001980A220021B7
:1048C00003F0F6F9044668680A22002103F0F0F9C3
:1048D0000546A54250D3152D4ED2002C4CD0281B96
:1048E000152849D200952346DFF8102C322104A860
:1048F00005F0BEF904A8C046C046CC4FDFF830A38F
:1049000087F8008001213970A5F1010B06F0F8FE4F
:104910001125ADF800506B4604AA03F045F9FF23BA
:104920000FF2585240F2DB51781C05F0A1F9461CF9
:1049300040F2DB51B2B2891B0220B854761C891BAD
:10494000B5B241F246030FF23C5289B2781905F034
:104950008FF98619B1B203207854761C40F2DC50EE
:10496000A0EB060903F04FFA641E00EBC40000F54B
:104970008C651FFA89F922E0B048C046C0464FF066
:1049800004083CE0AE48C046C0464FF0030836E09D
:1049900055F8043BB0B252464946381805F068F95C
:1049A00056FA80F655F8043B1FFA86FC52464946F3
:1049B00007EB0C0005F05CF956FA80F6641CA34581
:1049C000E6D2741EA1B204207854641CDFF8680497
:1049D000C046C046A0B2C046C046DFF8F007C04699
:1049E000C046A1B23846C046C046DFF89009C0466E
:1049F000C046A1B2384607F0E1FCFDF791FAFEF798
:104A000047BA0000202000002C000000644C000089
:104A10002DE9F04FADF5C06DA5B0002104468DF82D
:104A200004100FF22020C046C0462046C046C046B3
:104A30002B232C220DF5BD61204602F0EBFF05462D
:104A4000DFF89007C046C046012D0CDB0DF5BD6AAE
:104A50002C4673A75AF8040BC046C0463846C046D9
:104A6000C046641EF6D12B2D00F3D180DDF8E81589
:104A7000087800281FBF0DF5BD646168087800281C
:104A800000F0C580DDF8E8050A22002103F010F9E6
:104A9000834660680A22002103F00AF904465C4557
:104AA000C0F0AF80152C80F0AC80BBF1000F00F09F
:104AB000A88000945B46DFF8442A322105A805F05F
:104AC000D7F805A8C046C046A4EB0B04641C0294AA
:104AD000ED1EDFF8B404C046C0460298C046C0468A
:104AE000DFF8A804C046C0462846C046C046029823
:104AF0004000A84240F08F8003F085F9049012A88E
:104B000004994FF4B46209F033FDABF10104A246FD
:104B100012A800EBCA010126022701F5A0680DF5D5
:104B2000BE69CDF80CB00AE001209DF80060064097
:104B30000AF1010ABF1C09F1080908F108080298E6
:104B400003990818401E009000998A4528D2BD425A
:104B500026D3D9F80030187850B10A22002118461F
:104B600003F0A6F883460120C04610B1C8F800B093
:104B7000012006408DF8006008F10406D9F80430E1
:104B800018780028D0D00A220021184603F090F8A7
:104B900083460120C0460028C7D0C6F800B0C3E74E
:104BA000029D36B30FF2BC00C046C046049812A95D
:104BB0004FF4B46209F0DCFC049800EBC4010398E4
:104BC000451901F5A0676D1E0FF268280FF2500A13
:104BD000AC4223D23868C046C0465046C046C046A4
:104BE0007868C046C0464046C046C046641C083788
:104BF000EEE704208DF80400DFF88807C046C046C1
:104C00000CE0DFF88407C046C046042004E0DFF86B
:104C1000E408C046C04603208DF80400FEF754BEE9
:104C20002C0000003C4E00005C4E00003882FF1F4C
:104C3000205C00007C4E0000844E0000C0F60100A5
:104C4000ECF601000D0A496E2050726F63657373B4
:104C5000536574526F774C656E6774684461746114
:104C60002D3E00000A20526F77204C656E677468F5
:104C70002053657456616C75652F732073657420BD
:104C80003A2000002DE9F04F044691B00FF2AC102D
:104C9000C046C0462046C046C04603232C2201A978
:104CA000204602F0B7FE05460FF2B010C046C046DF
:104CB000012D4FF000080BDB01AE2C46B1A756F8D2
:104CC000040BC046C0463846C046C046641EF6D1F6
:104CD000032D6FD10199087800281FBF01AD6968C5
:104CE0000878002866D001980A22002102F0E0FF2F
:104CF000044668680A22002102F0DAFF0546A54250
:104D000051D3152D4FD2002C4DD0281B15284AD237
:104D100000952346DFF8E427322104A804F0A8FF19
:104D200004A8C046C046DFF8FC7ADFF8FCAA87F882
:104D3000008001213970A5F1010B06F0E1FC11257D
:104D4000ADF800506B4604AA02F02EFFFF230FF2CD
:104D50002C1240F2DB51781C04F08AFF461C40F212
:104D6000DB51B2B2891B0220B854761C891BB5B244
:104D700041F247030FF20C1289B2781904F078FF60
:104D80008619B1B203207854761C40F2DC50A0EBB7
:104D9000060903F038F8641E00EBC40000F5A065B6
:104DA0001FFA89F924E0DFF8300CC046C0464FF006
:104DB00004083CE0DFF8240CC046C0464FF003086E
:104DC00035E055F8043BB0B252464946381804F075
:104DD0004FFF56FA80F655F8043B1FFA86FC524600
:104DE000494607EB0C0004F043FF56FA80F6641CBA
:104DF000A345E6D2741EA1B204207854641C0E4868
:104E0000C046C046A0B2C046C046DFF8C003C04698
:104E1000C046A1B23846C046C046DFF86005C0466D
:104E2000C046A1B2384607F0C9FAFDF779F8FEF797
:104E30002FB80000202000009C7000000D0A496E71
:104E40002050726F63657373476574526F774C655A
:104E50006E677468446174612D3E00000A5265718A
:104E60007565737420526F77204C656E6774682087
:104E700056616C756573203A000000002530325889
:104E80000000000025303458000000002DE9F043F8
:104E9000DFF8904985B00020207040F2DC53ADF877
:104EA000103041F2250204A92046FDF73FF8BDF875
:104EB000105040F2DC50401BADF8100009F09CFB94
:104EC000064609F0BBFB074609F0DAFB804604F012
:104ED0005AFF814604F050FF0346BDF810100FF250
:104EE000580203960297CDF80480CDF8009060191F
:104EF00004F0BEFE55FA80F5AAB20421A1546D1C3F
:104F0000DFF8DC0AC046C046A8B2C046C046AF487B
:104F1000C046C046A9B22046C046C046DFF85C0481
:104F2000C046C046A9B2204607F048FAFCF7F8FF91
:104F30000020FBF799BE000025642C25642C256415
:104F40002C25642C2564000038B5DFF8D8480020F3
:104F5000207040F2DC53ADF8003041F22602694681
:104F60002046FCF7E3FFBDF8005040F2DC50401B48
:104F7000ADF8000002F049FF0368BDF8001091A2EF
:104F800000F0D8BE2C000000205A00003C5A00005F
:104F90002DE9FE4F0546DFF8489C4846C046C0460E
:104FA0002846C046C04602F030FF04460223266869
:104FB0002C226946284602F02DFD054609F12800FD
:104FC000C046C046002755B3EA46A8460FF2F81B74
:104FD0005AF8040BC046C0465846C046C046B8F111
:104FE0000108F5D1022D1AD1009B187840B10A2290
:104FF0000021184602F05CFE06460120C04640B182
:10500000266009F18400C046C0462068C046C046FC
:105010000AE009F15400C046C046042704E009F143
:10502000AC00C046C0460327384601F080BA98B5A8
:1050300004460FF2640009F022F92046C046C0463B
:1050400002F0DBFE044602F0DEFE014604F114022B
:105050001420002742F8047B04F8017B0F6001F55F
:10506000F0734F601F605F6001F520731F605F6029
:1050700001F548731F605F6001F570731F605F602A
:1050800001F58C631F605F6001F5A0630831401E6D
:105090001F605F60DED192BD0D0A436C6561725482
:1050A0007261636B496E666F000000002DE9F84184
:1050B000044683B00FF2B800C046C0462046C04642
:1050C000C04602232C2201A9204602F0A3FC06467A
:1050D000DFF8F80BC046C0460025012E0CDB0DF1B1
:1050E0000408344638A758F8040BC046C046384672
:1050F000C046C046641EF6D1022E30D1019B1878FE
:1051000048B10A220021184602F0D2FD044602F0FE
:10511000D1FD50B100949DF8000010B1012808D0D5
:105120000EE007F017FA002006E00425DFF8500C27
:1051300012E007F00FFA012002F02FFE07F093F9BA
:10514000DFF83C4C04F12400C046C0469DF8000046
:10515000C046C04604F14800C046C04604E0DFF83F
:10516000240CC046C0460325284604B0BDE8F081A3
:105170000D0A496E2050726F6365737353657454E2
:1051800063436F6E74726F6C4D6F64652D3E0000EB
:1051900038B5DFF890460020207040F2DC53ADF8BF
:1051A000003041F2270269462046FCF7BFFEBDF8F9
:1051B000005040F2DC50401BADF8000002F0EAFD68
:1051C00000F0B4BD256C64002C000000AC70000041
:1051D000444C000028ED01002DE9F04F0546E3B0F6
:1051E000DFF8A40BC046C0462846C046C046172379
:1051F0002C2210A9284602F00DFC0646DFF88C0B85
:10520000C046C0460024002E0CDD0DF14008354696
:105210005BA758F8040BC046C0463846C046C04697
:105220006D1EF6D1172E00F3A38010990878002880
:105230001FBF10AD69680878002800F099801098A9
:105240000A22002102F034FD834668680A22002108
:1052500002F02EFD05465D45C0F08480152D80F0DE
:105260008180BBF1000F7DD000955B46A34A3221BF
:1052700003A804F0FDFC03A8C046C046A5EB0B053F
:105280006D1C0095DFF8F40BC046C0460098C04680
:10529000C046DFF8EC0BC046C046F01EC046C04614
:1052A0000098002868D002F0AAFD054627A82946E4
:1052B000F02209F05DF9502127A808F0DDFFABF1DD
:1052C0000108474610A800EB870127AA012601F133
:1052D000080902EB870ACDF804B006E00120064079
:1052E0007F1C0AF1040A09F10409009801990818C1
:1052F000401E029002998F4211D2D9F800301878DE
:105300000028EBD00A220021184602F0D1FC834687
:105310000120C0460028E2D0CAF800B0DEE7009FB6
:10532000D6B1DFF8E80BC046C046284627A9F022D0
:1053300009F01EF90198C71905EB88057F1E6EA6B6
:10534000B8451AD255F8040BC046C0463046C04690
:10535000C04608F10108F3E7DFF8B40BC046C046C9
:1053600004240AE0DFF8AC0BC046C046042404E085
:10537000DFF8F40CC046C046032494E1B870000086
:105380002C0000004CED010074ED01002DE9F84700
:10539000044691B0DFF8800BC046C0462046C046A8
:1053A000C04603232C2201A9204602F033FB064607
:1053B000DFF85C0CC046C0460025012E0CDB0DF169
:1053C00004083446BAA758F8040BC046C04638460D
:1053D000C046C046641EF6D1032E4CD10199087810
:1053E00000281FBF01AE71680878002843D00198DB
:1053F0000A22002102F05CFC044670680A220021A7
:1054000002F056FC8046A0452FD3B8F1150F2CD2E0
:105410005CB3A8EB0400152827D2CDF80080234602
:10542000364A322104A804F023FC04A8C046C04632
:1054300040F2DC51DFF8EC63DFF8ECA3ADF80010CC
:10544000357041F2390269463046FCF76FFDBDF810
:10545000007040F2DC50C01BADF8000002F0CFFC41
:1054600000EB8400A0F1040917E0DFF8080CC04647
:10547000C04604253CE0DFF8000CC046C0460325CA
:1054800036E059F8043BBDF80010B8B2524630443B
:1054900004F0EEFB57FA80F7641CA045F1D27C1EA5
:1054A000A1B204207054641CDFF83405C046C04625
:1054B000A0B2C046C046DFF8C40BC046C046A1B289
:1054C0003046C046C046DFF8DC0CC046C04608F097
:1054D00067FE012803D1A2B23146022004E008F0A1
:1054E0005FFE18B9A2B2314606F088FFFCF718FD3E
:1054F00091E1000098ED0100202C0000005C00000C
:105500002DE9F04F0546E3B00FF2D840C046C04643
:105510002846C046C04617232C2210A9284602F070
:1055200079FA06460FF2D840C046C0460024012E44
:105530000CDB0DF1400835465DA758F8040BC0465A
:10554000C0463846C046C0466D1EF6D1172E00F341
:10555000A5801099087800281FBF10AD69680878E9
:10556000002800F09B8010980A22002102F0A0FB86
:10557000834668680A22002102F09AFB05465D45D1
:10558000C0F08680152D80F08380BBF1000F00F005
:105590007F8000955B46DFF8102C322103A804F0D1
:1055A00067FB03A8C046C046A5EB0B056D1C009524
:1055B0000FF26C40C046C0460098C046C0460FF28D
:1055C0007C40C046C046F01EC046C0460098002839
:1055D00068D002F014FC054627A82946F02208F0FE
:1055E000C7FFABF10108474627A810AA00EB8701C7
:1055F00002EB8700012601F1500900F1080ACDF8FD
:1056000004B006E0012006407F1C0AF1040A09F1FB
:105610000409009801990818401E029002998F42CF
:1056200011D2DAF8003018780028EBD00A220021D5
:10563000184602F03DFB83460120C0460028E2D018
:10564000C9F800B0DEE7009FE6B10FF20840C0469F
:10565000C046284627A9F02208F08AFF019805EBEA
:105660008801C71901F150057F1E6DA6B8451AD2F1
:1056700055F8040BC046C0463046C046C04608F147
:105680000108F3E7DFF88808C046C04604240AE0B2
:10569000DFF88008C046C046042404E0DFF8C809EB
:1056A000C046C0460324204663B0BDE8F08F00002A
:1056B0002C0000002DE9F847044691B00FF2245069
:1056C000C046C0462046C046C04603232C2201A93E
:1056D000204602F09FF90646DFF83409C046C0466E
:1056E0000025012E0CDB0DF104083446B9A758F84B
:1056F000040BC046C0463846C046C046641EF6D1BC
:10570000032E4CD10199087800281FBF01AE7168A3
:105710000878002843D001980A22002102F0C8FA34
:10572000044670680A22002102F0C2FA8046A045B1
:105730002FD3B8F1150F2CD25CB3A8EB04001528B9
:1057400027D2CDF8008023460FF2B442322104A8BC
:1057500004F08EFA04A8C046C04640F2DC51314E37
:105760000FF2BC4AADF8001035704FF48252694612
:105770003046FCF7DBFBBDF8007040F2DC50C01B8C
:10578000ADF8000002F03BFB00EB840000F14C0997
:1057900017E0DFF8E008C046C04604253BE0DFF82C
:1057A000D808C046C046032535E059F8043BBDF88B
:1057B0000010B8B25246304404F05AFA57FA80F753
:1057C000641CA045F1D27C1EA1B204207054641C5C
:1057D0008348C046C046A0B2C046C046DFF89C0819
:1057E000C046C046A1B23046C046C046DFF8B40944
:1057F000C046C04608F0D4FC012803D1A2B231460D
:10580000022004E008F0CCFC18B9A2B2314606F040
:10581000F5FDFCF785FB284612B0BDE8F0870000D7
:10582000202C00003882FF1F205C00002DE9F04F83
:105830000546E3B00FF2AC10C046C0462846C0464D
:10584000C04617232C2210A9284602F0E3F806468A
:105850000FF2AC10C046C0460024012E0CDB0DF147
:10586000400835465BA758F8040BC046C04638468A
:10587000C046C0466D1EF6D1172E00F3A5801099C4
:10588000087800281FBF10AD69680878002800F06C
:105890009B8010980A22002102F00AFA8346686869
:1058A0000A22002102F004FA05465D45C0F0868018
:1058B000152D80F08380BBF1000F00F07F800095F4
:1058C0005B460FF23C32322103A804F0D1F903A861
:1058D000C046C046A5EB0B056D1C00950FF24010AD
:1058E000C046C0460098C046C0460FF25010C046A1
:1058F000C046F01EC046C0460098002868D002F09E
:105900007EFA054627A82946F02208F031FEABF1C1
:105910000108474627A810AA00EB870102EB870081
:10592000012601F1A00900F1080ACDF804B006E053
:10593000012006407F1C0AF1040A09F104090098BD
:1059400001990818401E029002998F4211D2DAF88C
:10595000003018780028EBD00A220021184602F007
:10596000A7F983460120C0460028E2D0C9F800B05C
:10597000DEE7009FE6B10FF2DC00C046C0462846D5
:1059800027A9F02208F0F4FD019805EB8801C7195A
:1059900001F1A0057F1E91A6B8451AD255F8040B57
:1059A000C046C0463046C046C04608F10108F3E78D
:1059B000DFF85C05C046C04604240AE0DFF8540561
:1059C000C046C046042404E0DFF86808C046C0466C
:1059D000032468E62C000000C0F60100ECF601008C
:1059E0009C7000000D0A496E2050726F63657373DE
:1059F00053657452666964446174612D3E00000011
:105A00000A524649442044617461205265636569C5
:105A10007665642056616C756573203A000000005D
:105A20000D0A4E6F206F66206461746120617320DF
:105A300070657220496E6465782D3E000D0A4163E1
:105A40007475616C206E6F206F6620646174612DC7
:105A50003E0000000A2052464944204461746120FF
:105A600053657456616C75652F7320736574203AA5
:105A7000200000002DE9F847044691B00FF26410B1
:105A8000C046C0462046C046C04603232C2201A97A
:105A9000204601F0BFFF0646DFF87405C046C04649
:105AA0000025012E0CDB0DF104083446B3A758F88D
:105AB000040BC046C0463846C046C046641EF6D1F8
:105AC000032E4DD10199087800281FBF01AE7168DF
:105AD0000878002844D001980A22002102F0E8F852
:105AE000044670680A22002102F0E2F88046A045D0
:105AF00030D3B8F1150F2DD264B3A8EB04001528EC
:105B000028D2CDF8008023460FF2F402322104A8F7
:105B100004F0AEF804A8C046C04640F2DC51DFF8FD
:105B2000746A0FF2FC0AADF80010357041F24A02B7
:105B300069463046FCF7FAF9BDF8007040F2DC50D7
:105B4000C01BADF8000002F05AF900EB840000F130
:105B50009C0917E0DFF81C05C046C04604253CE060
:105B6000DFF81405C046C046032536E059F8043B6B
:105B7000BDF80010B8B25246304404F079F857FA34
:105B800080F7641CA045F1D27C1EA1B204207054A1
:105B9000641CDFF8200CC046C046A0B2C046C04618
:105BA000DFF8D804C046C046A1B23046C046C04661
:105BB000DFF8B007C046C04608F0F2FA012803D16A
:105BC000A2B23146022004E008F0EAFA18B9A2B203
:105BD000314606F013FCFCF7A3F91CE6202C00006C
:105BE000B4E301000D0A496E2050726F6365737350
:105BF00047657452666964446174612D3E0000001B
:105C00000A5374617274496E646578203D2025647E
:105C10002C20456E64496E646578203D2025640023
:105C2000256C642C00000000F0B5044683B00FF230
:105C3000A000C046C0462046C046C04602232C22D3
:105C400001A9204601F0E6FE05460FF2A000C0467D
:105C5000C046012D0BDB01AE2C4648A756F8040BBD
:105C6000C046C0463846C046C046641EF6D1022D26
:105C700023D1019B187848B10A220021184602F06E
:105C800017F8044602F016F898B100949DF8000049
:105C900008F067FD3A4D05F19C00C046C0469DF8EE
:105CA0000000C046C04605F1C000C046C046002402
:105CB00008E03348C046C046ECE7DFF8040DC046B4
:105CC000C0460324204603B0F0BD0000EC5C000099
:105CD0000D0A496E2050726F636573735365745279
:105CE00066696453746174652D3E00000A737461C3
:105CF00074652056616C756573203A0038B5DFF81D
