:020000040000fa
:020000040040ba
:10000000f0ff452095844200937a40001bed4000ac
:10001000ef1b4300f51b4300fb1b430000000000e7
:10002000000000000000000000000000bfab400026
:10003000e91b430000000000bfab4000d9bd4200f7
:10004000bfab4000bfab4000cdc54200bfab4000de
:10005000bfab4000bfab4000bfab40003d7c4200a7
:10006000a57c42000000000095d64200bfab4000d6
:10007000c5d64200f1564200e95542006d56420095
:10008000f5d6420025d74200f52f41004de840004b
:10009000bfab4000bfab4000bfab4000518e420041
:1000a000bfab4000bfab4000bfab4000bfab4000a8
:1000b000bfab4000bfab4000bfab4000bfab400098
:1000c000bfab4000bfab4000bfab40000000000032
:1000d0000000000000000000000000000000000020
:1000e000bfab4000e5e54000bfab4000f14f410031
:1000f000bfab4000bfab4000bfab4000bfab400058
:10010000bfab4000bfab4000bfab4000bfab400047
:10011000bfab400000000000000000000000000035
:10012000bfab4000bfab400059364200bfab400000
:10013000bfab4000bfab4000bfab4000bfab400017
:10014000bfab4000bfab400000000000000000005b
:0c015000bfab4000bfab4000bfab4000a5
:020000040000fa
:020000040040ba
:10015c00f8b500bff8bc08bc9e46704759b34200c6
:10016c00f8b500bff8bc08bc9e46704735b34200da
:020000040000fa
:020000040040ba
:08017c007cc800000100000036
:020000040000fa
:020000040040ba
:1001840044ae41201c0000000000000080ba412061
:100194004003000000000000b1d341200100000032
:1001a4000100000001000000a0c64120b8010000c9
:1001b40000000000e8d3412014000000000000000b
:1001c400d0d1412030000000000000000000402099
:1001d400cc2e01000000000093d641200100000055
:1001e40000000000cc2e4120280000000000000088
:1001f400d8d441200c0000000000000008d54120a4
:10020400080000000000000010d541200800000094
:1002140000000000f42e4120300000000000000027
:10022400242f41203000000000000000542f412002
:100234003000000000000000842f41203000000046
:1002440000000000b42f4120300000000000000036
:10025400e42f4120100000000000000048d5412098
:10026400040000000000000036d541200200000018
:100274000000000035d5412001000000000000000e
:1002840070ba41201000000000000000a0c441200a
:10029400000200000000000080c241202002000093
:1002a4000000000000304120740100000000000044
:1002b400fcd341201400000001000000dcf34200e4
:1002c400e0f34200e4f34200ecf34200f0f34200b6
:1002d40018d5412008000000000000003dd5412051
:1002e400010000000000000060ae41200008000092
:1002f40000000000d0d341201800000001000000dd
:1003040080314120c0334120a01a43000000000086
:10031400c031412000000000803141205c02000017
:1003240000000000c0bd4120600200000000000089
:1003340020c04120600200000000000060d1412084
:10034400380000000000000045d5412001000000f5
:100354000000000088d241202800000000000000b6
:1003640088cb4120a0000000000000003ed54120c1
:1003740002000000010000000100000038d4412008
:10038400100000000000000028cc4120a000000064
:100394000000000048d441201000000000000000cc
:1003a400c8cc4120a00000000000000058d4412027
:1003b400100000000000000068cd4120a0000000f3
:1003c4000000000068d4412010000000000000007c
:1003d40008ce4120a00000000000000078d4412095
:1003e4001000000000000000a8ce4120a000000082
:1003f4000000000088d4412010000000000000002c
:100404003cd041204800000000000000dc334120c3
:100414001c000000000000004cd541200400000036
:100424000000000050d5412004000000000000003e
:1004340046d54120010000000000000047d54120be
:10044400010000000000000095d6412001000000da
:100454000000000096d641200100000000000000ca
:1004640054d54120040000000000000058d541206c
:100474000400000001000000050000009cd641209b
:10048400010000000000000097d641200100000098
:100494000000000099d64120010000000000000087
:1004a4009ad6412001000000010000000100000074
:1004b4005cd541200400000001000000640000003d
:1004c40060d5412004000000010000006400000029
:1004d40064d541200400000001000000e80300008e
:1004e4009bd64120010000000000000068d5412097
:1004f40004000000000000009dd64120010000001f
:100504000000000084d041204000000001000000f1
:10051400000100006400000064000000e803000023
:10052400010100006400000064000000e803000012
:10053400020100006400000020030000e803000042
:100544000301000064000000f00a0000e80300005a
:100554009ed6412001000000000000009fd64120eb
:100564000100000000000000a0d6412001000000ae
:1005740000000000a1d6412001000000000000009e
:10058400a2d641200100000001000000010000008b
:100594006cd54120040000000000000070d541200b
:1005a40004000000010000006400000074d5412034
:1005b4000400000001000000e8030000a3d641206d
:1005c400010000000000000078d541200400000074
:1005d40000000000a4d6412001000000000000003b
:1005e400a5d6412001000000010000000100000028
:1005f40000d2412030000000010000000001000092
:100604000000000064000000e80300000101000095
:100614000000000064000000e80300000202000083
:100624006400000064000000e8030000a6d6412036
:100634000100000000000000a7d6412001000000d6
:1006440000000000a8d641200100000000000000c6
:10065400a9d641200100000000000000aad64120d4
:100664000100000001000000010000007cd54120d1
:10067400040000000000000080d5412004000000b8
:10068400010000006400000084d541200400000043
:1006940001000000e8030000abd641200100000087
:1006a4000000000088d54120040000000000000084
:1006b400acd641200100000000000000c4d041205d
:1006c40040000000010000000001000000000000e4
:1006d40064000000e80300000101000000000000c5
:1006e40064000000e803000002020000640000004f
:1006f40064000000e803000003010000640000003f
:1007040064000000e8030000add6412001000000b1
:1007140000000000aed641200100000000000000ef
:10072400afd641200100000000000000b0d64120f7
:100734000100000000000000b1d6412001000000cb
:1007440000000000b2d641200100000000000000bb
:10075400b3d641200100000000000000b4d64120bf
:100764000100000000000000b5d641200100000097
:1007740000000000b6d64120010000000000000087
:100784008cd54120040000000000000090d54120d9
:1007940004000000010000000500000098d641207c
:1007a4000100000000000000b7d641200100000055
:1007b40000000000b8d64120010000000000000045
:1007c400b9d641200100000000000000bad6412043
:1007d4000100000000000000bbd641200100000021
:1007e40000000000bcd64120010000000000000011
:1007f40094d54120040000000000000098d5412059
:1008040004000000010000000500000094d641200f
:100814000100000000000000bdd6412001000000de
:10082400000000009cd541200400000000000000ee
:1008340048cf41209400000000000000bed64120b3
:100844000100000000000000a0d5412004000000c9
:1008540000000000bfd6412001000000000000009d
:10086400c0d641200100000000000000a4d54120b2
:100874000400000000000000a8d54120040000008e
:1008840000000000c1d6412001000000000000006b
:10089400c2d641200100000000000000acd5412078
:1008a4000400000000000000c3d641200100000045
:1008b40000000000c4d64120010000000000000038
:1008c400b0d541200400000000000000b4d5412050
:1008d4000400000000000000c5d641200100000013
:1008e40000000000c6d64120010000000000000006
:1008f400b8d541200400000000000000c7d6412004
:100904000100000000000000c8d6412001000000e2
:1009140000000000bcd541200400000000000000dd
:10092400c0d541200400000000000000c9d64120c9
:10093400010000000000000090d6412003000000e8
:10094400000000008cd641200200000000000000de
:10095400beca4120020000000000000042d1412034
:100964000200000000000000c4d541200400000083
:10097400000000008ed641200200000000000000ac
:10098400c8d541200400000000000000b2d341207b
:100994000200000000000000ccd54120040000004b
:1009a40000000000d0d54120040000000100000038
:1009b40001000000d4d54120040000000000000024
:1009c400d8d541200400000000000000cad6412010
:1009d4000100000000000000cbd64120010000000f
:1009e40000000000ccd641200100000000000000ff
:1009f400cdd64120010000000000000098d4412021
:100a04001000000000000000a8d4412010000000e5
:100a14000000000010d44120140000000000000079
:100a240024d441201400000000000000ced6412050
:100a34000100000000000000cfd6412001000000aa
:100a440000000000d0d64120010000000100000099
:100a540001000000dcd5412004000000010000007a
:100a640001000000e0d54120040000000100000066
:100a740001000000e4d54120040000000000000053
:100a8400e8d541200400000000000000ecd541201e
:100a94000400000000000000d1d641200100000045
:100aa40000000000d2d64120010000000000000038
:100ab400d3d641200100000000000000d4d641201c
:100ac4000100000000000000d5d641200100000014
:100ad4000000000030d241202c0000000000000083
:100ae4005cd241202c0000000000000044d14120d1
:100af4001c00000000000000b4d341201c000000d2
:100b040000000000d6d641200100000000000000d3
:100b1400f0d541200400000000000000f4d541207d
:100b24000400000000000000d7d6412001000000ae
:100b340000000000f8d5412004000000000000007f
:100b4400d8d641200100000000000000d9d6412081
:100b54000100000000000000dad64120010000007e
:100b640000000000fcd5412004000000000000004b
:100b740000d641200400000000000000f8334120aa
:100b8400280000000000000024604120102700001d
:100b940000000000c0ca4120c8000000000000009e
:100ba40004d64120040000000000000060b641208b
:100bb4001004000001000000000001002d5142005b
:100bc4005b544200ad194300010001105dcf4100a8
:100bd40099fd4200bb19430002000300fdfa4000e6
:100be40099fd4200bb1943000300031041964100e4
:100bf40099fd4200bb1943000400040085ac410088
:100c0400fd6e40005fe442000500041099ad410010
:100c140099fd4200bb194300060005006d414200e6
:100c240059024200ddeb420007000510e9ec4100e7
:100c340099fd4200bb19430008000600092e42003a
:100c440011e1400095d942000900061095dc4100ed
:100c540099fd4200bb1943000a000700658a42005f
:100c6400694d42003bff42000b00071035fe410076
:100c740099fd4200bb1943000c00090039b741003b
:100c8400737540006beb42000d000910adae4100de
:100c940099fd4200bb1943000e000a00b12e420028
:100ca4007be34000c5d942000f000a1081dd4100fa
:100cb40099fd4200bb19430010000b00311841009c
:100cc40049b84100a7bc420011000b1095be40007a
:100cd40099fd4200bb19430012000c00a1304200f0
:100ce4002d03420003ec420013000c1015f34100e5
:100cf40099fd4200bb19430014000d00bd7a410068
:100d040099fd4200bb19430015000d1055d0410058
:100d140099fd4200bb19430016000f00a53d410098
:100d24008998410005e14200170010109da241007e
:100d340099fd4200bb194300180011007959410084
:100d44006588400039744200190014101d64410084
:100d540099fd4200bb1943001a00120071cb4100f7
:100d6400855d420089ff42001b00151009ff410008
:100d740099fd4200bb1943001c001e0055104100a0
:100d84009bb540009dd342001d00221059df410055
:100d940099fd4200bb19430020001600792341004d
:100da400399d40009dd5420021001e10bde5410043
:100db40099fd4200bb1943002200300031994000e4
:100dc40011d74000798b420023003010b1cc400091
:100dd40099fd4200bb194300240031008501410004
:100de400fd8841001dce420025003110ad9941001f
:100df40099fd4200bb19430026003200cd9a410000
:100e04009d4242007df7420027003210a5e64100d2
:100e140099fd4200bb194300280033007586410048
:100e24007d584200bdff420029003310ddff410020
:100e340099fd4200bb1943002a003400c1af4100b0
:100e4400ff584200d7ff42002b003410b10042008b
:100e540099fd4200bb1943002c0035007d68410018
:100e64000571410019e942002d003510f5f34100e8
:100e740099fd4200bb1943003e000e006dde4100a7
:100e840065334100419d42003f001910d5e4410003
:100e940099fd4200bb19430040001d007dc1400084
:100ea40099fd4200bb19430041001000cded410003
:100eb40099fd4200bb1943004400150035a94200c6
:100ec40099fd4200bb19430045000e105512410024
:100ed40099fd4200bb19430046000f10352e410016
:100ee40099fd4200bb19430047001110c954410049
:100ef40099fd4200bb194300480021109965410047
:100f040099fd4200bb1943004b00181085014200b3
:100f140099fd4200bb1943004d001c10ed694100ce
:100f240099fd4200bb1943004e001d1025a8410045
:100f340099fd4200bb1943004f001f10757d41000d
:100f440099fd4200bb19430050005000650e420059
:100f5400d5b04100cfd54200510050100dd641000c
:100f640099fd4200bb19430052005100b98741006a
:100f740009414100bb19430053005110fdd6410003
:100f840099fd4200bb1943005400520075bd410055
:100f940081594200a3ff420055005210edd7410091
:100fa40099fd4200bb19430056003f10197c4100d3
:100fb40099fd4200bb1943004300140045e0410081
:100fc40099fd4200bb194300b0d241202800000023
:100fd40001000000300000000000000000000000dc
:100fe40000000000000000000000000000000000fd
:100ff40000000000000000000000000030d5412087
:1010040005000000010000003000000000000000a6
:10101400d8d2412028000000010000003000000068
:1010240000000000000000000000000000000000bc
:1010340000000000000000000000000000000000ac
:101044000000000038d54120050000000100000028
:10105400300000000000000040d5412005000000e1
:101064000100000030000000000000002034412096
:101074000700000000000000283441203c27000045
:101084000000000008d64120040000000000000019
:1010940004d141203e000000000000000cd6412095
:1010a400040000000000000010d6412004000000ed
:1010b4000000000014d641200400000000000000dd
:1010c400dbd64120010000000000000018d64120ba
:1010d40004000000000000001cd6412004000000b1
:1010e40000000000b8d441201000000000000000ff
:1010f400348741201027000000000000dcd6412086
:10110400010000000000000000d341202400000082
:101114000000000024d3412024000000000000004f
:1011240090d341202100000000000000ddd64120c2
:101134000100000000000000ded641200100000094
:1011440000000000dfd64120010000000000000084
:10115400e0d64120010000000000000020d641201c
:10116400040000000000000024d641200400000018
:1011740000000000e1d64120010000000000000052
:10118400e2d641200100000000000000e3d6412027
:10119400010000000100000001000000c8d441204b
:1011a4001000000000000000e4d441200c00000006
:1011b4000000000020d541200800000000000000cd
:1011c400f0d441200c0000000000000028d641208b
:1011d400040000000000000098d141203800000005
:1011e4000000000028d54120080000000000000095
:1011f4002cd64120040000000000000030d641201d
:10120400040000000000000034d641200400000067
:1012140000000000e4d641200100000000000000ae
:10122400e5d641200100000001000000010000009b
:10123400e6d641200100000001000000010000008a
:10124400e7d6412001000000010000000100000079
:10125400e8d6412001000000010000000100000068
:10126400e9d6412001000000010000000100000057
:10127400685b4120080000000000000038d64120cf
:1012840004000000000000003cd6412004000000df
:1012940000000000ead64120010000000000000028
:1012a400ebd641200100000000000000ecd64120f4
:1012b400010000000000000048d341202400000089
:1012c400000000006cd34120240000000000000056
:1012d40040d641200400000000000000edd641206b
:1012e400010000000000000044d64120040000007a
:1012f40000000000eed641200100000000000000c4
:10130400efd641200100000000000000705b412086
:10131400030000000000000048d641200400000043
:10132400000000004cd64120040000000000000032
:10133400f0d64120010000000000000050d64120fa
:10134400040000000000000054d641200400000006
:101354000000000058d641200400000000000000f6
:10136400f1d6412001000000000000005cd64120bd
:101374000400000000000000f2d64120010000003b
:101384000100000001000000f3d64120010000002c
:101394000000000060d641200400000000000000ae
:1013a40064d64120040000000000000068d64120fb
:1013b40004000000000000006cd64120040000007e
:1013c4000000000070d6412004000000000000006e
:1013d40074d641200400000000000000c4c941206c
:1013e400fa00000000000000805b4120a00400001f
:1013f40000000000fcd441200c00000000000000ac
:10140400f4d64120010000000000000078d64120fd
:101414000400000000000000f5d641200100000097
:1014240001000000010000007cd6412004000000ff
:1014340001000000dccf4120dccf4120600000002f
:101444000100000000000000fcf942001cfa420008
:10145400dcf9420000000000000000000000000071
:101464000000000000000000000000000000000078
:101474000000000000000000000000000000000068
:101484000000000000000000000000000000000058
:101494000000000000000000000000000000000048
:1014a4000000000058c841206c0100000100000049
:1014b40043000000000000000000000000000000e5
:1014c4000000000000000000000000000000000018
:1014d40043000000000000000000000000000000c5
:1014e40000000000000000000000000000000000f8
:1014f40043000000000000000000000000000000a5
:1015040000000000000000000000000000000000d7
:101514004300000000000000000000000000000084
:1015240000000000000000000000000000000000b7
:101534004300000000000000000000000000000064
:101544000000000000000000000000000000000097
:101554004300000000000000000000000000000044
:101564000000000000000000000000000000000077
:101574004300000000000000000000000000000024
:101584000000000000000000000000000000000057
:101594003f00430065f142000000000088c14100a3
:1015a400bd1b4300bc1b4300bc1b4300bc1b4300ce
:1015b400bc1b4300bc1b4300bc1b4300bc1b4300bf
:1015c400bc1b4300bc1b4300ffffffffffffffffeb
:1015d400ffffffffffff00000100415343494900a3
:1015e40000000000000000000000000000000000f7
:1015f400000000000000000000004153434949007e
:1016040000000000000000000000000000000000d6
:1016140000000000000000000000000080d641200f
:10162400040000000000000084d6412004000000f3
:1016340000000000206041200400000000000000c1
:1016440088d64120040000000000000000000000d3
:1016540000000000222222222222222222222222ee
:020000040000fa
:020000040040ba
:10166400255800000d0a64617461436f756e742d12
:101674003e0000bf0d0a446174612d3e000000bfae
:101684000d0a456e640000bf534f4c415220434c39
:1016940045414e455220524d4448563a342e30204e
:1016a40046563a342e302e32000000bf2573000017
:1016b4000a434d442056616c75653a20000000bf12
:1016c4000a4578747261637420446174610000bfd8
:1016d400000000bf53544152545f43484152206eae
:1016e4006f7420666f756e64000000bf44454c49fa
:1016f4004d4954455231206e6f7420666f756e6487
:10170400000000bf0a4465766963652049442d2db5
:101714003e0000bf44454c494d4954455232206e69
:101724006f7420666f756e64000000bf0a436f6dae
:101734006d616e642d2d3e0053544f505f434841fc
:1017440052206e6f7420666f756e64000a56616c69
:101754007565732d2d3e00000d0a746f74616c4e17
:101764006f4f665374722d2d3e0000bf0d0a5661f3
:101774006c75655f000000bf2d2d3e000d0a4352bd
:10178400432d2d3e000000bf0d0a44657669636554
:101794002049442d2d3e00000a2057696c642043e3
:1017a400617264204465766963652049440000bf22
:1017b4000a20496e76616c696420446576696365c4
:1017c400204944000a456570726f6d204572726f3e
:1017d400720000bf0a456570726f6d2053746f729a
:1017e4006564000025303258000000bf25303458ad
:1017f400000000bf0d0a496e2050726f6365737359
:101804005365744d6f64652d3e0000bf0d0a4d6f26
:101814006465207365742061732000000d0a302d07
:101824003e4155544f2c20312d3e4d414e55414c97
:10183400200000bf0d0a496e2050726f63657373f8
:1018440053657453746174652d3e00000a737461aa
:1018540074652056616c756573203a002c0000bfd6
:101864000a204d6f64652053657456616c75652f4d
:1018740073204f7574206f662052616e6765000097
:101884000a204d6f64652053657456616c7565005c
:101894000a204d6f64652053657456616c75652f1d
:1018a4007320496e76616c69640000bf2564000092
:1018b4000d0a496e2050726f636573735365744dde
:1018c400616e75616c446972656374696f6e2d3ef7
:1018d400000000bf0a204d616e75616c204d6f647d
:1018e400652053657456616c75652f73204f75744c
:1018f400206f662052616e67650000bf0a204d614b
:101904006e75616c204d6f64652053657456616c0f
:101914007565203a200000bf0d0a302d3e504f530c
:1019240049544956452c20312d3e4e454741544992
:1019340056452c20322d3e4359434c452c20332d03
:101944003e204e4f524d414c5f53544f502c203447
:101954002d3e20454d5f53544f5000000a204d61e9
:101964006e75616c204d6f64652053657456616caf
:1019740075652f7320496e76616c6964000000bf41
:101984000d0a496e2050726f636573735365744d0d
:101994006f746f7250574d4d616e75616c2d3e00c2
:1019a4000a50776d204d616e75616c204d6f6465d2
:1019b4002053657456616c7565733a2025642c2038
:1019c40025642c2025642c2025642c2025642c20bf
:1019d40025642c2025642c2025642c2025642c20af
:1019e400256400000a50574d2053657420526563e6
:1019f40065697665642056616c756573203a0000ec
:101a04000a2050776d2053657456616c75652f7389
:101a1400204f7574206f662052616e67650000bfa9
:101a24000a2050776d2053657456616c75652f7369
:101a340020496e76616c6964000000bf25642c2522
:101a4400642c25642c25642c25642c25642c2564a5
:101a54002c25642c256400000d0a496e2050726ff9
:101a64006365737353657442727573684d6f746ff5
:101a74007253746174652d3e000000bf0d0a4272fa
:101a8400757368206d6f746f722073746174652050
:101a940073657420617320000d0a4c696e65617270
:101aa400206d6f746f722073746174652073657434
:101ab40020617320000000bf25642c25640000bf52
:101ac40025642c25642c2564000000bf0a4272752d
:101ad40073682050776d204d616e75616c204d6f79
:101ae40064652053657456616c7565733a2025648a
:101af4002c2025642c2025642c202564000000bfa4
:101b040025642c25642c25642c2564000d0a496e5b
:101b14002050726f63657373536574427275736892
:101b2400446972656374696f6e2d3e000d0a4272da
:101b3400757368206d6f746f722064697265637465
:101b4400696f6e2073657420617320000d0a496efd
:101b54002050726f636573735365744d6f746f7245
:101b640050574d4175746f2d3e0000bf0a50776d7c
:101b7400204d616e75616c204d6f646520536574f2
:101b840056616c7565733a2025642c2025642c20dd
:101b940025642c2025642c2025642c2025642c20ed
:101ba40025642c2025642c2025642c202564202cdd
:101bb4002564202c256400000d0a496e2050726fa4
:101bc40063657373536574427275736850574d41fe
:101bd40075746f2d3e0000bf0a4272757368205001
:101be400776d204175746f204d6f64652053657463
:101bf40056616c7565733a2025642c2025642c206d
:101c040025642c20256400000d0a496e2050726f53
:101c1400636573735365744175746f536368656466
:101c2400756c6554696d652d3e0000bf0a4175747d
:101c34006f207363686564756c6520536574205206
:101c4400656365697665642056616c756573203ad1
:101c5400000000bf0d0a486f75722d2d3e0000bfb5
:101c64000d0a4d696e7574652d2d3e000a2041756f
:101c7400746f2074696d652053657456616c756565
:101c84002f732053657400000a204175746f20740b
:101c9400696d652053657456616c75652f73204fab
:101ca4007574206f662052616e6765000a20417565
:101cb400746f2074696d652053657456616c756525
:101cc4002f7320496e76616c69640000253032649c
:101cd400253032642c25303264253032642c253092
:101ce4003264253032642c25303264253032642c41
:101cf40025303264253032642c253032642530326c
:101d0400642c25303264253032642c25303264252d
:101d14003032642c25303264253032642c25303244
:101d240064253032642c25303264253032642c250d
:101d3400303264253032642c2530326425303264ec
:101d44002c25303264253032642c25303264253021
:101d540032642c25303264253032642c25303264d0
:101d6400253032642c25303264253032642c253001
:101d740032642530326400000d0a496e2050726fbf
:101d8400636573735365744564676553656e736ff8
:101d94007253746174652d3e000000bf0d0a4564e2
:101da40067652073656e736f722073746174652048
:101db40073657420617320000d0a526f7461746539
:101dc4002073656e736f722073746174652073651c
:101dd40074206173200000bf0d0a496e2050726f99
:101de4006365737353657452544356616c75652d02
:101df4003e0000bf0a205254432053657456616c60
:101e040075652f73204f7574206f662052616e675d
:101e1400650000bf0a205254432020536574566164
:101e24006c75652f7320496e76616c69640000bf20
:101e340025642d25642d25642025643a25643a25de
:101e4400640000bf0d0a496e2050726f636573739e
:101e5400536574446576696365496e666f2d3e000b
:101e64000a44657669636520496e666f205365741c
:101e74002052656365697665642056616c75657387
:101e8400203a00000a2044657669636520496e663d
:101e94006f2053657456616c75652f732053657498
:101ea400000000bf0a2044657669636520696e6698
:101eb4006f2053657456616c75652f7320496e7677
:101ec400616c6964000000bf25732c25732c257395
:101ed4002c25730046563a342e302e32000000bfb3
:101ee4000d0a496e2050726f636573735365744da8
:101ef4006f746f7243757272656e744c696d697438
:101f0400732d3e000a20494d4f542063757272654b
:101f14006e74206c696d69742053657456616c75b8
:101f2400652f73204f7574206f662052616e67654c
:101f3400000000bf0a20494d4f542063757272653a
:101f44006e74206c696d69742053657456616c7588
:101f5400652f7320736574203a200000202c000044
:101f64000a20494d4f542063757272656e74206c5b
:101f7400696d69742053657456616c75652f73209f
:101f8400496e76616c69640025732c25732c257366
:101f9400000000bf0d0a496e2050726f63657373b1
:101fa400436c6561724572726f72436f6465732d21
:101fb4003e0000bf0a436c656172204572726f7205
:101fc40020636f6465205265636569766564205695
:101fd400616c756573203a000a20436c6561722058
:101fe4004572726f7220636f646520536574566125
:101ff4006c75652f73205365740000bf0a20436c11
:10200400656172204572726f7220636f646520533c
:10201400657456616c75652f7320496e76616c69c1
:10202400640000bf0d0a496e2050726f63657373bc
:102034005365744c6f77426174536f432d3e0000b7
:102044000a4c6f7720426174746572792053657409
:102054002052656365697665642056616c756573a5
:10206400203a00000a204c6f7720426174206c698a
:102074006d69742053657456616c75652f73204fb8
:102084007574206f662052616e6765000a204c6f7c
:10209400772042617420536f432053657456616cfa
:1020a40075652f7320536574000000bf0a204c6fc0
:1020b400772042617420536f432053657456616cda
:1020c40075652f7320496e76616c6964000000bfea
:1020d4000d0a496e2050726f6365737353657448bb
:1020e4006561727462656174436f6e6669672d3ee3
:1020f400000000bf0a486561727462656174204320
:102104006f6e66696720506172616d657465727384
:102114002052656365697665642056616c756573e4
:10212400203a00000a486561727462656174204354
:102134006f6e66696720506172616d657465727354
:102144002053657456616c75652f733a204f75740e
:10215400206f662052616e67650000bf0a486561a2
:1021640072746265617420436f6e666967205061a2
:1021740072616d657465727320536574000000bfed
:102184000a48656172204265617420506172616d14
:1021940065746572732053657456616c7565733a22
:1021a400200000bf2c2000000a486561727462653b
:1021b400617420436f6e66696720506172616d655a
:1021c400746572732053657456616c75652f732042
:1021d4003a20496e76616c69642044617461000040
:1021e4000d0a496e2050726f636573735365744da5
:1021f4006f746f72206661756c7420636f6e6469ae
:1022040074696f6e732d3e000a4d6f746f72206691
:1022140061756c7420636f6e646974696f6e73208a
:1022240052656365697665642056616c75657320d3
:102234003a0000bf0a204d6f746f72206661756c9e
:102244007420636f6e646974696f6e732053657470
:1022540056616c75652f73204f7574206f6620521c
:10226400616e6765000000bf0a204d6f746f7220b5
:102274006661756c7420636f6e646974696f6e73e4
:102284002053657456616c75652f732073657420d3
:102294003a2000000a204d6f746f72206661756cdd
:1022a4007420636f6e646974696f6e732053657410
:1022b40056616c75652f7320496e76616c69640094
:1022c4000d0a496e2050726f6365737353657450c1
:1022d400756c7365436f756e742d3e000a50756c92
:1022e400736520436f756e74205365742052656363
:1022f40065697665642056616c756573203a0000e3
:1023040025642c2025642c2025642c2025642c2075
:1023140025642c2025642c2025642c2025642c2065
:1023240025642c2025642c2025642c2025642c2055
:102334002564000025642c25642c256c582c256408
:102344002c25642c25732c25732c25732c25732c98
:1023540025732c25640000bf302e3030000000bff0
:1023640025642c25642c25642c25642c25642c25bb
:102374006c642c25642c2564000000bf0d0a496e92
:102384002050726f63657373536574576865656c29
:102394004469612d3e0000bf0a576865656c20449e
:1023a40069612053657420526563656976656420ac
:1023b40056616c7565203a000a20776865656c443f
:1023c40069612053657456616c75652f73204f7570
:1023d40074206f662052616e676500000a2077687a
:1023e40065656c4469612053657456616c75652f2d
:1023f4007320736574203a20000000bf0a207768b8
:1024040065656c4469612053657456616c75652f0c
:102414007320496e76616c69640000bf25732c25b6
:10242400732c25642c2564000d0a496e2050726fac
:10243400636573735365744379636c654672657140
:1024440075656e63792d3e000a4379636c65467247
:10245400657175656e637920536574205265636593
:10246400697665642056616c7565203a000000bf8a
:102474000a204379636c654672657175656e63798c
:102484002053657456616c75652f73204f757420e5
:102494006f662052616e6765000000bf0a204379b1
:1024a400636c654672657175656e637920536574f6
:1024b40056616c75652f7320736574203a20000093
:1024c4000a204379636c654672657175656e63793c
:1024d4002053657456616c75652f7320496e76615f
:1024e4006c6964000d0a496e2050726f63657373e2
:1024f4005365744c6f67496e74657276616c2d3eda
:10250400000000bf0a4c6f67496e74657276616c97
:10251400205365742052656365697665642056614d
:102524006c7565203a0000bf0a204c6f67496e74d1
:10253400657276616c2053657456616c75652f7392
:10254400204f7574206f662052616e67650000bf6e
:102554000a204c6f67496e74657276616c2053650e
:102564007456616c75652f7320736574203a20006e
:102574000a204c6f67496e74657276616c205365ee
:102584007456616c75652f7320496e76616c69644d
:10259400000000bf25732c25732c25732c25732c68
:1025a40025732c25732c25732c25732c25732c252e
:1025b400732c25732c2573000d0a496e2050726ffd
:1025c40063657373536574436f6e74696e75652dbb
:1025d4003e0000bf0a436f6e74696e7565205365d3
:1025e400742052656365697665642056616c75650f
:1025f40073203a000a20436f6e74696e7565205328
:10260400657456616c75652f73204f7574206f6601
:102614002052616e676500000a20436f6e74696e14
:1026240075652053657456616c75652f7320536509
:10263400740000bf0a20436f6e74696e7565205381
:10264400657456616c75652f7320496e76616c698b
:10265400640000bf0d0a496e2050756c7365636198
:102664006c632d3e000000bf0a2050756c7365201a
:10267400436f756e742053657456616c75652f7362
:10268400204f7574206f662052616e67650000bf2d
:102694000a2050756c736520436f756e7420536502
:1026a4007456616c75652f7320736574203a20002d
:1026b4000a2050756c736520436f756e74205365e2
:1026c4007456616c75652f7320496e76616c69640c
:1026d400000000bf0d0a496e2050726f636573736a
:1026e40053657450756c7365436f756e74416e6495
:1026f4004379636c652d3e000a2050756c73652028
:10270400436f756e7420416e64204379636c652059
:1027140053657456616c75652f73204f7574206f03
:10272400662052616e6765000a2050756c736520df
:10273400436f756e7420416e64204379636c652029
:1027440053657456616c75652f7320736574203af4
:10275400200000bf0a2050756c736520436f756eae
:102764007420416e64204379636c6520536574560c
:10277400616c75652f7320496e76616c6964000025
:10278400256c580025302e32662c25302e32662cce
:1027940025302e32662c25302e32662c25642c25cd
:1027a400302e32662c25302e32662c25642c25647e
:1027b4002c25642c25642c25640000bf0a52657105
:1027c40075657374204c6f6720526563656976651f
:1027d400642056616c756573203a00000a52657175
:1027e40075657374204c6f67732056616c75652f23
:1027f40073203a20496e76616c6964204461746187
:10280400000000bf0d0a496e2050726f6365737338
:1028140052657365745a69676265654e572d3e004b
:102824000a5a6967626565204e772052657365743c
:1028340020506172616d65746572732052656365c1
:10284400697665642056616c756573203a0000bf33
:102854000a5a696762656520204e77205265736560
:10286400742053657456616c75652f73203a204942
:102874006e76616c69642044617461000a5a696708
:1028840062656520204e7720526573657420536518
:102894007456616c75652f733a204f7574206f669a
:1028a4002052616e6765000025642c004379636cd7
:1028b400652053746172742054696d653a20000078
:1028c40020456e642054696d653a20000d0a496ef6
:1028d4002050726f636573732053657420436c6575
:1028e400616e6572204d41432d3e00000a436c65c4
:1028f400616e6572204d414320526563656976655a
:10290400642056616c756573203a00000a20436c9c
:1029140065616e6572204d41432053657456616c48
:1029240075652f73204f7574206f662052616e6732
:10293400650000bf0a20436c65616e6572204d41dd
:10294400432053657456616c75652f7320736574e9
:10295400203a20000a20436c65616e6572204d4167
:10296400432053657456616c75652f7320496e76e8
:10297400616c6964000000bf255825582558255806
:04298400000000bf90
:020000040000fa
:020000040040ba
:1029880080b586b002af78600023fb607b6893f85f
:10299800e032212b00f2078601a252f823f000bf93
:1029a800312a40007b2a4000ab2a4000cb2a400055
:1029b8000d2b40004b2b4000072c4000552c4000ad
:1029c800072e4000692e4000572f400091314000eb
:1029d800eb31400031324000c52f4000f92f400054
:1029e8005b304000a5304000ef30400035314000fa
:1029f80073324000f932400065334000ad33400087
:102a0800ff3340007d344000e73440001d3540006e
:102a1800713540009935400099354000352d40000a
:102a2800e92d4000eb2e40007b68d3f8b432be4a53
:102a380093420ed07b689b689b68bb4898470346c7
:102a4800002b00f0b5857b68b74ac3f8b42200f0c4
:102a5800afbd7b689b78012b05d17b68012283f889
:102a6800e02200f0a5bd7b68032283f8e02200f095
:102a78009fbd7b685a687b6803f53a731946104610
:102a880025f0aafe0346002b05d17b68022283f8b5
:102a9800e02200f0bebd7b681e2283f8e02200f031
:102aa800b8bd7b68d3f8e83218462bf0f3f9034633
:102ab800002b00f07f857b68032283f8e02200f07a
:102ac80079bd7b6803f2e3230093002300220021f1
:102ad80078680ff073fa7b6893f8e232032b40f0c2
:102ae8006b857b6803f53a731946022025f074fe5e
:102af8000346002b40f060857b68042283f8e022bf
:102b080000f05abd7b68d3f8e83218462bf0c2f9ba
:102b18000346002b00f052857b6893f8f032002bb7
:102b280005d17b68052283f8e02200f047bd7b6869
:102b38001f2283f8e0227b681422a3f8fc2200f00d
:102b48003dbd7b6803f2e323009308234ff4d5725d
:102b5800082178680ff032fa7b6893f8e232032b89
:102b680040f02e857b68062283f8e0227b680722e6
:102b780083f8e1227b68002283f8a5227b6803f5ad
:102b88003b7319464ff4fa6025f026fe0346012be5
:102b980005d17b681e2283f8e02200f03abd7b68ed
:102ba80093f8dd32002b19d17b689b681b6a07f10b
:102bb8000c02114600209847fb68c3f30803b3f5dd
:102bc800d57f05d17b68012283f8ac2200f0f8bce0
:102bd8007b681e2283f8e02200f0f2bc7b6893f841
:102be800dd32022b05d17b68002283f8ac2200f08d
:102bf800e7bc7b681e2283f8e02200f0e1bc7b681a
:102c0800b3f8a2321b041a467b6803f2e32300934d
:102c18000123372178680ff0d1f97b6893f8e23205
:102c2800032b40f0cf847b6893f8dd32002b07d16b
:102c38007b6893f8e1227b6883f8e02200f0c2bc4d
:102c48007b681e2283f8e02200f0bcbc7b6893f806
:102c5800ac329a077b6893f8a5321b0413431a46d3
:102c68007b6803f2e32300930423292178680ff09b
:102c7800a5f97b6893f8e232032b40f0a5847b68c2
:102c8800d3f8ec3218462bf005f90346002b05d093
:102c98007b681e2283f8e02200f0bbbc7b6893f8b7
:102ca800dd32002b39d17b689b681b6a07f10c0267
:102cb800114600209847fb6803f47013002b05d1d8
:102cc8007b681e2283f8e02200f07ebcfb68002ba4
:102cd80019dafb6803f08043002b04d07b680122db
:102ce80083f8a62203e07b68002283f8a6227b688b
:102cf800d3f8ec32184624f0cafe7b68082283f821
:102d0800e02200f061bc7b683c2283f8a5227b6846
:102d1800062283f8e02200f057bc7b681e2283f865
:102d2800e02200f051bc00bf801a06007b6803f265
:102d3800e32300930423ad4a012178680ff03ef99c
:102d48007b6893f8e232032b40f040847b6893f869
:102d5800dd32002b3fd17b689b681b6a07f10c02b0
:102d6800114600209847fb68002b12dafb6803f035
:102d7800c043b3f1804f0cbf01230023dbb21a46d6
:102d88007b6883f8a6227b68082283f8e02200f09b
:102d98001dbc7b68b3f8fc32002b17d07b68b3f8f6
:102da800fc32013b9ab27b68a3f8fc227b6803f5ee
:102db8003a731946322025f00ffd0346002b40f0e8
:102dc80005847b68202283f8e022ffe37b681e22cb
:102dd80083f8e022fae37b681e2283f8e022f5e319
:102de8007b68d3f8e83218462bf054f80346002bda
:102df80000f0ee837b681f2283f8e022e8e37b681b
:102e080003f2e323009303230022022178680ff0e2
:102e1800d5f87b6893f8e232032b40f0db837b68bc
:102e280093f8dd32002b16d17b689b681b6a7a68a1
:102e380020321146042098477b6893f8f032002b23
:102e480004d17b68092283f8e022c3e37b6821224e
:102e580083f8e022bee37b681e2283f8e022b9e310
:102e68007b6803f2e3230093072300220321786899
:102e78000ff0a4f87b6893f8e232032b40f0ac83a0
:102e88007b6893f8dd32002b26d17b689b681b6a30
:102e980007f10c02114600209847fb6803f46043d1
:102ea800002b04d07b681e2283f8e02294e3fb68a1
:102eb8001b0c9ab27b68a3f8a2227b68b3f8a232f3
:102ec800002b04d17b68092283f8e02284e37b6825
:102ed8000a2283f8e0227fe37b681e2283f8e0223f
:102ee8007ae37b6803f2e323009301234ff4003273
:102ef800032178680ff062f87b6893f8e232032bbd
:102f080040f06c837b6893f8dd32002b1ad17b6824
:102f18009b681b6a07f10c02114600209847fb6862
:102f280003f45903002b04d07b681e2283f8e022a7
:102f380054e37b680222a3f8a2227b680a2283f862
:102f4800e0224be37b681e2283f8e02246e37b689d
:102f5800b3f8a2321b041a467b6803f2e3230093fa
:102f68000323092178680ff029f87b6893f8e23287
:102f7800032b40f035837b6893f8dd32002b18d1a2
:102f88007b689b681b6a7a68303211460420984730
:102f98007b6803f130007b6803f120017b6893f8bc
:102fa800f0321a460ff080fd7b680e2283f8e0228b
:102fb80016e37b681e2283f8e02211e37b689b6896
:102fc8009b687a68d2f8b822104698470346002bc7
:102fd80000f008837b68d3f8b8227b68c3f8b42272
:102fe8007b680f2283f8e022fce200bf0000384033
:102ff8007b68b3f8a2321b041a467b6803f2e3230a
:1030080000930223072178680ef0d8ff7b6893f8b5
:10301800e232032b40f0e8827b6893f8dd32002b24
:1030280012d17b6893f8f032002b08d17b68062216
:1030380083f8e0227b68102283f8e122d4e27b68df
:103048000b2283f8e022cfe27b681e2283f8e0227d
:10305800cae27b689b681b6a07f10c0211460020d4
:103068009847fb6803f00073002b08d07b680122a7
:1030780083f8ae227b681d2283f8e022c9e2fb6850
:1030880003f40063002b04d07b68112283f8e0224c
:10309800bfe27b681e2283f8e022bae27b689b6865
:1030a8009b6a082098477b68012283f8e3227b68a3
:1030b800012283f8e4227b68002283f8e5227b68fa
:1030c80040332021184624f0fdfa7b689b685b6b2f
:1030d8007a6802f140000122082198477b68122291
:1030e80083f8e02295e27b6803f2e323009301234f
:1030f8000022332178680ef061ff7b6893f8e23292
:10310800032b40f073827b68002283f8e3227b68fc
:1031180093f8dd32002b04d17b68132283f8e02278
:1031280064e27b681e2283f8e0225fe27b6893f802
:10313800af32002b00f05c827b68b3f8b2321a46db
:1031480048f270231340002b04d07b681e2283f8ba
:10315800e0224de27b6893f8413003f00403002b32
:103168000dd07b6893f8f232012b08d17b680622d8
:1031780083f8e0227b68142283f8e12238e27b6836
:10318800152283f8e02233e27b68012283f8e322e8
:103198007b68012283f8e4227b68002283f8e52219
:1031a8007b689b685b6a002098477b689b689b6a82
:1031b8004ff4007098477b68a0334ff400711846ad
:1031c80024f080fa7b689b685b6b7a6802f1a00048
:1031d80001224ff4007198477b680c2283f8e022a3
:1031e80017e27b6803f2e3230093012300220821fe
:1031f80078680ef0e3fe7b6893f8e232032b40f028
:10320800f9817b68002283f8e3227b6893f8dd323a
:10321800002b04d17b680d2283f8e022eae17b6869
:103228001e2283f8e022e5e17b6893f8af32002b99
:1032380000f0e2817b6893f877311b061a467b68b9
:1032480093f876311b0413437a6892f875211202b9
:1032580013437a6892f874211a437b68c3f8a8224a
:103268007b68142283f8e022c6e17b6893f8f03289
:10327800002b0ad17b6803f2e32300930123022287
:10328800062178680ef09afe0fe07b6893f8f23218
:103298001a02b04b13431a467b6803f2e3230093e8
:1032a8000223062178680ef089fe7b6893f8e232e3
:1032b800032b40f0a3817b6893f8dd32002b12d1f9
:1032c8007b689b68db6a7a6892f8f2221046984716
:1032d8007b6893f8f2227b6883f8a1227b68152229
:1032e80083f8e0228ae17b681e2283f8e02285e1e8
:1032f8007b6893f8f032002b14d17b6893f8403048
:1033080003f00f03002b0dd07b6893f8f132012beb
:1033180008d17b68002283f8a4227b68162283f8f0
:10332800e0221ae07b6893f8f032012b10d17b6819
:1033380093f8643103f00103002b09d07b6893f8fc
:10334800f132012b04d17b68192283f8e02204e0d2
:103358007b681b2283f8e0225be15ae17b689b686b
:103368009b6a402098477b68012283f8e3227b68a8
:10337800012283f8e4227b68002283f8e5227b6837
:1033880060334021184624f09df97b689b685b6b8d
:103398007a6802f160000122402198477b68172271
:1033a80083f8e0227b6893f8a432da076a4b134368
:1033b8001a467b6803f2e323009301230621786809
:1033c8000ef0fcfd7b6893f8e232032b40f0188185
:1033d8007b68002283f8e3227b6893f8dd32002bb8
:1033e80004d17b68182283f8e02209e17b681e2259
:1033f80083f8e02204e17b6893f8af32002b00f0f9
:1034080001817b68b3f8b2321a4648f27023134040
:10341800002b04d07b681e2283f8e022f2e07b6850
:1034280093f8a432012b10d17b6893f8703003f025
:103438000f03012b04d17b681a2283f8e022e1e014
:103448007b681d2283f8e022dce07b6893f86d300e
:1034580003f00203002b08d07b68012283f8a42222
:103468007b68162283f8e022cce07b681d2283f873
:10347800e022c7e07b6803f2e32300930223374a84
:10348800062178680ef09afd7b6893f8e232032be8
:1034980040f0ba807b6893f8dd32002b1ad17b6844
:1034a8009b689b682e4898470346002b0dd07b6885
:1034b8002b4ac3f8b4227b689b681b6b0120984792
:1034c8007b681b2283f8e0229ee07b681e2283f83b
:1034d800e02299e07b681e2283f8e02294e07b6872
:1034e8009b689b681f4898470346002b0dd07b6854
:1034f8001c4ac3f8b4227b689b681b6b0120984761
:103508007b681b2283f8e02283e07b681e2283f815
:10351800e0227ee07b6803f2e323009301234ff46b
:103528000072102178680ef049fd7b6893f8e2324a
:10353800032b6bd17b6893f8dd32002b04d17b68b9
:103548001c2283f8e02261e07b681e2283f8e022d7
:103558005ce000bf0100b70301ffff000101b903f0
:103568000075190380f0fa027b6803f2e3230093e5
:1035780000230022072178680ef020fd7b6893f86d
:10358800e232032b44d17b681d2283f8e0223fe01e
:103598007b68d3f8ec32184624f079fa7b6800226d
:1035a80083f8e02235e07b68002283f8e02230e0ef
:1035b80000bf2ee000bf2ce000bf2ae000bf28e0db
:1035c80000bf26e000bf24e000bf22e000bf20e0eb
:1035d80000bf1ee000bf1ce000bf1ae000bf18e0fb
:1035e80000bf16e000bf14e000bf12e000bf10e00b
:1035f80000bf0ee000bf0ce000bf0ae000bf08e01b
:1036080000bf06e000bf04e000bf02e000bf00e02a
:0c36180000bf00bf1037bd4680bd00bfe2
:020000040000fa
:020000040040ba
:0436240044494400d1
:020000040000fa
:020000040040ba
:103628002de9f04f2ded0c8b98469bb000230446f6
:1036380040460e46119216932ef0e8fa814600682d
:103648002ef052f94ff0000a07464ff0000b15967e
:10365800159b1a780d2a34d8092a38d2002a40d066
:1036680000230c93159d2b78302b40f00d816b783f
:10367800582b01d0782b6cd10c9b019316ab00937f
:10368800cdf8088017abb14a15a9204605f00afb0a
:1036980010f00706074605d0062e2cd10135002369
:1036a80015950c93119b002b40f06d850c9bebb18d
:1036b8004bec17abb1ee470b1bb0bdec0c8bbde868
:1036c800f08f2b2a06d02d2a13d0202ac8d10133f7
:1036d8001593bde700220c925a1c15925b78002bbb
:1036e800c0d1119b1596002b40f04b854bec10abcd
:1036f800e2e70122efe7169a3ab1352118a829f036
:10370800cbfe169920462af0d1fa013e042e08d89d
:10371800dfe806f00c03171a0c00ddf860a0ddf8ee
:1037280064b03b07bed54bf0004bbbe7199b179a1b
:10373800ddf860a023f4801302f2334243ea025b0f
:10374800efe7dff814b2ece76ff0004b4ff0ff3a09
:10375800e7e7159b5a1c15925b78302bf9d0002ba4
:10376800a0d001230d93159b0e9300230493069379
:103778001d460a22159890f80080a8f13003d9b2a6
:10378800092940f283803a46d9f800102bf0c2fc90
:10379800002800f08b80002042462b460146089006
:1037a800652a02d0452a40f0008123b910b90d9b43
:1037b800002b96d00023159e721c159272782b2a26
:1037c80000f0da802d2a00f0dd804ff0000ca2f125
:1037d800300ebef1090f00f2e780302a00f0d580e4
:1037e800a2f1310ebef1080f00f2df80a2f130081d
:1037f800159a0f92159a02f1010ecdf854e05278fd
:10380800a2f13009b9f1090f40f2c6800f9faeeb63
:10381800070ebef1080f44f61f6e00f3c380f04593
:10382800a8bff046bcf1000f01d0c8f10008002b7a
:1038380040f0e18000287ff435af0d9b002b7ff42a
:1038480031af089b002b7ff44caf4e2a00f0b680b6
:1038580000f3ae80492a7ff444af3d4915a82bf008
:10386800f2f900283ff43daf159b3a49013b15a8f2
:1038780015932bf0e8f910b9159b01331593dff870
:10388800d8b04ff0000a0de700236be7082dd5bf2d
:103898000699049902fb013302fb013300f1010090
:1038a800d4bf069304930135159063e7159bda1985
:1038b8001592da5d002d59d12846302a2dd0a2f173
:1038c8003103082b00f26484159b0e9301460020f7
:1038d8000346b2f1300900f1010712d0394400eb78
:1038e800030c1f464ff00a0e67451cd118440828e0
:1038f80000f1010332dc069a0a2000fb02920692cc
:103908000027159a501c159052783846a2f13007b6
:10391800092fded90127089742e7159b5a1c1592f3
:1039280001305a78c9e7013707f1ff38b8f1080fb5
:1039380004dc069a0efb02f20692d5e7102fdebfd2
:10394800049a0efb02f20492cee700bf5816430019
:10395800901b4300931b43000000f07f102bdfbf38
:10396800049a0a2000fb02920492c9e701462b46fa
:10397800cce70123089319e74ff0000cb21c15920d
:10398800b27824e74ff0010cf8e7159a02f1010e1e
:10399800cdf854e0527820e70a2707fb0828a8f159
:1039a800300827e7f0463de715964ff000083ee758
:1039b800692a3ff452af6e2a7ff493ae884915a85e
:1039c8002bf041f900283ff48cae159b1b78282b6f
:1039d8000ed118aa834915a816f094f9052807d11d
:1039e800199bddf860a043f0ff4b4bf4e00b59e660
:1039f800dff800b245e7dded067a002d08bf1d4669
:103a0800b8ee677b102b1a46a8bf10228ded087bf5
:103a1800092aa8eb0108dde908ab0edd7249ddede6
:103a2800047a01ebc20111ed126b9ded085bb8ee53
:103a3800677ba5ee067b5bec17ab0f2b38dcb8f188
:103a4800000f3ff42fae24ddb8f1160f0bdc6649ea
:103a580001ebc80898ed007b4bec16ab27ee067b14
:103a68005bec17ab1ee6c3f12501884520dc5e4af6
:103a7800c3f10f0302ebc30191ed007b4bec16abd6
:103a8800a8eb030302ebc30227ee067b92ed006b63
:103a9800e4e718f1160f0bdb5349a1ebc80898edc2
:103aa800007b4bec15ab85ee076b5bec16abf9e5d1
:103ab8009a1a4244002a73dd12f00f000ad04a49cc
:103ac80001ebc00191ed007b4bec16ab27ee067bba
:103ad8005bec17ab32f00f024fd0b2f59a7f22ddc4
:103ae80000252f460495a8462223dff80cb1236051
:103af8004ff0000a049b002b3ff4d4ad16992046e2
:103b08002af0d4f8414620462af0d0f83946204613
:103b18002af0ccf8049920462af0c8f8294620460d
:103b28002af0c4f8bee53149cde904ab00271211eb
:103b38003e460846012a23dc0fb1dde904ab00eb61
:103b4800c600abf1547b90ed007b4bec16ab27ee37
:103b5800067b5bec17ab2bf00042120d24481205d4
:103b680082425946bcd8a0f58010824286bfdff851
:103b78008cb04ff0ff3a01f1547b4ff0000970e030
:103b880012f0010f08d09ded046b91ed007b26ee3d
:103b9800077b8ded047b0127013652100831c9e7f8
:103ba800ebd0524212f00f000ad00f4901ebc001ce
:103bb80091ed007b4bec15ab85ee076b5bec16ab20
:103bc8001211dad01f2a1bdd00252f460495a846be
:103bd80022234ff0000a4ff0000b23608ae700bf52
:103be800991b43006c164300d80c4200d0ea4200ef
:103bf8000000a07c0000f8ff0000f07fffffef7fcf
:103c0800cde904ab12f01009ad4918bf4ff06a09ad
:103c18000020002a00f30e8108b1dde904abb9f1f8
:103c2800000f17d0cbf30a52c2f16b02002a594693
:103c380010dd1f2a40f30c81342adebf203a4ff0f2
:103c4800ff3000fa02f24ff0000accbf4ff05c7b65
:103c580002ea010b4bec17abb5ee407bf1ee10fa24
:103c6800b2d0069a00920e992a46204622f0ecfb22
:103c7800049000283ff434afb8f1000fc8f10003f6
:103c88009fed899ba8bf00239fed89ab9fed8abb61
:103c98000d93002528eae8730e932f46049b2046cf
:103ca800596824f09bf9804600283ff41daf049b17
:103cb8001a69023203f10c0192000c302df0b5faaa
:103cc80018aa17a94bec10ab2046cde908ab1ff09a
:103cd80042ff169000283ff407af012120462df03f
:103ce8002efd074600283ff4ffae179e189a002eb7
:103cf800b1bf0e9b0d9b0e989b19babf981b0d9bcd
:103d08000693a6eb0906b8bf069316446d4b013e11
:103d18009e42c2f1360280f2ae809b1b1f2ba2eba3
:103d280003024ff0010100f39a8001fa03f31093a4
:103d380000230f93069b1344024409eb0206069adc
:103d48009a42a8bf1a46b242a8bf3246002a04ddea
:103d580006999b1ab61a8a1a06920d9ac2b1394662
:103d68002046139320f030f8074600283ff4bcaef5
:103d78000146169a204616f037fc129000283ff4a8
:103d8800b3ae1699204629f091ff129a139b16920a
:103d9800002b75dc0e9b002b7bd1002e08dd4146e5
:103da800324620461ff012fb804600283ff49caea6
:103db800069b002b08dd39461a4620461ff006fbf5
:103dc800074600283ff490ae4246169920461df05b
:103dd8000bfc054600283ff487aec3680693002312
:103de800c360394629f03efb00286dda069be3b92b
:103df800baf1000f19d1cbf31303b3b92bf0004379
:103e08001b0d1b05b3f1d66f0fd96b6913b92b695d
:103e1800012b0add2946012220461ff0d7fa394630
:103e2800054629f01ffb00287ddcb9f1000f40f0a2
:103e3800888063e6d60708d59ded046b91ed007b7d
:103e480026ee077b8ded047b012052100831e0e659
:103e58004ff0ff3101fa02f202ea0a0afae6c6f165
:103e68007f4606f57f0606f57b46e23601fa06f33d
:103e78000f9310915ee700230f930123109359e7e6
:103e88001a46169920461ff0a1fa1690002881d1eb
:103e98002ae641460e9a20461ff096ff80460028e3
:103ea8007ff47baf20e600bf9535a094ffffdf3f8e
:103eb80035e5af350000e03f9535a094ffffcf3fd3
:103ec800a8ea420002fcffff40f08480069acbf388
:103ed800130322b3b64a9342594652d15046b9f118
:103ee800000f19d0b34b0b40b3f1d46f4ff0ff3232
:103ef80003d81b0dc3f16b039a40824241d1ae4bec
:103f0800994202d101323ff4efadaa4b0b4003f5c1
:103f1800801b4ff0000a88e74ff0ff32ede783bbc4
:103f2800baf1000f2dd12bf000431b0d1b05b9f181
:103f3800000f1dd0b3f1d66f1adcb3f15c7f7ff7a9
:103f480047ae9e4b0b9300230a939ded0a6b4becf7
:103f580017ab27ee067b5bec17abbbf1000f7ff4ca
:103f6800cdadbaf1000f7ff4c9ad22232360c5e5ba
:103f7800a3f580136fea135b6fea0b5b4ff0ff3a10
:103f880053e70f9b8bb113ea0b0f3ff44eaf069b21
:103f98004a465046594663b129f04afa9ded087bd6
:103fa80037ee007b5bec17ab3fe7109b13ea0a0f79
:103fb800ebe729f03dfa9ded087b37ee407b8ded70
:103fc800067bb5ee407bf1ee10fadde906ab3ff477
:103fd800ffad2ae73946284626f0d2f9b0ee007b35
:103fe800b4eec70bf1ee10fa64d8069b002b41d053
:103ff800734b0022b7ee008b6e48724900ea0b063d
:104008008e4240f086800f90dde90801abf1547bc9
:104018004bec10ab43ec1c2bcde90a0125f0b4fea8
:104028004bec1dab0f98acee00db5bec1dab664bad
:1040380000ea0b029a4247d90b9a03f154739a4249
:1040480003d10a9b01333ff44faddff86cb14ff059
:10405800ff3a1699204629f029fe4146204629f0c4
:1040680025fe3946204629f021fe2946204629f01a
:104078001dfe13e6baf1000f12d1cbf31303b3b947
:10408800b7ee007bb4eec70bf1ee10fab6ee008b7c
:1040980001d420ee088bb1ee487b53ec172babe72d
:1040a800baf1010f03d1bbf1000f3ff491ad00222b
:1040b800464b9fe7069bb6ee008b20ee088b002b45
:1040c800e9d053ec182b97e70bf1547bb9f1000fab
:1040d800bfd12bf000431b0d1b059e42b9d1bdee8d
:1040e800c80b069bb8eec00b38ee408b2bb9baf163
:1040f800000f02d1cbf31302e2b3b4eec98bf1ee99
:1041080010fa3ff5fbacb4eeca8bf1ee10faa0dd65
:10411800f4e4b9f1000f1dd0b6f1d46f1ad89fedb1
:10412800227bb4eec78bf1ee10fa10d8fceec87bf8
:1041380017ee903a002b08bf012307ee903a069b32
:10414800b8ee678b9bb9b1ee487b53ec172b03f1a4
:10415800d6618b1b9ded080b43ec1c2b25f014fe40
:104168009ded087bacee007b5bec17abaee753ec48
:10417800182bece7b4eecb8bf1ee10fa7ff569afb4
:10418800bce400230c93119a159b1360fff78ebab9
:10419800652a4ff000013ff4ecab01270b46089766
:1041a800fff700bbaff300800000c0ffffffdf4157
:1041b800ffff0f000000f07fffffef7f0000503986
:1041c8000000f03f0000e07fffff9f7c0000f0bf91
:020000040000fa
:020000040040ba
:1041d8002de9f04f57ec106b95b0cde90067466ab2
:1041e800079105460b9210931e9c3eb910202df0a6
:1041f80083fb6862466086600660c6606b6a196801
:1042080051b15a684a60012393408b60284629f0cf
:104218004dfd6b6a00221a60019b002bbfbf012372
:104228002360019b23f00043b2bf01930023236066
:10423800019c734ba34318d1109a42f20f73136079
:10424800009b23b9c4f31304002c00f018851f9bae
:104258003bb96c4b1de06c4b049308331f9a1360f9
:10426800a6e2684b04930333f8e79ded007bb5eeb7
:10427800407bf1ee10fa8ded047b0cd1109a0123ee
:1042880013601f9b002b00f0f784604b1f9a13608c
:10429800013b04938ce213a912aa9ded040b284656
:1042a8001ff059fcc4f30a5103901298002946d014
:1042b800dde90423c3f3130444f07f53a1f2ff3a6a
:1042c80043f44013002107ee90aa43ec162bb8eef6
:1042d800e75b9fed454bb7ee087b36ee477b9fedde
:1042e800446ba7ee046bb0ee467b9fed436ba5eee7
:1042f800067bfdeec76bb5eec07bf1ee10fa1191af
:1043080016ee90ba08d5b8eee66bb4ee467bf1ee41
:1043180010fa18bf0bf1ff3bbbf1160f31d83c4b1d
:1043280003ebcb0393ed007b9ded006bb4eec67bf6
:10433800f1ee10fa01dd0bf1ff3b002322e01399a7
:10434800014401f23243202b15dd009e01f2124296
:10435800c3f1400326fa02f204fa03f31a4307ee04
:10436800902ab8ee677b01f1ff3a53ec172b012135
:10437800a3f1f873a7e7c3f12002009b03fa02f246
:10438800ede70123a0eb0a0abaf1010746bfcaf11b
:10439800010a00274ff0000abbf1000f0d93bcbfc4
:1043a80000230c93079ba3bfcdf830b05f444ff0b8
:1043b8000008aaeb0b0ab8bfcbf10008092b00f2e2
:1043c800f880052bc4bf043b0793079ba3f10203a6
:1043d800ccbf00240124032b00f2f780dfe813f0a0
:1043e800e500e7001a00d90061436f63a787d23f51
:1043f800b3c8608b288ac63ffb799f501344d33fcc
:104408000000f07f19194300101943001e194300da
:10441800d80c420001230a930b9b002b40f3d88051
:10442800069399466e6a00227260042101f1140213
:104438009a4240f2d2807168284623f0cffd6b6a19
:1044480030601b680493b9f10e0f75d8002c73d037
:104458009ded007bbbf1000f8ded0e7b40f3ce8010
:10446800b54a0bf00f0302ebc3034fea2b1293ed8f
:10447800007bd30640f1b680b04b9ded0e4b93ed1b
:10448800086b84ee065b8ded005b02f00f020323e0
:10449800aa49002a40f0a8809ded005b85ee076bd5
:1044a8008ded006b0d9a002a00f0da80b7ee006bf4
:1044b8009ded007bb4eec67bf1ee10fa40f1d080a2
:1044c800b9f1000f00f0cc80069a002a30ddb2ee78
:1044d800046b27ee067b8ded007b069c0bf1ff320b
:1044e80001339ded006bb1ee0c5b07ee903ab8ee30
:1044f800e77ba7ee065b8ded005b019ba3f1507394
:104508000193002c40f0af80b1ee047b36ee476b90
:104518009ded007bb4eec76bf1ee10fa00f300835b
:10452800b1ee477bb4eec76bf1ee10fa00f1f682fc
:10453800dde90e34cde90034139b002bc0f258811d
:10454800bbf10e0f00f354817b4b03ebcb0393edd0
:10455800006b0b9b002b80f2f380b9f1000f00f386
:10456800ef8040f0da82b1ee047b26ee076b9ded1a
:10457800007bb4eec76bf1ee10fa4c464e4680f263
:10458800ac82049b0499312201330a700bf1010bb0
:10459800a7e201230a930b9b5b4403f101090693ed
:1045a8004b46012bb8bf01233ce7002333e7002328
:1045b800f0e70124002307930a944ff0ff33069392
:1045c8009946002212230b922ce701230a93f4e761
:1045d8000123069399461a46f5e77268013272601c
:1045e800490023e7022353e7d60704d591ed006b72
:1045f800013327ee067b521008314ae72ed0cbf163
:1046080000024d4b02f00f0103ebc10393ed007b59
:104618009ded0e6b26ee077b8ded087bdde90834fa
:104628004649cde900341211002002233ab9002886
:104638003ff438afdde90812cde9001232e7d407bc
:1046480009d59ded086b91ed007b26ee077b8ded7e
:10465800087b0133012052100831e7e7022321e7e4
:104668005a464c463de70498334b611e04440a9869
:1046780003ebc10393ed005b58b3b6ee004b84ee39
:10468800057b9ded005bb7ee002bb2ee043b049b6f
:1046980037ee457bfdeec64b14ee901ab8eee45ba0
:1046a800303136ee456bb4eec76bf1ee10fa03f815
:1046b800011b39d432ee465bb4eec75bf1ee10fa5b
:1046c8007bd4a3423ff434af27ee037b26ee036b83
:1046d800e0e79ded007bb2ee043b049b25ee075b13
:1046e800fdeec64b14ee901a303103f8011b9c42c4
:1046f800b8eee47b36ee476b1ad1b6ee007b35eeaa
:10470800074bb4eec46bf1ee10fa56dc37ee455b9e
:10471800b4eec56bf1ee10fa7ff50aaf13f8011c81
:10472800302903f1ff3001d0934631e00346f5e725
:1047380026ee036bd4e700bfd80c4200d0ea420053
:104748009ded007bb1ee463bb2ee044b049b87ee39
:10475800065bbdeec55b15ee102a303203f8012b5f
:10476800049a9a1a9145b8eec52ba3ee027b37d16d
:1047780037ee077bb4eec76bf1ee10fa1cd4b4ee3b
:10478800476bf1ee10fa03d115ee102ad20713d4b5
:1047980003990093284629f089fa009b1099002272
:1047a8001a700bf101020a601f9a002a7ff457adb4
:1047b800049815b0bde8f08f5a4613f8010c392853
:1047c80003f1ff3106d10498884207d130210170e6
:1047d80001320146087801300870a5e70b46ece77e
:1047e80027ee047bb5ee407bf1ee10faafd1cfe7b0
:1047f8000a9a002a00f02981079a012a00f30b81fe
:10480800119a002a00f0038103f233434446cdf89d
:1048180020a0012128469a441f442cf090ff064608
:10482800089b002b0add002f08ddbb42089aa8bfb1
:104838003b46d21aaaeb030a0892ff1ab8f1000ff6
:104848001fd00a9b002b00f00581002c11dd31469a
:10485800224628461ff0b8fa039a0146064628461b
:1048680015f0c2fe03990e90284629f01ffa0e9bf8
:104878000393b8eb040204d0039928461ff0a4fa66
:104888000390012128462cf05aff0c9b002b04466c
:1048980040f3e2801a46014628461ff095fa079b26
:1048a800012b044640f3db804ff00008236904eb3a
:1048b8008303186927f012fac0f12000384410f079
:1048c8001f0000f0f180c0f12003042b40f3e380c7
:1048d800089bc0f11c000344824408930744baf1c2
:1048e800000f05dd5246039928461ef06ffd039020
:1048f800002f05dd21463a4628461ef067fd04468e
:104908000d9b002b00f0d2802146039828f0aafdc9
:10491800002880f2cb8000230a220399284622f03f
:1049280019f90a9b03900bf1ff3b002b00f0ae81b5
:10493800002331460a22284622f00cf9069b002b58
:10494800064603dc079b022b00f3b880089b002b6c
:1049580005dd31461a4628461ef038fd0646b8f1f0
:10496800000f00f015817168284623f037fb326983
:1049780002320746920006f10c010c302cf055fc6f
:104988000122394628461ef021fd009b049f03f0b2
:104998000103b146089306462146039816f0e2f84b
:1049a8004946824600f13008039828f05bfd3246fc
:1049b8000090214628461cf017fec3680246002bcb
:1049c80040f0e88001460a90039828f04bfd0a9ac7
:1049d8000346114628460a9329f068f90a9b002bda
:1049e80040f0da80079a002a40f0d680089a002a18
:1049f80040f0d280b8f1390f00f0ee80009b002b18
:104a080001dd0af131087b1c87f800806be0129bfe
:104a1800c3f13603fae609f1ff34a045bfbf0c9b8a
:104a2800a4eb080843440c93b6bfa046a8eb0404c3
:104a38000024b9f1000fbbbfaaeb09030893cdf816
:104a480020a00023a8bf4b46e3e64446cdf820a0ab
:104a58000a9ee5e642460fe7079b012b16dc009b02
:104a6800a3b9019bc3f3130383b9019b23f000434c
:104a78001b0d1b056bb10af1010a01374ff0010844
:104a88000c9b002b7ff412af012017e74ff00008b2
:104a9800f6e79846f4e73ff422af089a1c331a4425
:104aa8009a4408921f441ae70346f6e7b9f1000f43
:104ab80039dc079b022b36ddcdf81890069b63b9cd
:104ac80021460522284622f045f801460446039867
:104ad80028f0c8fc00283ff754ad0b9b6fea030b86
:104ae800049b4ff0000921462846009329f0def880
:104af800009b002e3ff44caeb9f1000f06d0b14533
:104b080004d04946284629f0d1f8009b0093314645
:104b1800284629f0cbf8009b3ae600242646dce735
:104b2800934626462de50a9bcdf81890002b7ff476
:104b38000daf049f0398214616f014f800f13008d1
:104b480007f8018b049b069afb1a9a4200f38180ae
:104b5800049b012aacbf9b1801331f464ff0000984
:104b68000122039928461ef031fc2146039028f0c3
:104b780079fc002833dc02d118f0010f2fd13b4615
:104b880013f8012c302a03f1ff31acd10b46f7e7bb
:104b98003046fae601231ce7009a002a04db27d1f5
:104ba800079a2abb089a1abb002b7ff72caf012261
:104bb800039928461ef00afc2146039028f052fc6f
:104bc800002805dc7ff41faf18f0010f3ff41baf7e
:104bd800b8f1390f7ff415af39233b7001373b46e5
:104be80013f8012c392a03f1ff313ad001323fe0a2
:104bf800002b07f1010305ddb8f1390fecd008f1fe
:104c0800010801e71f4603f8018c049b069afb1a6a
:104c18009342a5d000230a220399284621f09aff3f
:104c2800b14503904ff000034ff00a024946284669
:104c380004d121f08fff81460646ade621f08affb8
:104c48003146814600230a22284621f083ff064682
:104c5800a2e600230a220399284621f07bff03904d
:104c680068e7049a8a4205d104990bf1010b3122b5
:104c78000a7038e70b46b3e7094bfff70abb1f9bdf
:104c8800002b7ff4e8aa074bfff703bb069b002b1a
:104c98003ff74faf079b022b7ff74baf0ee700bfe5
:084ca8001d194300101943001f
:020000040000fa
:020000040040ba
:104cb00090b5a1b000aff860b9607a603b6007f1d1
:104cc0000c0318461ff018fef864fb6c002b02da88
:104cd0000b2300f09ebca74afb6c52f82330002b3c
:104ce00005d0a44afb6c52f8233000221a70a24a65
:104cf000fb6c12f8133087f84b309f4afb6c5b005b
:104d000013445b7887f84a30bb68002b01d19b4b7a
:104d1000bb6097f84b3018462af050fb034687f8e3
:104d2000493097f8493003f00103002b02d00323e8
:104d300000f06fbc97f8493003f00403002b02d059
:104d40000a2300f066bcbb685b683b623b6a002bd1
:104d50000cd107f1200297f84b300321184621f0bf
:104d600087fe0346002b01d001233b623b6a002be8
:104d700009d03b6ab3f5004f05d83b6a5a1e3b6a1f
:104d80001340002b01d001233b624ff40073a7f8be
:104d90004630bb681b7803f00f0387f84530bb68cb
:104da0005b78002b06d0bb685b78022b02d8bb680f
:104db0005b7800e001233b64bb689b68002b14d048
:104dc000bb689b68b3f5004f0fd8bb689b68b7f80a
:104dd0004620520992b2b3fbf2f102fb01f29b1a98
:104de000002b02d1bb689b6801e04ff40073fb63aa
:104df000bb68db68b3f1807f0ad8bb68da68bb6840
:104e0000db68013b1340002b02d1bb68db6800e08c
:104e100000237b65b7f846307a6db2fbf3f37b6510
:104e2000b7f846303a68b2fbf3f3bb63bb6b002bb9
:104e300001d11123ede37b687b637b6b002b01d1f8
:104e40001123e6e30023fb61fb69fb6697f84a3018
:104e5000002b3cd097f84b0001230022796b11f016
:104e6000e9ff0346002b01d00123d2e37b6b03f55e
:104e7000ff73184628f06efc03461a464af655237f
:104e80009a4201d00e23c4e397f84a30013b1b013c
:104e900003f5df731a467b6b13443b6397f84a3084
:104ea000042b04d83b6b04331b78002b01d10e2359
:104eb000afe33b6b0833184625f05cfef8663b6bae
:104ec0000c33184625f056fe0346fb611be007f144
:104ed0001c0297f84b300121184621f0c9fd03460a
:104ee000002b01d0012394e397f8453003f0080329
:104ef000002b08d1fb693f2b05d93f23fb66fa69dc
:104f0000fb6ed31afb61fb697f2b01d80e2380e374
:104f10007b6d802b01d980237b6597f8453003f0aa
:104f20000203002b09d097f8453003f00103002b52
:104f300003d1032387f87f300ae097f8453003f068
:104f40000103002b01d1132363e3022387f87f3091
:104f50007b6dbb6797f87f30032b45d1bb6f002b70
:104f600022d1fb695b0c3b6700233b650123bb67d8
:104f70000ce000bf48d54120a83141209c174300d8
:104f80003b6d01333b65bb6f5b00bb67974a3b6d75
:104f900032f81330002b07d0944a3b6d32f81330af
:104fa0001a463b6f9a42ebd9fa69bb6fb2fbf3f337
:104fb000fb62fb6a02339a00b7f8463013445a1e6c
:104fc000b7f84630b2fbf3f3fb6520233b660023c2
:104fd000bb65fb6a4ff6f572934203d9fb6a844abc
:104fe00093424dd90e2314e3bb6f002b1bd1fb69f9
:104ff0001b0b3b6700233b650123bb6705e03b6d53
:1050000001333b65bb6f5b00bb677a4a3b6d32f88f
:105010001330002b07d0774a3b6d32f813301a4615
:105020003b6f9a42ebd9fa69bb6fb2fbf3f3fb62b9
:10503000fb6a40f6f572934204d9fb6a02335b00c7
:105040003b670ae0012387f87f30fa6a13465b006a
:10505000134401335b0803333b67b7f846203b6fcb
:1050600013445a1eb7f84630b2fbf3f3fb65012335
:105070003b66fb6b5a01b7f84630b2fbf3f3bb65f6
:10508000fa6e3b6e1344bb66fb6d3a6c02fb03f297
:10509000bb6e1a44bb6d1344bb623a6abb6a1344cd
:1050a0005a1e3b6a5b421a40bb6ad31a3b6797f8a9
:1050b0007f30032b08d13a6e3b6f13443b66ba6ec8
:1050c0003b6f1344bb6619e03b6f3a6cb3fbf2f2e3
:1050d000396c01fb02f29b1a002b08d03b6f013b9d
:1050e0003b673b6e01333b66bb6e0133bb663a6f79
:1050f0003b6cb2fbf3f3fa6d1344fb65bb6f1a0113
:10510000bb6a1a44fb6ed21afb699a4201d90e237c
:105110007fe2fa693b6ed21afb6d396c01fb03f337
:10512000d21abb6dd21abb6fb2fbf3f3fb6297f8d6
:105130007f30032b0fd1fb6a4ff6f57293420ad8ea
:105140007b6d002b05d1bb6f5b087b657b6d002bf6
:1051500045d10e235de297f87f30022b34d1fb6af4
:105160004ff6f57293421fd97b6d002b07d1bb6fb1
:105170005b00402b03d8bb6f5b007b6534e097f886
:10518000453003f00203002b03d0032387f87f3060
:105190002ae07b6d002b05d1bb6f5b007b657b6dcf
:1051a000802b1ed90e2334e2fb6a40f6f57293423f
:1051b0000ad87b6d002b05d1bb6f5b007b657b6dd7
:1051c000802b10d90e2324e297f87f30012b13d1c6
:1051d000fb6a40f6f57293420ed90e2319e200bf26
:1051e000b6e600bfb4e600bfb2e600bfac174300ae
:1051f000f5ffff0fbc17430000bfb7f846301a4653
:105200000021786b28f048f80b22b749786b26f01c
:105210000df87b6b0b33b7f846201146184627f084
:10522000f9fe7b6b0d33ba6fd2b21a707b6b0e3303
:105230003a6e92b21146184627f0ecfe7b6b1033a3
:105240003a6cd2b21a707b6b03f1110297f87f307f
:10525000032b02d0fb6b9bb200e0002319461046e3
:1052600027f0d8fefb69b3f5803f08d27b6b133380
:10527000fa6992b21146184627f0ccfe06e07b6b25
:105280002033fa691146184623f016ff7b6b15335d
:10529000f8221a707b6b18333f21184627f0bafeac
:1052a0007b6b1a33ff21184627f0b4fe7b6b1c334f
:1052b000f96e184623f000ff97f87f30032b31d1a9
:1052c0007b6b03f1430424f057fb03461946204649
:1052d00023f0f2fe7b6b2433f96d184623f0ecfecd
:1052e0007b6b2c330221184623f0e6fe7b6b3033b8
:1052f0000121184627f08efe7b6b323306211846bb
:1053000027f088fe7b6b403380221a707b6b423320
:1053100029221a707b6b473313227449184625f0f3
:1053200085ff20e07b6b03f1270424f025fb034677
:105330001946204623f0c0fe7b6b1633fa6d92b2fd
:105340001146184627f066fe7b6b243380221a70c4
:105350007b6b263329221a707b6b2b331322644913
:10536000184625f063ff7b6b03f5ff734af6552162
:10537000184627f04ffe97f84b000123fa6e796b21
:1053800011f00cfe0346002b01d0012341e197f8f8
:105390007f30032b41d1fb6e9a1d97f84b00012300
:1053a000796b11f0fbfdb7f846301a460021786b97
:1053b00027f072ff4f49786b23f07efe7b6b03f57d
:1053c000f2734d49184623f077fe7b6b03f5f472b8
:1053d000fb6a013b1946104623f06efe7b6b03f51a
:1053e000f6730221184623f067fe7b6b03f5ff730b
:1053f0004af65521184627f00dfefb6eda1d97f888
:105400004b000123796b11f0c9fdfb6e5a1c97f814
:105410004b000123796b11f0c1fdb7f84630ba6b30
:1054200002fb03f31a460021786b27f035ffbb6eb1
:105430007b6600233b654ce097f87f30032b13d14c
:105440006ff00701786b23f037fe7b6b04334ff06e
:10545000ff31184623f030fe7b6b08336ff070414c
:10546000184623f029fe0be097f87f30012b01d17d
:10547000224b01e06ff007031946786b23f01cfe06
:10548000fb6d7b677a6fbb6b934228bf13463b670c
:1054900097f84b003b6f7a6e796b11f07ffd0346f6
:1054a000002b01d00123b4e0b7f846301a460021a2
:1054b000786b27f0f1fe7a6e3b6f13447b667a6f50
:1054c0003b6fd31a7b677b6f002bdbd13b6d0133c6
:1054d0003b653a6d3b6c9a42aed397f87f30032b15
:1054e0000ed1bb6f0de000bf509642005c964200ab
:1054f000709642005252614172724161f8ffff00a2
:10550000bb6d7b677a6fbb6b934228bf13463b67cb
:1055100097f84b003b6f7a6e796b11f03ffd0346b5
:10552000002b01d0012374e07a6e3b6f13447b663d
:105530007a6f3b6fd31a7b677b6f002be2d197f8b2
:105540007f30032b03d10c2387f87e3010e0fb69fa
:10555000b3f5803f03d3062387f87e3008e097f841
:105560007f30022b01d1042300e0012387f87e3035
:1055700097f84a30002b22d097f84b0001230022e5
:10558000796b11f057fc0346002b01d0012340e05a
:1055900097f84a30013b1b0103f5e1737a6b134422
:1055a00097f87e201a7097f84b0001230022796b40
:1055b00011f0f4fc0346002b1ed0012329e097f8dc
:1055c000453003f00803002b16d1fb697b610023f3
:1055d000bb6197f87e2007f1140197f84b007b6bb5
:1055e00009f02eff034687f8273097f82730002b65
:1055f00002d097f827300ce097f84b3000220021ba
:10560000184621f035fa0346002b01d0012300e0b3
:0c561000002318468437bd4690bd00bf43
:020000040000fa
:020000040040ba
:10561c0090b587b000af2bf059fa0346fb75fb7db4
:10562c00112b00f2598401a252f823f0815640004c
:10563c00ab564000855a4000095840007f58400046
:10564c0009594000ab594000395a4000795a400082
:10565c00af5a4000f35a40005d5b4000615c400073
:10566c00ab5c40000d5d4000035e4000b55e400049
:10567c00b1564000924b00221a60924b00221a60e5
:10568c002cf0cef88e4b1b68dbb2184624f062fa75
:10569c008c4b1b68184625f016fb00f030bc8a4b6f
:1056ac0000221a7002202af023f802202af010f8a7
:1056bc0026f0b8fc03461a46814b1a6026f0eefc25
:1056cc0003461a467f4b1a60804829f0cefd7c4b6e
:1056dc001b6807ee903af8eee77a0320b0ee670a03
:1056ec002af08dfc7a4829f0c0fd764b1b6807ee3a
:1056fc00903af8eee77a0320b0ee670a2af07ffcc6
:10570c00744b00221a70744b00221a702bf0d2f9d1
:10571c0003461c461ff0c0fc03461946204624f0e5
:10572c0053f80346002b08d06a4b01221a70022052
:10573c0029f0beff2af07efbd0e32bf087fa03465c
:10574c0083f00103dbb2002b0cd02cf045f903469f
:10575c00002b01d02cf016f9604b00221a615f4b24
:10576c0000225a612af066fb13f0a4fa5c4b5b69c9
:10577c0007ee903af8eee77a5a4bc3ed007a1df03b
:10578c0037fcf0ee407a584bc3ed007a544b1b7942
:10579c00184628f0c9f80346002b06d0534829f0c8
:1057ac0064fd0c2029f084ff98e34d4b1b79002bf2
:1057bc000fd12bf0edfd012022f0dafc4ef660202b
:1057cc0028f042fc032029f073ff494b02221a6097
:1057dc0084e3434b1b79012b40f080832bf0e2fddb
:1057ec00002022f0c5fc4ef6602028f02dfc032092
:1057fc0029f05eff3e4b02221a606fe32af0bafedc
:10580c0003461c462af0aafe03469c4240f06883dd
:10581c002af01cff03461c462af00cff03469c4250
:10582c0040f05e831ff038fc0346002b05d01ff0c0
:10583c0033fc0346012b40f053832bf00bf903464a
:10584c00062b05d02bf006f903460f2b40f04883ae
:10585c00042029f02dff002029f05aff21f062fad4
:10586c00244b1b78012b40f03b83224b00221a70f7
:10587c0036e3214b1b78012b06d11df05dfc16f095
:10588c0079fb1d4b02221a701b4b1b78032b04d186
:10589c001df052fc184b04221a70124bd3ed007af7
:1058ac00b0ee670a28f08efb0346002b00f01a833b
:1058bc00022029f02dff052029f0fafe12e300bf8b
:1058cc00e4d54120e8d54120b52a412004fa400016
:1058dc0018fa4000d9d64120dad6412044d14120d3
:1058ec0030d24120fcd5412000d641201cfa40008a
:1058fc007c244120cfd641209c224120c34bd3eda8
:10590c00007ab0ee670a28f073fb0346002b05d033
:10591c00022029f0edfe092029f0cafe14231a46b4
:10592c00bb4b1b689a4209dd14231a46b84b1a600c
:10593c00b74b1b68dbb2184623f0c0fc14231a4685
:10594c00b44b1b689a4208dd14231a46b14b1a60fb
:10595c00b04b1b68184625f0d9f9002029f0c8fe79
:10596c00062029f0a5feac4829f07ffca84b1b684b
:10597c0007ee903af8eee77a0320b0ee670a2af0c9
:10598c003efba64829f071fca24b1b6807ee903a2f
:10599c00f8eee77a0320b0ee670a2af030fb2bf022
:1059ac0051fa0346012b0bd12bf058fa0346032b6b
:1059bc0004d02bf053fa0346072b01d10ff010ff44
:1059cc0021f076f90346022b1ed1954829f04dfca7
:1059dc008f4b1b6807ee903af8eee77a0320b0ee97
:1059ec00670a2af00cfb8d4829f03ffc894b1b6899
:1059fc0007ee903af8eee77a0320b0ee670a2af049
:105a0c00fefa072029f054fe804bd3ed007ab0ee5d
:105a1c00670a28f0edfa0346002b00f0658202209d
:105a2c0029f066fe092029f043fe5de22bf00afa0c
:105a3c000346012b0bd12bf011fa0346032b04d098
